:020000040800F2
:100000007897002079020008A10600089F050008E3
:100010009F06000815040008750E00080000000087
:10002000000000000000000000000000C101000806
:100030002F04000800000000150200084D09000808
:10004000930200089302000893020008930200083C
:10005000930200089302000893020008930200082C
:10006000930200089302000893020008930200081C
:10007000930200089302000893020008930200080C
:1000800093020008930200089302000893020008FC
:1000900093020008930200089302000893020008EC
:1000A00093020008930200089302000893020008DC
:1000B00093020008930200089302000893020008CC
:1000C00093020008930200089302000893020008BC
:1000D00093020008930200089302000893020008AC
:1000E000930200089302000893020008930200089C
:1000F000930200089302000893020008930200088C
:10010000930200089302000893020008930200087B
:10011000930200089302000893020008930200086B
:10012000930200089302000893020008930200085B
:10013000930200089302000893020008930200084B
:10014000930200089302000893020008930200083B
:10015000930200089302000893020008930200082B
:10016000930200089302000893020008930200081B
:10017000930200089302000893020008930200080B
:1001800093020008930200089302000893020008FB
:1001900093020008930200089302000893020008EB
:1001A000930200089302000893020008DFF80CD0C5
:1001B00000F0A6F800480047411300087897002097
:1001C0002A4B19680868B0E8F04F80F30988BFF33C
:1001D0006F8F4FF0000080F311887047000000001F
:1001E00006480068006880F3088862B661B6BFF30D
:1001F0004F8FBFF36F8F00DF00BF00BF08ED00E03F
:10020000DFF80C00016841F470010160704700BF25
:1002100088ED00E0EFF30980BFF36F8F134B1A688E
:100220001EF0100F08BF20ED108A20E9F04F10607B
:1002300008B44FF0500080F31188BFF34F8FBFF325
:100240006F8F01F047FE4FF0000080F3118808BC6B
:1002500019680868B0E8F04F1EF0100F08BFB0EC46
:10026000108A80F30988BFF36F8F70473000002039
:10027000EFF30580704700000648804706480047B6
:10028000FEE7FEE7FEE7FEE7FEE7FEE7FEE7FEE746
:10029000FEE7FEE761090008AD0100082DE9F05F07
:1002A0000546002092469B468846064681464024E5
:1002B0001BE0284641464746224600F042F8534696
:1002C0005A46C01A914110D311461846224600F0F2
:1002D00029F82D1A67EB01084F462246012000211C
:1002E00000F020F817EB00094E41201EA4F1010494
:1002F000DFDC484631462A464346BDE8F09F000011
:10030000064C074D06E0E06840F0010394E8070062
:1003100098471034AC42F6D3FFF74CFFE8220008B0
:1003200008230008202A04DB203A00FA02F100200A
:1003300070479140C2F1200320FA03F31943904023
:100340007047202A04DB203A21FA02F0002170478E
:1003500021FA02F3D040C2F120029140084319462D
:10036000704700001CB501F033FB02201349040262
:10037000CDE900010023224611A1144801F08CFEB2
:10038000012802D112A000F077FD0C490320091DBD
:10039000CDE900010023224614A1174801F07CFE9C
:1003A000012802D115A000F067FD0448001F006875
:1003B00001F014FCBDE81C4001F046BB2800002001
:1003C000546573745F5461736B000000150D000871
:1003D000B4B4BDA8546573745F5461736BC8CECE5A
:1003E000F1B3C9B9A6210D0A000000004B45595FC1
:1003F0005461736B00000000A1050008B4B4BDA8EF
:100400004B45595F5461736BC8CECEF1B3C9B9A6E1
:10041000210D0A00FEE710B500F038FC00F0E2FA0A
:10042000FF22BDE810401146104600F00FBA704799
:10043000F0B5012187B0084600F070F901211020C5
:1004400000F090F9012500248DF806408DF8075042
:1004500002266802254F8DF8056000908DF8046033
:100460006946384600F046F8A80200908DF804600E
:100470006946384600F03EF807220A21384600F067
:1004800075F807220921384600F070F84FF4E13082
:10049000ADF80C400290ADF80E40ADF81040ADF84C
:1004A00014400C20124CADF8120002A9204600F0B6
:1004B00087FC4FF4A06000F027F925208DF8180084
:1004C0008DF819508DF81A508DF81B5006A800F0C1
:1004D000E9F8012240F22551204600F058FC0121A4
:1004E000204600F043FC07B0F0BD000000000240D1
:1004F00000100140F0B5002201274FF0030C0B68FB
:1005000007FA02F52B40AB422CD1066853000CFAD7
:1005100003F4A64306600E79D0F800E09E4046EA58
:100520000E0606600E79012E01D0022E12D18668C9
:10053000A64386604E79D0F808E09E4046EA0E0653
:1005400086604668AE43466045688E799640B6B28E
:1005500035434560C568A543C560CC799C40C368F8
:100560001C43C460521C102AC9D3F0BD4B07DB0EDC
:100570009A40C90810B500EB8100016A0F249C4025
:10058000A1430162016A1143016210BD02460020CD
:1005900012690A4200D00120704741837047FEE78C
:1005A000134D144F144C4FF400560121284600F00F
:1005B00065F8012808D111A000F05EFC606801F028
:1005C00015FC12A000F058FC3146384600F056F8F1
:1005D000012808D112A000F04FFC606801F068FB10
:1005E00013A000F049FC142001F0BEFADDE7000082
:1005F000000002400008024024000020B9D2C6F0EA
:1006000054657374C8CECEF1A3A10A00B9D2C6F066
:1006100054657374C8CECEF1B3C9B9A6A3A10A00BC
:10062000BBD6B8B454657374C8CECEF1A3A10A008A
:10063000BBD6B8B454657374C8CECEF1B3C9B9A6ED
:10064000A3A10A001CB50121052000F067F80120D4
:10065000009000208DF80400074C8DF807006946D3
:100660002046FFF747FF4FF40051009169462046AE
:10067000FFF740FF1CBD00000008024070B50C46AB
:100680000546FFF783FF012801D0002070BD2146F9
:100690002846FFF77BFF0128F9D0012070BDFEE757
:1006A0007047000030B50F23C27801780125FAB1F8
:1006B000144A126801F1E02102F4E062C2F5E0623E
:1006C000C2F30722C2F10404D3404278A2408478E6
:1006D0001C401443220181F80024007800F01F011F
:1006E0008D404009800000F1E020C0F8005130BD8D
:1006F00001F01F0085404809800000F1E020C0F8AB
:10070000805130BD0CED00E0024908430249086009
:10071000704700000000FA050CED00E0044A0029D3
:10072000116801D0014300E081431160704700006F
:1007300030380240044A0029116801D0014300E02A
:10074000814311607047000034380240044A002998
:10075000116801D0014300E081431160704700003F
:1007600040380240044A0029116801D0014300E0EA
:1007700081431160704700004438024070B5204B3F
:100780001968204C11F00C0104D01F4E042903D02D
:10079000082903D004601BE0066019E0184A121F04
:1007A0001168C1F38055116801F03F0115B1B6FB26
:1007B000F1F101E0B4FBF1F114681268C4F388149C
:1007C0006143C2F30142521C5200B1FBF2F10160DD
:1007D00019680F2202EA11110C4A545C0168E140C9
:1007E00041601C68072505EA9424145D21FA04F48D
:1007F00084601B6805EA5333D25CD140C16070BD90
:10080000083802400024F40040787D0114000020E4
:1008100005490028086802D040F0040001E020F0FB
:10082000040008607047000000080650034A0146B3
:10083000002012680A4200D00120704704080650C8
:10084000014800687047000008080650034B186014
:10085000181D0160001D026070470000340C00404C
:10086000054BC0F30742C0F30721C0B21A601A1D3E
:100870001160111D08607047340C00401CB5002148
:100880002E4A00910191106840F4803010604FF4BE
:10089000A043106800F4003001900098401C0090C4
:1008A000019810B900989842F3D11068800342D59E
:1008B0000120019021484030016841F080510160E1
:1008C0001F49086840F4404008601C48083003682D
:1008D0000360036843F400430360036843F4A053D8
:1008E0000360041F174B2360136843F08073136089
:1008F00013689B01FCD50A6842F480320A604A689A
:10090000D203FCD50A6842F400320A604A689203B6
:10091000FCD50D4A40F205711160016821F0030118
:100920000160016841F0020101600168C1F38101C9
:100930000229FAD11CBD01911CBD00000038024003
:1009400000700040195A4007003C024010B501F009
:10095000CFFB012803D0BDE8104001F087BB10BDDC
:10096000124810B5016841F4700101601048016837
:1009700041F0010101600E4A002108321160026855
:100980000C4B1A400260031D0B4A1A60026822F4E5
:100990008022026006480C300160FFF76FFF0349B8
:1009A0004FF000608039086010BD000088ED00E065
:1009B00000380240FFFFF6FE1030002400290188B5
:1009C00002D041F0800101E021F0800101807047F8
:1009D0000029018802D041F0010101E021F001016C
:1009E0000180704730B589B001210820FFF7AEFEC5
:1009F000FF2006902148224900240068214DB0FBC9
:100A0000F1F0C0EB00104FF0FF3101EB4000ADF80A
:100A10001400ADF81C40ADF8164005A9284600F0BA
:100A2000F7F86021ADF800100120ADF802000220B7
:100A3000ADF80C0002946946284600F025F808211C
:100A4000284600F051F86946284600F053F808217E
:100A5000284600F08FF86946284600F095F80821EE
:100A6000284600F0CFF801212846FFF7A7FF012113
:100A70002846FFF7ADFF09B030BD000000000020A0
:100A800080841E00000C004030B5028C22F0010270
:100A90000284028C8388048B22F0020224F0730506
:100AA0000C882C438D8915434A882A430C4DA84253
:100AB00002D00C4DA8420DD122F00805CA8923F4BA
:100AC00040732A4322F004058A882A430D8A1D4375
:100AD0004B8A2B438380048389684163028430BD41
:100AE0000000014000040140028B22F008020A438A
:100AF0000283704770B5028C22F010020284028CCF
:100B00008388048B0D8824F4E6464FF6FF7404EACC
:100B1000052535438E8922F0200204EA0616164385
:100B20004A8804EA02123243104EB04202D0104EFC
:100B3000B04215D122F08006CA8923F4406304EA4A
:100B40000212324322F040068A8804EA021232433B
:100B50000E8A04EA86061E434B8A04EA8303334363
:100B60008380058389688163028470BD0000014031
:100B700000040140028B4FF6FF7322F4006203EA87
:100B8000012111430183704770B5028C22F48072F9
:100B90000284028C8388848B0D8824F0730425439F
:100BA0008E894FF6FF7422F4007204EA062616437B
:100BB0004A8804EA02223243104EB04202D0104E5C
:100BC000B04215D122F40066CA8923F4405304EAE6
:100BD0000222324322F480668A8804EA02223243E7
:100BE0000E8A04EA06161E434B8A04EA03133343B3
:100BF000838085838968C163028470BD00000140E1
:100C000000040140828B22F008020A43828370476D
:100C100030B50288164C174DA0420DD0A8420BD01B
:100C2000B0F1804F08D0144B984205D0134B984236
:100C300002D0134B984203D122F070034A881A4322
:100C4000104B984206D0104B984203D022F44073C8
:100C50000A891A4302804A68C2620A880285A04251
:100C600001D0A84201D1897A01860121818230BD5B
:100C70000000014000040140000400400008004062
:100C8000000C004000100040001400407CB5012121
:100C90008820FFF743FD1D4D02220A212846FFF759
:100CA00065FC02220B212846FFF760FC02220C2182
:100CB0002846FFF75BFC2815009002208DF8040001
:100CC00000218DF806108DF8071003208DF805001F
:100CD00069462846FFF70EFCEC1469462846009446
:100CE000FFF708FC6000009069462846FFF702FC09
:100CF0000120074D8DF80400694628460094FFF74F
:100D0000F9FB21462846FFF748FC7CBD001C024049
:100D1000000C02400E4E4FF4FA753046FFF7A0FD6E
:100D2000284600F021FF0120FFF780FD0028FAD0BF
:100D3000FFF786FD20F07F44214606A000F09CF8D6
:100D40002046FFF78DFD284600F00EFFE5E7000086
:100D500000FFFF000D0A20CBE6BBFAD1D5C9ABD608
:100D6000B5A3BA3078253036780000000029818993
:100D700002D041F4005101E021F40051818170471B
:100D80000246002012880A4200D00120704710B5A8
:100D9000C1F3421301F01F040121A140012B07D030
:100DA000022B07D01430002A026805D00A4304E061
:100DB0000C30F8E71030F6E78A43026010BD0000FF
:100DC0007FB50446008A0D46C98820F4405001438F
:100DD0002182A08941F20C618843A9882A891143A4
:100DE0006A8902431143A181A08A20F44071A88935
:100DF0000843A0826846FFF7C1FC1A48844202D02B
:100E00001948844201D1039800E00298A18909049D
:100E100000EBC00101EB0010296801D5490000E09A
:100E20008900B0FBF1F06422B0FBF2F109010B097B
:100E30006FF018056B4300EB8300A3891D044FF08E
:100E4000320306D503EBC000B0FBF2F000F0070060
:100E500005E003EB0010B0FBF2F000F00F000843D8
:100E600020817FBD0010014000140140C1F3080142
:100E700081807047FEE700000FB4054B10B503A951
:100E8000044A029800F018F810BC5DF814FB00004A
:100E90001D1300089000002002E008C8121F08C1BE
:100EA000002AFAD170477047002001E001C1121FEB
:100EB000002AFBD1704700002DE9FF4F8DB00F468F
:100EC0000546002606E025280BD0DDE90F129047E5
:100ED0006D1C761C28780028F5D111B03046BDE88D
:100EE000F08F0024A246A1460122EC4900E0044311
:100EF00015F8013F203B02FA03F00842F7D12878A9
:100F00002A2810D06FF02F022878A0F1300109298B
:100F100014D80AEB8A0102EB410144F0020400EB11
:100F2000010A6D1CF0E701CF5FEA000A03D544F423
:100F30000054CAF1000A44F002046D1C28782E28DF
:100F400017D115F8010F44F004042A280ED06FF0D1
:100F50002F022878A0F1300109290AD809EB89016C
:100F600002EB410100EB01096D1CF2E757F8049B0D
:100F70006D1C28786C280FD006DC4C2817D0682808
:100F80000DD06A2814D104E0742810D07A280FD12B
:100F90000DE044F400140AE044F4801401E044F449
:100FA00040146978814202D104F580146D1C6D1CD7
:100FB0002A786E2A1FD00CDC632A31D004DC002A88
:100FC0008BD0582A11D1A3E0642A68D0692A0CD1A9
:100FD00065E0732A2ED004DC6F2A73D0702A04D106
:100FE0009BE0752A6FD0782A6ED01046DDE90F128B
:100FF0009047761C50E1C4F30250022806D0032823
:1010000009D0042801CF09D0066045E101CFF117CE
:10101000C0E9006140E101CF06803DE106703BE19F
:1010200017F8040B8DF8000000208DF80100EB4646
:10103000012003E057F804BB4FF0FF3061074FF089
:10104000000102D40DE008F10101884649450FDA9C
:101050008045F8DB1BF808100029F4D108E008F1FE
:10106000010188468142FADB1BF808100029F6D1FD
:10107000DDE90F23AAEB08008146214600F036F98E
:10108000304400EB080604E0DDE90F121BF8010B09
:101090009047B8F10108F7D221464846F7E00A2107
:1010A000C4F302534FF0000B0891022B04D001CF80
:1010B000C117032B09D00AE0FF1D27F00707F7E847
:1010C000020108E032E01FE020E000B2C117042B6B
:1010D00001D140B2C117031E71F1000307DA4FF0CE
:1010E000000CD0EB0C006CEB01012D2302E023057A
:1010F00004D52B238DF82430012303E0E30701D02E
:101100002023F7E7984658E00A2110E010210EE06E
:1011100010204FF0000B08900CE010214FF0000B56
:1011200044F004044FF00809089103E008214FF04F
:10113000000B0891C4F30253022B04D001CF00210D
:10114000032B06D006E0FF1D27F00707F7E8020192
:1011500003E080B2042B00D1C0B24FF00008230797
:101160002BD5702A07D0DDF820C08CF0100C5CEA7B
:101170000B0C05D00EE040238DF82430012308E04D
:1011800050EA010306D030238DF824308DF8252055
:1011900002239846DDF820C08CF0080C5CEA0B0CAA
:1011A0000BD150EA010301D1630706D530238DF836
:1011B00024304FF00108A9F10109582A04D038A2BF
:1011C0000B9208AA0A920BE03AA2F9E75B46089A4A
:1011D000FFF764F80B9B9B5C0A9A521E0A921370ED
:1011E00050EA0102F2D10A98ADEB000000F1200BA9
:1011F000600702D524F4803401E04FF00109D9459D
:1012000002DDA9EB0B0000E0002000EB0B014144E4
:101210000890AAEB010AE00306D4DDE90F2321467A
:10122000504600F063F806444FF0000908E009A9B1
:1012300011F80900DDE90F12904709F10109761C48
:10124000C145F4DBE0030CD5DDE90F232146504610
:1012500000F04CF8064404E0DDE90F12302090471E
:10126000761C0899481E08900029F5DC08E00A98C9
:101270000A990078491C0A91DDE90F129047761C03
:10128000BBF10001ABF1010BF1DC21465046DDE979
:101290000F2300F019F806446D1C1BE60928010015
:1012A00030313233343536373839616263646566DC
:1012B000000000003031323334353637383941429E
:1012C00043444546000000002DE9F0410446002556
:1012D0001E461746880404D405E039462020B0474E
:1012E0006D1C641EF9D52846BDE8F0812DE9F0415A
:1012F000044600251E469046C80301D5302700E06D
:101300002027880404D505E041463846B0476D1CC7
:10131000641EF9D52846BDE8F081000070B5074D80
:101320000446C1B22846FFF7A1FD80212846FFF7F9
:1013300027FD0028F9D0204670BD000000100140B4
:101340001CB54FF44070FFF7DFF9FFF771F8FFF7B6
:1013500079F9FFF760F801214020FFF7EBF9012050
:10136000FFF756FA0BA0FFF787FD18A0FFF784FDE3
:101370001F490120CDE90001420200231DA121489F
:1013800000F08AFE012802D04FF0FF301CBD00F0B3
:10139000E3FCFEE7D5E2CAC7D2BBB8F65BD2B0BB6E
:1013A000F05D2D53544D3332C8ABCFB5C1D0BFAA79
:1013B000B7A2B0E52D4672656552544F53B9CCBC07
:1013C000FEBFE2C0FDB3CCA3A10A0A00B0B4CFC2F5
:1013D0004B455931B9D2C6F0C8CECEF1A3ACB0B4AA
:1013E000CFC24B455932BBD6B8B4C8CECEF10A00F5
:1013F000240000204170705461736B437265617406
:1014000065000000650300082DE9F041184E0F4605
:101410000446F5683068001D00F096FA38B9306867
:1014200090F82C1001208840316981433161601CA3
:1014300007D137B13168BDE8F0410E48091D00F011
:10144000BBBA30682C44AC424460316805D2B06B02
:10145000BDE8F041091D00F097BA706B091D00F05E
:1014600093FAB06A844200D2B462BDE8F081000011
:1014700030000020640300202DE9F041054600F013
:10148000A7FA2D4EB068401CB06030682B4F10B1E9
:10149000706930B32BE03560B068012827D1002493
:1014A00004EB840007EB800000F060FA641C202C41
:1014B000F6D3234800F05AFA2148143000F056FAC7
:1014C0001F48283000F052FA1D483C3000F04EFA18
:1014D0001B48503000F04AFA194870631430B0636A
:1014E00005E03068E96AC06A884200D83560706AF1
:1014F0000121401C7062E86A326981401143316108
:1015000000EB800007EB8000291D00F055FA00F089
:101510009BFA706900280CD03068E96AC06A88427A
:1015200007D208494FF080500860BFF34F8FBFF3D8
:101530006F8FBDE8F0810000300000209400002093
:101540001403002004ED00E070B5124E124D1CE0B3
:1015500000F0B8FC306820B1002400F04FFEA4B9C0
:1015600001E00124F9E700F033FAF068C468201DB7
:1015700000F0EAF9A868401EA8606868401E68602C
:1015800000F062FA204600F009F868680028DFD110
:1015900070BD0000500300203000002010B504464C
:1015A000006B00F083FA2046BDE8104000F07EBAE0
:1015B00010484FF41041420706D0C01D0D4920F0DD
:1015C0000700411AC1F510410B4A00230144C2E94A
:1015D00000030839103A21F0070111604B600B60DD
:1015E0000B1AC0E9001393604FF000405360D060C5
:1015F00070470000780300207C000020074E4FF069
:101600008054074DFFF7A0FF30680128FAD92C60FD
:10161000BFF34F8FBFF36F8FF4E7000094000020FB
:1016200004ED00E02DE9F047DDE909840E4682462D
:101630006FF00301206B01EB82010844089D20F04C
:1016400007079946780705D040F22B3218A11FA052
:10165000FFF712FC00202218315C82F83410315C54
:1016600011B1401C1028F6D3002684F84360202DC9
:1016700000D31F25201DE56200F083F904F1180056
:1016800000F07FF92461C5F120006462A061666406
:1016900084F848604A465146384600F03FF92060D9
:1016A000B8F1000F01D0C8F80040BDE8F087000095
:1016B0002E2E5C2E2E5C4672656552544F535C7321
:1016C00072635C7461736B732E6300004572726F9A
:1016D000723A25732C25640D0A00000030B51149BB
:1016E00000E011460A688242FBD34B685C188442D2
:1016F00003D1406818444860084643681C18944267
:1017000009D1084C103C2468A24209D052681A44FE
:1017100042600A6812680260814200D0086030BDF1
:101720000460F9E77C0000200648416B096829B194
:10173000416BC968C9684968816270474FF0FF31E1
:10174000FAE700003000002008484068401C05D03F
:1017500040F20F1206A111A0FFF78EFB502080F37C
:101760001188BFF34F8FBFF36F8FFEE78400002017
:101770002E2E5C2E2E5C4672656552544F535C7063
:101780006F72745C525644535C41524D5F434D340A
:10179000465C706F72742E63000000004572726FB9
:1017A000723A25732C25640D0A00000070B50025DF
:1017B000040005D140F2816207A10EA0FFF75CFB97
:1017C00010496069884205D1A06A2839884201D051
:1017D00000B90125284670BD2E2E5C2E2E5C467267
:1017E000656552544F535C7372635C7461736B73C1
:1017F0002E6300004572726F723A25732C25640DBA
:101800000A000000640300202DE9F041054600268F
:1018100000F058FB324F386808B9FFF7C9FEF86886
:1018200005424FD1002D4DD0083568070BD005F08B
:101830000700C0F108000544680704D0BF2229A1B1
:1018400032A0FFF719FB002D3CD07868854239D8CB
:10185000234910310846046801E0214604466068C7
:10186000A84202D220680028F7D13868B8468442DE
:1018700028D00E682068086060680836401B102871
:101880000ED96719780704D0EC2216A11FA0FFF724
:10189000F3FA6068401B786038466560FFF71EFF0A
:1018A0006168D8F804004246401AC8F80400D8F825
:1018B0000830984200D29060D8F80C000143002014
:1018C000C4E9000100F09AFC700705D04FF496724D
:1018D00004A10EA0FFF7D0FA3046BDE8F081000069
:1018E0006C0000202E2E5C2E2E5C467265655254D4
:1018F0004F535C706F72745C4D656D4D616E675CCB
:10190000686561705F342E63000000004572726F7D
:10191000723A25732C25640D0A00000010B5031FD0
:101920004FF080741C601B1F21F001011960191F0A
:10193000044B0B6014390A60091F6FF0020244382F
:101940000A6010BD49170008D0E9013201699A60A8
:10195000D0E901235A604A68824201D182684A6014
:10196000002202610868401E0860704700F108010B
:101970004FF0FF32C0E90112C16001610021016036
:10198000704700210161704730B50C68621C02D0BD
:1019900000F1080202E0026904E01A4653681D687B
:1019A000A542FAD953684B6099608A60516008611A
:1019B0000168491C016030BD42684A6093688B60D1
:1019C00093685960916008610168491C0160704723
:1019D000502080F31188BFF34F8FBFF36F8F0949F9
:1019E0004868401C486001280AD10748006810F088
:1019F000FF0F05D040F2B91204A10FA0FFF73CBAC7
:101A0000704700008400002004ED00E02E2E5C2EC4
:101A10002E5C4672656552544F535C706F72745CF5
:101A2000525644535C41524D5F434D34465C706F97
:101A300072742E63000000004572726F723A257353
:101A40002C25640D0A00000010B5084C606828B908
:101A50004FF4E07206A111A0FFF70EFA6068401E75
:101A6000606001D180F3118810BD00008400002067
:101A70002E2E5C2E2E5C4672656552544F535C7060
:101A80006F72745C525644535C41524D5F434D3407
:101A9000465C706F72742E63000000004572726FB6
:101AA000723A25732C25640D0A00000070B50028D9
:101AB0002AD0164DA0F108046068E968084205D1F3
:101AC0004FF4A07212A11CA0FFF7D6F9206828B12C
:101AD00040F241120EA118A0FFF7CEF96068E96844
:101AE000084211D02268002A0ED18843606000F0BD
:101AF000E9F960686968084468602046FFF7EEFD10
:101B0000BDE8704000F07ABB70BD00006C000020A2
:101B10002E2E5C2E2E5C4672656552544F535C70BF
:101B20006F72745C4D656D4D616E675C6865617068
:101B30005F342E63000000004572726F723A2573A5
:101B40002C25640D0A00000006484FF47A710068E5
:101B5000B0FBF1F14FF0E020491E41610721016126
:101B6000704700000000002010B5040012D00E499C
:101B7000096B29B140F2CF420CA113A0FFF77CF909
:101B800000F0A0F900212046FFF73EFC00F036FBF4
:101B9000002807D110494FF080500860BFF34F8FE5
:101BA000BFF36F8F10BD0000300000202E2E5C2E82
:101BB0002E5C4672656552544F535C7372635C745D
:101BC00061736B732E6300004572726F723A2573F6
:101BD0002C25640D0A00000004ED00E070B50446F9
:101BE000FFF7F6FE234D04B92C68201DFFF7ACFE6D
:101BF00058B9E06A204A00EB800152F8211021B95F
:101C000001218140286988432861A06A18B104F144
:101C10001800FFF799FE686A401C686228688442D1
:101C200007D1211D1548FFF7C7FE6868401C686092
:101C300007E0A868401EA8602046FFF7AFFCFFF74A
:101C400073FDFFF701FF6869002812D028688442FD
:101C50000FD1286B28B140F2654209A10FA0FFF710
:101C60000BF912494FF080500860BFF34F8FBFF35C
:101C70006F8F70BD300000209400002050030020C2
:101C80002E2E5C2E2E5C4672656552544F535C734B
:101C900072635C7461736B732E6300004572726FC4
:101CA000723A25732C25640D0A00000004ED00E053
:101CB00070B504002BD01A4D286884422FD0FFF74E
:101CC00087FE2046FFF772FDE8B1201DFFF73CFEBE
:101CD000E06A01212A69814011432961114900EB21
:101CE000800001EB8000211DFFF766FEE06A296895
:101CF000C96A884207D30C494FF080500860BFF38F
:101D00004F8FBFF36F8FBDE87040FFF79DBEBDE8FA
:101D1000704040F2AB6205A10BA0FFF7ADB870BDFB
:101D2000300000209400002004ED00E02E2E5C2EF8
:101D30002E5C4672656552544F535C7372635C74DB
:101D400061736B732E6300004572726F723A257374
:101D50002C25640D0A0000001CB515480024CDE9AF
:101D600000402346802213A1144800F095F9012871
:101D70000AD0401C1BD102B040F28472BDE8104072
:101D80000FA116A0FFF778B8502080F31188BFF399
:101D90004F8FBFF36F8F06484FF0FF312C388162B1
:101DA00001214161C460BDE81C4000F0D5B81CBDF4
:101DB0005C00002049444C4500000000FD1500086F
:101DC0002E2E5C2E2E5C4672656552544F535C730A
:101DD00072635C7461736B732E6300004572726F83
:101DE000723A25732C25640D0A00000070B5044674
:101DF000FFF7EEFD244D04B92C68201DFFF7A4FD6C
:101E000058B9E06A214A00EB800152F8211021B94B
:101E100001218140286988432861A06A18B104F132
:101E20001800FFF791FD211D1948FFF7C5FDFFF7C9
:101E30000BFE686928B1FFF7CBFDFFF775FCFFF7D4
:101E400003FE2868844211D1686980B1286B28B1EB
:101E500040F257620FA116A0FFF70EF818494FF095
:101E600080500860BFF34F8FBFF36F8F70BD08487D
:101E7000A9680068884202D10020286070BDBDE8D2
:101E8000704000F027B800003000002094000020CF
:101E9000640300202E2E5C2E2E5C46726565525423
:101EA0004F535C7372635C7461736B732E630000D9
:101EB0004572726F723A25732C25640D0A0000007A
:101EC00004ED00E00248016B491C0163704700000B
:101ED0003000002070B5134D286B10B10120E8616F
:101EE00070BD0020E86128690F4EB0FA80F0C0F1A3
:101EF0001F0000EB800456F8240028B940F6F622B3
:101F00000AA111A0FEF7B8FF06EB840000F1080259
:101F1000416849684160914201D149684160C8689F
:101F2000286070BD30000020940000202E2E5C2E12
:101F30002E5C4672656552544F535C7372635C74D9
:101F400061736B732E6300004572726F723A257372
:101F50002C25640D0A0000001CB5304C2068304967
:101F6000884205D140F259122EA139A0FEF784FF14
:101F700020682B49491E884205D14FF4AD7229A132
:101F800033A0FEF779FF364C20780190FF202070B7
:101F900020788DF800009DF800009DF8001000F0FA
:101FA000F000884205D040F273121EA128A0FEF76F
:101FB00063FF9DF800002B4A00F0500010700720CE
:101FC000906007E09068401E90609DF8000040001F
:101FD0008DF800009DF800000006F3D4107A00028E
:101FE00000F4E0609060019820700C482030016897
:101FF00041F470010160016841F070410160FFF738
:10200000A3FD00205060FEF7FBF81748016841F07F
:1020100040410160FEF7E4F800201CBD00ED00E047
:1020200071C20F412E2E5C2E2E5C46726565525495
:102030004F535C706F72745C525644535C41524D06
:102040005F434D34465C706F72742E630000000075
:102050004572726F723A25732C25640D0A000000D8
:1020600000E400E08400002034EF00E010B55020D0
:1020700080F31188BFF34F8FBFF36F8F00F046F8E6
:1020800018B104494FF080500860002080F3118897
:1020900010BD000004ED00E02DE9FF5F8346DDE99F
:1020A0000E87994616468A469000FFF7ADFB05005D
:1020B0001AD04C20FFF7A8FB040012D025630021A2
:1020C000CDE90241CDE900874B463246514658469C
:1020D000FFF7A8FA2046FFF7CFF9012004B0BDE8CA
:1020E000F09F2846FFF7E2FC4FF0FF30F6E70000D4
:1020F0000548416919B1006B18B1002070470120F3
:102100007047022070470000300000202DE9F041A8
:102110002D4F0026386B40B1B869401CB861F86992
:1021200000B101263046BDE8F081FD686D1CFD6000
:1021300011D1786B006828B140F6D91223A12AA0EA
:10214000FEF79AFE786BB96B7963B863386A401C06
:102150003862FFF7E9FAB86ADFF89C80854209D354
:10216000786B006880B1786BC068C468606885422D
:102170000DD2B8623868C06A00EB800158F82100BF
:102180000128CCD90126CAE74FF0FF30F1E7201D26
:10219000FFF7DAFBA06A18B104F11800FFF7D4FBCF
:1021A000E06A01213A6981401143396100EB800105
:1021B00008EB8100211DFFF7FFFBE06A3968C96A5F
:1021C0008842CDD30126CBE7300000202E2E5C2E96
:1021D0002E5C4672656552544F535C7372635C7437
:1021E00061736B732E6300004572726F723A2573D0
:1021F0002C25640D0A000000940000202DE9F04712
:102200002B4D00242746286B28B94FF4FD6229A1E5
:102210002FA0FEF731FEFFF7DBFB286B401E286383
:10222000286BE8BBA8682E490126C8B3A1F52A7916
:102230008846D8F80010E9B1D8F80C00C46804F159
:102240001800FFF781FB201DFFF77EFBE06A2A697B
:1022500006FA00F11143296100EB800109EB8100CE
:10226000211DFFF7A9FBE06A2968C96A8842E0D30B
:10227000EE61DEE70CB1FFF757FAAC693CB1FFF74E
:1022800045FF00B1EE61641EF9D10020A861E86944
:1022900030B11449012738070860BFF34F8F00E0C1
:1022A00001E0BFF36F8FFFF7CFFB3846BDE8F08743
:1022B000300000202E2E5C2E2E5C46726565525436
:1022C0004F535C7372635C7461736B732E630000B5
:1022D0004572726F723A25732C25640D0A00000056
:1022E0003C03002004ED00E008230008000000206B
:1022F00094000000980E00089C2300089400002021
:10230000E4960000A80E00080095BA0A000000003C
:102310000000000001020304060708090000000095
:10232000010203040102030406070809000000007B
:10233000000000000000000000000000000000009D
:10234000000000000000000000000000000000008D
:10235000000000000000000000000000000000007D
:10236000000000000000000000000000000000006D
:10237000000000000000000000000000000000005D
:10238000000000000000000000000000000000004D
:0C239000AAAAAAAA000000000000000099
:04000005080001AD41
:00000001FF
