:020000040800F2
:10000000C8DB0020DD010008531A0008551A00085B
:10001000571A0008591A00085B1A0008000000006F
:100020000000000000000000000000004501000882
:100030005D1A000800000000890100085F1A00082E
:10004000F7010008F7010008F7010008F7010008B0
:10005000F7010008F7010008F7010008F7010008A0
:10006000F7010008F7010008F7010008F701000890
:10007000F7010008F7010008F7010008F701000880
:10008000F7010008F7010008F7010008F701000870
:10009000F7010008F7010008F7010008F701000860
:1000A000F7010008F7010008F7010008F701000850
:1000B000F7010008F7010008F7010008F701000840
:1000C000F7010008F7010008F7010008F701000830
:1000D000F7010008F7010008F7010008F701000820
:1000E000F7010008F7010008F7010008F701000810
:1000F000F7010008F7010008F7010008F701000800
:10010000F7010008F7010008F7010008F7010008EF
:10011000F7010008F7010008F7010008F7010008DF
:10012000F7010008F7010008F7010008F7010008CF
:10013000DFF80CD004F0AAF9004800475F18000867
:10014000C8DB0020224B19680868B0E8F00F80F384
:100150000988BFF36F8F4FF0000080F311884EF0D5
:100160000D0E70470000000006480068006880F32C
:10017000088862B661B6BFF34F8FBFF36F8F00DFA1
:1001800000BF00BF08ED00E0EFF30980BFF36F8F01
:100190000F4B1A6820E9F00F106008B54FF05000BF
:1001A00080F31188BFF34F8FBFF36F8F03F0C8FA4E
:1001B0004FF0000080F31188BDE808401968086816
:1001C000B0E8F00F80F30988BFF36F8F704700BF6E
:1001D00080000020EFF3058070470000064880474C
:1001E00006480047FEE7FEE7FEE7FEE7FEE7FEE71C
:1001F000FEE7FEE7FEE7FEE7A9020008310100087E
:100200000CB50022019200925248016841F48031FD
:1002100001604FF4A063016801F40031009101997D
:10022000491C0191009911B901999942F3D10168D2
:10023000890302D50121009100E000920099012973
:1002400030D145490A6842F010020A600A6822F07B
:1002500003020A600A6842F002020A6041684160D3
:1002600041684160416841F480614160416821F426
:100270007C114160416841F4E8114160016841F03E
:100280008071016001688901FCD5416821F003019A
:100290004160416841F0020141604168C1F3810160
:1002A0000229FAD10CBDABE710B52A48016841F02C
:1002B000010101604168294A114041600168284AF2
:1002C00011400160016821F480210160416821F43E
:1002D000FE0141604FF41F018160FFF7E4FF2149F7
:1002E0004FF00060086010BD10B51A4A506800F069
:1002F0000C011D4B1D4800290ED004290ED00829E1
:100300000ED003605168194AC1F30311121D515CEC
:100310000268CA40026010BD0360F3E70360F1E7C2
:10032000516801F47011536803F48033022404EB24
:10033000914133B153689B0307D50D4B594301607D
:10034000E0E70B4B59430160DCE7074B5943016081
:10035000D8E7000000100240002002400000FFF833
:10036000FFFFF6FE08ED00E000127A00000000201A
:1003700000093D002A4908432A490860704770B5C2
:100380000F23C27801260178002A1ED0254A126860
:1003900002F4E062C2F5E062120AC2F10404D34042
:1003A0004578A54082781A402A43120101F1E021E4
:1003B00081F80024007800F01F018E404009800081
:1003C00000F1E020C0F8006170BD01F01F00864020
:1003D0004809800000F1E020C0F8806170BD124A39
:1003E000114001430F48001F016070470D4A121D64
:1003F000002903D0116801431160704711688143DF
:10040000116070474FF0E021042804D0086920F003
:10041000040008617047086940F0040008617047F3
:100420000000FA050CED00E080FFFF1F8100A1F144
:10043000C04100280CD043F2D2020A60401C800068
:10044000A0F1C0406FF070420260C1F80421704713
:100450004FF0204343F2DB021A60EFE710B5182497
:1004600040234FF020414FF0FC32102805D041F8D6
:10047000804F4B608A60CA6010BD0C664B668A660E
:10048000CA6610BDF74818210160002141604FF095
:10049000FC318160C1600161704710B5D0E9011283
:1004A0001143D0E903231A4311434269114382697E
:1004B0001143C2691143026A1143426A1143826ABD
:1004C0001143C26A1143026B114302689200A2F108
:1004D000C04211608168082907D101688900A1F133
:1004E000C0410A6842F040020A60416BD1E9002332
:1004F00042EA03128B688C891B0243EA04431A43C5
:100500000B8A42EA03520B7D896942EA03620A437D
:100510000168491C8900A1F1C0410A60C16AB1F5B6
:10052000804F08D000686FF070418000A0F1C0409B
:10053000C0F8041110BD816BD1E9002342EA031217
:100540008B680C8A1B0243EA04531A430B7D8969AA
:1005500042EA036200680A438000A0F1C040C0F88C
:10056000042110BD30B5D0E901121143D0E90323B5
:100570001A431143426941EA4221826941EA423108
:1005800041F00804C169D1E9002342EA03220B8942
:10059000097B1B0443EA01610A43016AD1E9003582
:1005A00043EA05230D89097B2D0445EA01610B43CC
:1005B00001684FF02040102904D040F8804F82603D
:1005C000C36030BD04668266C36630BD10B5D0E935
:1005D000001241EA42218268102343EA4232114369
:1005E000A04A1160C168D1E9003443EA04230C89B0
:1005F000097B240444EA01610B4393600169D1E95A
:10060000003443EA04230C89097B240444EA016191
:100610000B43D3604069D0E9001341EA0321038909
:10062000007B1B0443EA00600143116110BD10B55B
:1006300000210160022242608160C160016141616C
:100640008161C1610162D202426252008262C16272
:100650000163436B0F221A60436B5A60446BFF23A4
:10066000A360446BE260446B2261446B6261446B43
:10067000A161846B2260846B6260846BA360836B76
:10068000DA60836B1A61836B5A61806B816110BD84
:1006900010210160002141608160C1600161416100
:1006A0008161C269FC211160C2695160C2699160B7
:1006B000C269D160026A1160026A5160026A916087
:1006C000006AC16070470021016041608160C268BA
:1006D000FC211160C2685160C2689160C268D1603B
:1006E0000269116002695160026991600269D1601A
:1006F0004269116042695160426991604069C1601C
:1007000070478000A0F1C040002904D0016841F08A
:100710000101016070470168534A11400160704750
:100720004FF0204200290CD0102805D052F8800F3D
:1007300040F0040010607047106E40F00400106636
:1007400070474949C91E102804D052F8800F08404C
:1007500010607047106E0840106670474FF02041DF
:10076000002805D051F8A00F40F004000860704741
:1007700051F8A00F3C4AD21E1040086070474FF05D
:10078000204200290CD0102805D052F8800F40F0EC
:10079000400010607047106E40F0400010667047D7
:1007A00031493F39102804D052F8800F08401060BA
:1007B0007047106E0840106670474FF020411028B7
:1007C00002D0D1F894007047486F704710B54FF4CD
:1007D00080744FF02043002A11D0102806D0A04288
:1007E00008D153F8840F0843186010BD586E0843B1
:1007F000586610BD53F8A40F0843186010BD1028A8
:1008000006D0A04208D153F8840F8843186010BD69
:10081000586E8843586610BD53F8A40F884318607B
:1008200010BD034600204FF02042102B08D0B3F536
:10083000807F07D0D2F8A4200A4200D00120704760
:10084000526EF9E7D2F88420F6E74FF020421028E4
:100850000CD0B0F5807F0DD052F8A40F8843106003
:1008600070470000A00000A0FEFF0F00506E8843FC
:100870005066F5E752F8840F88431060F0E70346AE
:1008800000204FF02042102B0ED0B3F5807F0DD00A
:10089000D2F8A42002EA010302EAD101002BDFD042
:1008A0000029DDD00120DBE7526EF3E7D2F8842087
:1008B000F0E74FF02042102808D0B0F5807F0AD032
:1008C00052F8A40F20EAD1001060C9E7506E20EA68
:1008D000D1005066C4E752F8840F20EAD1001060BE
:1008E000BEE7000010B59C49884209D101210420CF
:1008F00000F07DFA0021BDE81040042000F077BA36
:100900009649884209D10121082000F070FA00219F
:10091000BDE81040082000F06ABA9149884209D128
:100920000121102000F063FA0021BDE810401020E2
:1009300000F05DBA8B49884209D10121202000F0E6
:1009400056FA0021BDE81040202000F050BA864938
:10095000884209D10121402000F049FA0021BDE878
:100960001040402000F043BA8049884209D101215B
:10097000802000F03CFA0021BDE81040802000F00B
:1009800036BA7B4988420AD184150121204600F0FD
:100990002EFA2046BDE81040002100F028BA10BD14
:1009A00010B50121084600F022FA0021BDE81040F0
:1009B000012000F01CBA2DE9F0410022CC7804F0AF
:1009C0000F03E40601D58C7823430C784FF00F0712
:1009D00014F0FF0F4FF0010C1CD005680CFA02F464
:1009E0000E882640A64211D1960007FA06F825EA9D
:1009F000080503FA06F848EA0505CE78282E02D045
:100A0000482E02D002E0446100E00461521C082A32
:100A1000E4D305600A88FF2A1ED94568002202F146
:100A200008060CFA06F40E882640A64210D196005D
:100A300007FA06F825EA080503FA06F848EA050564
:100A4000CE78282E00D14461CE78482E00D10461A2
:100A5000521C082AE3D34560BDE8F0814FF6FF71D0
:100A60000180022181700421C1707047024600207C
:100A700092680A4200D001207047806880B27047B7
:100A800002460020D2680A4200D001207047C068A8
:100A900080B270470161704741617047002A01D000
:100AA0000161704741617047C160704741F4803215
:100AB00082618161826181698069704710B52D4BC7
:100AC0001A684FF68074224042EA0010084318600A
:100AD00010BD2949C8617047F0B5264C002801DADD
:100AE000E36900E06368C0F30346420D120185B27A
:100AF000C0F301579540032F07D0C2020CD5032243
:100B0000B240934343F0706209E023F0706263687F
:100B100023F07063636002E0AB4343F0706201B1A5
:100B20002A43002801DAE261F0BD6260F0BD10B531
:100B30008A07120F0F23934021F003040D4921442B
:100B40008C689C438C608B68904003438B6010BD25
:100B50000949DC310860704700080140000C014081
:100B6000001001400014014000180140001C014029
:100B7000002001400000014000002042B44801680C
:100B800041F0010101604168B24A114041600168D1
:100B9000B14A11400160016821F48021016041687F
:100BA00021F4FE0141604FF41F0181607047A849A4
:100BB0000A6822F480320A600A6822F480220A60FD
:100BC000B0F5803F07D0B0F5802F03D1086840F41E
:100BD000A02008607047086840F4803008607047C3
:100BE0000346002059099A4A01290AD002290AD04D
:100BF000516A03F01F02012393400B4200D00120F1
:100C000070471168F5E7116AF3E718B50020009006
:100C10004FF4A0643120FFF7E3FF0099491C0091D5
:100C20000099A14201D00028F4D03120FFF7D8FF6D
:100C300008B1012018BD002018BD854A116821F0B7
:100C4000F80141EAC00010607047844908607047AD
:100C50007F4B5A6822F47C12084310435860704757
:100C60007E49086670477A4A516821F003010143C2
:100C7000516070477648406800F00C007047744A35
:100C8000516821F0F001014351607047704A51688A
:100C900021F4E0610143516070476D4A516821F4CD
:100CA000605141EAC00050607047694A002903D092
:100CB000517A014351727047517A814351727047A2
:100CC0006649D83108607047614A516821F4404153
:100CD0000143516070475E49002220310A7001F8DB
:100CE0002029012805D0042802D1052081F8200000
:100CF0007047012081F8200070475949086070470B
:100D000053490A6A02430A627047554944390860E8
:100D1000704710B54E4A516801F00C01514B002943
:100D200027D0042927D0082927D00360516801F073
:100D3000F00109094C4B5C5C0168E140416054687A
:100D400004F4E064240A1C5D21FA04F4846054680D
:100D500004F46054E40A1B5DD940C160526802F497
:100D60004042920B404B1B1F9A5CB1FBF2F10161B8
:100D700010BD0360DAE70360D8E7516801F4701131
:100D8000536803F48033022404EB914133B1536878
:100D90009B0307D5354B59430160C7E7334B594394
:100DA0000160C3E72F4B59430160BFE7284A002980
:100DB00003D05169014351617047516981435161C9
:100DC0007047234A002903D091690143916170471C
:100DD00091698143916170471D4A002903D0D1690F
:100DE0000143D1617047D1698143D1617047184A8D
:100DF000002903D0D1680143D1607047D168814395
:100E0000D1607047124A002903D011690143116172
:100E10007047116981431161704711494039086079
:100E200070470E49C86470470949C871704708483F
:100E3000416A41F080714162704701460020044AD6
:100E400092680A4200D001207047014988727047B9
:100E5000001002400000FFF8FFFFF6FE00004242D3
:100E60008004424200127A001800002000093D0070
:100E700010B5A94988420AD1841401212046FFF700
:100E8000B6FF2046BDE810400021FFF7B0BFA349E0
:100E900088420AD1041401212046FFF7B3FF2046FF
:100EA000BDE810400021FFF7ADBF9D4988420AD13F
:100EB000C41301212046FFF7A5FF2046BDE81040DE
:100EC0000021FFF79FBF10BD30B5028802F44153E7
:100ED0000A884C88CD8822438C882C4322430C8975
:100EE00022434C8922438C892243CC8922431A43D2
:100EF0000280828B22F400628283098A018230BDE3
:100F0000F0B585B005460C46022000210126AA8BCB
:100F10004FF240031A40AA8302222A84AF8BA268B0
:100F2000022A21D0A08800B102266846FFF7F1FE10
:100F30000098E188B1F5007F2CD07101B0FBF1F091
:100F400000EB8000A1684000B0FBF1F0401D80B2D2
:100F50000A21B0FBF1F000F00101401AC0F34F008C
:100F60004FF6FF7202EA0121821EFE2A01D30220FF
:100F70000021E288084302432A8420886188A289EC
:100F80000843A18811430843384340F40060A88314
:100F900005B0F0BD000A00EB8000A1684000B0FB86
:100FA000F1F0401D80B2D3E70021018041808180B3
:100FB000C180018141818181C18107210182704706
:100FC0000021018041808180C18002228260818174
:100FD0007047002904D0018841F04001018070472A
:100FE000018821F0400101807047002904D0818BE5
:100FF00041F4806181837047818B21F4806181831A
:101000007047090901238B4099B2002A03D08288D6
:101010000A438280704782888A4382807047002A10
:1010200003D082880A438280704782888A43828004
:1010300070478181704780897047A1F57E42FF3AF1
:1010400004D0018841F4807101807047018821F447
:10105000807101807047002904D0818841F004012B
:1010600081807047818821F0040181807047028867
:1010700022F40062028002880A43028070470188DD
:1010800041F4805101807047002904D0018841F467
:10109000005101807047018821F4005101807047A0
:1010A000012901D0008B7047808A7047008A704701
:1010B000B1F5804F04D0018821F480410180704750
:1010C000018841F480410180704702460020128966
:1010D0000A4200D001207047C9430181704730B5F2
:1010E0000246002001F00F03012505FA03F4A3B224
:1010F000090905FA01F4A4B29188214012891A4223
:1011000002D0002900D0012030BD01F00F020121E2
:101110009140C943018170470030014000380040D0
:10112000003C004010B5E14988420AD101218C03FE
:101130002046FFF75CFE2046BDE810400021FFF787
:1011400056BEDB4988420AD101214C042046FFF7F4
:1011500059FE2046BDE810400021FFF753BED54997
:1011600088420AD101218C042046FFF74BFE20461D
:10117000BDE810400021FFF745BECF4988420AD1A3
:101180000121CC042046FFF73DFE2046BDE810407B
:101190000021FFF737BEC94988420AD101210C0559
:1011A0002046FFF72FFE2046BDE810400021FFF744
:1011B00029BE10BD30B585B004460D46208A4CF6D8
:1011C000FF710840E98801432182A0894EF6F3119E
:1011D0000840A9882A8911436A8902431143A181E1
:1011E000A08A4FF6FF410840A9890143A1826846C1
:1011F000FFF78FFDAD48844201D1039800E00298CB
:10120000A189090408D500EBC00101EB0010296891
:101210004900B0FBF1F007E000EBC00101EB00106A
:1012200029688900B0FBF1F06422B0FBF2F10901FA
:101230000B096FF018056B4300EB8300A3891D04B5
:101240004FF0320307D503EBC000B0FBF2F000F023
:101250000700084306E003EB0010B0FBF2F000F0DB
:101260000F000843208105B030BD4FF416510160D6
:1012700000218180C18001810C22428181817047DF
:1012800010B5038A4FF2FF0213400A884C882243AC
:101290008C88C9880C4322431A43028210BD002166
:1012A000018041808180C1807047002904D08189FC
:1012B00041F4005181817047818921F4005181817D
:1012C000704710B540F66A13C1F3421301F01F04D2
:1012D0000121A140012B07D0022B07D014303AB1D5
:1012E00002680A43026010BD0C30F8E71030F6E7E0
:1012F00002688A43026010BD002A03D0828A0A4332
:1013000082827047828A8A4382827047028A22F0F0
:101310000F020282028A0A4302827047828922F403
:101320000062828182890A4382817047002904D049
:10133000818941F0020181817047818921F0020198
:1013400081817047028A22F020020282028A0A43C7
:1013500002827047002904D0018A41F48041018251
:101360007047018A21F4804101827047C1F308016E
:10137000818070478088C0F308007047818941F000
:10138000010181817047028BD2B20283028B42EA53
:10139000012101837047028B02F47F420283028B9A
:1013A0000A4302837047002904D0818A41F020015A
:1013B00081827047818A21F0200181827047002953
:1013C00004D0818A41F0100181827047818A21F026
:1013D000100181827047002904D0818A41F0080100
:1013E00081827047818A21F008018182704700293B
:1013F00004D0818941F40041818170478189C1F322
:101400000E0181817047002904D0818A41F4006176
:1014100081827047818A21F4006181827047828ACB
:1014200022F004028282828A0A4382827047002963
:1014300004D0818A41F0020181827047818A21F0C3
:101440000201818270470246002012880A4200D0C1
:10145000012070478A05C9430180704770B5002498
:1014600040F66A12C1F3421301F01F05012606FA85
:1014700005F2012B0CD0022B0DD0838A1340090AF0
:101480008E40008830400BB100B10124204670BD71
:1014900083891340F3E7038A1340F0E740F66A12AA
:1014A0000A0A01219140C943018070470038014078
:1014B0000044004000480040004C00400050004004
:1014C000F44C4FF40055F44EF44F1AE0F4A002F03F
:1014D000EFFFA06802F060F9F5A002F0E9FF2946ED
:1014E000304600F0D4FB012808D1F6A002F0E0FF5E
:1014F000A06802F0B8F9F7A002F0DAFF142002F0B9
:101500004FF80121384600F0C2FB0128E7D1DDE7A2
:101510002DE9F0439BB0DFF87C8398F80000401C75
:1015200088F80000F04801F029FD4FF478460021CA
:10153000304601F029FDED4CED4D002123882A882D
:10154000084601F090F801F01CFDEAA1002001F02E
:10155000E5FA01F016FDC088ECA101F0DFFA01F018
:1015600010FDC0884FF6FF7101EA4000ECA101F0C8
:10157000D5FA01F006FDC088EDA100EB400080B275
:1015800001F0CCFA4FF4FC67384601F007FD98F8FB
:101590000020ECA102A802F09BFF01F0F2FCC08841
:1015A00000EB800080B201F0FFFC01F0EAFCC08893
:1015B00002A900EB800080B201F0B0FA01F0E1FC7A
:1015C000C088C0EBC00080B201F0EEFC1F2001F02B
:1015D000E5FC01F0D6FCC088DEA1C0EBC00080B203
:1015E00001F09CFA304601F0D9FCE623D222AA2170
:1015F000322001F06FF8F023D222C821322001F00E
:1016000069F8384601F0CAFCE623C822AA21642002
:1016100001F060F8C821F023DC22084601F05AF8F6
:101620001F2001F0BBFC6E22E623AA21104601F028
:1016300051F8F023DC22C821822001F04BF84FF44E
:101640007A78404601F0ACFF20882A88803883B23F
:101650008021002001F007F801F093FCC188C1EB64
:10166000C10080B201F0A0FC1F2001F097FC01F046
:1016700088FCC188C1EBC10080B2B9A101F04EFA6B
:10168000304601F08BFC4FF001091E236422C82173
:101690003220CDF8009001F06BF8384601F07EFC66
:1016A0000020009028231422C821A02001F060F817
:1016B0001F2001F073FC14233222C821AA20CDF888
:1016C000009001F055F8404601F06AFF20882A8812
:1016D000803883B28021002000F0C5FF01F051FC6A
:1016E000C188C1EBC10080B201F05EFC1F2001F097
:1016F00055FC01F046FCC0889CA1C0EBC00080B244
:1017000001F00CFA304601F049FC00231422C821F4
:10171000642001F061F8384601F040FC01230A2200
:10172000C821642001F058F81F2001F037FC002385
:101730001422C8218C2001F04FF8404601F030FF00
:1017400020882A88803883B28021002000F08BFF17
:101750001BB0BDE8F0832DE9F04100254D4E103659
:10176000002416F81500A040000603D581A002F061
:101770009FFE02E080A002F09BFE641C082CF0DBC0
:10178000002406EB45077878A040000603D579A031
:1017900002F08EFE02E078A002F08AFE641C082CA3
:1017A000F1DB76A002F084FE6D1C102DD8DBBDE8C5
:1017B000F04173A002F07CBE724802F079FE7248DC
:1017C00002F076FE062000F0C1FEFFF7C4FF6F4C6A
:1017D0004FF47A75FFF79CFE216881F020012160AB
:1017E000284601F0DDFEF5E71CB502F0ADFD294805
:1017F00002210830CDE900100C020023224664A12A
:10180000664801F0DBFC012802D165A002F050FE21
:10181000204803210C30CDE900100023224667A1A7
:10182000694801F0CBFC012802D168A002F040FE1B
:101830001848406801F00BFDBDE81C4002F09EBD59
:1018400010B54FF44070FEF795FD00F013F900F06D
:1018500056F900F003FABDE8104000F0C8BE1CB510
:10186000FFF7EEFF5FA002F023FE6AA002F020FE69
:1018700008480121001DCDE900104A0200236EA195
:10188000714801F09BFC012802D04FF0FF301CBDD5
:10189000DCE00000280000200010014000080140AA
:1018A000B9D2C6F04C4544C8CECEF1A3A10A00007F
:1018B000B9D2C6F04C4544C8CECEF1B3C9B9A6A33F
:1018C000A10A0000BBD6B8B44C4544C8CECEF1A3A3
:1018D000A10A0000BBD6B8B44C4544C8CECEF1B383
:1018E000C9B9A6A3A10A00005C0000207400002072
:1018F00072000020D2B0BBF0332E325F322E38B4EB
:10190000E74C4344B2CECAFDA3BA0000B7D6B1E655
:10191000C2CAA3BA32343078333230207078000033
:10192000494C4939333431D2BABEA7C7FDB6AF00EE
:1019300058505432303436B4A5C3FEC6C1C7FDB6C4
:10194000AF000000CFD4CABEB1E4C1BFA3BA202506
:1019500064200000BBADD6B1CFDFA3BA0000000009
:10196000BBADBED8D0CEA3BA00000000BBADD4B290
:10197000000000002A000000200000000A00000013
:101980000A0A00009C5E0008E05E00080C0C0140A2
:10199000546573745F5461736B000000B9170008DD
:1019A000B4B4BDA8546573745F5461736BC8CECE74
:1019B000F1B3C9B9A6210D0A000000004B45595FDB
:1019C0005461736B00000000C1140008B4B4BDA8DA
:1019D0004B45595F5461736BC8CECEF1B3C9B9A6FC
:1019E000210D0A00D5E2CAC7D2BBB8F65BD2B0BBA4
:1019F000F05D2D53544D3332C8ABCFB5C1D0BFAA23
:101A0000B7A2B0E52D4672656552544F532D202084
:101A10000A0A0000B0B4CFC24B455931B9D2C6F062
:101A2000C8CECEF1A3ACB0B4CFC24B455932BBD671
:101A3000B8B4C8CECEF10A004170705461736B43E4
:101A40007265617465000000E917000801F0C5FFC8
:101A5000FEE77047FEE7FEE7FEE7FEE7704710B5DA
:101A600002F015F9012803D0BDE8104002F099BC3E
:101A700010BD000038B501210820FFF7A2F9202091
:101A8000ADF8000010208DF8030003208DF802004F
:101A90000F4C69462046FEF78EFF0121ADF800107D
:101AA00069462046FEF787FF0221ADF8001069461F
:101AB0002046FEF780FF20212046FEF7EBFF0121A4
:101AC0002046FEF7E7FF02212046FEF7E3FF38BD80
:101AD000000C014008B54FF44070FEF74BFC252088
:101AE0008DF8000006208DF8010000208DF802001E
:101AF00001208DF803006846FEF741FC08BD10B5D3
:101B000086B001210420FFF75CF901218803FFF76B
:101B100058F94FF40070ADF8140018208DF8170034
:101B200003208DF816004B4C05A92046FEF743FF15
:101B30002115ADF8141004218DF8171005A92046C1
:101B4000FEF739FF4FF4E13001900020ADF80800B6
:101B5000ADF80A00ADF80C00ADF810000C20ADF89F
:101B60000E003D4C01A92046FFF724FBFFF7B2FF12
:101B700001212046FFF799FB06B010BD10B50446C1
:101B80002046FFF7F3FB80212046FFF75CFC00288E
:101B9000F9D010BD2DE9F04107460D461646002448
:101BA00005E0295D3846FFF7E9FF641CE4B2B44262
:101BB000F7D340213846FFF746FC0028F9D0BDE8AE
:101BC000F08170B506460D4600243046295DFFF7CA
:101BD000D5FF641C285D0028F7D140213046FFF76F
:101BE00032FC0028F9D070BD70B50546080ACCB2A9
:101BF00001462846FFF7BAFB80212846FFF723FC61
:101C00000028F9D021462846FFF7B0FB802128465E
:101C1000FFF719FC0028F9D070BD70B504460E4DD1
:101C2000E1B22846FFF7A2FB80212846FFF70BFC14
:101C30000028F9D0204670BD10B5074C2021204661
:101C4000FFF701FC0028F9D02046BDE81040FFF75F
:101C500091BB0000000801400038014038B5012167
:101C60001420FFF7AEF80120ADF8000004248DF831
:101C7000034069460F48FEF79EFEE002ADF8000003
:101C80008DF8034069460C48FEF795FE38BD70B5E7
:101C900004460D4629462046FEF7E8FE012801D0FD
:101CA000002070BD29462046FEF7E0FE0128F9D04D
:101CB000012070BD000801400010014070B586B0E1
:101CC00001210803FFF77DF80121D420FFF779F8FF
:101CD0000124ADF8004003208DF8020010208DF89B
:101CE0000300FA4D69462846FEF765FE2021ADF84F
:101CF000001018218DF80310F54E69463046FEF7A6
:101D00005AFE4021ADF8001069463046FEF753FEFA
:101D10008021ADF8001069463046FEF74CFE0121E7
:101D20002846FEF7B7FE0020ADF804004FF482719C
:101D3000ADF80610ADF808000221ADF80A10ADF8B4
:101D40000C400902ADF80E100821ADF81010ADF8E6
:101D500012000720ADF81400DE4C01A92046FFF761
:101D6000B3F801212046FFF734F906B070BD10B575
:101D70000146D9A002F09CFB002010BD2DE9F041E6
:101D80000746E14C4FF480552560D24E09E02068AB
:101D9000411E216005D20020FFF7E9FFC0B2BDE877
:101DA000F08102213046FFF790F90028EFD0394644
:101DB0003046FFF73EF9256008E021684A1E2260A0
:101DC00004D20120FFF7D3FFC0B2E8E7012130467B
:101DD000FFF77BF90028F0D03046FFF72CF9C0B2AE
:101DE000DDE710B5B94C01212046FEF755FE052070
:101DF000FFF7C4FFFF20FFF7C1FFC007FAD120465D
:101E0000BDE810400121FEF745BE10B5AF4C0121E1
:101E10002046FEF741FE0620FFF7B0FF2046BDE852
:101E200010400121FEF736BE70B50446FFF7EDFF06
:101E3000FFF7D7FFA54D01212846FEF72DFE2020F4
:101E4000FFF79CFFC4F30740FFF798FFC4F3072098
:101E5000FFF794FFE0B2FFF791FF01212846FEF75C
:101E600019FEBDE87040BCE710B5FFF7CEFF974CF8
:101E700001212046FEF710FEC720FFF77FFF01215A
:101E80002046FEF707FEBDE81040AAE72DE9F04125
:101E900005460F461446FFF7B8FF8C4E0121304629
:101EA000FEF7FAFD0220FFF769FFC7F30740FFF7CF
:101EB00065FFC7F30720FFF761FFF8B2FFF75EFF8A
:101EC000B015844208D9044690A002F0F1FA03E06C
:101ED0002878FFF753FF6D1C641EA4B2F8D20121CD
:101EE0003046FEF7D7FDBDE8F0417AE72DE9F0472F
:101EF00006460D46E8B24142CFB2140A02F0FF098D
:101F00004FF48078002812D0E8B24042C0B205EB0E
:101F1000000A24B3D01B80B2040A00F0FF093A463D
:101F200029463046FFF7B2FF55463E4435E06CB9CE
:101F300029463046BDE8F047A8E7424629463046E4
:101F4000FFF7A4FF05F5807506F58076641EE4B200
:101F5000F3D24A4629463046BDE8F04796E7B945F0
:101F60000DD9A9EB0700C4B23A4629463046FFF71F
:101F70008DFF5146F0192246BDE8F04786E7294615
:101F80003046BDE8F04781E7424629463046FFF734
:101F90007DFF05F5807506F58076641EE4B2F3D208
:101FA000B9F1000F05D04A4629463046BDE8F04752
:101FB0006CE7BDE8F0872DE9F04104460F46154671
:101FC000424E01213046FEF767FD0320FFF7D6FEA3
:101FD000C7F30740FFF7D2FEC7F30720FFF7CEFE97
:101FE000F8B2FFF7CBFE04E0FF20FFF7C7FE04F8CE
:101FF000010B6D1EADB2F7D23046BDE8F0410121B4
:10200000FEF748BD2DE9F041304F01213846FEF77B
:1020100043FD9F20FFF7B2FEFF20FFF7AFFE04460F
:10202000FF20FFF7ABFE0546FF20FFF7A7FE0646A1
:1020300001213846FEF72EFD200440EA05203043FA
:10204000ADE670B5214C01212046FEF725FDAB2001
:10205000FFF794FEFF20FFF791FEFF20FFF78EFEB3
:10206000FF20FFF78BFEFF20FFF788FE05460121CA
:102070002046FEF70FFD284670BD10B5044601212D
:102080001248FEF709FD0320FFF778FEC4F307406E
:10209000FFF774FEC4F30720FFF770FEE0B2BDE85F
:1020A00010406BE6FF2069E62DE9F0410746164C2B
:1020B0004FF480552560074E42E02068411E2160A4
:1020C0003ED2BDE8F041022051E600000010014080
:1020D00000080140003001403C3C2D464C41534833
:1020E0002D4552524F522D3E3E2053504920B5C8E7
:1020F000B4FDB3ACCAB1216572726F72436F64658F
:10210000203D2025640A0000580000203C3C2D465C
:102110004C4153482D4552524F522D3E3E20535074
:10212000495F464C4153485F506167655772697417
:102130006520746F6F206C61726765210A00000072
:1021400002213046FEF7C1FF0028B6D0394630469E
:10215000FEF76FFF256007E021684A1E226003D268
:10216000BDE8F041032002E601213046FEF7ADFF55
:102170000028F1D03046BDE8F041FEF75CBF10B555
:102180000E4C01212046FEF787FCB920FFF7F6FD33
:102190002046BDE810400121FEF77CBC10B5074C7D
:1021A00001212046FEF778FCAB20FFF7E7FD204633
:1021B000BDE810400121FEF76DBC00000010014099
:1021C00070B505460C460F4E3078002803D1FFF756
:1021D00075FD01203070220AE1B2A13AC2EB021073
:1021E00000EB421001EB4000A1380102C81701EBDF
:1021F0005070C1100448202201442846FFF7DBFE3E
:10220000002070BD6C0000200030180001B502E015
:102210000098401E009000980028F9D108BD2DE9D3
:10222000F84F01216020FEF7CCFD03248DF8024019
:1022300018258DF803504FF48047ADF800706946BB
:10224000FE48FEF7B8FB4FF40048ADF80080694641
:10225000FA48FEF7B0FB0120ADF800006946F748E8
:10226000FEF7A9FB0220ADF800006946F348FEF72F
:10227000A2FB8026ADF800606946F148FEF79BFBA3
:102280004FF48079ADF800906946ED48FEF793FB76
:102290004FF4007AADF800A06946E948FEF78BFBE1
:1022A0004FF4806BADF800B06946E548FEF783FB5C
:1022B0003001ADF800006946E148FEF77CFB700193
:1022C000ADF800006946DE48FEF775FBB001ADF8D9
:1022D00000006946DA48FEF76EFBADF8007069460B
:1022E000D748FEF768FBADF800806946D448FEF792
:1022F00062FBADF800906946D048FEF75CFBADF894
:1023000000A06946CD48FEF756FBADF800B069461F
:10231000CA48FEF750FB8DF802408DF80350102597
:10232000ADF800506946C548FEF745FB2020ADF8E2
:1023300000006946C148FEF73EFBADF80060694603
:10234000BE48FEF738FBE801ADF800006946BB481F
:10235000FEF731FB8DF803508DF802400220ADF8F6
:1023600000006946B648FEF726FB8DF803508DF84D
:1023700002402802ADF800006946B048FEF71BFB9A
:10238000BDE8F88F00B597B001210802FEF70EFDF9
:102390000120019004200390800607900020029005
:1023A0000490059006900890099008210A91102148
:1023B0000B910C900E900F901090090211911290B9
:1023C0001390149001A81590169008A8FEF765F8D0
:1023D00001210020FEF795F917B000BD10B5CF2000
:1023E0004FF0C04420800021964801808121018067
:1023F00030210180ED2121806421018003210180B1
:102400001221018081210180E82121808521018024
:102410001021018078210180CB2121803921018088
:102420002C210180002101803421018002210180C2
:10243000F721218020210180EA21218000210180D3
:102440000180B1212180002101801B210180B62162
:1024500021800A210180A2210180C0212180352113
:102460000180C121218011210180C52121804521C8
:1024700001800180C7212180A2210180F2212180D9
:10248000002101802621218001210180E02121807D
:102490000F21018026210180242101800B21018050
:1024A0000E2101800921018054210180A821018091
:1024B000462101800C210180172101800921018022
:1024C0000F2101800721018000210180E12121806D
:1024D00000210180192101801B210180042101803C
:1024E00010210180072101802A21018047210180DC
:1024F00039210180032101800621018001803021E2
:102500000180382101800F21018036212180C821DE
:1025100001802A2121800021018001800180EF219A
:1025200001802B2121800021018001800121018077
:102530003F2101803A2121805521018011202080F6
:102540004148FFF763FE2920208010BD10B5072801
:102550002BD83E4A1070C4074FF0F0014FF4A0731F
:1025600024D05380918036210B071980082141EA3D
:102570004011344801802A21198000210180018006
:102580005188491EC1F307240480C9B201802B2160
:1025900019800021018001809188491EC1F3072222
:1025A0000280C9B201802C20188010BD5180938018
:1025B000D9E770B5224C02212046FEF76DFA40F6AD
:1025C000FF252846FFF722FE02212046FEF762FA89
:1025D0002846BDE8704019E6184A4FF4805100289B
:1025E00002D01046FEF758BA1046FEF753BA10B59F
:1025F000FFF715FEFFF7C6FE0120FFF7EDFFFFF71F
:10260000D8FFFFF7EBFE11480078BDE810409DE7CA
:1026100070B52A244FF0C0463480050A094C258045
:10262000C5B225801044401E020A2280C0B220801C
:102630002B203080080A2080C8B209E00014014035
:102640000018014000000260FCBF02007000002082
:102650002080C818401E010A2180C0B2208070BDB1
:1026600001231A46D4E770B514461D462B46224670
:10267000FFF7CEFFFA4904FB05F00989BDE8704079
:1026800000F09EBC10B5F64C628890420AD2A28837
:10269000914207D2FFF7E4FFE188BDE81040012036
:1026A00000F08EBC10BD2E204FF0C0410880ED48D8
:1026B00001880188028800886FF30A01800A41EAD4
:1026C000401040EAD220704710B5FFF7C9FFBDE8BF
:1026D0001040E8E72DE9FE4F00250026171AA3EB6E
:1026E000010882468B46681E002F03DD4FF0010172
:1026F000019107E003D14FF00001019102E0019048
:10270000C7F10007B8F1000F03DD4FF001000090A2
:1027100007E003D14FF00000009002E00090C8F104
:102720000008474501DD3C4600E044464FF0000903
:10273000601C029017E059465046FFF7A3FF3D4446
:102740004644A54204DD2D1B019850441FFA80FA2F
:10275000A64204DD361B009858441FFA80FB09F19D
:1027600001091FFA89F902988145E4DDBDE8FE8F71
:102770002DE9F041064606980F4614461D460028EE
:102780000DD02B46224639463046FFF741FFB4496B
:1027900004FB05F0C988BDE8F04100F011BC3444E9
:1027A000641EA2B23B4639463046FFF793FF3D44D4
:1027B0006D1EABB2A2B2A9B23046FFF78BFFABB22F
:1027C000324639463046FFF785FFABB2A2B2A0B21F
:1027D0003946BDE8F0417DE72DE9FF4F85B007465A
:1027E0008846002416B20320A0EB42000FFA80F9BD
:1027F00094E00898E8B3254642E0381908EB050A4A
:1028000004901FFA8AF180B2FFF73CFF1FFA8AF1A9
:10281000A7EB040A1FFA8AF0FFF734FF08EB040065
:1028200081B2A7EB050B03901FFA8BF0FFF72AFF8D
:10283000A8EB040081B202901FFA8BF0FFF722FF91
:10284000A8EB050B1FFA8BF11FFA8AF0FFF71AFFAE
:1028500004981FFA8BF180B2FFF714FF029807EB80
:10286000050A81B21FFA8AF0FFF70CFF039881B2C4
:1028700000E008E01FFA8AF0FFF704FF6D1C2DB29C
:10288000B542BADD37E0381908EB06050190A9B268
:1028900080B2FFF7F7FEA7EB040AA9B21FFA8AF08D
:1028A000FFF7F0FE08EB040081B2A7EB060B0090E7
:1028B0001FFA8BF0FFF7E6FEA8EB0405A9B21FFA9A
:1028C0008BF0FFF7DFFEA8EB060B1FFA8BF11FFA68
:1028D0008AF0FFF7D7FE01981FFA8BF180B2FFF75D
:1028E000D1FEA9B2BD19A8B2FFF7CCFE009881B203
:1028F000A8B2FFF7C7FE641C24B2B9F1000F05DAD5
:1029000009EB8400801D0FFA80F907E0A01B09EB9A
:1029100080000A300FFA80F9761E36B2B4427FF793
:1029200068AF09B0BDE8F08FF0B5203A97B24C4ED1
:10293000F568AA88EB8802FB03F44FEAE47C04EB19
:102940005C74C4F3C7042D6807FB0455FFF760FEF1
:102950002C20C10608800021424F12E00020802375
:102960006A5C23FA00FC12EA0C0F02D0F2883A806B
:1029700001E032893A80401CC0B20828F0D3491CDB
:10298000C9B2A142EAD3F0BDF0B505460E46002417
:10299000334F19E0F8687B8881882144994203D934
:1029A0000024C18829448DB2C088B988284488424F
:1029B00001D90024002529462046FFF7B5FF761CE3
:1029C000F8688088204484B23278002AE2D1F0BDD1
:1029D000F0B504460D461646214F19E0F8687B888D
:1029E00081882144994203D90024C18829448DB2A9
:1029F000C088B9882844884201D900240025294686
:102A00002046FFF791FF761CF8688088204484B246
:102A10003278002AE2D1F0BDF0B505460C461646E4
:102A20000F4F19E0F868BB88C1882144994203D947
:102A30000024818829448DB280887988284488427E
:102A400001D90025002421462846FFF76DFF761C9A
:102A5000F868C088204484B23278002AE2D1F0BD00
:102A600070000020000002602DE9F04188B014469B
:102A700010231A46FFF7CCFD2C20C30618802146F0
:102A80006846FFF79DFB0021EC464FF6FF784FF4B8
:102A90000047FE4DFE4E1CF8110008EA00200CEB2A
:102AA000410254780443002027FA00F3234202D065
:102AB000EA88328001E02A893280401CC0B21028A6
:102AC000F2D3491CC9B21029E5D308B0BDE8F081A2
:102AD0002DE9F04104460D461646EC4F1AE0798880
:102AE00004F11000884202D900241035ADB2B98833
:102AF00005F11000884201D9002400253088010228
:102B000001EB102082B229462046FFF7ADFF1034BA
:102B1000A4B2B61C30780028E1D1D7E72DE9F04106
:102B200005460E460024D94F37E07E2A1AD8F868A9
:102B30007B8881882144994203D90024C188294493
:102B40008DB2C088B9882844884201D90024002564
:102B500029462046FFF7E8FEF8688088204484B2C2
:102B6000761C1AE0798804F11000884202D900240A
:102B70001035ADB2B98805F11000884201D90024A2
:102B800000253088010201EB102082B22946204640
:102B9000FFF76AFF1034A4B2B61C3278002AC4D101
:102BA00094E72DE9F04104460D461646B74F37E04D
:102BB0007E2A1AD8F8687B8881882144994203D9F3
:102BC0000024C18829448DB2C088B988284488422D
:102BD00001D90024002529462046FFF7A5FEF86804
:102BE0008088204484B2761C1AE0798804F11000B1
:102BF000884202D900241035ADB2B98805F1100021
:102C0000884201D9002400253088010201EB102000
:102C100082B229462046FFF727FF1034A4B2B61C23
:102C20003278002AC4D151E72DE9F04106460C461E
:102C30001546964F24E0B98804F11000884202D965
:102C400000241036B6B2798806F11000884201D906
:102C5000002600247E2A07D821463046FFF764FE6E
:102C60006D1C1034A4B20BE02888010201EB102087
:102C700082B221463046FFF7F7FE1034A4B2AD1CF5
:102C80002A78002AD7D121E72DE9F04F099F0B9D23
:102C9000040494FBF2F909F101090C0494FBF3FA22
:102CA0000AF1010A0026202866D200FB01F4002C5C
:102CB00062D0B4F5806F5FDA02FB03F4002C5BD0C6
:102CC000B4F5804F58DA734C41434FEAE17C4FF042
:102CD000800B01EB5C7E0DB100252FE0002514E098
:102CE000002117F805802BFA01FC18EA0C0F02D01E
:102CF0004FF0010C01E04FF0000C04F801CB491C2F
:102D000089B20829EDD36D1CADB2B5EBEE0FE7DB50
:102D100017E0002117F805802BFA01FC18EA0C0FC8
:102D200002D04FF0010C01E04FF0000C04F801CB91
:102D3000491C89B20829EDD36D1CADB2B5EBEE0F7D
:102D4000E7DBDFF85081A8F58045002712E000247A
:102D5000310C00FB018C002107E00CEB144B9BF8BD
:102D600000B005F801B04C44491C9142F5D35644DB
:102D700015447F1C9F42EAD3D4E52DE9F041164665
:102D8000DDE906479846002543463246FFF740FCFA
:102D90002C20C10608803D4B3D4A0EE0002009E092
:102DA00014F8011BB94202D11989118001E0D988B8
:102DB0001180401CB042F3D36D1C4545EED385E62F
:102DC0002DE9F04F8BB00446DDE9145A0F469046CA
:102DD00099464646DFF8C0B057E02C49A2194B8807
:102DE0009A4203D9002407EB090297B2898807EBBE
:102DF00009028A4201D90024002780281FD94646AB
:102E00002888010201EB102081B203A8FFF7D8F94E
:102E100003AA0121CDE90028029110214B46324638
:102E20000846FFF731FFCDE900BA4B463246394636
:102E30002046FFF7A2FFA01984B2AD1C25E04FEA9F
:102E400058062038C1B215480023C288B0F804C023
:102E5000006802FB0CF24A43D11702EB5171CDE935
:102E6000018300EBE10000904B4632461821102010
:102E7000FFF70AFFCDE900BA4B46324639462046F5
:102E8000FFF77BFFA01984B26D1C09E070000020E1
:102E900000000260E4400020E40000206400002004
:102EA0002878002899D10BB03CE52DE9F04F8BB084
:102EB0000746DDE914590C4616469846DFF818B166
:102EC00058E04649A2194B889A4202D90024BA19FF
:102ED00097B2898807EB08028A4201D900240027AB
:102EE000802820D9B2462888010201EB102081B247
:102EF00003A8FFF765F903AA0121CDE90026029195
:102F00001021434652460846FFF7BEFECDE900B900
:102F10004346524621463846FFF72FFF04EB080090
:102F200084B2AD1C26E04FEA560A2038C1B22C48C4
:102F30000023C288B0F804C0006802FB0CF24A43C8
:102F4000D11702EB5171CDE9016300EBE100009074
:102F50004346524618211020FFF796FECDE900B9EE
:102F60004346524621463846FFF707FF04EB080068
:102F700084B26D1C28780028A3D194E71749C86053
:102F800070471648C0687047144AD0801181704756
:102F9000124AD38803801089088070470F49C8807F
:102FA00070470E490881704710B50146FFF7E9FFE9
:102FB000C3880A484288BDE810400020FFF753BB91
:102FC00010B500222C23DC062380064B01E019807B
:102FD000521C8242FBD310BDE40000207000002090
:102FE000640000200000026000F1080141604FF021
:102FF000FF328260C16001610021016070470021E1
:103000000161704742684A6093688B6093685960B9
:10301000916008610168491C0160704730B50C6817
:10302000621C02D000F1080202E0026904E01A46C4
:1030300053681D68A542FAD953684B6099608A604D
:10304000516008610168491C016030BD0169D0E927
:1030500001329A60D0E901235A604A68824201D164
:1030600082684A60002202610868401E086070475A
:1030700070B50024FB4D04EB840005EB8000FFF7E6
:10308000B3FF641C202CF6D3F748FFF7ADFFF648DA
:103090001430FFF7A9FFF4482830FFF7A5FFF248E6
:1030A0003C30FFF7A1FFF0485030FFF79DFFEF489D
:1030B000ED4941631431816370BD70B5044601F080
:1030C00043F9EA4DA868401CA860286810B16869F7
:1030D00038B10CE02C60A868012808D1FFF7C8FFC0
:1030E00005E02868E16AC06A884200D82C60686AF6
:1030F000401C6862E06A01212A698140114329610C
:10310000D84900EB800001EB8000211DFFF77AFF1A
:1031100001F034F9686900280CD02868E16AC06AB7
:10312000884207D2D2494FF080500860BFF34F8FDA
:10313000BFF36F8F70BD2DE9F0478146DDE9085878
:103140000A9C0E469A46206B521E00EB820020F02D
:103150000707780705D040F22B32C6A1CCA001F0BA
:10316000A7F900202218315C82F83410315C11B1CB
:10317000401C1028F6D3002684F84360202D00D38D
:103180001F25E562201DFFF73AFF04F11800FFF745
:1031900036FF2461C5F12000A0616462666484F892
:1031A000486052464946384601F075F82060B8F14B
:1031B000000F01D0C8F80040BDE8F0872DE9FF5F9F
:1031C0008146DDE90E788A4616469B46B00000F03F
:1031D00090FF054628000AD04C2000F08AFF0446E4
:1031E0000CB1256304E0284600F0EAFF00E000246B
:1031F0008CB10020CDE90240CDE900785B46324633
:1032000051464846FFF797FF2046FFF756FF01203B
:1032100004B0BDE8F09F4FF0FF30F9E79348416BF1
:103220000968002905D0416BC968C968496881628D
:1032300070474FF0FF318162704710B50446206B34
:1032400000F0BEFF2046BDE8104000F0B9BF70B5E9
:10325000044601F079F8854D04B92C68201DFFF76C
:10326000F5FE58B9E06A7F4A00EB800152F8211060
:1032700021B901218140286988432861A06A18B1D9
:1032800004F11800FFF7E2FE686A401C68622868D3
:10329000844208D17448211D3C30FFF7B3FE6868B2
:1032A000401C686007E0A868401EA8602046FFF741
:1032B000C4FFFFF7B3FF01F061F86869002812D07E
:1032C000286884420FD1286B28B140F2654269A179
:1032D0006FA001F0EDF866494FF080500860BFF331
:1032E0004F8FBFF36F8F70BD2DE9F04100265F4F08
:1032F000386B002808D0B869401CB861F86900B183
:1033000001263046BDE8F081FD686D1CFD608DB979
:10331000786B006828B140F6D91256A15CA001F084
:10332000C7F8786BB96B7963B863386A401C386248
:10333000FFF774FFB86ADFF82C8185420DD3786BF4
:10334000006838B1786BC068C468606885420ED286
:10335000B86202E04FF0FF30B8623868C06A00EB34
:10336000800058F820000128C8D90126C6E7201D92
:10337000FFF76CFEA06A18B104F11800FFF766FEB3
:10338000E06A01213A6981401143396100EB800014
:1033900008EB8000211DFFF735FEE06A3968C96A35
:1033A0008842CCD30126CAE72DE9F041002400274A
:1033B0002E4D286B002805D14FF4FD622DA134A0BD
:1033C00001F076F800F0C0FF286B401E2863286BE0
:1033D000F0BBA868E0B3DFF89080012608F1280868
:1033E0001DE0D8F80C00C46804F11800FFF72EFEA9
:1033F000201DFFF72BFEE06A2A6906FA00F111434F
:103400002961184900EB800001EB8000211DFFF7C6
:10341000F9FDE06A2968C96A884200D3EE61D8F8EC
:1034200000000028DDD10CB1FFF7F8FEAC6944B113
:10343000FFF75AFF00B1EE61641E002CF8D10020A6
:10344000A861E86920B1012709493807086000E050
:1034500003E0BFF34F8FBFF36F8F00F08FFF38464D
:1034600050E70000E4440020644700208000002072
:1034700004ED00E02E2E5C2E2E5C467265655254E3
:103480004F535C7372635C7461736B732E630000E3
:103490004572726F723A25732C25640D0A00000084
:1034A0002DE9F04104460F46FE4EF5683068001DD8
:1034B000FFF7CCFD38B9306890F82C100120884017
:1034C000316981433161601C07D137B13168BDE892
:1034D000F041091DF448FFF795BD2C443068446065
:1034E000AC4206D23168B06B091DBDE8F041FFF770
:1034F00095BD3168706B091DFFF790FDB06A84427D
:1035000000D2B462FEE6E748016B491C01637047D4
:103510002DE9F04105460E460024002D07D140F26A
:103520007942AFF2B001AFF2980000F0C1FF3EB9AE
:1035300040F27A42AFF2C401AFF2AC0000F0B8FF43
:10354000D84F386B38B140F27B42AFF2D801AFF2BE
:10355000C00000F0ADFFFFF7D6FFFA682B6899199D
:10356000934205D98B4208D9914206D9012404E03F
:103570008B4201D8914200D9012429601CB1881ADC
:103580000021FFF78DFFFFF70FFF002807D1C74984
:103590004FF080500860BFF34F8FBFF36F8FB1E6DD
:1035A00010B504460020002C12D0BE48006B38B184
:1035B00040F2CF42AFF24411AFF22C1000F078FF8E
:1035C000FFF7A1FF00212046FFF76AFFFFF7ECFE9F
:1035D000002807D1B5494FF080500860BFF34F8FE6
:1035E000BFF36F8F10BD70B50546002D07D140F2B7
:1035F000FB42AFF28011AFF2681000F059FFA94E04
:103600003068854201D1002070BD00F09DFE6C69DC
:1036100000F0B4FE706B844202D0B06B844201D1E2
:10362000022070BDA048844205D1A86A08B10220DA
:1036300070BD032070BD9C481438844202D00CB188
:10364000012070BD042070BD10B5044600F07CFE62
:103650000CB994480468E46A00F090FE204610BD5E
:1036600010B5044600F0B1FE5020EFF3118180F355
:103670001188BFF34F8FBFF36F8F0CB9894804686F
:10368000E06A81F3118810BD2DE9F04104460D4632
:103690000026202D07D34FF4B062AFF22821AFF2FD
:1036A000102000F005FF202D00D31F2500F04CFE58
:1036B0007C4F04B93C68D4F82C80A8453CD04545E3
:1036C00008D93868844209D03868C06AA84205D849
:1036D000012603E03868844200D10126E562A06932
:1036E000002802DBC5F12000A061714D08EB8801C4
:1036F000606905EB8101884215D1201DFFF7A6FC0A
:10370000012120B93A6901FA08F082433A61E06A7E
:103710003A6981401143396100EB800005EB80007C
:10372000211DFFF76FFC3EB160494FF080500860EB
:10373000BFF34F8FBFF36F8FBDE8F04100F01EBEA7
:1037400070B5584D286B002802D00120E86170BD8B
:103750000020E8612869B0FA80F0C0F11F00544EE3
:1037600000EB800456F8240038B940F6F622AFF298
:10377000FC21AFF2E42000F09BFE06EB84004168E0
:103780004968416000F10802914201D149684160F5
:103790004068C068286070BD70B5044600F0D4FD74
:1037A000404D04B92C68201DFFF750FC58B9E06A61
:1037B0003F4A00EB800152F8211021B901218140DC
:1037C000286988432861A06A18B104F11800FFF73E
:1037D0003DFC211D3448FFF715FC00F0CFFD686962
:1037E00028B100F0B1FDFFF719FD00F0C7FD286812
:1037F000844213D1686990B1286B38B140F25762A6
:10380000AFF29031AFF2783000F052FE27494FF01E
:1038100080500860BFF34F8FBFF36F8F70BD224899
:10382000A9680068884202D10020286070BDBDE808
:10383000704085E770B500250446002807D140F2A6
:103840008162AFF2D031AFF2B83000F031FE1649EC
:103850006069884205D1A06A2839884201D000B940
:103860000125284670BD70B50446002807D140F2F6
:10387000AB62AFF20041AFF2E83000F019FE002C6D
:1038800034D0084D2868844230D000F05DFD2046D9
:10389000FFF7D0FF30B3201DFFF7D8FBE06A01210E
:1038A000814007E080000020B447002004ED00E0E4
:1038B000E44400202A6911432961F94900EB8000A2
:1038C00001EB8000211DFFF79DFBE06A2968C96AB2
:1038D000884207D3F3494FF080500860BFF34F8F01
:1038E000BFF36F8FBDE8704000F048BD70BD2DE99B
:1038F000F04100260446002807D140F2E262AFF210
:103900008C41AFF2744000F0D3FD00F05EFD50201A
:10391000EFF3118580F31188BFF34F8FBFF36F8FE3
:103920002046FFF787FF38B1DF4F386B40B104F115
:103930001801DE48FFF766FB85F311883046E1E4A5
:10394000E06A3968C96A884200D30126201DFFF762
:103950007DFBE06A01213A69814011433961D04918
:1039600000EB800001EB8000211DFFF74BFBE3E73C
:1039700070B5CE4ECC4D14361CE0FFF7C4FD306858
:1039800020B10024FFF710FDA4B901E00124F9E7FC
:1039900000F0DAFCF068C468201DFFF757FBA86848
:1039A000401EA8606868401E686000F0E7FC204682
:1039B000FFF743FC68680028DFD170BDB84E4FF0B8
:1039C0008054B84DFFF7D4FF30680128FAD92C6035
:1039D000BFF34F8FBFF36F8FF4E71CB5B2480024DD
:1039E0002C30CDE9004023468022B1A1B248FFF738
:1039F000E5FB01280CD0401C1CD140F28472AFF2D0
:103A00008C51AFF2745002B0BDE8104000F050BDD0
:103A1000502080F31188BFF34F8FBFF36F8FA24800
:103A20004FF0FF31816201214161C460BDE81C405B
:103A300000F04ABC1CBD502080F31188BFF34F8FAB
:103A4000BFF36F8F98490020486100F071BC964821
:103A5000C068704710B500F0B8FC9348C06810BD4E
:103A600091488068704710B5002802D004461CB108
:103A70000AE08D480468FAE740F68C02AFF20C6168
:103A8000AFF2F45000F014FD04F1340010BD70B535
:103A900004460D46002C07D140F60632AFF22C61E9
:103AA000AFF2146000F004FD7F4801682046183131
:103AB000FFF7B4FA2846BDE870400121F0E42DE993
:103AC000F04105460E461746002D07D140F6173245
:103AD000AFF26061AFF2486000F0EAFC724C206B1C
:103AE00038B940F61B32AFF27461AFF25C6000F09F
:103AF000DFFC216846F000408861216828461831C3
:103B0000FFF780FA3846BDE8F0410121C8E42DE90D
:103B1000F041C068C468002C07D140F66132AFF2B2
:103B2000AC61AFF2946000F0C3FC04F118000746EA
:103B3000FFF78CFA5C4D2A6B01265AB139465B4877
:103B4000FFF760FAE06A2968C96A884214D901203F
:103B5000EE6185E4201DFFF779FAE06A2A6906FA2A
:103B600000F1114329614E4900EB800001EB800018
:103B7000211DFFF747FAE5E7002071E470B506461E
:103B80000C46494D286B002807D140F69932AFF218
:103B90001C71AFF2047000F08BFC44F00040306008
:103BA000F4683CB940F6A132AFF23871AFF2207040
:103BB00000F07EFC3046FFF749FA201DFFF746FA79
:103BC000E06A01262A6906FA00F1114329613449A5
:103BD00000EB800001EB8000211DFFF713FAE06A83
:103BE0002968C96A884202D90120EE6170BD0020AF
:103BF00070BD10B50446002C07D140F6C132AFF2BB
:103C00008C71AFF2747000F053FC2748016A216098
:103C1000C068606010BD70B504460D46002C07D129
:103C200040F6CB32AFF2B471AFF29C7000F040FCC2
:103C30003DB940F6CC32AFF2C471AFF2AC7000F0D7
:103C400037FC00F081FB184AD06829684B1C08D06B
:103C50002368126A934206D06268824203D8012424
:103C60000DE000240BE06268801A884206D2081A30
:103C700028602046FFF7BDFF002400E0012400F08B
:103C80007DFB204670BD08490120C8617047064889
:103C90004169002912D0006B90B1002070470000EC
:103CA000E444002004ED00E0800000208C47002068
:103CB00049444C4500000000BD3900080120EDE7F3
:103CC0000220EBE7E249086880690A680968D26A5D
:103CD000C2F120028A61E1E770B506460C4600F0A9
:103CE00033FBDB4D2868406C80B92A68012082F8DC
:103CF00048005CB101212046FFF7D2FBD5494FF0C7
:103D000080500860BFF34F8FBFF36F8F00F036FB1A
:103D100000F01AFB2868446C002034B116B1296801
:103D2000486402E02A68611E5164296881F84800ED
:103D300000F024FB204670BD2DE9F04781460F4678
:103D40001646984600F000FBC14D286890F84800E0
:103D5000022817D02C68606C20EA0900606429688A
:103D6000012081F84800B8F1000F0BD00121404636
:103D7000FFF796FBB7494FF080500860BFF34F8FB5
:103D8000BFF36F8F00F0FAFA00F0DEFA16B1286880
:103D9000406C3060286890F8480001280DD02868F1
:103DA000416CB943416401242968002081F848002E
:103DB00000F0E4FA2046BDE8F0870024F4E72DE99E
:103DC000F04104460D4690461F460126002C07D1BF
:103DD00041F2FD02AFF66411AFF64C1000F068FB43
:103DE00000F0B2FA0FB1606C386094F8480002211C
:103DF00084F84810B8F1050F13D2DFE808F0120379
:103E0000070B0D00616C294361640AE0616C491C79
:103E1000616406E0656404E0022801D0656400E0A6
:103E20000026012828D1201DFFF710F9884DE06AEF
:103E300001212A69814011432961874900EB8000F3
:103E400001EB8000211DFFF7DDF8A06A38B141F2D7
:103E50003512AFF6E011AFF6C81000F029FBE06AAA
:103E60002968C96A884207D97A494FF080500860AA
:103E7000BFF34F8FBFF36F8F00F080FA30465EE5DF
:103E80002DE9F0470446DDF820800D4691469A461C
:103E90000127002C07D141F26812AFF62821AFF6B6
:103EA000102000F005FB00F090FA5020EFF311868F
:103EB00080F31188BFF34F8FBFF36F8FBAF1000FFC
:103EC00002D0606CCAF8000094F84800022184F81F
:103ED0004810B9F1050F13D2DFE809F01203070B00
:103EE0000D00616C294361640AE0616C491C6164E6
:103EF00006E0656404E0022801D0656400E0002764
:103F0000012832D1A06A38B141F2AF12AFF69C213C
:103F1000AFF6842000F0CCFA4D4D286B4FF001092C
:103F200078B104F118014D48FFF76CF8E06A296890
:103F3000C96A884219D9B8F1000F14D0C8F80090A6
:103F400013E0201DFFF782F8E06A2A6909FA00F100
:103F50001143296100EB80013F4800EB8100211DE6
:103F6000FFF750F8E2E7C5F81C9086F31188384651
:103F700021E72DE9F04104468846002C07D141F2A3
:103F8000E312AFF61031AFF6F82000F091FA00F02E
:103F90001CFA5020EFF3118780F31188BFF34F8F85
:103FA000BFF36F8F94F84800022184F84810616CC9
:103FB000491C6164012830D1A06A38B141F209225C
:103FC000AFF65031AFF6383000F072FA204D286B62
:103FD000012678B104F118012048FFF713F8E06AD0
:103FE0002968C96A884218D9B8F1000F14D0C8F8F6
:103FF000006012E0201DFFF729F8E06A2A6906FA3E
:1040000000F111432961144900EB800001EB8000AD
:10401000211DFEF7F7FFE2E7EE6187F311888EE4DA
:1040200010B500280BD0044600F08EF994F8480033
:10403000022807D0002400F0A1F9204610BD044852
:104040000468F1E7002084F848000124F3E7000049
:104050008000002004ED00E0E44400208C470020B4
:1040600030B5744900E011460A688242FBD34B68C0
:104070005C18844203D140681844486008460D68C3
:1040800044682318AB420DD16A4B103B1B689A421F
:1040900006D05268224442600A681268026002E058
:1040A000036000E00260814200D0086030BD4FF440
:1040B00010416148420706D0C01D20F007005E494C
:1040C000411AC1F510415B4A10600023536001445E
:1040D000083921F00701103A11604B600B600B1A90
:1040E000436001604068906050604FF00040D060D5
:1040F00070472DE9F04105460026FFF704FA4D4FC1
:10410000103F386808B9FFF7D2FFF86805424AD176
:1041100075B1083568070BD005F00700C0F108003D
:104120000544680704D0BF2244A14EA000F0C0F9A6
:10413000002D38D07868854235D83E490846046855
:1041400001E0214604466068A84202D220680028A7
:10415000F7D13868844226D00E6808362068086097
:104160006068401B102811D904EB05085FEA48700D
:1041700004D0EC2231A13BA000F09AF96068401B0A
:10418000C8F8040065604046FFF76AFF6168786818
:10419000401A7860BA68904200D2B860F86801436B
:1041A000616000202060FFF7FFF8700705D04FF432
:1041B000967222A12BA000F07BF93046BDE8F08179
:1041C00070B500282BD0083804461A4D6068103DA1
:1041D000E968084205D14FF4A07218A121A000F0AF
:1041E00067F9206828B140F2411214A11DA000F027
:1041F0005FF96068E968084211D02268002A0ED190
:1042000088436060FFF77FF9606869680844686008
:104210002046FFF725FFBDE87040FFF7C5B870BD29
:10422000044810384068704702481038806870476A
:1042300070470000CC000020C84700202E2E5C2EC6
:104240002E5C4672656552544F535C706F72745C9D
:104250004D656D4D616E675C686561705F342E639E
:10426000000000004572726F723A25732C25640DB0
:104270000A00000067484068401C04D0F42266A190
:104280006FA000F015F9502080F31188BFF34F8F15
:10429000BFF36F8FFEE720384FF08073C36121F0CA
:1042A000010181616A49416140F8202970476948EC
:1042B0004FF47A710068B0FBF1F14FF0E020491E35
:1042C00041610721016170471CB56349087801907D
:1042D000FF200870087800909DF800004D4A00F01B
:1042E000500010700720906006E09068401E9060BB
:1042F0009DF80000400000909DF800000006F4D4F6
:10430000107A000200F4E060906001980870534851
:10431000016841F470010160016841F07041016081
:10432000FFF7C5FF00205060FBF71EFF00201CBDFB
:1043300038484068B0F57A7F05D04FF4B57236A1A1
:104340003FA000F0B5B87047502080F31188BFF34C
:104350004F8FBFF36F8F2F494868401C486001287A
:104360000BD13E481C38006810F0FF0F05D04FF409
:10437000BD7229A132A000F09BB8704710B5254C42
:104380006068002805D140F2811223A12CA000F022
:104390008FF86068401E6060002801D180F31188AA
:1043A00010BD10B5502080F31188BFF34F8FBFF3BD
:1043B0006F8FFEF799FF20B128494FF080501C39CC
:1043C0000860002080F3118810BD10B5FBF702FFD4
:1043D000104C10280CD300F1E02090F8F003217865
:1043E000884205D24FF42A720BA115A000F060F8A4
:1043F0001A4814380068A16800F4E060884207D9C0
:10440000BDE810404FF42E7203A10DA000F050B88B
:1044100010BD0000D40000202E2E5C2E2E5C4672B3
:10442000656552544F535C706F72745C52564453BE
:104430005C41524D5F434D335C706F72742E63006C
:104440004572726F723A25732C25640D0A000000C4
:10445000754200080000002000E400E020ED00E0CC
:1044600030B50B46014600202022012409E021FA44
:1044700002F59D4205D303FA02F5491B04FA02F541
:104480002844151EA2F10102F1DC30BD064C074D97
:1044900006E0E06840F0010394E807009847103414
:1044A000AC42F6D3FBF748FE385F0008585F0008BF
:1044B0000FB4054B10B503A9044A029800F02CF87C
:1044C00010BC5DF814FB00001B1C0008E00000207D
:1044D0000FB4084B10B504A902AA039800F01CF809
:1044E000044602A9002000F0F3F8204610BC5DF855
:1044F00014FB0000D146000802E008C8121F08C1E2
:10450000002AFAD170477047002001E001C1121F54
:10451000002AFBD1704700002DE9FF4F8BB09A466F
:104520000F460546002606E025280BD052460D9979
:1045300090476D1C761C28780028F5D10FB03046C6
:10454000BDE8F08F0024A0460122604900E004434A
:1045500015F8013F203B02FA03F00842F7D1287812
:104560002E2817D115F8010F44F004042A280ED084
:104570006FF02F022878A0F1300109290AD808EB42
:10458000880102EB410100EB01086D1CF2E757F8CE
:10459000048B6D1C287869283ED006DC0028CDD01D
:1045A00063280BD0642804D136E0732810D0752816
:1045B0004BD052460D999047761C85E017F8040BB6
:1045C0008DF8000000208DF80100E946012003E08D
:1045D00057F8049B4FF0FF3061074FF0000401D4FF
:1045E0000AE0641C44450DDA8442FADB19F8041031
:1045F0000029F6D106E0641C8442FCDB19F80410A3
:104600000029F8D1264404E019F8010B52460D990F
:104610009047641EF8D257E001CF4FF00A0B0028F4
:1046200002DA40422D2102E0210504D52B218DF82C
:104630002410012103E0E10705D02021F7E70DF167
:10464000200908910CE00021F9E701CF4FF00A0B97
:10465000F9E75946FFF704FF01F1300209F8012D8F
:104660000028F6D1ADEB090000F1200B600701D462
:104670004FF00108D84502DDA8EB0B0000E0002058
:104680008046002406E009A85246005D0D99904737
:10469000641C761C08988442F5DB04E03020524606
:1046A0000D999047761CB8F10001A8F10108F5DCDE
:1046B00005E019F8010B52460D999047761CBBF1A5
:1046C0000001ABF1010BF4DC6D1C34E7092801009B
:1046D0000A68531C0B601070704700000000000057
:1046E0000000000000000000000000000018181882
:1046F00018181808000818000000000000342424CE
:10470000240000000000000000000000000016244B
:104710007F2424247E2424000000000000083E683A
:1047200048681C1612127C10100000000061D2961E
:10473000740810162949C6000000000000003C64FF
:104740006438724ACE467F00000000000018181836
:10475000180000000000000000000000000408181D
:1047600010303030301010180C04000000201008F9
:10477000080C0404040C08181020000000080A3477
:104780001C6A08000000000000000000000000009B
:104790001818187F1818180000000000000000000A
:1047A00000000000001818083000000000000000A1
:1047B0000000003C000000000000000000000000BD
:1047C00000000000001818000000000000020604AD
:1047D0000C080810102020400000000000003C667B
:1047E00042475B7342663C000000000000001878FE
:1047F0004808080808087E000000000000003C4649
:104800000606040810207E000000000000007C0660
:1048100006043C0202067C000000000000000C1CA4
:1048200014246444FF0404000000000000007E60C3
:1048300060607E0202067C000000000000001E3066
:104840006048764242623C000000000000007E02A8
:1048500006040C08181030000000000000003C6244
:1048600042361C6642423C000000000000003C66EC
:104870004242661A020478000000000000000000B6
:1048800018180000001818000000000000000000C8
:104890001818000000181808300000000000000080
:1048A00004183060100C060000000000000000003A
:1048B00000007E007E0000000000000000000000FC
:1048C000301804060C1020000000000000301C0608
:1048D000060618100010100000000000001C224105
:1048E00041DDB5A5A5AF94C0403C00000000181CF8
:1048F000342426627E43C1000000000000007C4694
:1049000042467C4242427C000000000000001E2023
:104910004040404040603E000000000000007C46F7
:1049200042434343424678000000000000007E609E
:1049300060607E6060607E000000000000007E60BD
:1049400060607E60606060000000000000001E602B
:104950004040CE4242623E00000000000000424261
:1049600042427E42424242000000000000007E18A7
:104970001818181818187E000000000000007C04A9
:1049800004040404044478000000000000004244D1
:10499000485070584C4442000000000000002020A5
:1049A0002020202020203E00000000000000626641
:1049B000675F5B5BC1C1C100000000000000626274
:1049C00072525A4A4E4646000000000000003C6207
:1049D00043C3C3C343623C000000000000007C46A8
:1049E00042424678404040000000000000003C6227
:1049F00043C3C3C343623C180F00000000007C6641
:104A000062667C6C646662000000000000003E602C
:104A100040601C0602027C000000000000007F18BD
:104A2000181818181818180000000000000042425A
:104A30004242424242623C00000000000000C1438A
:104A400042622624341C1800000000000000C1C18E
:104A500041495B5B7666660000000000000043662B
:104A60003418181C2466C300000000000000C14276
:104A700066341C18181818000000000000007E02A0
:104A8000040C181020607E0000000000001C1010B4
:104A90001010101010101010101C000000402020EA
:104AA000101008080C04060200000000003C0C0C6A
:104AB0000C0C0C0C0C0C0C0C0C3C00000000181C1A
:104AC0002462000000000000000000000000000060
:104AD000000000000000000000FF000000201000A7
:104AE00000000000000000000000000000000000C6
:104AF0003C06023E42467A00000000000040404072
:104B00005C62424242427C00000000000000000063
:104B10001E20604060203E000000000000020202F3
:104B20003E62424242663A0000000000000000007F
:104B30003C62427E40603E0000000000000F181002
:104B4000107E101010101000000000000000000087
:104B50003F66426658403E43423C000000404040B1
:104B60005C6242424242420000000000001818000D
:104B70007808080808087E000000000000040C0007
:104B80007C040404040404040C78000000606060E9
:104B9000626C7870686462000000000000780808A9
:104BA0000808080808087E00000000000000000057
:104BB000764B4B4B4B4B4B000000000000000000BD
:104BC0005C624242424242000000000000000000DD
:104BD0003C62424342623C000000000000000000D2
:104BE0005C62424242427C404040000000000000C3
:104BF0003E62424242663A020202000000000000A9
:104C00006E726360606060000000000000000000E1
:104C10003E20203C06027C00000000000000101036
:104C2000FE10101010101E00000000000000000018
:104C30004242424242663A0000000000000000008A
:104C400043426624341818000000000000000000F1
:104C5000C1C15B5A5E6666000000000000000000F3
:104C600062261C181C2662000000000000000000E4
:104C700043426624341C181830E000000000000095
:104C80007E060C1810207E0000000000000E181098
:104C90001010307010101010180E000008080808CE
:104CA0000808080808080808080800000030180864
:104CB00008080C0E08080808183000000000000062
:104CC0000000714B06000000000000000000000022
:104CD00000000000000000000000000000000000D4
:104CE00000000000000000000000000000000000C4
:104CF00000000000000000000000000000000000B4
:104D0000000000000380018001800180018001809B
:104D100001800180018001800000000003C003C009
:104D20000000000000000000000000000000000083
:104D3000000000000E700E700E700C3000000000BD
:104D40000000000000000000000000000000000063
:104D50000000000000000000000000000000000053
:104D60000000000000000618063806307FFE0C30F8
:104D70000C300C300C307FFE0C601C60186018602A
:104D80000000000000000000000000000000000023
:104D9000000000C000C00FF83CC831C031803D8029
:104DA0001F8003F001F8031C030C031C3FF83FE0D5
:104DB00007000600000000000000000000000000E6
:104DC00000001C007E0E630C631863307E6000C020
:104DD00001800300077C0EE61CC618C630C6607C46
:104DE00000000000000000000000000000000000C3
:104DF000000000000FE01CF0387038701C601FC00D
:104E00000F003F8C71CC60EC607C70383CFC1FCE96
:104E10000000000000000000000000000000000092
:104E20000000000003C0018001800180000000003C
:104E30000000000000000000000000000000000072
:104E40000000000000000000000000000000000062
:104E50000000003000E001C00180030007000600F0
:104E600006000E000E000E000E00060007000300F4
:104E7000038001C000E000300000000000000000DE
:104E800000000C0006000380018001C000E000600B
:104E900000600070007000700060006000E000C002
:104EA0000180038006000C000000000000000000EC
:104EB00000000000018011881DB803C007E03DBC60
:104EC00001880180000000000000000000000000D8
:104ED00000000000000000000000000000000000D2
:104EE000000000000000000000000180018001803F
:104EF000018001807FFE018001800180018000002F
:104F000000000000000000000000000000000000A1
:104F10000000000000000000000000000000000091
:104F20000000000000000000000003C003C001C03A
:104F300001C003801F00000000000000000000000E
:104F40000000000000000000000000000000000061
:104F5000000000000FF00000000000000000000052
:104F60000000000000000000000000000000000041
:104F70000000000000000000000000000000000031
:104F80000000000000000000000003C003C003C0D8
:104F90000000000000000000000000000000000011
:104FA00000000000001800380030006000E000C081
:104FB00001C001800300030006000E000C001C006D
:104FC0001800300000000000000000000000000099
:104FD0000000000001800FF01C38381C301C707E6F
:104FE00070EE738E7E0E7C0C300C381C1E780FE039
:104FF00000000000000000000000000000000000B1
:1050000000000000000007C01FC039C001C001C07F
:1050100001C001C001C001C001C001C03FFC3FFC94
:105020000000000000000000000000000000000080
:105030000000000003801FF0183800380018003806
:105040000038007001E0038007001C003FFC3FFCBB
:105050000000000000000000000000000000000050
:105060000000000007801FF00038003800380030D2
:1050700007E007F00038001C001C001820F83FE093
:105080000000000000000000000000000000000020
:1050900000000000000000F001B0033007300E30C7
:1050A0001C30383070307FFE7FFE00300030003022
:1050B00000000000000000000000000000000000F0
:1050C0000000000000001FF8180018001800180069
:1050D0001FE000F8001C001C001C003800F01FC07E
:1050E00000000000000000000000000000000000C0
:1050F00000000000000003F80F001C001800300042
:1051000037F83C3C300C300C380C381C1E380FF093
:10511000000000000000000000000000000000008F
:105120000000000000003FFC001C00180038007068
:10513000006000E001C001800380070006000E004F
:10514000000000000000000000000000000000005F
:105150000000000003C01FF8381C381C381C1C3825
:105160000FF007F01C78381C300C381C3C380FF05E
:10517000000000000000000000000000000000002F
:105180000000000003801FF03838301C701C700CC9
:10519000380C1FFC0FCC001C001800701FE01F8093
:1051A00000000000000000000000000000000000FF
:1051B00000000000000000000000000003C003C069
:1051C0000180000000000000000003C003C003C015
:1051D00000000000000000000000000000000000CF
:1051E00000000000000000000000000003C003C039
:1051F0000180000000000000000003C003C001C0E7
:1052000001C003800F00000000000000000000004B
:1052100000000000000000000000003800F001C0A5
:1052200007001E0038000E00078001C0007000302B
:10523000000000000000000000000000000000006E
:10524000000000000000000000000000000000005E
:105250003FFC000000003FFC3FFC0000000000009D
:10526000000000000000000000000000000000003E
:10527000000000000000000000001C000F00038080
:1052800001E00078001C007001E003800E000C00BB
:10529000000000000000000000000000000000000E
:1052A000000000000FC000F000380038003800385F
:1052B00003F0038003000300000000000780078064
:1052C00000000000000000000000000000000000DE
:1052D000000000E007F80C0C18063006700363F3BA
:1052E0006633C673CC63CC62CC66CCE6C7FCE00008
:1052F0006000700038101FF0000000000000000087
:1053000000000000000003C007E006E00E700E7011
:105310000C301C3818183FFC3FFC700E600EE00784
:10532000000000000000000000000000000000007D
:105330000000000000003FF03838381C381C3838B6
:105340003FF03FF8381C380C380C381C3FF83FE071
:10535000000000000000000000000000000000004D
:105360000000000000E007FC1E0438003800300098
:10537000700070007000300038003C001F9C07FC7B
:10538000000000000000000000000000000000001D
:105390000000000000003FF03078301C300C300E70
:1053A000300E300E300E300E301C30383FF03FC023
:1053B00000000000000000000000000000000000ED
:1053C0000000000000001FF8180018001800180066
:1053D0001FF81FF818001800180018001FF81FF811
:1053E00000000000000000000000000000000000BD
:1053F0000000000000001FF8180018001800180036
:105400001FF81FF8180018001800180018001800DE
:10541000000000000000000000000000000000008C
:105420000000000000F007FC1E043800300070008F
:10543000700070FC700C700C300C380C1F1C07FCDA
:10544000000000000000000000000000000000005C
:10545000000000000000300C300C300C300C300C20
:105460003FFC3FFC300C300C300C300C300C300C5E
:10547000000000000000000000000000000000002C
:105480000000000000003FFC0180018001800180DD
:105490000180018001800180018001803FFC3FFC90
:1054A00000000000000000000000000000000000FC
:1054B0000000000000001FF000300030003000301D
:1054C0000030003000300030003000701DE01FC0A0
:1054D00000000000000000000000000000000000CC
:1054E000000000000000381C387038E039C03B80F4
:1054F0003F003F003B8039C038E038703838381CF6
:10550000000000000000000000000000000000009B
:105510000000000000001C001C001C001C001C00FF
:105520001C001C001C001C001C001C001FFC1FFC9D
:10553000000000000000000000000000000000006B
:10554000000000000000381C7C3C6C3E6E6E666EF5
:1055500066CE63C663866186600660066006600686
:10556000000000000000000000000000000000003B
:105570000000000000003C0C3C0C3E0C360C330CD0
:10558000338C318C31CC30EC306C307C303C301C86
:10559000000000000000000000000000000000000B
:1055A0000000000001C00FF81C3C381C700E700E8B
:1055B00060066006700E700E700C381C1E780FE0CE
:1055C00000000000000000000000000000000000DB
:1055D0000000000000003FF0383C381C380C380C4C
:1055E000381C38783FE03800380038003800380080
:1055F00000000000000000000000000000000000AB
:105600000000000001C00FF81C3C381C700E700E2A
:1056100060066006700E700E700C381C1E780FE06D
:10562000018001C000FF003C0000000000000000FD
:105630000000000000003FF03838381838183838BB
:1056400038F03FC038E0387038383838381C380EF9
:10565000000000000000000000000000000000004A
:105660000000000001E00FF83800380038003C006E
:105670001F8003F00078001C001C001C38783FE0FD
:10568000000000000000000000000000000000001A
:105690000000000000007FFE018001800180018089
:1056A00001800180018001800180018001800180F2
:1056B00000000000000000000000000000000000EA
:1056C000000000000000300C300C300C300C300CAE
:1056D000300C300C300C300C300C381C1C380FF0F7
:1056E00000000000000000000000000000000000BA
:1056F000000000000000E006700E700E381C381C20
:105700001C181C380C300E70066007E003C003C084
:105710000000000000000000000000000000000089
:1057200000000000000060066006600660066186FA
:10573000638673C673CE766C366C3C3C3C3C381C3E
:105740000000000000000000000000000000000059
:10575000000000000000301C38181C380E7007E0F4
:1057600003C003C007E00E701C381838381C700ED8
:105770000000000000000000000000000000000029
:10578000000000000000700E700C381C1C380E70F9
:10579000066007E003C00180018001800180018074
:1057A00000000000000000000000000000000000F9
:1057B0000000000000003FFC001C0038007000E00A
:1057C00001C0038007000E000C0018003FFC3FFCE6
:1057D00000000000000000000000000000000000C9
:1057E000000007F007F006000600060006000600AD
:1057F0000600060006000600060006000600060079
:1058000006000600060007F000000000000000008F
:105810000000000018001C000C0006000700030038
:105820000380018001C000C00060007000300038BB
:105830000018000C00000000000000000000000044
:1058400000000FE00FE0006000600060006000609A
:105850000060006000600060006000600060006048
:105860000060006000600FE0000000000000000029
:1058700000000000000003C006C006600C301818CD
:10588000301C0000000000000000000000000000CC
:105890000000000000000000000000000000000008
:1058A00000000000000000000000000000000000F8
:1058B00000000000000000000000000000000000E8
:1058C000000000000000FFFF0000000000000000DA
:1058D000000000001E000380000000000000000027
:1058E00000000000000000000000000000000000B8
:1058F00000000000000000000000000000000000A8
:105900000000000000000000000000001FF0103840
:10591000001C001C0FFC1C1C381C381C3CFC1FDC31
:105920000000000000000000000000000000000077
:105930000000000038003800380038003BF83E1CFA
:105940003C1C380C380C380C380C381C3C781FE0E8
:105950000000000000000000000000000000000047
:1059600000000000000000000000000007F80E002A
:105970001C0038003800380038001C000F1807F8E9
:105980000000000000000000000000000000000017
:1059900000000000001C001C001C001C0FFC1C1C54
:1059A000381C301C301C301C301C383C1CFC0F9C3C
:1059B00000000000000000000000000000000000E7
:1059C0000000000000000000000000000FF01C3884
:1059D000381C300C3FFC3000300038001E0C07FC37
:1059E00000000000000000000000000000000000B7
:1059F0000000003C01FE03800300030003007FFC65
:105A00007FFC030003000300030003000300030006
:105A10000000000000000000000000000000000086
:105A20000000000000000000000000000FFE1C3815
:105A30003818381818381FF03B8030003FF01FFC32
:105A4000300E700E381C1FF800000000000000002F
:105A50000000000038003800380038003BF83E38BD
:105A60003C1C381C381C381C381C381C381C381C92
:105A70000000000000000000000000000000000026
:105A80000000018003C003C0000000001FC001C06F
:105A900001C001C001C001C001C001C001C03FFC84
:105AA00000000000000000000000000000000000F6
:105AB0000000002000700070000000003FF0007047
:105AC0000070007000700070007000700070007056
:105AD0000070007020E03FC00000000000000000E7
