:020000040800F2
:10000000A0BC0020DD010008E9100008EB1000088A
:10001000ED100008EF100008F110000800000000CB
:100020000000000000000000000000004501000882
:10003000F31000080000000089010008F510000816
:10004000F7010008F7010008F7010008F7010008B0
:10005000F7010008F7010008F7010008F7010008A0
:10006000F7010008F7010008F7010008F701000890
:10007000F7010008F7010008F7010008F701000880
:10008000F7010008F7010008F7010008F701000870
:10009000F7010008F7010008F7010008F701000860
:1000A000F7010008F7010008F7010008F701000850
:1000B000F7010008F7010008F7010008F701000840
:1000C000F7010008F7010008F7010008F701000830
:1000D000F7010008F7010008F7010008F701000820
:1000E000F7010008F7010008F7010008F701000810
:1000F000F7010008F7010008F7010008F701000800
:10010000F7010008F7010008F7010008F7010008EF
:10011000F7010008F7010008F7010008F7010008DF
:10012000F7010008F7010008F7010008F7010008CF
:10013000DFF80CD006F03AF900480047830F0008BA
:10014000A0BC0020224B19680868B0E8F00F80F3CB
:100150000988BFF36F8F4FF0000080F311884EF0D5
:100160000D0E70470000000006480068006880F32C
:10017000088862B661B6BFF34F8FBFF36F8F00DFA1
:1001800000BF00BF08ED00E0EFF30980BFF36F8F01
:100190000F4B1A6820E9F00F106008B54FF05000BF
:1001A00080F31188BFF34F8FBFF36F8F05F063F9B2
:1001B0004FF0000080F31188BDE808401968086816
:1001C000B0E8F00F80F30988BFF36F8F704700BF6E
:1001D000B0000020EFF3058070470000064880471C
:1001E00006480047FEE7FEE7FEE7FEE7FEE7FEE71C
:1001F000FEE7FEE7FEE7FEE7A10200083101000886
:100200000CB500224C4800920192016841F4803103
:1002100001604FF4A063016801F40031019100997D
:10022000491C0091019911B900999942F3D10168D3
:10023000890333D50121019140490A6842F0100237
:100240000A600A6822F003020A600A6842F00202A9
:100250000A604168416041684160416841F48061E1
:100260004160416821F47C114160416841F4E8112A
:100270004160016841F08071016001688901FCD52D
:10028000416821F003014160416841F00201416091
:100290004168C1F381010229FAD10CBD01920CBD64
:1002A000254810B5016841F0010101604168244A08
:1002B000114041600168234A11400160016821F446
:1002C00080210160416821F4FE0141604FF41F016B
:1002D0008160FFF795FF1C494FF00060086010BD7A
:1002E000154A10B55068194B10F00C01184803D08E
:1002F000042901D0082901D0036012E05168536835
:1003000001F470114FF0020413F4803F04EB9141AB
:1003100002D053689B0301D50E4B00E00B4B5943B1
:10032000016051680A4AC1F30311121D515C026851
:10033000CA40026010BD00000010024000200240D0
:100340000000FFF8FFFFF6FE08ED00E000127A0063
:100350000000002000093D002849084328490860A2
:10036000704730B50F23C27801780125F2B1244AD5
:10037000126801F1E02102F4E062C2F5E062120AC3
:10038000C2F10404D3404278A24084781C40144354
:10039000220181F80024007800F01F018D404009FF
:1003A000800000F1E020C0F8005130BD01F01F00D6
:1003B00085404809800000F1E020C0F8805130BD40
:1003C000104A114001430E48001F016070470C4A5B
:1003D000121D0029116801D0014300E08143116022
:1003E00070474FF0E0210428086903D020F0040092
:1003F0000861704740F00400FAE700000000FA05C9
:100400000CED00E080FFFF1F8F4910B5884206D138
:100410000121042000F049FA002104203BE08B492F
:10042000884206D10121082000F03FFA002108206F
:1004300031E08749884206D10121102000F035FAC9
:100440000021102027E08349884206D10121202085
:1004500000F02BFA002120201DE07F49884206D1C0
:100460000121402000F021FA0021402013E07B49C7
:10047000884206D10121802000F017FA0021802057
:1004800009E0774988420AD184150121204600F00D
:100490000CFA00212046BDE8104000F006BA10BD5D
:1004A00010B50121084600F000FA0021BDE8104017
:1004B000012000F0FAB9F0B5CC78002204F00F0367
:1004C000E40601D58C7823430C784FF00F0C14F020
:1004D000FF0F4FF0010E1BD005680E880EFA02F4D4
:1004E0002640A64210D196000CFA06F725EA070727
:1004F00003FA06F5CE783D43282E02D0482E02D0CE
:1005000002E0446100E00461521C082AE5D3056062
:100510000A88FF2A1CD94468002202F108060EFA54
:1005200006F50E882E40AE420ED196000CFA06F764
:10053000BC4303FA06F7CE783C43282E00D1456130
:10054000CE78482E00D10561521C082AE5D34460BC
:10055000F0BD4FF6FF710180022181700421C1704E
:1005600070470246002092680A4200D0012070477E
:10057000806880B2704702460020D2680A4200D0EC
:1005800001207047C06880B27047016170474161C7
:1005900070470AB10161704741617047C16070479F
:1005A00041F4803282618161826181698069704732
:1005B0002C4B10B51A684FF68074224042EA0010A6
:1005C0000843186010BD2849C8617047F0B5254C34
:1005D000002801DAE36900E06368450D2E0185B269
:1005E000C0F30157B540C0F30342032F05D0C60244
:1005F0000AD503269640B34307E023F07062636890
:1006000023F07063636002E0AB4343F0706201B1BA
:100610002A43002801DAE261F0BD6260F0BD10B546
:100620008A0721F003040F49120F21440F238C681D
:1006300093409C438C608B68904003438B6010BD5B
:100640000949C1F8DC00704700080140000C014076
:10065000001001400014014000180140001C01403E
:10066000002001400000014000002042A548016830
:1006700041F0010101604168A34A114041600168F5
:10068000A24A11400160016821F4802101604168A3
:1006900021F4FE0141604FF41F01816070479949C8
:1006A0000A6822F480320A600A6822F480220A6012
:1006B000B0F5803F07D0B0F5802F03D1086840F433
:1006C000A02008607047086840F48030F9E70346CE
:1006D000002059098B4A01290AD002290AD0516AFF
:1006E00003F01F02012393400B4200D0012070470A
:1006F0001168F5E7116AF3E718B500204FF4A0641C
:1007000000903120FFF7E3FF0099491C0091A142BE
:1007100001D00028F5D03120FFF7D9FF002800D004
:10072000012018BD774A116821F0F80141EAC000A4
:1007300010607047764908607047724B5A680843EA
:1007400022F47C1210435860704771490866704764
:100750006C4A516821F003010143516070476948B8
:10076000406800F00C007047664A516821F0F001C3
:10077000014351607047634A516821F4E0610143CD
:10078000516070475F4A516821F4605141EAC000EE
:10079000506070475B4A0029517A01D0014300E064
:1007A0008143517270475A49C1F8D8007047554A81
:1007B000516821F440410143516070475149002282
:1007C00081F8202081F82020012802D0042802D1BD
:1007D000052081F8200070474E490860704749495C
:1007E0000A6A02430A6270474A49443908607047FE
:1007F00030B5444A5168484B11F00C0103D004292C
:1008000001D0082901D0036012E05168536801F457
:1008100070114FF0020413F4803F04EB914102D0B9
:1008200053689B0301D53D4B00E03B4B59430160AE
:1008300051680F2303EA1111394B5C5C0168E140F8
:1008400041605468072505EA14241C5D21FA04F46C
:100850008460546805EAD4241B5DD940C1605268A5
:10086000032303EA92322E4B1B1F9A5CB1FBF2F179
:10087000016130BD234A0029516901D0014300E0E4
:100880008143516170471F4A0029916901D001439A
:1008900000E08143916170471A4A0029D16901D073
:1008A000014300E08143D1617047164A0029D168B5
:1008B00001D0014300E08143D1607047114A002913
:1008C000116901D0014300E0814311617047114972
:1008D0004039086070470E49C86470470949C871BB
:1008E00070470848416A41F0807141627047054A8B
:1008F0000146002092680A4200D001207047014959
:1009000088727047001002400000FFF8FFFFF6FEFB
:10091000000042428004424200127A0000093D0079
:1009200018000020994910B588420AD18414012189
:100930002046FFF7BAFF2046BDE810400021FFF730
:10094000B4BF9349884202D10121041404E09149C3
:1009500088420AD10121C4132046FFF7AFFF204689
:10096000BDE810400021FFF7A9BF10BD30B50288D7
:100970004C8802F441530A88CD8822438C882C434A
:1009800022430C8922434C8922438C892243CC89FF
:1009900022431A430280828B22F400628283098AF6
:1009A000018230BDF0B505460C4602200021AA8B1D
:1009B00085B001264FF240031A40AA832884AF8BEA
:1009C000A268022A21D0A08800B102266846FFF75B
:1009D0000FFFE1880098B1F5007F2CD07101B0FBCA
:1009E000F1F000EB8000A1684000B0FBF1F0401D89
:1009F00080B20A21B0FBF1F000F00101401A4FF67D
:100A0000FF72C0F34F0002EA0121821EFE2A01D3C9
:100A100002200021E288084302432A84208861885A
:100A2000A2890843A18811430843384340F4006079
:100A3000A88305B0F0BD000AD3E700210180418002
:100A40008180C180018141818181C1810721018231
:100A500070470021018041808180C1800222826034
:100A6000818170470029018802D041F0400101E0F6
:100A700021F04001018070470029818B02D041F4B0
:100A8000806101E021F480618183704709090123BD
:100A90008B40002A828899B201D00A4300E08A4341
:100AA00082807047002A828801D00A4300E08A438E
:100AB000828070478181704780897047A1F57E42AE
:100AC0000188FF3A02D041F4807101E021F4807185
:100AD000018070470029818802D041F0040101E0C3
:100AE00021F0040181807047028822F400620280B4
:100AF00002880A4302807047018841F480510180D6
:100B000070470029018802D041F4005101E021F42E
:100B1000005101807047012901D0008B7047808A05
:100B20007047008A7047B1F5804F018803D021F4E7
:100B300080410180704741F48041FAE7024600207D
:100B400012890A4200D001207047C94301817047D1
:100B500030B501F00F030125024605FA03F4002029
:100B6000A3B2090905FA01F49188A4B212892140BF
:100B70001A4202D0002900D0012030BD01F00F023E
:100B800001219140C94301817047000000300140BC
:100B900000380040003C0040C44910B588420AD1EA
:100BA00001218C032046FFF780FE2046BDE810405F
:100BB0000021FFF77ABEBE49884202D101214C04D0
:100BC00010E0BC49884202D101218C040AE0BA49F4
:100BD000884202D10121CC0404E0B84988420AD1FC
:100BE00001210C052046FFF769FE2046BDE81040B4
:100BF0000021FFF763BE10BD30B50446008A85B002
:100C00000D464CF6FF710840E98801432182A08916
:100C10004EF6F3110840A9882A8911436A890243D4
:100C20001143A181A08A4FF6FF410840A9890143E1
:100C3000A1826846FFF7DCFD9C48844201D10398FD
:100C400000E00298A189090400EBC00101EB00104B
:100C5000296801D5490000E08900B0FBF1F0642269
:100C6000B0FBF2F109010B096FF018056B4300EBC3
:100C70008300A3891D044FF0320306D503EBC000A7
:100C8000B0FBF2F000F0070005E003EB0010B0FB52
:100C9000F2F000F00F000843208105B030BD4FF4A2
:100CA0001651016000218180C18001810C224281A6
:100CB0008181704710B5028A4FF2FF031A400B88FA
:100CC0004C8823438C88C9880C43234313430382F5
:100CD00010BD0021018041808180C18070470029C2
:100CE000818902D041F4005101E021F40051818159
:100CF000704710B5C1F3421301F01F040121A14058
:100D0000012B07D0022B07D01430002A026805D02F
:100D10000A4304E00C30F8E71030F6E78A4302603B
:100D200010BD002A828A01D00A4300E08A438282F1
:100D30007047028A22F00F020282028A0A4302826C
:100D40007047828922F40062828182890A4382810B
:100D500070470029818902D041F0020101E021F0B1
:100D6000020181817047028A22F020020282028AF7
:100D70000A43028270470029018A02D041F480416F
:100D800001E021F4804101827047C1F308018180B4
:100D900070478088C0F308007047818941F00101E5
:100DA00081817047028BD2B20283028B42EA012119
:100DB00001837047028B02F47F420283028B0A4355
:100DC000028370470029818A02D041F0200101E0AE
:100DD00021F02001818270470029818A02D041F0F0
:100DE000100101E021F01001818270470029818A01
:100DF00002D041F0080101E021F008018182704732
:100E00000029818902D041F4004101E0C1F30E01C3
:100E1000818170470029818A02D041F4006101E09C
:100E200021F4006181827047828A22F0040282826A
:100E3000828A0A43828270470029818A02D041F067
:100E4000020101E021F00201818270470246002088
:100E500012880A4200D001207047C94301807047C0
:100E600070B501F01F0501260024C1F3421306FAF4
:100E700005F2012B0FD0022B0FD0838A4FEA1121EC
:100E80000088134206FA01F600EA060001D000B11C
:100E90000124204670BD8389F0E7038AEEE70A0A41
:100EA00001219140C9430180704700000038014092
:100EB0000044004000480040004C0040005000400A
:100EC000424D434F434C6E140121284600F023FA53
:100ED000012808D140A005F07BFA606804F0F5FA1B
:100EE00041A005F075FA3146384600F014FA0128A1
:100EF00008D142A005F06CFA606804F04CFB43A0F6
:100F000005F066FA142004F0EAF9DDE700F088FC49
:100F100000F0C0FC424C4FF47A75206880F020014C
:100F20002160284604F0DBF9F7E71CB505F08CF9E1
:100F300028490220091D0402CDE9000100232246B0
:100F400038A13B4804F005F8012802D139A005F08A
:100F50003FFA204903200831CDE900010023224651
:100F60003BA13E4803F0F5FF012802D13CA005F06B
:100F70002FFA1848006804F017F8BDE81C4005F087
:100F80007DB91CB54FF44070FFF7E6F900F0BCF8EE
:100F900000F0EAF800F0A6F900F0D2F936A005F06A
:100FA00017FA43A005F014FA0A490120CDE900011F
:100FB0004202002347A14B4803F0CBFF012802D097
:100FC0004FF0FF301CBD04F06EFBFEE7000801404F
:100FD0000010014028000020B9D2C6F04C4544C89A
:100FE000CECEF1A3A10A0000B9D2C6F04C4544C848
:100FF000CECEF1B3C9B9A6A3A10A0000BBD6B8B43E
:101000004C4544C8CECEF1A3A10A0000BBD6B8B46B
:101010004C4544C8CECEF1B3C9B9A6A3A10A00007D
:101020000C0C0140546573745F5461736B000000D5
:101030000D0F0008B4B4BDA8546573745F54617398
:101040006BC8CECEF1B3C9B9A6210D0A00000000CD
:101050004B45595F5461736B00000000C10E0008DE
:10106000B4B4BDA84B45595F5461736BC8CECEF183
:10107000B3C9B9A6210D0A00D5E2CAC7D2BBB8F6DA
:101080005BD2B0BBF05D2D53544D3332C8ABCFB5FE
:10109000C1D0BFAAB7A2B0E52D4672656552544FC4
:1010A000532D205350492D4661746673200A0A005F
:1010B000B0B4CFC24B455931B9D2C6F0C8CECEF18B
:1010C000A3ACB0B4CFC24B455932BBD6B8B4C8CE2E
:1010D000CEF10A004170705461736B4372656174A4
:1010E000650000002B0F00087047FEE7FEE7FEE7F3
:1010F000FEE7704710B504F035FC012803D0BDE8C9
:10110000104005F0CCB810BD38B501210820FFF71C
:10111000BAFB2020ADF8000010208DF8030003205A
:10112000104C8DF8020069462046FFF7C4F90121F2
:10113000ADF8001069462046FFF7BDF90221ADF871
:10114000001069462046FFF7B6F920212046FFF738
:101150001CFA01212046FFF718FA02212046FFF76A
:1011600014FA38BD000C014030B587B001210420CD
:10117000FFF789FB01218803FFF785FB4FF400701F
:10118000ADF8100018208DF813000320534C8DF893
:10119000120004A92046FFF78EF92115ADF81010B2
:1011A00004218DF8131004A92046FFF784F90024C8
:1011B0004FF4E1300090ADF808400C20484DADF8F8
:1011C0000440ADF80A00ADF80640ADF80C406946A1
:1011D0002846FFF711FD4FF44070FFF7BDF82521B9
:1011E0008DF8141006208DF815008DF8164001209A
:1011F0008DF8170005A8FFF7B4F801212846FFF77E
:101200006EFD07B030BD10B50446FFF7BEFD80216E
:101210002046FFF71BFE0028F9D010BD2DE9F04154
:1012200015460E460746002405E0315D3846FFF7B7
:10123000EAFF641CE4B2AC42F7D340213846FFF722
:1012400005FE0028F9D0BDE8F08170B50D460646D0
:1012500000243046295DFFF7D6FF641C285D002876
:10126000F7D140213046FFF7F1FD0028F9D070BDDD
:1012700070B50446080ACDB201462046FFF785FD49
:1012800080212046FFF7E2FD0028F9D029462046BC
:10129000FFF77BFD80212046FFF7D8FD0028F9D01D
:1012A00070BD70B50E4D0446C1B22846FFF76DFD06
:1012B00080212846FFF7CAFD0028F9D0204670BDDE
:1012C00010B5074C20212046FFF7C0FD0028F9D0BB
:1012D0002046BDE81040FFF75CBD0000000801405B
:1012E0000038014038B501211420FFF7CCFA012065
:1012F000ADF8000004248DF8034069460E48FFF75E
:10130000DAF8E002ADF800008DF8034069460B48BA
:10131000FFF7D1F838BD70B50C460546FFF721F947
:10132000012801D0002070BD21462846FFF719F999
:101330000128F9D0012070BD0008014000100140D3
:1013400070B5012186B00803FFF79DFA0121D42072
:10135000FFF799FA0124ADF8144003208DF8160028
:101360001020FE4D8DF8170005A92846FFF7A3F8B9
:101370002020ADF814001820F94E8DF8170005A9AB
:101380003046FFF798F84021ADF8141005A9304613
:10139000FFF791F88020ADF8140005A93046FFF75B
:1013A0008AF801212846FFF7F0F80020ADF8000088
:1013B000ADF804004FF48271ADF802100221ADF8CF
:1013C0000840ADF80C00ADF80610ADF80E000902AB
:1013D0000720E44CADF80A10ADF81000694620462D
:1013E000FFF7C4FA01212046FFF73CFB06B070BDB1
:1013F0002DE9F041DC4C4FF4805507462560D94E6D
:1014000003E02068411E216010D302213046FFF71F
:1014100095FB0028F5D039463046FFF74BFB256099
:1014200009E02168481E206005D2012000F0D6F9AD
:10143000C0B2BDE8F08101213046FFF77FFB0028F4
:10144000EFD03046FFF738FBF2E710B5C34C01216F
:101450002046FFF79CF80520FFF7CAFFFF20FFF7A3
:10146000C7FFC007FAD12046BDE810400121FFF7B1
:101470008CB810B5B94C01212046FFF788F806203A
:10148000FFF7B6FF2046BDE810400121FFF77DB809
:1014900070B50446FFF7EDFFFFF7D7FFAF4D012111
:1014A0002846FFF774F82020FFF7A2FFC4F3074097
:1014B000FFF79EFFC4F30720FFF79AFFE0B2FFF7A4
:1014C00097FF01212846FFF760F8BDE87040BCE7B0
:1014D00010B5FFF7CEFFA14C01212046FFF757F8CA
:1014E000C720FFF785FF01212046FFF74EF8BDE832
:1014F0001040AAE72DE9F04114460F460546FFF7D4
:10150000B8FF964E01213046FFF741F80220FFF761
:101510006FFFC7F30740FFF76BFFC7F30720FFF725
:1015200067FFF8B2FFF764FFB015844208D904469C
:101530008EA004F04DFF03E02878FFF759FF6D1CE3
:10154000641EA4B2F8D201213046FFF71EF8BDE8B0
:10155000F0417AE72DE9F04706460D4611F0FF000D
:10156000C0F10001CFB24FEA122402F0FF094FF49C
:10157000807A13D0E8B24042C0B205EB00080CB349
:10158000D01B80B2040A00F0FF093A4629463046D3
:10159000FFF7B0FF3E44454657462CE06CB1574636
:1015A000641EE4B20CD33A4629463046FFF7A2FF48
:1015B00005F5807506F58076F2E7294630460EE09F
:1015C0004A46FAE7B945F8D9A9EB0700C4B23A464A
:1015D00029463046FFF78EFF4146F0192246BDE806
:1015E000F04787E73A4629463046FFF783FF05F57F
:1015F000807506F58076641EE4B2F3D2B9F100007E
:1016000001D00246D9E7BDE8F0872DE9F041534EFD
:101610000F460446154601213046FEF7B8FF032069
:10162000FFF7E6FEC7F30740FFF7E2FEC7F3072028
:10163000FFF7DEFEF8B2FFF7DBFE04E0FF20FFF766
:10164000D7FE04F8010B6D1EADB2F7D23046BDE8EF
:10165000F0410121FEF799BF2DE9F0413F4C0121F6
:101660002046FEF794FF9F20FFF7C2FEFF20FFF702
:10167000BFFE0746FF20FFF7BBFE0646FF20FFF731
:10168000B7FE054601212046FEF77FFF380440EAF9
:1016900006202843CDE670B5304C01212046FEF7E8
:1016A00076FFAB20FFF7A4FEFF20FFF7A1FEFF208F
:1016B000FFF79EFEFF20FFF79BFEFF20FFF798FE3F
:1016C000054601212046FEF760FF284670BD10B593
:1016D000044601212148FEF75AFF0320FFF788FE48
:1016E000C4F30740FFF784FEC4F30720FFF780FE32
:1016F000E0B2BDE810407BE6FF2079E62DE9F0413D
:10170000194C4FF4805507462560164E05E02068B9
:10171000411E216001D2022010E002213046FFF775
:101720000DFA0028F3D039463046FFF7C3F925609B
:1017300008E02168481E206004D20320BDE8F04183
:1017400000F04CB801213046FFF7F8F90028F0D03E
:101750003046BDE8F041FFF7AFB90000001001408E
:101760000008014000300140340000203C3C2D4680
:101770004C4153482D4552524F522D3E3E2053501E
:10178000495F464C4153485F5061676557726974C1
:101790006520746F6F206C61726765210A0000001C
:1017A00010B5124C01212046FEF7F1FEB920FFF7DB
:1017B0001FFE2046BDE810400121FEF7E6BE10B531
:1017C0000A4C01212046FEF7E2FEAB20FFF710FE97
:1017D0002046BDE810400121FEF7D7BE10B50146F6
:1017E00003A004F0F5FD002010BD00000010014032
:1017F0003C3C2D464C4153482D4552524F522D3EB4
:101800003E2053504920B5C8B4FDB3ACCAB12165E0
:1018100072726F72436F6465203D2025640A000078
:1018200010B501224CA14D4801F05DFA4C4C0D2839
:10183000207009D0002828D001464AA004F0C8FD35
:1018400052A004F0C5FDFEE75AA004F0C1FD00223D
:10185000114641A002F044F9207030B160492020C7
:10186000086060A004F0B4FDFEE764A004F0B0FDE1
:10187000012239A1002001F036FA2070012236A1A0
:10188000364801F030FA207010BDBDE8104063A06A
:1018900004F09EBD70B56BA004F09AFD0A2274A1FD
:1018A000794801F058FA2E4C20264D4D2070002822
:1018B0001BD02E6075A004F08BFD21787AA004F077
:1018C00087FD7CA004F084FD012269A16E4801F02F
:1018D00042FA2070002824D02E6080A004F078FD09
:1018E000BDE87040684801F0E9BC82A004F070FDDA
:1018F0001B4B63221B1D191D634801F09EFB2070CA
:1019000038B101468BA004F063FD5F4801F0D6FCBE
:10191000D7E78EA0616804F05BFD114994A00831FF
:10192000F1E7012028609AA004F052FD0C4B4FF41F
:1019300080621B1D9B49544801F0B5FA207020B10C
:10194000014699A004F044FDCAE79DA0616804F037
:101950003FFD9449A3A0F5E7313A000014050020AB
:1019600038000020A3A1A3A1CDE2B2BF466C6173F1
:1019700068B9D2D4D8CEC4BCFECFB5CDB3CAA7B057
:10198000DCA1A3282564290D0A000000A3A1A3A1BE
:10199000BFC9C4DCD4ADD2F2A3BA53504920466CBF
:1019A000617368B3F5CABCBBAFB2BBB3C9B9A6A17A
:1019B000A30D0A00A1B7464C415348BBB9C3BBD3E2
:1019C000D0CEC4BCFECFB5CDB3A3ACBCB4BDABBD13
:1019D000F8D0D0B8F1CABDBBAF2E2E2E0D0A000034
:1019E000140C0140A1B6A1B6B8F1CABDBBAFCAA7DD
:1019F000B0DCA1A3A1B7A1B70D0A0000A1B7464C66
:101A0000415348D2D1B3C9B9A6B8F1CABDBBAFCE14
:101A1000C4BCFECFB5CDB3A1A30D0A00A1B7CEC4FF
:101A2000BCFECFB5CDB3B9D2D4D8B3C9B9A6A3AC97
:101A3000BFC9D2D4BDF8D0D0B6C1D0B4B2E2CAD4F6
:101A40000D0A00000D0A2A2A2A2A2A2A20BCB4BD1F
:101A5000ABBDF8D0D0CEC4BCFED0B4C8EBB2E2CAA5
:101A6000D42E2E2E202A2A2A2A2A2A0D0A000000E5
:101A7000313A4661744673B6C1D0B4B2E2CAD4CE2C
:101A8000C4BCFE2E7478740048150020A3A1A3A145
:101A9000B4F2BFAA2FB4B4BDA8CEC4BCFECAA7B0CE
:101AA000DCA1A30D0A0000006572203D2025642002
:101AB0000A0000002A2A2A2A2A2A20BCB4BDABBD6B
:101AC000F8D0D0CEC4BCFEB6C1C8A1B2E2CAD42EF2
:101AD0002E2E202A2A2A2A2A2A0D0A00A3A1A3A1EF
:101AE000B4F2BFAACEC4BCFECAA7B0DCA1A30D0A43
:101AF00000000000A1B7B4F2BFAA2FB4B4BDA8463D
:101B000061744673B6C1D0B4B2E2CAD4CEC4BCFECE
:101B10002E747874CEC4BCFEB3C9B9A6A3ACCFF200
:101B2000CEC4BCFED0B4C8EBCAFDBEDDA1A30D0A75
:101B300000000000A3A1A3A1CEC4BCFED0B4C8EB9A
:101B4000CAA7B0DCA3BA282564290A00A1B7CEC46D
:101B5000BCFED0B4C8EBB3C9B9A6A3ACD0B4C8EB33
:101B6000D7D6BDDACAFDBEDDA3BA25640A000000DF
:101B7000A1B7CFF2CEC4BCFED0B4C8EBB5C4CAFD89
:101B8000BEDDCEAAA3BA0D0A25730D0A000000001F
:101B9000A1B7B4F2BFAACEC4BCFEB3C9B9A6A1A373
:101BA0000D0A000014010020A3A1A3A1CEC4BCFE15
:101BB000B6C1C8A1CAA7B0DCA3BA282564290A0007
:101BC000A1B7CEC4BCFEB6C1C8A1B3C9B9A62CB6D4
:101BD000C1B5BDD7D6BDDACAFDBEDDA3BA25640D39
:101BE0000A000000A1B7B6C1C8A1B5C3B5C4CEC430
:101BF000BCFECAFDBEDDCEAAA3BA0D0A2573200D18
:101C00000A00000010B5012438B1012805D1FFF702
:101C100023FD3449884200D10024204610BD10B570
:101C200001004FF001000FD001290DD1FFF788FB13
:101C30004FF4FA70401E0004000CFBD1FFF7BFFD0B
:101C4000BDE810400120DDE710BD70B50C46010075
:101C50004FF004000DD001290BD115464FF6FF704F
:101C600000EA03322903204601F50011FFF7CDFCFD
:101C7000002070BD70B50D4601461C004FF00400F9
:101C800013D0002910D001290ED1160306F5001635
:101C90003046FFF7FDFB4FF6FF7000EA0432314695
:101CA0002846FFF757FC002070BD042070BD0300DC
:101CB0004FF0040012D0012B10D1012904D00229C9
:101CC00005D0032909D106E04FF4C06004E04FF4C9
:101CD0008050108001E00120106000207047024811
:101CE000704700001740EF00000021462DE9F04149
:101CF000044600790027F8B1266B04F134016078BE
:101D0000012332468846FFF7B5FF08B1012713E0EB
:101D100000202071606AE169301A88420CD2E578AF
:101D200008E0E06901230644607832464146FFF747
:101D3000A1FF6D1E022DF4D23846BDE8F08170B5CA
:101D40000446006B0E460025B0420FD02046FFF738
:101D5000CDFF05000AD160780123324604F1340139
:101D6000FFF773FF08B16E1E01252663284670BD7C
:101D700070B50446FFF7BAFF05004FD1207803285D
:101D800045D16079012842D104F1340062890021F3
:101D9000064602F0D5FA552084F83202AA2084F8CB
:101DA0003302522084F8340084F83500612284F82C
:101DB0003620412084F83700722184F8181284F804
:101DC000191284F81A0284F81B22606984F81C0234
:101DD000010A84F81D12010C84F81E12000E84F80A
:101DE0001F02206984F82002010A84F82112010CE4
:101DF00084F82212000E84F82302226A0123521C66
:101E0000226360783146FFF735FF002060710022C1
:101E100060781146FFF74BFF00B10125284670BDE1
:101E20008269891E921E8A4201D800207047C26AC8
:101E3000807801FB002070472DE9F0410D460446F3
:101E400002290BD3A069A84208D920784FF0FF36A9
:101E5000012806D0022833D0032845D00126304679
:101E60006BE7608905EB5507B7FBF0F0616A014449
:101E70002046FFF764FF0028F1D16089B7FBF0F13D
:101E800000FB11717F1CB7FBF0F0214491F8348006
:101E9000616A01442046FFF752FF0028DFD16089C4
:101EA000B7FBF0F100FB1170204490F8341048EAC1
:101EB0000120E90701D00609D1E7C0F30B06CEE700
:101EC0006089616A4008B5FBF0F001442046FFF7E5
:101ED00036FF0028C3D161896800B0FBF1F201FB35
:101EE00012002044868EBAE76089616A8008B5FBDB
:101EF000F0F001442046FFF722FF0028AFD16189AE
:101F0000A800B0FBF1F201FB1200204490F834105D
:101F1000D0F8350041EA002020F070469FE72DE917
:101F2000F04716460D460446022902D3A069A8428E
:101F300002D80220BDE8F087207806F0FF084FF0B5
:101F40000109012825D002285FD00328F1D160893A
:101F5000616A8008B5FBF0F001442046FFF7EFFE10
:101F60000028E7D16289A900B1FBF2F302FB13114B
:101F700021444FF07043D1F8352003EA0222324366
:101F800001F8342F130A4B70130C8B70120ECA70A9
:101F900052E0608905EB5507B7FBF0F0616A014438
:101FA0002046FFF7CCFE0028C4D16089B7FBF0F1D2
:101FB00000FB1170204434307F1CE90703D0017806
:101FC00068F31F1100E03146017084F804906089C5
:101FD000616AB7FBF0F001442046FFF7B0FE00282D
:101FE000A8D16189B7FBF1F201FB127121443431B0
:101FF000EA0702D0C6F3071205E00A78C6F3032306
:1020000002F0F0021A430A7016E06089616A400823
:10201000B5FBF0F001442046FFF791FE002889D17E
:1020200062896900B1FBF2F302FB13112144320A09
:1020300081F8348081F8352084F804907AE72DE91E
:10204000F0410F460446022916D3A069B84213D9BD
:1020500000261FE039462046FFF7EEFE05001CD0A3
:10206000012D09D0681C09D0002239462046FFF70F
:1020700056FF060011D103E002260EE001260CE017
:102080006069411C05D0401C6061607940F001002E
:1020900060712F46A069B842DCD830464DE62DE984
:1020A000F0410F00064605D0FFF7C6FE022808D211
:1020B000012042E6356915B1B069A84207D801256B
:1020C00005E0411CF5D0B1698142F2D83D462C466D
:1020D000B069641CA04202D80224022D0AD3214612
:1020E0003046FFF7A9FE38B1411CE2D00128E0D00C
:1020F000AC42EDD1002020E66FF070422146304620
:10210000FFF70DFF30B957B1224639463046FFF789
:1021100006FF20B101280DD0012420460DE63461D0
:102120007069411CF9D0401E7061707940F0010067
:102130007071F2E74FF0FF34EFE770B5C18083684C
:102140000D460446012B3DD020688169994239D95A
:1021500023B90178032906D1836A23B141898078A4
:102160004E09464310E00189A9422BD9806A11E04B
:10217000FFF762FE0346401C22D0022B22D32068C8
:10218000806998421ED9AD1B2068B5421946EFD22E
:10219000FFF746FEE360A8B121684A895209B5FB02
:1021A000F2F21044206148894009B5FBF0F200FBCF
:1021B0001250342202EB401008446061002070BDD0
:1021C000012070BD022070BD2DE9F041C788044692
:1021D0007F1C38040E46000C33D0216989B3206877
:1021E00042895209B7FBF2F302FB1372002A58D15D
:1021F000491C2161E16809B3428983785209B7FB20
:10220000F2F25B1E1A424CD1FFF716FE054601287A
:102210001BD9681C31D020688169A9423BD886B19E
:10222000E168FFF73CFF05000DD0012D0DD0681CC3
:1022300023D02068FFF75AFDF8B908E00089B842BA
:102240002FD8042079E5072077E5022075E520687E
:1022500000214289343002F073F829462068FFF7E4
:10226000DFFD216800264FF0010808630CE080F8CC
:1022700004802068FFF73AFD08B101205DE5206881
:10228000016B491C761C016320688178B142EED84D
:10229000016B891B0163E56029462068FFF7C0FDDB
:1022A0002061E780206841894909B7FBF1F201FB11
:1022B0001271342202EB41110844606100203CE5B8
:1022C0002DE9F04704460021FFF737FF002857D1DA
:1022D000FF254FF6FF79A846A4F8209021692068D1
:1022E000FFF72DFD07004AD16669307848B1F17AD1
:1022F000E52801F03F0139D00A0704D50F2935D16F
:1023000005E004273BE00F2901D0D5B11EE0E269CA
:102310007AB3410606D596F80D8020F04000E1889A
:1023200005462184A84209D1717B414506D1314639
:10233000104602F036F808B16D1E00E0FF25EDB240
:1023400017E0304602F0ACF8404518D0A069C17AD9
:10235000C9070BD10B210022491E06D316F8012B09
:1023600010F8013BD21AF7D000E042B1FF25A4F8E3
:10237000209000212046FFF727FF0700AED0384607
:10238000D8E52DE9F35FFF2504462E4604274FF6D6
:10239000FF7A4FF0000B6CE02068FFF7D0FC0700DD
:1023A0006BD16269107888B1D17AE52801F03F01DC
:1023B0000AD02E2808D021F02003082B08D00023B3
:1023C000DDF804C0634505D0FF2543E0042754E051
:1023D0000123F5E70F2901D0C5BB42E0410605D531
:1023E000567B20F04000E18805462184A8422FD189
:1023F000507BB0422CD1508BE76940BB1078012351
:1024000000F03F00401E00EB800101EBC001DFF84F
:1024100084970020D44619F800809044B8F80080D2
:1024200033B1FF2914D227F811804346491C01E03B
:10243000E0450DD1401C0D28EDD31078400603D5A2
:10244000FF2905D227F811B06D1E02E00EE0FFE76C
:10245000FF25EDB200212046FFF7B6FE070008D0A9
:102460000BE0104602F01CF8B04208D0A4F820A0FF
:1024700005E0216900298FD10FB1C4F810B03846AA
:10248000BDE8FC9F2DE9FF5F04460C22D4E90676E7
:102490003946684601F04CFF9DF80B00C00718D084
:1024A0000020F8720125E0612B4632466946384625
:1024B00001F0B3FF2046FFF703FF10B96D1C642D38
:1024C000F2D3642D0BD004280AD19DF80B00F872CA
:1024D000E6619DF80B0080070FD5002004E007207F
:1024E00004B0BDE8F09F401C36F810100029FAD166
:1024F0000D211930B0FBF1F500E001250021204647
:10250000FFF71BFE88B9002721692068FFF717FC39
:1025100058B961690978E5290AD049B10027012134
:102520002046FFF751FE0028EED0042804D004E036
:102530007F1CAF4201D0F2E7072006006BD16D1E71
:1025400050D0E088411B2046FFF7F7FD060062D11E
:10255000A06901F0A5FF4FF6FF7A0390216920687A
:10256000FFF7EDFB060056D16169D4F81C90039883
:1025700048730F20C872002008738876EEB2C876C0
:10258000701E00EB800202EBC0030022DFF804B6ED
:1025900001F1010801E0504502D039F813005B1C3D
:1025A0001BF802C001F80C001BF802704FEA102C57
:1025B00007F808C000B95046521C0D2AEBD350450D
:1025C00002D039F8130008B946F040060E702168B1
:1025D0000120087100212046FFF7F6FD06001AD100
:1025E0006D1EBBD121692068FFF7A9FB060012D13F
:1025F00020220021606901F0A3FED4E905010B222D
:1026000001F096FEA0696169C07A00F018000873B5
:10261000216801200871304662E72DE9F041018C04
:102620000446C688A1F57F40FF3800D131462046D8
:10263000FFF783FD05001ED1E5274FF00108216952
:102640002068FFF77CFB050012D120220021606981
:1026500001F076FE60690770216881F80480E088E7
:10266000B04208D200212046FFF7AEFD0500E6D0BB
:10267000042D00D10225284610E52DE9F0410E4633
:1026800001F10905016969B3002143692E275A5CEC
:10269000491C202A18D0052A00D1E522092901D198
:1026A00005F8017BA2F14104192C0BD893F80CC05A
:1026B000092901D3102400E008241CEA040F01D0EA
:1026C0002032D2B205F8012B0B29E0D3D97A31722E
:1026D000197FD3F81D2041EA02213160198BB180A6
:1026E000D98AF1804FF0000885F80080B769002F83
:1026F00022D001690024E9B1F169D9B1018CA1F5B9
:102700007F42FF3A16D0C56910E0002101F0DAFEE1
:1027100040B1FF2802D9010A3955641CF169491EEC
:10272000A14201D8002405E03855641C35F8020B9D
:102730000028EAD107F80480B0E42DE9F35F884669
:102740000E6800E0761C30782F28FBD05C28F9D08A
:10275000009800242546D0F81CB0705D6D1C202820
:1027600025D32F2823D05C2821D0FF2C3FD2A0F1E5
:1027700081017D290BD8715D6D1C01EB0020A1F159
:10278000400280B23F2A02D380397F292FD2012113
:1027900001F098FE07002AD0802F04D20146FEA047
:1027A00001F0D5FD18BB2BF81470641CD5E7721925
:1027B000C8F80020202801D2042516E0002514E0E6
:1027C0000BEB440030F8020C20280DD02E280BD043
:1027D0006CB100212BF8141000980B222021806985
:1027E00001F0AEFD002705E0641E002CE8D10620B4
:1027F00046E67F1C3BF817002028FAD02E28F8D098
:102800001FB145F0030500E0641E2CB10BEB440042
:1028100030F8020C2E28F7D14FF00008C1464FF0D7
:10282000080A3BF817607F1C06B3202E03D02E2E1B
:1028300004D1A74202D045F00305F2E7D04501D20A
:10284000A74219D1BAF10B0F0ED0A74201D045F023
:1028500003050BD84FEA896027464FF008084FF070
:102860000B0A4FEA1069DCE745F003050098806920
:102870000178E5293DD03EE0802E08D3304601F0B6
:1028800043FE002101F01EFE064645F00205FF2E24
:102890000FD9AAF10100804503D345F00305D046C6
:1028A000BFE70098310A826902F8081008F10108B0
:1028B00018E026B13146BBA001F049FD18B15F26F2
:1028C00045F003050EE0A6F14100192802D849F0B1
:1028D000020907E0A6F16100192803D8203E49F05B
:1028E0000109B6B20098816901F8086008F1010891
:1028F00097E705210170BAF1080F03D14FEA89600B
:102900004FEA1069C9F38100032803D06FEA090177
:10291000890701D145F00205A90709D409F003018F
:10292000012901D145F01005012801D145F0080524
:1029300000988069C5720020A2E573B5044601992C
:1029400008782F2801D05C2801D1491C019100256D
:10295000A56001980078202805D200212046FFF7C5
:10296000ECFB65617CBD01A92046FFF7E6FE00286F
:10297000F8D12046FFF7A4FCA169C97A28B1042840
:10298000F0D14907EED405207CBD4907FCD461692C
:10299000C87AC006F7D5206801F0F2FCA060E2E733
:1029A00010B503464FF0FF301C68002C13D02146B1
:1029B00000E0491C0A78202A0ED33A2AF9D114F8EB
:1029C000012B303A0A2A06D28C4204D1022A02D2C2
:1029D000491C1046196010BD002010BD10B50446FA
:1029E00000202071401E20632046FFF7A8F908B19F
:1029F000032010BDB4F83202A0F52A41553901D0A8
:102A0000022010BD94F86A00B4F86B1040EA01216E
:102A10006648B0EB012F08D094F88610B4F88720F0
:102A200041EA0221B0EB012F01D1002010BD0120AD
:102A300010BD2DE9FF474FF0000A0746C0F800A07F
:102A400016460846FFF7ACFF050002D50B2004B080
:102A500096E4574850F82540ACB1204601F07FFC81
:102A600098B13C60207820B16078FFF7CBF8C107BF
:102A70000DD084F800A0E8B26070FFF7D0F8C1076D
:102A80000AD00320E3E70C20E1E70F20DFE70EB1D7
:102A9000400704D40020DAE71EB1400701D50A2020
:102AA000D5E7607804F10A020221FFF700F9A0BB24
:102AB0006089B0F5007F31D3B0F5805F2ED8002556
:102AC00029462046FFF78AFF012822D100206E46C2
:102AD00004EB001191F8F62101F5F9712AB10A7A97
:102AE000D1F8091042EA012100E0002146F8201047
:102AF000401C0428ECD3002756F8275025B129465E
:102B00002046FFF76BFF00E0022048B17F1C042F36
:102B1000F2D3032802D0D8BB02E0FFE7012096E7FA
:102B2000B4F83F006289904274D1B4F84A0028B9E1
:102B300094F85800D4F8591040EA0120E06194F864
:102B400044708146E770012F01D0022F62D194F8C2
:102B500041604743A670DEB1701E06425AD1B4F8F8
:102B600045104FEA521CB1FBFCF00CFB1010218108
:102B700070B9B4F8470028B994F85400D4F8553027
:102B800040EA0320B4F8423013B1B1FBFCFC11E081
:102B900040E00000C8650008222A3A3C3E3F7C7FA6
:102BA000000000002B2C3B3D5B5D000000464154C3
:102BB000A800002003EB0708C44460452AD3A0EB1B
:102BC0000C00B0FBF6F028B3012640F6F67840453D
:102BD00000D302264FF6F678404500D30326801C2A
:102BE000AC44C4F82CC02B44A061C4E90853032EA4
:102BF00012D079B1D919A162022E18D000F00101CA
:102C000000EB400001EB5000401E1044B0FBF2F11D
:102C100049450ED90D201AE70029FBD194F8601020
:102C2000D4F86130800041EA0321A162ECE7400062
:102C3000EAE74FF0FF306061206180206071032E71
:102C400030D1B4F8640001282CD12046691CFFF76C
:102C500076F838BB84F805A0B4F83202A0F52A4112
:102C600055391FD194F83400D4F8351040EA0120CA
:102C7000FB49884216D194F81802D4F8191240EA98
:102C80000120F84988420DD194F81C02D4F81D1295
:102C900040EA0120606194F82002D4F8211240EA51
:102CA00001202061F04926700888401C0880E080DF
:102CB000F0E610B504000CD0206850B1017841B1A5
:102CC000C188A288914204D14078FEF79BFFC007DB
:102CD00001D0092010BD206801F041FB08B100209F
:102CE00010BD0F2010BD2DE9F74181B0904602982C
:102CF00000906846FFF754FE040002D50B2004B094
:102D0000BAE4D94E361D002756F8245025B1E8689C
:102D100001F030FC88B12F70019929B101F80C7BCA
:102D2000E0B201F01DFC40B1019846F8240010B15A
:102D3000B8F1010F03D00020E1E70220DFE7002215
:102D400002A901A8FFF775FE04460146019801F0AB
:102D500009FB2046D3E72DE9F747ADF50D7D0600C9
:102D60000ED04FF0000802F01F0727F001028EA9D5
:102D700080A8C6F80080FFF75CFE050005D08CE057
:102D800009200DF5107DBDE8F08789A88690CDF863
:102D90001CD280A88E99FFF7D0FD859C050001D13B
:102DA00004B9062517F01C0F4ED055B1042D03D1E0
:102DB00080A8FFF767FB0546859C47F0080745B1EB
:102DC0006BE0E07A10F0110F48D1780701D50825A3
:102DD00063E0380748D5FEF782FFA073010AE1736C
:102DE000020C2274030E6374A075E175227663767B
:102DF00084F80B8084F81C8084F81D8084F81E8081
:102E000084F81F802146809801F0BAFA814600219B
:102E1000204601F0BEFA80990120B9F1000F087137
:102E200020D080984946D0F830A0FFF708F9050077
:102E300033D18099A9F10100086151468098FEF7CD
:102E40007EFF05000CD028E03DBBE07AC10601D52D
:102E5000042522E0B90703D5C00701D007251CE0EF
:102E6000380701D547F0200780982146006BC6E956
:102E70000704B77186F807804746809801F080FA0A
:102E80003061207FD4F81D1040EA0120C6E90270AD
:102E9000B76180983060C088B0802946809801F082
:102EA00061FA28466DE72DE9F84F894600219A46D8
:102EB000164604461960FFF7FCFE050006D02946B9
:102EC000206801F04FFA2846BDE8F88FE17921B17A
:102ED000206801F047FAE079F6E7A079C0070BD047
:102EE000D4E90210401A04F124014FF0010B0091C3
:102EF000864200D9064697E00721206801F032FAA1
:102F00000720E1E72268A0685189B0FBF1F301FBDB
:102F10001303002B69D1B0FBF1F193785B1E1940CC
:102F200011F0FF0509D108B310466169FEF784FF6F
:102F300002281DD3411C4ED0606161692068FEF7F4
:102F40006FFFA8B100EB050820684189B6FBF1F7D7
:102F50004FB38178EA198A4200D94F1B40783B462B
:102F600042464946FEF771FEA8BB09E02069DFE74B
:102F70000220E0710221206801F0F4F90220A3E7A9
:102F8000A07940060BD5A169A1EB0800B84206D292
:102F900021684A89009900FB029001F0C9F9206874
:102FA00045897D4336E0A26942451CD0A179490696
:102FB00009D5407801230099FEF75CFE58B9A07945
:102FC00020F04000A071206801234246407800991B
:102FD000FEF73BFE38B184F807B00121206801F00C
:102FE000C1F9012070E7C4F818802068A168408901
:102FF000B1FBF0F200FB1212851AB54200D935463A
:10300000B1FBF0F200FB121001192A4648462431A8
:1030100001F08EF9A068A9442844A060DAF8000005
:103020004119761BCAF80010002E7FF46BAF002107
:10303000206801F097F9002046E72DE9F84F89460E
:1030400000219A46154604461960FFF732FE060035
:103050000CD03146206801F085F9304634E7000095
:103060005252614172724161A4000020E17921B1A4
:10307000206801F077F9E07926E7A079800705D488
:103080000721206801F06EF907201DE7A06804F110
:10309000240142194FF0010B009182426AD3A6E04D
:1030A0002268A0685189B0FBF1F301FB1303002BE8
:1030B0007AD1B0FBF1F193785B1E194011F0FF0655
:1030C00012D108B1616902E0206928B900211046D7
:1030D000FEF7E5FF00284DD001282DD0411C58D027
:1030E0006061216901B92061A07940060BD5206893
:1030F0000123A26940780099FEF7BCFDC0BBA0790E
:1031000020F04000A07161692068FEF789FE98B147
:1031100000EB060820684189B5FBF1F74FB38178D1
:10312000F2198A4200D98F1B40783B4642464946F5
:10313000FEF7A0FDE0B907E00220E071022120685F
:1031400001F010F90220BFE6A169A1EB0800B84226
:103150000AD221684A8900FB0291009801F0E8F840
:10316000A07920F04000A071206846897E4334E0B9
:103170000FE000E03EE0A269424513D0D4E902121C
:1031800091420FD24078012342460099FEF75DFD3F
:1031900040B184F807B00121206801F0E3F8012074
:1031A00092E601E0C4F818802068A1684089B1FB6C
:1031B000F0F200FB1212861AAE4200D92E46B1FB85
:1031C000F0F200FB1210204432464946243001F050
:1031D000AFF8A07940F04000A071A068B14430443D
:1031E000A060DAF800008119AD1BCAF80010002DAC
:1031F0007FF456AFD4E90201884200D9E060A0799B
:10320000002140F02000A071206801F0ABF8002000
:103210005AE670B50446FFF74CFD050048D1A07989
:10322000810645D5400612D52068012304F124010A
:103230004078A269FEF71EFD28B10121206801F047
:1032400091F8012070BDA07920F04000A071E169E3
:103250002068FEF774FD05002AD1256AE87A40F05F
:103260002000E872207B2877A089000A6877E06850
:10327000000CA877E068000EE8772846216901F085
:1032800088F8FEF72CFDA875010AE975010C29766E
:10329000000E68760020A874E874A07920F0200061
:1032A000A0712168012008712068FEF761FD0546C4
:1032B0002946206801F056F8284670BD70B50546CD
:1032C000FFF7A7FF040009D12846FFF7F2FC04002E
:1032D00004D100212868296001F044F8204670BD1F
:1032E0002DE9F0470D460446FFF7E3FC5FEA0008CE
:1032F0007BD1E17921B1206801F034F8E07942E531
:10330000E068A84203D2A179890700D405460027C6
:10331000A1684FF00109A7600DB320684FF0020AC1
:1033200086784289564369B16A1E491EB2FBF6F29D
:10333000B1FBF6F39A4205D3701E81436D1AA1606A
:1033400061690BE0216941B90021FEF7A8FE014641
:1033500001284BD0481C5DD021616161D1B92DE0BD
:10336000A0798007206805D5FEF799FE010004D1F9
:10337000354611E0FEF760FD0146481C4AD00129A0
:1033800034D920688069884230D96161A068AD1B5A
:103390003044A060B542E3D8A0682844A06020680B
:1033A0004289B5FBF2F302FB13523AB1FEF738FD46
:1033B000E0B121684989B5FBF1F10F182068A168D7
:1033C0004289B1FBF2F302FB131161B3A269BA4265
:1033D00029D0A17904F12405490613D540780123A9
:1033E0002946FEF747FCA8B908E025E084F807A0C5
:1033F0000221206800F0B6FF0220C4E4A07920F08A
:103400004000A071206801233A4640782946FEF723
:103410001CFC38B184F807900121206800F0A2FF5D
:103420000120B0E4A761D4E90201884204D9E06038
:10343000A07940F02000A0714146206800F092FF82
:103440004046A0E433B5ADF5057D050007D0002268
:1034500086A980A8FFF7EDFA040004D023E0092034
:103460000DF5077D30BD8098286081A8A861C5F85A
:103470001CD028468699FFF760FA040010D16969CC
:1034800031B1C87AC00616D5809800F079FFA860DF
:1034900080980021C088A8802846FEF74EFE04468A
:1034A000042C08D00CB1002028602146809800F040
:1034B00059FF2046D4E70524F5E770B50546FFF728
:1034C000F8FB040004D100212868296000F04AFFBD
:1034D000204670BDF0B5ADF5037D0F460546FFF7FC
:1034E000E8FB040022D16FB180A8A861C5F81CD008
:1034F00000212846FEF745FF00260446042807D091
:103500003CB113E000212846FEF717FE04460DE00B
:103510002E6139462846FFF7B0F800212846FEF70D
:1035200053FE0446042801D100242E612146286858
:1035300000F018FF0DF5037D2046F0BD33B5ADF565
:103540000D7D0D4600228DA980A8FFF772FA0400B8
:1035500012D189A88690CDF81CD280A88D99FFF74A
:10356000ECF9040008D1859828B12DB1294680A82E
:10357000FFF783F800E006242146809800F0F2FE71
:1035800020460DF50F7D30BD2DE9F74F14468A46D4
:10359000002269462046FFF74CFA25685FEA0008DA
:1035A0004ED1D5E90507B91E884202D8CAF80000F5
:1035B00046E095F800900024B9F1010F01D06E6A41
:1035C00016E0022631462846FEF736FC411C03D0A1
:1035D000012803D028B105E0012000E00220804648
:1035E00027E0641CA869761C8642EBD321E051B920
:1035F0003146761C2846FEF7A2FB5FEA000818D188
:10360000698905F13400B9F1020F07D00278D0F8CA
:10361000013042EA0322120106D006E0028802B914
:10362000641C801C891E02E0641C001D091F7F1E93
:10363000DDD16C61687940F001006871CAF8004022
:103640004146284600F08EFE4046BDE8FE8F70B52C
:103650000446FFF72EFB05003DD1E07918B1054681
:10366000280005D037E0A079800701D4072532E093
:10367000D4E9020181422ED9E060A17941F0200114
:10368000A17150B161692068FEF7D6FB0646401C67
:103690000BD0012E0BD065B11CE021692068FEF72C
:1036A000CEFC05460020206113E0012512E0022532
:1036B00010E020688169B14213D96FF070426169EE
:1036C000FEF72DFC050005D131462068FEF7B7FC5A
:1036D000054635B1E5712946206800F043FE2846CD
:1036E00070BDA0794006F6D52068012304F12401BD
:1036F0004078A269FEF7BEFA0028D6D1A07920F062
:103700004000A071E7E731B5ADF5167D012296A91D
:1037100080A8FFF78EF9040040D192A88690CDF8DA
:103720001CD280A89699FFF708F9040036D1859C31
:1037300024B1E07AC00703D007242FE006242DE04F
:103740002146809800F01CFE050017D0E07AC006E4
:1037500014D5242280A989A800F0EAFD022189A8B5
:103760008B95FEF7EAFC040018D1002189A8FEF72A
:1037700008FE0400E0D0042C00D07CB980A8FEF73D
:103780004CFF04000AD12DB129468098FEF757FC62
:10379000040003D18098FEF7EBFA04462146809896
:1037A00000F0E0FD0DF5177D204630BD2DE9F14F0D
:1037B000ADF50E7DFEF793FA064601228EA980A88C
:1037C000FFF737F904000BD18BA88690CDF81CD2F7
:1037D00080A88E99FFF7B1F8040002D0042C02D023
:1037E00094E0082492E000218098FEF758FC5FEAFC
:1037F00000084FF0000403D0B8F1010F02D002E03E
:10380000072400E00224B8F1FF3F01D014B163E0C7
:10381000012461E08098FEF769FA04005CD141461A
:103820008098FEF7FDFA809D074600216A893435AD
:10383000284600F085FD0B222021284600F080FD5F
:103840002E242C701020E872F0B28A90A875C6F36E
:1038500007208990E875C6F3074B85F818B04FEA42
:10386000166A85F819A04146284600F092FD05F138
:10387000200020222946064600F05AFD85F8214006
:10388000809882990078032804D18098806A8842C1
:1038900000D10021304600F07CFD80984FF00109F6
:1038A000867812E08098076380997F1C81F80490E5
:1038B0008098FEF71BFA04000ED1809800214289FF
:1038C000284600F03DFD761EF6B2002EEAD180A813
:1038D000FEF7D8FD040004D041468098FEF7AFFB08
:1038E00014E085981021C1728A9981758999C175F2
:1038F00080F818B080F819A0414600F04AFD809980
:1039000081F804908098FEF733FA044621468098A7
:1039100000F028FD0DF50F7D2046BDE8F08F77B54E
:10392000ADF50D7D16460D4601228DA980A8FFF745
:1039300080F8040019D189A88690CDF81CD280A8FF
:103940008D99FEF7FAFF04000FD18598A8B106F013
:103950002701C27A0D408A431543C5728099012020
:1039600008718098FEF704FA04462146809800F01A
:10397000F9FC0DF5107D204670BD0624F5E733B542
:10398000ADF51B7D01229BA980A8FFF752F804002A
:103990006ED18098899098A88690CDF81CD280A886
:1039A0009B99FEF7CAFF040062D18598C0B100F16F
:1039B0000B01152292A800F0BBFC242280A989A843
:1039C00000F0B6FC9CA8FEF7EBFF00280ADB89A8F4
:1039D0009C99FEF7B2FF040006D0042C06D047E005
:1039E000042445E00B2443E0082441E089A8FEF7C5
:1039F00049FD04003CD18E9C13220DF24A2104F1B2
:103A00000D0000F095FC9DF84802012540F02000D3
:103A1000E07280980571E07AC00620D58B99829873
:103A200088421CD02146809800F0AAFC014680986C
:103A3000FEF7F6F9010008D08098FEF780F904003F
:103A4000809800F1540002D012E0022410E0417886
:103A50002E2904D18B9900F09CFC8098057180A8D8
:103A6000FEF7DBFD040003D18098FEF781F90446E0
:103A70002146809800F076FC0DF51D7D204630BD76
:103A800033B5ADF50D7D0D4601228DA980A8FEF759
:103A9000D0FF04001CD189A88690CDF81CD280A844
:103AA0008D99FEF74AFF040012D18598B0B1A9792B
:103AB0008175E988090AC17529790176A988090AF9
:103AC00041768099012008718098FEF751F90446EB
:103AD0002146809800F046FC204652E50624F7E790
:103AE0002DE9F74F86B090460798012802D9132098
:103AF00009B012E706A8FEF753FF002801DA0B20F1
:103B0000F6E7F84951F820604EB100213170C0B29B
:103B10000290FEF784F8C10703D00320E8E70C20E9
:103B2000E6E7400701D50A20E2E706F10A02022192
:103B30000298FEF7BCF8002876D17089B0F5805F56
:103B400072D8B0F5007F6FD303AA01210298FEF767
:103B5000AEF80028F0D103988028F4D3079909B172
:103B6000002100E03F218A46A0EB0A01A8F10102F2
:103B700018EA020F039102D1B8F1000F13D1708936
:103B80004FF4FA62400AB2FBF0F0B1FBF0F2002011
:103B9000D54B00E0401C33F810509542FAD8D24A79
:103BA000163232F81080B8F5007F02D37289B8FB64
:103BB000F2F8B8F1000F12D0B8F1800F01D98020CF
:103BC0008046B1FBF8F0012740F6F672904200D330
:103BD00002274FF6F672904203D3032725E0012017
:103BE000EEE7032F21D0012F29D04200121D70894A
:103BF000521E0244B2FBF0F90125AA03B2FBF0F019
:103C000004900AEB050B049A0BEB0900841804EBF3
:103C10000802A2EB0A00884244D86A4603210298AF
:103C2000FEF745F8B0B910E0FFE07289072303EB17
:103C300080001044B0FBF2F920250020E0E700EB03
:103C40004000401C4208D21CD1E7009810B1B0F5EA
:103C5000004F01D9012000902118401E491E8143C8
:103C6000081B0090032F10D0814403980499421B35
:103C7000A2EB0902521AB2FBF8F10591022F07D00C
:103C8000032F0AD0012F11D015E005448344ECE73F
:103C900040F6F672914205D30DE008464FF6F671F4
:103CA000884201D20E2023E70C240AE0B0F5803FC1
:103CB00006D2012405E0B0F5803F01D2042400E0E3
:103CC0000624079808B1F02038E0728906F1340024
:103CD0000021019000F034FB06F5F97001214170DC
:103CE00081700022C2700471FE214171039B0AEBB6
:103CF000030143F6C163B1FBF3F13F2343EA9104AF
:103D000000918471C171037242728272C27203990E
:103D100001730A0A42730A0C8273090EC17355209B
:103D200086F83202AA2086F83302DDE90110012369
:103D30000022FDF79FFF002877D1F820019006F1BF
:103D4000340472890021204600F0FAFA0B2267A1A0
:103D5000204600F0EDFA7089E072000A207384F8C2
:103D60000D80A573280AE07301202074032F0BD067
:103D700040026074000AA0740398B0F5803F05D239
:103D8000E074000A20750CE00020F2E784F82000BF
:103D9000010A84F82110010C84F82210000E84F826
:103DA0002300019860753F20207600206076FF2177
:103DB000A176E07684F81CA04FEA1A2060774FEADB
:103DC0001A40A0774FEA1A60E077FDF788FF80215C
:103DD00029220090032F29D084F82700030A84F8B1
:103DE0002830030C84F82930000E84F82A0084F867
:103DF00016904FEA1920E07584F8241084F82620E4
:103E000013223DA104F12B0000F092FA552084F812
:103E1000FE01AA2084F8FF010123524621460298A0
:103E2000FDF728FF002800D136E0D8E084F84300F1
:103E3000030A84F84430030C84F84530000E84F8FB
:103E4000460084F824904FEA192084F825004FEAB0
:103E5000194084F826004FEA196084F827000220F0
:103E600084F82C00002084F82D0084F82E0084F8BB
:103E70002F00012384F8303084F83100062384F8C1
:103E8000323084F8330084F8401084F84220132242
:103E90001EA104F14700B7E7032F06D101230AF161
:103EA000060221460298FDF7E5FE5D464FF0000B45
:103EB00072890021204600F043FA01980090032FF8
:103EC00030D0012F2CD06FF0FF0101430091217001
:103ED0000098000A60700098000CA0700098000E16
:103EE000E07036E0A8000020D6650008EBFE904D9B
:103EF00053444F53352E30004E4F204E414D4520F8
:103F00002020204641542020202020004E4F204ECB
:103F1000414D4520202020464154333220202000AE
:103F2000FE49D2E760F0FF00009020700098000A80
:103F300060700098000CA0700098000EE070FF20E8
:103F400020716071A071E07120726072A0720F2008
:103F5000E0722A466D1C012321460298FDF78AFE75
:103F6000E8BB72890021204600F0EAF9012009E04F
:103F70002A466D1C012321460298FDF77BFE70BB8B
:103F80000098401C00904845F2D30BF101005FEA15
:103F9000000B8DD0032F09D0049E2A466D1C0123EF
:103FA00021460298FDF766FEC8B901E04646F4E7EF
:103FB000761EF2D1032F3CD1522020706070612216
:103FC000A2704120E070722184F8E41184F8E511B8
:103FD00084F8E60184F8E7210598401E00E030E00F
:103FE00084F8E801010A84F8E911010C84F8EA1167
:103FF000000E84F8EB01022084F8EC01002084F824
:10400000ED0184F8EE0184F8EF01552084F8FE01FB
:10401000AA2084F8FF0101230AF101022146029837
:10402000FDF728FE01230AF1070221460298FDF759
:1040300021FE002211460298FDF739FE00283FF4C8
:104040005FAD012054E52DE9FC410025904607466F
:1040500004464E1E0FE001AB012269464046FEF7C2
:1040600022FF0198012808D19DF800006D1C04F87A
:10407000010B0A2801D0B542EDDB0020207015B1FC
:104080003846BDE8FC810020FBE738B545680446AA
:10409000002D16DB60196D1C01733D2D0DDB6B4689
:1040A0002A4604F10C012068FEF7C7FF0098A842D9
:1040B00001D1002501E04FF0FF356560A068401C8C
:1040C000A06038BD00B595B0029100210391049124
:1040D000014602A8FFF7D9FF039800280DDB02462E
:1040E00001AB05A90298FEF7A8FF30B90199039822
:1040F000884202D1049815B000BD4FF0FF30FAE7B6
:1041000010B596B004460020CDE90210049003E0FB
:1041100002A8641CFFF7B9FF21780029F8D10398A1
:1041200000280DDB024601AB05A90298FEF785FFCA
:1041300030B901990398884202D1049816B010BD95
:104140004FF0FF30FAE70FB42DE9F0479AB024AEF4
:104150000290002003900DF154090490239810F868
:10416000011B2390002973D0252903D002A8FFF753
:104170008CFFF3E7002510F8011B2F462390302910
:1041800002D02D2902D00FE0012500E0022510F811
:10419000011B239008E007EB870001EB4007239801
:1041A000303F10F8011B2390A1F130000928F2D90B
:1041B0006C2901D04C2905D1239845F0040510F84D
:1041C000011B2390002943D0A1F161000A46192860
:1041D00001D8203AD2B24F2A40D006DC422A3BD046
:1041E000432A36D0442AC1D13AE0532A08D0552A6E
:1041F00036D0582ABAD1102301CE442A32D036E024
:1042000056F8048B002400E0641C18F80400002811
:10421000FAD1A80704D50DE0202102A8FFF735FF49
:104220002046641CB842F7D304E008F1010802A854
:10423000FFF72BFF98F800100029F6D103E02021AA
:1042400002A8FFF722FF2046641CB84286D2F6E798
:1042500054E016F8041B89E70223CDE70823CBE7D7
:104260000A23C9E7002802DA404245F00805002485
:10427000CC46B0FBF3F203FB1202B0FBF3F0D2B278
:10428000092A05D9782915D04FF007084244D2B23F
:1042900030320CF80420641C08B1102CE9D3280734
:1042A00003D52D2009F80400641CA046E80704D0BB
:1042B000302003E04FF02708E8E72020824603E0A3
:1042C000514602A8FFF7E1FEA80704D4414608F1D1
:1042D0000108B942F4D34D46641E02A8295DFFF7D8
:1042E000D4FE002CF8D103E0514602A8FFF7CDFE22
:1042F000414608F10108B942A8D2F5E70398002821
:1043000013DB024601AB05A90298FEF796FE60B9E1
:1043100001990398884208D1049801E000FFFF004A
:104320001AB0BDE8F0075DF814FB4FF0FF30F4E77A
:1043300003E011F8013B00F8013B521EF9D270472F
:10434000C9B201E000F8011B521EFBD2704700E029
:10435000401C02780AB18A42FAD1D0B27047C068D4
:1043600000F00DB900280AD00C2908D00B2906D07E
:10437000092904D00F2902D0C06800F00BB970479A
:104380000246488B1278032A02D1898A40EA01400A
:10439000704781760A0AC2760A0C0275090E4175C9
:1043A00070472DE9F05F8146488B884680BB98F8BE
:1043B0000000DFF808A100F03F00401E00EB800184
:1043C00001EBC004012000254FF6FF7B1AF8052001
:1043D00002EB08010E8870B1FF2C19D2304600F0B4
:1043E00093F8074639F81400641C00F08DF88742F2
:1043F0000ED1304601E05E450AD16D1C0D2DE5D38E
:1044000098F80010490606D528B139F8140010B103
:104410000020BDE8F09F0120FBE77CB516461C4656
:1044200005460B22FFF784FF052C11D9244A0CE026
:104430000021B61C2346044663F35F044008E303EF
:1044400000D55440491C1029F4D330880028EFD1FE
:1044500007226B4604F00F003030392800D9C01D08
:104460009854521E2409F5D17E2000219854541EE0
:1044700006E081387D2802D8A14206D0491C491C9B
:10448000914202D2685C2028F3D1082A02D2985CBB
:10449000521C00E020206854491C0829F5D37CBD3B
:1044A000014600200B22430803EBC01011F8013B2A
:1044B000521E1844C0B2F6D170470000C86500080B
:1044C0002110010070B580281BD345F2205409B19A
:1044D0001F4D00E01F4D00231022E11A01EBD171A6
:1044E00003EB610135F82160864206D001D20B460C
:1044F00000E00C46521EF0D104E01AB105EB810039
:10450000408870BD002070BD70B5802806D2A0F133
:104510006101192901D8203880B270BD0C230E4DDD
:1045200000224FF4F774A11A02EB510135F8116023
:10453000864206D001D20A4600E00C465B1EF2D14C
:1045400070BD002BFCD0054830F8110070BD000094
:1045500086BA0108026600080A0F0308E61203087B
:1045600010B50C46012000F0D2F92060002800D0E0
:10457000012010BD10B500F023FC012010BD10B5C6
:1045800000234FF47A72194600F09FFA012800D0F8
:10459000002010BD00231A46194600F012B900F1A0
:1045A00008014FF0FF32C0E90112C1600161002132
:1045B0000160704700210161704742684A6093685A
:1045C0008B6093685960916008610168491C0160C3
:1045D000704730B50C68621C02D000F1080202E09E
:1045E000026904E01A4653681D68A542FAD9536867
:1045F0004B6099608A60516008610168491C0160E4
:1046000030BDD0E9013201699A60D0E901235A60D6
:104610004A68824201D182684A60002202610868C9
:10462000401E08607047000070B50D46040005D1BB
:1046300040F21B12F7A1FEA001F0CAFE01F004FE39
:10464000D4E90F20216802FB001161600021A16301
:104650002168A1600A46D4E90F01401E00FB012138
:10466000E16021464FF0FF3001F8440F487004F13B
:1046700010004DB1FFF793FF04F12400FFF78FFF07
:1046800001F0FCFD012070BD21690029F8D001F086
:10469000B0F80028F4D0EA494FF080500860BFF32A
:1046A0004F8FBFF36F8FEBE770B50E46050005D156
:1046B0004FF4C472D7A1DEA001F08AFE96B105FBCB
:1046C00006F0483001F06AFC040009D004F148010A
:1046D00020464EB10160C0E90F560121FFF7A4FF4B
:1046E000204670BD0020ECE70060F4E72DE9F041C2
:1046F000044601F0A9FD94F9455004F1240609E0AF
:10470000606A48B1304601F074F808B101F023F94D
:104710006D1E6DB2002DF3DC4FF0FF3684F845605E
:1047200001F0ACFD01F090FD94F9445004F1100744
:1047300009E0206948B1384601F05BF808B101F0A2
:104740000AF96D1E6DB2002DF3DC84F84460BDE8FB
:10475000F04101F093BD2DE9F041856B1746044609
:104760000026026C82B1C7B1E06801F0F7FDE16894
:10477000206C091AE1602268914202D26168081A2D
:10478000E060022F16D017E02068A8B9606801F039
:1047900032F90646002060600EE0A06801F0DEFD00
:1047A000216CA0680844A0606168884204D3206836
:1047B000A06001E005B16D1E6D1CA5633046BDE82B
:1047C000F0812DE9FF4F83B01F468B4604004FF068
:1047D000000605D140F2D9228EA195A001F0F8FD86
:1047E000BBF1000F07D1206C28B140F2DA2289A179
:1047F0008FA001F0EDFD022F08D1E06B012805D05C
:1048000040F2DB2283A18AA001F0E2FD01F0AAF8C8
:1048100038B9059828B140F2DE227EA184A001F0CB
:10482000D7FD4FF0000A4FF08058DFF8149201F0E6
:104830000BFDA06BE16B884205D3022F03D00598D6
:10484000C8B1DEB11EE03A4659462046FFF783FF65
:10485000616A19B104F1240000F0CBFF28B1C9F856
:104860000080BFF34F8FBFF36F8F01F007FD012072
:1048700007B0BDE8F08F01F001FD21E0684601F0CE
:1048800026F8012601F0FAFC00F0C6FC01F0DCFC81
:1048900094F94400401C01D184F844A094F94500E7
:1048A000401C01D184F845A001F0E8FC05A9684648
:1048B00001F01EF830B12046FFF718FF00F01EFC93
:1048C0000020D5E701F0C0FCA06BE16B884201D16C
:1048D000012500E0002501F0D1FC95B104F11000A4
:1048E000059900F048FF2046FFF700FF00F006FCA6
:1048F00000289CD1C9F80080BFF34F8FBFF36F8FA2
:1049000095E72046FFF7F2FE00F0F8FB8FE710B5C1
:10491000024600210120FFF7C7FE041E07D0002138
:10492000416001600B460A46C160FFF74AFF20461E
:1049300010BD2DE9F0471F4690468946040005D179
:1049400040F29F3233A13AA001F042FDB9F1000FCD
:1049500007D1206C28B14FF468722EA134A001F069
:1049600037FD022F08D1E06B012805D040F2A132BB
:1049700028A12FA001F02CFD01F0A5FC5020EFF3A1
:10498000118680F31188BFF34F8FBFF36F8FA06B39
:10499000E16B884206D3022F04D0002086F31188F1
:1049A000BDE8F08794F945503A4649462046FFF75E
:1049B000D2FE681C04D06D1C84F845500120EDE740
:1049C000606A0028FAD004F1240000F012FF0028E9
:1049D000F4D0B8F1000FF1D00121C8F80010EDE7D4
:1049E00070B50E46040005D140F23C4209A110A06A
:1049F00001F0EEFC206C28B14FF4886205A10CA0F8
:104A000001F0E6FC206808BB6068F8B140F245425E
:104A100000A117E02E2E5C2E2E5C46726565525466
:104A20004F535C7372635C71756575652E6300002E
:104A30004572726F723A25732C25640D0A000000CE
:104A400004ED00E0AFF2180001F0C2FC01F03BFC05
:104A50005020EFF3118580F31188BFF34F8FBFF320
:104A60006F8FA16BE06B884218D994F94500491CFF
:104A7000A163411C04D0401C84F8450001200EE0D5
:104A8000606A0028FAD004F1240000F0B2FE002889
:104A9000F4D0002EF2D001203060EFE7002085F343
:104AA000118870BD30B4026C0B46002A0BD0C1686F
:104AB0001144C1604468A14201D30168C16030BCA7
:104AC000184601F04BBC30BC70472DE9FF4F83B056
:104AD0009B468A4604004FF0000607D140F2DC42B4
:104AE000AFF2D001AFF2B80001F072FCBAF1000FE2
:104AF00009D1206C38B140F2DD42AFF2E801AFF2EB
:104B0000D00001F065FC00F02DFF48B9059838B1E0
:104B10004FF49C62AFF20411AFF2EC0001F058FCCC
:104B20004FF000094FF08057DFF8608301F08CFBF5
:104B3000A56B35B351462046E668FFF7B3FFBBF1DE
:104B4000000F11D0E660606A50B104F1240000F05B
:104B500050FE28B1C8F80070BFF34F8FBFF36F8FBE
:104B600001F08CFB012083E66D1EA563206810B95F
:104B700000F093FF606020690028F1D004F110007C
:104B8000E5E7059808B11EB106E001F077FB27E0E4
:104B9000684600F09CFE012601F070FB00F03CFB33
:104BA00001F052FB94F94400401C01D184F8449078
:104BB00094F94500401C01D184F8459001F05EFB5A
:104BC00005A9684600F094FE002820460AD0FFF7A9
:104BD0008DFD00F093FA204600F04AF90028A5D098
:104BE000002045E600F044F9D8B1206830B901F062
:104BF0002BFB606800F0C1FE01F040FB04F12400D3
:104C0000059900F0B8FD2046FFF770FD00F076FA38
:104C100000288BD1C8F80070BFF34F8FBFF36F8FA0
:104C200084E72046FFF762FD00F068FA7EE72DE991
:104C3000F04790468946040007D14FF4B462AFF2C2
:104C40002C21AFF2142001F0C3FBB9F1000F09D100
:104C5000206C38B140F2A152AFF24821AFF23020BF
:104C600001F0B6FB01F02FFB5020EFF3118780F32A
:104C70001188BFF34F8FBFF36F8FA66BF6B194F916
:104C8000445049462046FFF70DFF761EA663681C78
:104C900004D06D1C84F84450012010E020690028E5
:104CA000FAD004F1100000F0A4FD0028F4D0B8F10F
:104CB000000FF1D00121C8F80010EDE7002087F3C4
:104CC00011886DE62DE9F0410E46040007D140F24F
:104CD000FC52AFF2C021AFF2A82001F079FB4EB92F
:104CE000206C48B140F2FD52AFF2D821AFF2C020A3
:104CF00001F06EFB206C38B940F2FE52AFF2EC21AD
:104D0000AFF2D42001F064FB01F0DDFA5020EFF3A4
:104D1000118580F31188BFF34F8FBFF36F8FA06BA6
:104D200030B131462046E768FFF7BCFE0120E7605E
:104D300085F3118843E510B5040007D140F22F62D6
:104D4000AFF23031AFF2183001F042FB01F07CFAE3
:104D5000A46B01F093FA204610BD10B5040007D1F2
:104D600040F24162AFF25431AFF23C3001F030FB1F
:104D700001F06AFAD4E90E10441A01F07FFA2046D5
:104D800010BD10B5040007D140F25162AFF27C3182
:104D9000AFF2643001F01CFBA06B10BD3C4A002157
:104DA00002EBC1035B68834206D1002042F8310068
:104DB00002EBC10148607047491C0A29F0D37047D3
:104DC00010B5040007D140F25D62AFF2B831AFF226
:104DD000A03001F0FDFA2046FFF7E0FF2046BDE8D5
:104DE000104001F046B910B5040007D140F29372AB
:104DF000AFF2E031AFF2C83001F0EAFAA06B08B1CF
:104E0000002010BD012010BD10B5040007D140F2F4
:104E1000BA72AFF20041AFF2E83001F0D9FAA06BFC
:104E2000E16B884201D1012010BD002010BD10B5FA
:104E3000174B002253F832401CB1521C0A2AF9D3F6
:104E400010BD43F8321003EBC201486010BD10B52D
:104E500000240F4A214602EBC1035B68834202D162
:104E600052F8314002E0491C0A29F4D3204610BD13
:104E700010B5044601F0E8F9A06B20B1002401F060
:104E8000FDF9204610BD0124F9E7000004ED00E023
:104E90006C2500202DE9F041054601F0D5F9FE4EC4
:104EA000B068401CB0603068FC4F10B1706930B31E
:104EB0002BE03560B068012827D1002404EB840082
:104EC00007EB8000FFF76BFB641C202CF6D3F44843
:104ED000FFF765FBF2481430FFF761FBF04828301C
:104EE000FFF75DFBEE483C30FFF759FBEC485030D4
:104EF000FFF755FBEA4870631430B06305E0306893
:104F0000E96AC06A884200D83560706A0121401C95
:104F10007062E86A326981401143316100EB8000C0
:104F200007EB8000291DFFF748FB01F0A7F9706926
:104F300000280CD03068E96AC06A884207D2D94993
:104F40004FF080500860BFF34F8FBFF36F8FBDE805
:104F5000F0812DE9FF5F8346DDE90E87994616460D
:104F60008A46900001F01AF805001AD0542001F08A
:104F700015F8040012D025630021CDE90241CDE9E6
:104F800000874B4632465146584600F042FF2046C5
:104F9000FFF780FF012004B0BDE8F09F284601F034
:104FA00068F84FF0FF30F6E770B5044601F04CF9B1
:104FB000B94D04B92C68201DFFF723FB58B9E06AEE
:104FC000B64A00EB800152F8211021B9012181403D
:104FD000286988432861A06A18B104F11800FFF716
:104FE00010FB686A401C68622868844208D1AC489B
:104FF000211D3C30FFF7E1FA6868401C686007E05B
:10500000A868401EA860204600F056FF00F047FF49
:1050100001F034F96869002812D0286884420FD161
:10502000286B28B140F265429FA1A6A001F0D0F9FB
:105030009C494FF080500860BFF34F8FBFF36F8FD4
:1050400070BD2DE9F041944F0026386B38B1B86936
:10505000401CB861F86900B10126304677E7FD6869
:105060006D1CFD6011D1786B006828B140F6D91233
:105070008DA194A001F0ACF9786BB96B7963B8633A
:10508000386A401C386200F00AFFB86ADFF80C8208
:10509000854209D3786B006880B1786BC068C468BA
:1050A000606885420DD2B8623868C06A00EB800142
:1050B00058F821000128CDD90126CBE74FF0FF3069
:1050C000F1E7201DFFF79DFAA06A18B104F118005E
:1050D000FFF797FAE06A01213A698140114339618B
:1050E00000EB800108EB8100211DFFF766FAE06A02
:1050F0003968C96A8842CDD30126CBE72DE9F0474C
:10510000654D00242746286B28B94FF4FD6266A13F
:105110006CA001F05DF901F097F8286B401E286340
:10512000286BE0BBA8685E4928310126B8B3DFF8D8
:105130006C918846D8F80010E9B1D8F80C00C46822
:1051400004F11800FFF75DFA201DFFF75AFAE06A34
:105150002A6906FA00F11143296100EB800109EB8D
:105160008100211DFFF729FAE06A2968C96A88428F
:10517000E0D3EE61DEE70CB100F091FEAC693CB12A
:10518000FFF75FFF00B1EE61641EF9D10020A86156
:10519000E86920B1434901273807086000E003E0CF
:1051A000BFF34F8FBFF36F8F01F068F83846BDE84B
:1051B000F0872DE9F041384E0F460446F568306817
:1051C000001DFFF71EFA38B9306890F82C10012046
:1051D0008840316981433161601C08D13FB1316839
:1051E000BDE8F0412E485030091DFFF7E6B93068A0
:1051F0002C44AC424460316805D2B06BBDE8F0414C
:10520000091DFFF7E6B9706B091DFFF7E2F9B06AF7
:10521000844200D2B4629AE61F48016B491C0163C4
:1052200070472DE9F0410E4605004FF0000405D10E
:1052300040F279421CA123A001F0CAF82EB940F235
:105240007A4219A11FA001F0C3F8134F386B28B19F
:1052500040F27B4214A11BA001F0BAF8FFF7DCFF7B
:10526000FA6828688119904202D9884202D804E07D
:10527000884201D8914200D9012429601CB1881AC2
:105280000021FFF796FFFFF739FF002826D10549D7
:105290004FF0805008601DE0B0000020BC250020C9
:1052A0003C28002004ED00E02E2E5C2E2E5C467281
:1052B000656552544F535C7372635C7461736B73B6
:1052C0002E6300004572726F723A25732C25640DAF
:1052D0000A000000BFF34F8FBFF36F8F37E610B5A2
:1052E000040014D0FE49096B39B140F2CF42AFF24D
:1052F0004801AFF2300001F06BF8FFF78DFF00219D
:105300002046FFF756FFFFF7F9FE002807D1F549C1
:105310004FF080500860BFF34F8FBFF36F8F10BD09
:1053200070B5050007D140F2FB42AFF28401AFF245
:105330006C0001F04DF8EA4E3068854201D1002042
:1053400070BD00F081FF6C6900F098FF706B8442C3
:1053500002D0B06B844201D1022070BDE248844289
:1053600004D1A86A0028F7D1032070BDDE481438A4
:10537000844202D00CB1012070BD042070BD10B574
:10538000044600F061FF0CB9D5480468E46A00F0F7
:1053900075FF204610BD10B5044600F094FF502064
:1053A000EFF3118180F31188BFF34F8FBFF36F8F3D
:1053B0000CB9CB480468E06A81F3118810BD2DE96F
:1053C000F04100260D460446202908D34FF4B06270
:1053D000AFF22C11AFF2141000F0FAFF1F2500F00D
:1053E00033FFBF4F04B93C68606CA8423FD03968B6
:1053F000854206D98C4207D03968C96AA94202D9C8
:1054000002E08C4200D10126E16A8846884200D140
:10541000E5626564A069002802DBC5F12000A06197
:10542000B24D08EB8800616905EB8000814215D11F
:10543000201DFFF7E6F8012120B93A6901FA08F0CA
:1054400082433A61E06A3A6981401143396100EB75
:10545000800005EB8000211DFFF7AFF83EB1A149A8
:105460004FF080500860BFF34F8FBFF36F8FBDE8E0
:10547000F04100F003BF70B5994D286B10B10120C9
:10548000E86170BD0020E8612869984EB0FA80F0AC
:10549000C0F11F0000EB800456F8240038B940F634
:1054A000F622AFF2FC11AFF2E41000F091FF06EB30
:1054B000840000F10802416849684160914201D1CD
:1054C00049684160C868286070BD70B5044600F046
:1054D000BBFE834D04B92C68201DFFF792F858B924
:1054E000E06A824A00EB800152F8211021B90121C3
:1054F0008140286988432861A06A18B104F1180026
:10550000FFF77FF8211D7848FFF757F800F0B6FE47
:10551000686928B100F098FE00F0C1FC00F0AEFE12
:105520002868844213D1686990B1286B38B140F281
:105530005762AFF28C21AFF2742000F049FF694945
:105540004FF080500860BFF34F8FBFF36F8F70BD77
:105550006548A9680068884202D10020286070BDB3
:10556000BDE8704087E770B50025040007D140F220
:105570008162AFF2CC21AFF2B42000F029FF5A498A
:105580006069884205D1A06A2839884201D000B9F3
:105590000125284670BD70B504002BD0504D2868F9
:1055A000844231D000F050FE2046FFF7DCFFE8B126
:1055B000201DFFF726F8E06A01212A698140114386
:1055C00029614A4900EB800001EB8000211DFEF7B4
:1055D000F4FFE06A2968C96A884207D341494FF05D
:1055E00080500860BFF34F8FBFF36F8FBDE87040EE
:1055F00000F044BE40F2AB62AFF25431AFF23C3047
:10560000BDE8704000F0E4BE70BD2DE9F041002619
:10561000040007D140F2E262AFF27431AFF25C30C5
:1056200000F0D6FE00F04FFE5020EFF3118580F31E
:105630001188BFF34F8FBFF36F8F2046FFF793FFA3
:10564000F0B1274F386B20B1274804F118012838F2
:1056500014E0E06A3968C96A884200D30126201D37
:10566000FEF7CFFFE06A01213A69814011433961B9
:105670001E4900EB800001EB8000211DFEF79DFF1D
:1056800085F31188304662E4184E4FF08054154D72
:1056900000F01CFC30680128FAD92C60BFF34F8F52
:1056A000BFF36F8FF4E71CB50D4800242C30CDE913
:1056B0000040234680220EA10F48FFF74AFC012834
:1056C0000CD0401C2BD140F28472AFF22441AFF2D7
:1056D0000C4002B0BDE8104000F07ABE50200DE052
:1056E000B000002004ED00E08C280020BC25002044
:1056F00049444C45000000008956000880F3118899
:10570000BFF34F8FBFF36F8FFB484FF0FF318162C4
:1057100001214161C460BDE81C4000F053BD1CBDC7
:10572000502080F31188BFF34F8FBFF36F8FF24982
:105730000020486100F07CBDEF48C068704710B59C
:1057400000F0C1FDEC48C06810BDEB4880687047B0
:1057500010B510B104461CB10AE0E7480468FAE746
:1057600040F68C02AFF2C041AFF2A84000F030FE2C
:1057700004F1340010BD70B50D46040007D140F6A9
:105780000632AFF2DC41AFF2C44000F021FEDA484D
:10579000016820461831FEF71CFF2846BDE870401E
:1057A000012106E52DE9F04117460E46050007D117
:1057B00040F61732AFF21051AFF2F84000F008FE99
:1057C000CD4C206B38B940F61B32AFF22451AFF20A
:1057D0000C5000F0FDFD216846F000408861216812
:1057E00028461831FEF7E9FE3846BDE8F0410121B0
:1057F000DFE42DE9F041C068C4683CB940F661328D
:10580000AFF25C51AFF2445000F0E2FD04F1180039
:105810000746FEF7F6FEB84D286B012658B139460B
:10582000B648FEF7CAFEE06A2968C96A884212D9FA
:105830000120EE6112E4201DFEF7E3FEE06A2A6912
:1058400006FA00F111432961AD4900EB800001EB3C
:105850008000211DE5E70020DDE470B5A64D064679
:105860000C46286B38B940F69932AFF2C451AFF20A
:10587000AC5000F0ADFD44F000403060F4683CB93D
:1058800040F6A132AFF2E051AFF2C85000F0A0FDF7
:105890003046FEF7B6FE201DFEF7B3FEE06A012695
:1058A0002A6906FA00F111432961954900EB80004D
:1058B00001EB8000211DFEF780FEE06A2968C96ABD
:1058C000884202D90120EE6170BD002070BD10B584
:1058D000040007D140F6C132AFF23461AFF21C6070
:1058E00000F076FD8448016A2160C068606010BDE8
:1058F00070B50D46040007D140F6CB32AFF25861C7
:10590000AFF2406000F064FD3DB940F6CC32AFF23A
:105910006861AFF2506000F05BFD00F095FC764AE4
:10592000D06829684B1C0FD02368126A934202D0BA
:10593000626882420AD96268801A884206D2081ACE
:1059400028602046FFF7C3FF002400E0012400F098
:1059500095FC204670BD68490120C86170476648C3
:10596000006870476448416919B1006B18B10020A4
:105970007047012070470220704770B5040039D08D
:105980005D4DE06A2968C96A884233D2A06900285F
:1059900004DB2868C06AC0F12000A061E06A584EAC
:1059A00000EB8000616906EB800081421FD1201D61
:1059B000FEF727FE012150B9E06A00EB800256F89D
:1059C000222022B92A6901FA00F082432A6128685C
:1059D000C06AE0622A6981401143296100EB8000BE
:1059E00006EB8000211DBDE87040FEF7E6BD28688B
:1059F000C06AE06270BD70B504004FF0000640D090
:105A00003D4D2868844207D040F6C762AFF2687106
:105A1000AFF2507000F0DCFCA06C38B940F6C962FF
:105A2000AFF27C71AFF2647000F0D2FCA06C401E4B
:105A3000A064626CE16A914223D010BB201DFEF786
:105A4000E0FD2F49012250B9E06A00EB800351F8D4
:105A5000233023B92B6902FA00F083432B61606C79
:105A6000E062C0F12000A061E06A2B6982401A4325
:105A70002A6100EB800001EB8000211DFEF79DFDF7
:105A80000126304670BD1C4908680A688069D26AE0
:105A90000968C2F120028A6170471749086818B185
:105AA0000868826C521C82640868704770B50C46A6
:105AB000064600F0C9FB104D2868C06C80B9296803
:105AC000012081F850005CB101212046FFF771FBF5
:105AD0000C494FF080500860BFF34F8FBFF36F8FBA
