:020000040800F2
:1000000058BD0020DD01000821130008231300085B
:10001000251300082713000829130008000000001A
:100020000000000000000000000000004501000882
:100030002B13000800000000890100082D130008A0
:10004000F7010008F7010008F7010008F7010008B0
:10005000F7010008F7010008F7010008F7010008A0
:10006000F7010008F7010008F7010008F701000890
:10007000F7010008F7010008F7010008F701000880
:10008000F7010008F7010008F7010008F701000870
:10009000F7010008F7010008F7010008F701000860
:1000A000F7010008F7010008F7010008F701000850
:1000B000F7010008F7010008F7010008F701000840
:1000C000F7010008F7010008F7010008F701000830
:1000D000F7010008F7010008F7010008F701000820
:1000E000F7010008F7010008F7010008F701000810
:1000F000F7010008F7010008F7010008F701000800
:10010000F701000841130008F7010008F701000893
:10011000F7010008F7010008F7010008F7010008DF
:10012000F7010008F7010008F7010008F7010008CF
:10013000DFF80CD007F0A6FC00480047CD110008FE
:1001400058BD0020224B19680868B0E8F00F80F312
:100150000988BFF36F8F4FF0000080F311884EF0D5
:100160000D0E70470000000006480068006880F32C
:10017000088862B661B6BFF34F8FBFF36F8F00DFA1
:1001800000BF00BF08ED00E0EFF30980BFF36F8F01
:100190000F4B1A6820E9F00F106008B54FF05000BF
:1001A00080F31188BFF34F8FBFF36F8F03F0D8FD3B
:1001B0004FF0000080F31188BDE808401968086816
:1001C000B0E8F00F80F30988BFF36F8F704700BF6E
:1001D00090000020EFF3058070470000064880473C
:1001E00006480047FEE7FEE7FEE7FEE7FEE7FEE71C
:1001F000FEE7FEE7FEE7FEE7A9020008310100087E
:100200000CB50022019200925248016841F48031FD
:1002100001604FF4A063016801F40031009101997D
:10022000491C0191009911B901999942F3D10168D2
:10023000890302D50121009100E000920099012973
:1002400030D145490A6842F010020A600A6822F07B
:1002500003020A600A6842F002020A6041684160D3
:1002600041684160416841F480614160416821F426
:100270007C114160416841F4E8114160016841F03E
:100280008071016001688901FCD5416821F003019A
:100290004160416841F0020141604168C1F3810160
:1002A0000229FAD10CBDABE710B52A48016841F02C
:1002B000010101604168294A114041600168284AF2
:1002C00011400160016821F480210160416821F43E
:1002D000FE0141604FF41F018160FFF7E4FF2149F7
:1002E0004FF00060086010BD10B51A4A506800F069
:1002F0000C011D4B1D4800290ED004290ED00829E1
:100300000ED003605168194AC1F30311121D515CEC
:100310000268CA40026010BD0360F3E70360F1E7C2
:10032000516801F47011536803F48033022404EB24
:10033000914133B153689B0307D50D4B594301607D
:10034000E0E70B4B59430160DCE7074B5943016081
:10035000D8E7000000100240002002400000FFF833
:10036000FFFFF6FE08ED00E000127A00000000201A
:1003700000093D002A4908432A490860704770B5C2
:100380000F23C27801260178002A1ED0254A126860
:1003900002F4E062C2F5E062120AC2F10404D34042
:1003A0004578A54082781A402A43120101F1E021E4
:1003B00081F80024007800F01F018E404009800081
:1003C00000F1E020C0F8006170BD01F01F00864020
:1003D0004809800000F1E020C0F8806170BD124A39
:1003E000114001430F48001F016070470D4A121D64
:1003F000002903D0116801431160704711688143DF
:10040000116070474FF0E021042804D0086920F003
:10041000040008617047086940F0040008617047F3
:100420000000FA050CED00E080FFFF1F01684FF6A9
:10043000FE72114001600021016041608160C16075
:100440007249724A0839904204D1486840F00F005E
:10045000486070476D4A1432904204D1486840F0B9
:10046000F00048607047694A2832904204D14868D9
:1004700040F4706048607047644A3C32904204D156
:10048000486840F4704048607047604A503290427B
:1004900004D1486840F47020486070475B4A643279
:1004A000904204D1486840F4700048607047574A51
:1004B0007832904204D1486840F0706048607047DC
:1004C000534A111F904204D1086840F00F000860A1
:1004D00070474F4A1432904204D1086840F0F0004F
:1004E000086070474A4A2832904204D1086840F4B4
:1004F000706008607047464A3C32904204D10868F8
:1005000040F4704008607047414A50329042FAD13E
:10051000086840F470200860704730B5026847F6FC
:10052000F0739A430C6A8B682343D1E904452C434A
:1005300023438C692343CC6923434C6A23438C6A4D
:10054000234313430360CA6842600A6882604968B3
:10055000C16030BD0021016041608160C160016106
:1005600041618161C161016241628162704700291C
:1005700004D0016841F001010160704701684FF645
:10058000FE72114001607047002A03D002680A43DE
:100590000260704702688A4302607047416070479A
:1005A000406880B2704702460020D10003D5184948
:1005B0000839096802E0154908390968114200D074
:1005C00001207047C10003D51149091F0860704719
:1005D0000E4908394860704702460020D10003D513
:1005E0000B490839096802E00849083909681142CD
:1005F00000D001207047C10003D50549091F0860DC
:1006000070470249083948607047000008000240FE
:100610000804024010B59C49884209D101210420F8
:1006200000F07DFA0021BDE81040042000F077BA08
:100630009649884209D10121082000F070FA002172
:10064000BDE81040082000F06ABA9149884209D1FB
:100650000121102000F063FA0021BDE810401020B5
:1006600000F05DBA8B49884209D10121202000F0B9
:1006700056FA0021BDE81040202000F050BA86490B
:10068000884209D10121402000F049FA0021BDE84B
:100690001040402000F043BA8049884209D101212E
:1006A000802000F03CFA0021BDE81040802000F0DE
:1006B00036BA7B4988420AD184150121204600F0D0
:1006C0002EFA2046BDE81040002100F028BA10BDE7
:1006D00010B50121084600F022FA0021BDE81040C3
:1006E000012000F01CBA2DE9F0410022CC7804F082
:1006F0000F03E40601D58C7823430C784FF00F07E5
:1007000014F0FF0F4FF0010C1CD005680CFA02F436
:100710000E882640A64211D1960007FA06F825EA6F
:10072000080503FA06F848EA0505CE78282E02D017
:10073000482E02D002E0446100E00461521C082A05
:10074000E4D305600A88FF2A1ED94568002202F119
:1007500008060CFA06F40E882640A64210D1960030
:1007600007FA06F825EA080503FA06F848EA050537
:10077000CE78282E00D14461CE78482E00D1046175
:10078000521C082AE3D34560BDE8F0814FF6FF71A3
:100790000180022181700421C1707047024600204F
:1007A00092680A4200D001207047806880B270478A
:1007B00002460020D2680A4200D001207047C0687B
:1007C00080B270470161704741617047002A01D0D3
:1007D0000161704741617047C160704741F48032E8
:1007E00082618161826181698069704710B52D4B9A
:1007F0001A684FF68074224042EA001008431860DD
:1008000010BD2949C8617047F0B5264C002801DAAF
:10081000E36900E06368C0F30346420D120185B24C
:10082000C0F301579540032F07D0C2020CD5032215
:10083000B240934343F0706209E023F07062636852
:1008400023F07063636002E0AB4343F0706201B178
:100850002A43002801DAE261F0BD6260F0BD10B504
:100860008A07120F0F23934021F003040D492144FE
:100870008C689C438C608B68904003438B6010BDF8
:100880000949DC310860704700080140000C014054
:10089000001001400014014000180140001C0140FC
:1008A000002001400000014000002042B4480168DF
:1008B00041F0010101604168B24A114041600168A4
:1008C000B14A11400160016821F480210160416852
:1008D00021F4FE0141604FF41F0181607047A84977
:1008E0000A6822F480320A600A6822F480220A60D0
:1008F000B0F5803F07D0B0F5802F03D1086840F4F1
:10090000A02008607047086840F480300860704795
:100910000346002059099A4A01290AD002290AD01F
:10092000516A03F01F02012393400B4200D00120C3
:1009300070471168F5E7116AF3E718B500200090D9
:100940004FF4A0643120FFF7E3FF0099491C0091A8
:100950000099A14201D00028F4D03120FFF7D8FF40
:1009600008B1012018BD002018BD854A116821F08A
:10097000F80141EAC0001060704784490860704780
:100980007F4B5A6822F47C1208431043586070472A
:100990007E49086670477A4A516821F00301014395
:1009A000516070477648406800F00C007047744A08
:1009B000516821F0F001014351607047704A51685D
:1009C00021F4E0610143516070476D4A516821F4A0
:1009D000605141EAC00050607047694A002903D065
:1009E000517A014351727047517A81435172704775
:1009F0006649D83108607047614A516821F4404126
:100A00000143516070475E49002220310A7001F8AD
:100A10002029012805D0042802D1052081F82000D2
:100A20007047012081F820007047594908607047DD
:100A300053490A6A02430A627047554944390860BB
:100A4000704710B54E4A516801F00C01514B002916
:100A500027D0042927D0082927D00360516801F046
:100A6000F00109094C4B5C5C0168E140416054684D
:100A700004F4E064240A1C5D21FA04F484605468E0
:100A800004F46054E40A1B5DD940C160526802F46A
:100A90004042920B404B1B1F9A5CB1FBF2F101618B
:100AA00010BD0360DAE70360D8E7516801F4701104
:100AB000536803F48033022404EB914133B153684B
:100AC0009B0307D5354B59430160C7E7334B594367
:100AD0000160C3E72F4B59430160BFE7284A002953
:100AE00003D051690143516170475169814351619C
:100AF0007047234A002903D09169014391617047EF
:100B000091698143916170471D4A002903D0D169E1
:100B10000143D1617047D1698143D1617047184A5F
:100B2000002903D0D1680143D1607047D168814367
:100B3000D1607047124A002903D011690143116145
:100B4000704711698143116170471149403908604C
:100B500070470E49C86470470949C8717047084812
:100B6000416A41F080714162704701460020044AA9
:100B700092680A4200D0012070470149887270478C
:100B8000001002400000FFF8FFFFF6FE00004242A6
:100B90008004424200127A001800002000093D0043
:100BA00066480021016041608160C16041628162EC
:100BB000C162634A8263C163704730B55F4B596855
:100BC00047F6FF629143027D8468C568224344680A
:100BD0002C43224304680069224302430A435A60BB
:100BE00030BD00210175016041608160C16001611B
:100BF000704754490860704750490A6822F0030260
:100C00000A600A6802430A6070474C48006800F0B6
:100C100003007047494A002903D0D16B0143D163D7
:100C20007047D16B8143D163704747490860704773
:100C300010B5424902688A60CA686FF30A02D0E9B7
:100C400001342343D0E90340044323431343CB60DF
:100C500010BD0021016041608160C1600161704789
:100C600036480069C0B2704708B5344914310844A9
:100C700000900098006808BD10B5304902684A62CB
:100C800042688A62CA6A22F0F702D0E9023423433A
:100C9000D0E90440044323431343CB6210BD4FF01B
:100CA000FF310160002141608160C16001614161EB
:100CB00070472248006B70472048803000687047BA
:100CC0001E498031086070471C48806C70471E497F
:100CD0001431086070471C491831086070471A4980
:100CE0001C31086070471849203108607047174967
:100CF000086070471549091D08607047012181434C
:100D0000124808300160704710490C310860704784
:100D100001460020094A526B0A4200D00120704768
:100D200006498863704701460020044A526B0A4214
:100D300000D001207047014988637047008001405E
:100D4000FF07C000A00030428C053042AC013042A9
:100D500010B5E14988420AD101218C032046FFF7F2
:100D6000DEFE2046BDE810400021FFF7D8BEDB497B
:100D700088420AD101214C042046FFF7DBFE2046C1
:100D8000BDE810400021FFF7D5BED54988420AD101
:100D900001218C042046FFF7CDFE2046BDE810401F
:100DA0000021FFF7C7BECF4988420AD10121CC04F8
:100DB0002046FFF7BFFE2046BDE810400021FFF7A8
:100DC000B9BEC94988420AD101210C052046FFF766
:100DD000B1FE2046BDE810400021FFF7ABBE10BDBC
:100DE00030B585B004460D46208A4CF6FF710840A8
:100DF000E98801432182A0894EF6F3110840A988B1
:100E00002A8911436A8902431143A181A08A4FF6BE
:100E1000FF410840A9890143A1826846FFF711FEFE
:100E2000AD48844201D1039800E00298A1890904E9
:100E300008D500EBC00101EB001029684900B0FBA8
:100E4000F1F007E000EBC00101EB00102968890018
:100E5000B0FBF1F06422B0FBF2F109010B096FF075
:100E600018056B4300EB8300A3891D044FF0320388
:100E700007D503EBC000B0FBF2F000F00700084319
:100E800006E003EB0010B0FBF2F000F00F000843A7
:100E9000208105B030BD4FF41651016000218180E2
:100EA000C18001810C2242818181704710B5038A83
:100EB0004FF2FF0213400A884C8822438C88C9886D
:100EC0000C4322431A43028210BD0021018041805D
:100ED0008180C1807047002904D0818941F400518C
:100EE00081817047818921F400518181704710B55B
:100EF00040F66A13C1F3421301F01F040121A1401F
:100F0000012B07D0022B07D014303AB102680A43F4
:100F1000026010BD0C30F8E71030F6E702688A4333
:100F2000026010BD002A03D0828A0A438282704781
:100F3000828A8A4382827047028A22F00F020282EA
:100F4000028A0A4302827047828922F40062828107
:100F500082890A4382817047002904D0818941F047
:100F6000020181817047818921F0020181817047EE
:100F7000028A22F020020282028A0A430282704719
:100F8000002904D0018A41F4804101827047018A1E
:100F900021F4804101827047C1F3080181807047CC
:100FA0008088C0F308007047818941F00101818188
:100FB0007047028BD2B20283028B42EA0121018385
:100FC0007047028B02F47F420283028B0A43028342
:100FD0007047002904D0818A41F020018182704746
:100FE000818A21F0200181827047002904D0818A02
:100FF00041F0100181827047818A21F010018182C5
:101000007047002904D0818A41F00801818270472D
:10101000818A21F0080181827047002904D08189EA
:1010200041F40041818170478189C1F30E018181C2
:101030007047002904D0818A41F4006181827047A1
:10104000818A21F4006181827047828A22F0040241
:101050008282828A0A4382827047002904D0818A70
:1010600041F0020181827047818A21F00201818270
:1010700070470246002012880A4200D001207047C3
:101080008A05C9430180704770B5002440F66A1292
:10109000C1F3421301F01F05012606FA05F2012BE8
:1010A0000CD0022B0DD0838A1340090A8E40008891
:1010B00030400BB100B10124204670BD838913403C
:1010C000F3E7038A1340F0E740F66A120A0A0121A7
:1010D0009140C943018070470038014000440040FE
:1010E00000480040004C004000500040454C4FF488
:1010F0000055454E454F1AE045A006F0D5FC606806
:1011000002F05AFE46A006F0CFFC2946304600F019
:1011100040F9012808D147A006F0C6FC606802F03B
:10112000B2FE48A006F0C0FC142002F045FD0121EB
:10113000384600F02EF90128E7D1DDE700F01CFA6F
:1011400000F05AFA444C4FF47A75216881F020017E
:101150002160284602F030FDF7E71CB503F0A0FC43
:1011600028480221001DCDE900100C020023224670
:101170003AA13D4802F02EFB012802D13BA006F027
:1011800093FC204803210830CDE9001000232246BB
:101190003DA1404802F01EFB012802D13EA006F00E
:1011A00083FC1848006802F05EFBBDE81C4003F0B9
:1011B00091BC10B54FF44070FFF7DCF800F000F977
:1011C00000F02EF9BDE8104000F0CAB81CB5FFF7DA
:1011D000F0FF37A006F068FC43A006F065FC094864
:1011E0000121CDE900104A02002348A14B4802F03A
:1011F000F1FA012802D04FF0FF301CBD02F0FEFED4
:10120000FEE7000028000020001001400008014017
:10121000B9D2C6F04C4544C8CECEF1A3A10A000015
:10122000B9D2C6F04C4544C8CECEF1B3C9B9A6A3D5
:10123000A10A0000BBD6B8B44C4544C8CECEF1A339
:10124000A10A0000BBD6B8B44C4544C8CECEF1B319
:10125000C9B9A6A3A10A00000C0C0140546573741F
:101260005F5461736B0000003D110008B4B4BDA869
:10127000546573745F5461736BC8CECEF1B3C9B952
:10128000A6210D0A000000004B45595F5461736BA5
:1012900000000000ED100008B4B4BDA84B45595F34
:1012A0005461736BC8CECEF1B3C9B9A6210D0A0043
:1012B000D5E2CAC7D2BBB8F65BD2B0BBF05D2D5346
:1012C000544D3332C8ABCFB5C1D0BFAAB7A2B0E539
:1012D0002D4672656552544F532DB9CCBCFEBFE20A
:1012E000CAB5D1E90A0A0000B0B4CFC24B455931A2
:1012F000B9D2C6F0C8CECEF1A3ACB0B4CFC24B4584
:101300005932BBD6B8B4C8CECEF10A004170705481
:1013100061736B4372656174650000005B110008C6
:101320007047FEE7FEE7FEE7FEE7704710B502F004
:10133000C2FF012803D0BDE8104003F0DEBB10BDA2
:1013400010B55020EFF3118480F31188BFF34F8F55
:10135000BFF36F8F01F0ADFC84F3118810BD000066
:1013600038B501211420FFF7C4FB0120ADF80000BF
:1013700004248DF8034069460F48FFF7B4F9E002F2
:10138000ADF800008DF8034069460C48FFF7ABF953
:1013900038BD70B504460D4629462046FFF7FEF9D4
:1013A000012801D0002070BD29462046FFF7F6F93C
:1013B0000128F9D0012070BD000801400010014053
:1013C00038B501210820FFF794FB2020ADF800007C
:1013D00010208DF8030003208DF802000F4C6946A1
:1013E0002046FFF780F90121ADF80010694620463C
:1013F000FFF779F90221ADF8001069462046FFF7A2
:1014000072F920212046FFF7DDF901212046FFF780
:10141000D9F902212046FFF7D5F938BD000C01406B
:1014200010B586B001210420FFF763FB012188037A
:10143000FFF75FFB4FF40070ADF8140018208DF833
:10144000170003208DF81600494C05A92046FFF728
:101450004AF92115ADF8141004218DF8171005A9CB
:101460002046FFF740F94FF4E13001900020ADF83D
:101470000800ADF80A00ADF80C00ADF810000C2023
:10148000ADF80E003B4C01A92046FFF7A9FC012155
:101490002046FFF720FD06B010BD10B504462046DB
:1014A000FFF77AFD80212046FFF7E3FD0028F9D001
:1014B00010BD2DE9F04107460D461646002405E013
:1014C000295D3846FFF7E9FF641CE4B2B442F7D364
:1014D00040213846FFF7CDFD0028F9D0BDE8F08166
:1014E00070B506460D4600243046295DFFF7D5FF4E
:1014F000641C285D0028F7D140213046FFF7B9FD74
:101500000028F9D070BD70B50546080ACCB2014676
:101510002846FFF741FD80212846FFF7AAFD002855
:10152000F9D021462846FFF737FD80212846FFF7EE
:10153000A0FD0028F9D070BD70B504460D4DE1B294
:101540002846FFF729FD80212846FFF792FD002855
:10155000F9D0204670BD10B5064C20212046FFF77B
:1015600088FD0028F9D02046BDE81040FFF718BDDF
:10157000000801400038014010B501225AA15B4823
:1015800004F0ADFD5A4C20700D2809D000282ED053
:10159000014658A006F088FA5FA006F085FAFEE73B
:1015A00066A006F081FA002211464FA005F039FD31
:1015B000207060B16C49202008606B480121001F39
:1015C00001600221016069A006F06EFAFEE76DA0DD
:1015D00006F06AFA012244A1002004F080FD207088
:1015E000012241A1414804F07AFD207010BDBDE800
:1015F00010406CA006F058BA2DE9F04773A006F031
:1016000053FA0A227CA1824804F0A6FD384C2070CF
:10161000554F20263D1F4FF001084FF002090028CA
:1016200024D03E60C5F80080C5F8009079A006F08F
:101630003BFA7FA006F038FA01226FA1744804F04B
:101640008BFD207000282FD03E60C5F80080C5F8C3
:10165000009081A006F028FA6D4805F084F8BDE8F6
:10166000F047012220A1002004F039BD80A006F03F
:101670001BFA1F4B40221B1D191D654804F012FF69
:10168000207038B101468AA006F00EFA604805F0D5
:101690006AF8CEE78CA0616806F006FA144993A0B8
:1016A000083106F001FAF1E72E60C7F80080C5F8AE
:1016B000009096A006F0F8F90D4B4FF480621B1DC8
:1016C0009749534804F0FCFD207020B1014695A0D5
:1016D00006F0EAF9C0E799A0616806F0E5F99049DB
:1016E0009FA006F0E1F9B7E7303A000000050020BE
:1016F00034000020A3A1A3A15344BFA8B9D2D4D8D9
:10170000CEC4BCFECFB5CDB3CAA7B0DCA1A32825FB
:1017100064290D0A00000000A3A1A3A1BFC9C4DC75
:10172000D4ADD2F2A3BA5344BFA8B3F5CABCBBAF81
:10173000B2BBB3C9B9A6A1A30D0A0000A1B7534417
:10174000BFA8BBB9C3BBD3D0CEC4BCFECFB5CDB34D
:10175000A3ACBCB4BDABBDF8D0D0B8F1CABDBBAF73
:101760002E2E2E0D0A000000140C0140A1B6A1B6C9
:10177000B8F1CABDBBAFCAA7B0DCA1A3A1B7A1B7DE
:101780000D0A0000A1B75344BFA8D2D1B3C9B9A66E
:10179000B8F1CABDBBAFCEC4BCFECFB5CDB3A1A31B
:1017A0000D0A0000A1B7CEC4BCFECFB5CDB3B9D2EF
:1017B000D4D8B3C9B9A6A3ACBFC9D2D4BDF8D0D0D0
:1017C000B6C1D0B4B2E2CAD40D0A00000D0A2A2A6A
:1017D0002A2A2A2A20BCB4BDABBDF8D0D0CEC4BCC6
:1017E000FED0B4C8EBB2E2CAD42E2E2E202A2A2A6A
:1017F0002A2A2A0D0A000000303A4661744673B660
:10180000C1D0B4B2E2CAD4CEC4BCFE2E7478740087
:1018100034150020A3A1A3A1B4F2BFAA2FB4B4BD74
:10182000A8CEC4BCFECAA7B0DCA1A30D0A0000006C
:101830002A2A2A2A2A2A20BCB4BDABBDF8D0D0CE91
:10184000C4BCFEB6C1C8A1B2E2CAD42E2E2E202A34
:101850002A2A2A2A2A0D0A00A3A1A3A1B4F2BFAA08
:10186000CEC4BCFECAA7B0DCA1A30D0A00000000D4
:10187000A1B7B4F2BFAA2FB4B4BDA8466174467331
:10188000B6C1D0B4B2E2CAD4CEC4BCFE2E74787451
:10189000CEC4BCFEB3C9B9A6A3ACCFF2CEC4BCFEC5
:1018A000D0B4C8EBCAFDBEDDA1A30D0A0000000044
:1018B000A3A1A3A1CEC4BCFED0B4C8EBCAA7B0DC20
:1018C000A3BA282564290A00A1B7CEC4BCFED0B4AF
:1018D000C8EBB3C9B9A6A3ACD0B4C8EBD7D6BDDAB0
:1018E000CAFDBEDDA3BA25640A000000A1B7CFF28D
:1018F000CEC4BCFED0B4C8EBB5C4CAFDBEDDCEAA12
:10190000A3BA0D0A25730D0A00000000A1B7B4F2B6
:10191000BFAACEC4BCFEB3C9B9A6A1A30D0A0000DC
:1019200000010020A3A1A3A1CEC4BCFEB6C1C8A1E2
:10193000CAA7B0DCA3BA282564290A00A1B7CEC47F
:10194000BCFEB6C1C8A1B3C9B9A62CB6C1B5BDD736
:10195000D6BDDACAFDBEDDA3BA25640D0A000000BB
:10196000A1B7B6C1C8A1B5C3B5C4CEC4BCFECAFD3B
:10197000BEDDCEAAA3BA0D0A2573200D0A00000011
:1019800038B50020FFF735F90020FFF735F9FFF7EC
:1019900007F900214FF48060FFF7A0F84FF4F850EA
:1019A000ADF8000004248DF803406946FB48FEF7BB
:1019B0009AFEADF800406946F948FEF794FE38BD3E
:1019C00008B54FF44070FEF7D5FC31208DF80000CB
:1019D00006208DF8010000208DF8020001208DF80E
:1019E00003006846FEF7CBFC08BDEE48FEF7DBBD02
:1019F00070B58CB005460C46EB48FEF7E3FDEB4EA8
:101A000000213046FEF7B3FDE94801900295002021
:101A10000390A10804910590802106918900079107
:101A200089000891099089000A910B9001A930461C
:101A3000FEF773FD01213046FEF799FD0CB070BD35
:101A400070B58CB004460D46D748FEF7BBFDD74EA7
:101A500000213046FEF78BFDD548019002941020FE
:101A60000390A80804900020059080210691890029
:101A7000079189000891099089000A910B9001A9AA
:101A80003046FEF74AFD01213046FEF770FDD5E7EE
:101A900008B501213020FFF72CF84FF4F850ADF8CD
:101AA000000003208DF8020018208DF8030069461D
:101AB000BA48FEF718FE0420ADF800006946B848A1
:101AC000FEF711FE01218802FFF708F8012102202C
:101AD000FFF704F808BDB6488038416B11F0450F98
:101AE000FBD040F2FF518163406900F0080070476D
:101AF0002DE9FC470E460024002700970197AD4DC5
:101B00004FF0080AC5F800A0102068604FF04008A8
:101B1000C5F80880EF604FF48069C5F8109028463A
:101B2000FFF786F81020FFF7D6FF002832D1A24831
:101B300000890004286037206860C5F80880EF60DD
:101B4000C5F810902846FFF773F83720FFF7C3FF5A
:101B500000281FD1411E05F114000160C0F804A047
:101B6000302181600221C160076101214161FFF7DD
:101B700083F82F6033206860C5F80880EF60C5F8EF
:101B800010902846FFF754F83320FFF7A4FF0546CE
:101B9000280001D0BDE8FC87DFF814824FF4001A5A
:101BA0006F46A8F1800840F22A690AE05046FFF724
:101BB000AFF830B1FFF780F847F82400641C012C1F
:101BC00004D8D8F8340010EA090FEFD00820FFF746
:101BD0009FF820B10820FFF7A3F80420DAE70220DD
:101BE000FFF796F820B10220FFF79AF80220D1E71C
:101BF0002020FFF78DF820B12020FFF791F8062074
:101C0000C8E74FF400742046FFF782F820B1204661
:101C1000FFF786F80720BDE740F2FF50FFF780F896
:101C200000980099000601F47F4140EA01200099E4
:101C300001F47F0140EA1120009940EA11607060D0
:101C400001980199000601F47F4140EA01200199C1
:101C500001F47F0140EA1120019940EA11603060EF
:101C6000284697E72DE9FC47064600240094019496
:101C70000020FEF7F9FF800101D50E208AE74E4DC6
:101C80006946288980B2FFF733FF002882D13720C8
:101C9000484F4FF0060A4FF040094FF48068012E7C
:101CA00022D00199C90345D5298909043960786092
:101CB000C7F80890FC60C7F810803846FEF7B8FFF8
:101CC0003720FFF708FF0028D8D13C60C7F804A0F0
:101CD000C7F80890FC60C7F810803846FEF7A8FFE8
:101CE0000620FFF7F8FE55E70199490320D5298919
:101CF000090439607860C7F80890FC60C7F8108064
:101D00002C48FEF795FF3720FFF7E5FE0028B5D1F8
:101D100002203860C7F804A0C7F80890FC60C7F834
:101D200010802448FEF784FF0620FFF7D4FE31E739
:101D300025202FE725202DE72DE9F041014600243D
:101D40001D484068032805D038B1012805D0022875
:101D500003D043E02720BDE8F081B1F5805F0FD0CC
:101D6000144D4FF400670026183D4FF00108B942AA
:101D700024D10120FFF776FF0446200002D02DE099
:101D80002720E8E785F814802E606E60AE60EF6073
:101D90002E6108481838FEF710FF1FE000100140C0
:101DA000001401400020001000F000104404024024
:101DB00080800140F82500207C0000200020FFF7F3
:101DC00051FF0446200009D185F814802E606E6012
:101DD000AE60EE602E61FE48FEF7EFFE2046BAE7E9
:101DE00010B5FB4918310860072048604020886022
:101DF0000020C8604FF4806008610846FEF718FFB5
:101E0000BDE81040072066E62DE9F043F1494F6830
:101E100080F856700989A0F85410DFF8B4C3ACF10B
:101E2000880CDCF800100A0E93090370C2F38303D8
:101E3000437002F0030282700A0CC2700A0A027137
:101E40004171DCF80420110E0901C180C2F3074181
:101E5000C38843EA1113C38001F00F010172C2F37A
:101E60000721CB094372C1F380138372C1F340137E
:101E7000C372C1F300130373002343736446012646
:101E8000D4F80880002F4FEA1864C8F30745C8F358
:101E9000072904D0012F02D0022F3AD04FE0890742
:101EA000090D0161D1B2026942EA81010161016952
:101EB00041EA94110161C4F3C201017504F0070104
:101EC000417569098175C5F38201C175A907490F7B
:101ED00001764946027E42EAD11202760269521C1C
:101EE000047EA41C06FA04F9A2FB094703FB097748
:101EF0004FEAE97502FB0575027A06FA02F70765F3
:101F0000A4FB072905FB079504FB0354C0E9122431
:101F100015E09106890A0161016941EA0421016124
:101F200001692943016149460269DC04521C44EA03
:101F30005234D204C0E912244FF4007202651C30FE
:101F4000C1F3801200F8032C8906490E00F8021C28
:101F500008F0FF0110F8022C42EAD11200F8022C1E
:101F600001F07F0100F8011CDCF80C20110ECC09F7
:101F70000470C1F341144470C1F382048470890772
:101F8000090FC170C2F30741C47844EA9114C470C8
:101F9000C1F340140471437101F001018171C2F376
:101FA0000721CC09C471C1F380140472C1F3401439
:101FB0004472C1F300148472C1F38104C47201F04D
:101FC00003010173D1B2490841738673804A783A9C
:101FD00011680C0E04740C0C24024482C1F3072413
:101FE000458A254345820906416151680C0E4569C1
:101FF00045EA04444461C1F30744456945EA0424C1
:102000004461C1F307244569254345610176916820
:102010000C0E44760C0C2406C461C1F30724C56978
:1020200045EA0444C461C9B2C46944EA0121C161FA
:10203000D1680A0EC4691443C461C1F3074290F821
:10204000204044EA121480F820401207120D428406
:10205000C1F30722448C14434484C9B2490880F870
:10206000241080F825601846BDE8F08310B50024E0
:10207000594A516B00E0516B11F0450FFBD04807F6
:1020800005D503240420FEF74BFE204610BDC807EB
:1020900005D001240120FEF743FE204610BD40F28A
:1020A000FF50FEF73DFE204610BD70B506460C46BB
:1020B0000025494A506B00E0506B10F0450FFBD0F3
:1020C000410705D503240420FEF72AFE204670BDF3
:1020D000C00705D001240120FEF722FE204670BD76
:1020E000FEF7BEFDB04201D0102070BD40F2FF509F
:1020F000FEF716FE0020FEF7B7FD10F4604F03D088
:10210000810405D5132070BD000C2080284670BDC9
:10211000410401D5102070BD000401D50F2070BD11
:10212000284670BD2DE9F84F002401200090FEF7ED
:102130006CFDE8B1DFF89C80254D0026D8F804003E
:1021400018354FF0C0094FF4806704282AD02E605C
:1021500002206860C5F80890EE602F612846FEF7FF
:1021600067FDFFF783FF0446200003D0BDE8F88F2A
:102170002520FBE70020FEF777FDDFF854A0AAF149
:10218000780ACAF800000420FEF76EFDCAF80400C1
:102190000820FEF769FDCAF808000C20FEF764FD70
:1021A000CAF80C00D8F8040028B1012803D006288A
:1021B00001D0022819D12E60032068604020A86059
:1021C000EE602F6102481830FEF732FD694605E0E7
:1021D000E02500207C000020008001400320FFF764
:1021E00064FF0446200000D0C0E7D8F804000428AB
:1021F00026D0BDF80000C8F80800000428600920B7
:102200006860C5F80890EE602F61F848FEF710FD91
:10221000FFF72CFF0446200000D0A7E70020FEF7C0
:1022200023FDF24DA03D28600420FEF71DFD6860EF
:102230000820FEF719FDA8600C20FEF715FDE860E8
:10224000204693E710B50024E94A516B00E0516B3A
:1022500011F0450FFBD0480705D503240420FEF7F5
:102260005FFD204610BD40F2FF50FEF759FD2046AD
:1022700010BD10B500204FF48031DD4B5A6B01E0EA
:10228000491E5A6B12F0450F01D10029F8D109B14E
:10229000510705D503240420FEF742FD204610BD5A
:1022A0005106FCD500244020FEF73AFD204610BD23
:1022B00070B500254FF4803400E0641E24B1802006
:1022C000FEF726FD0028F8D02CB140F2FF50FEF7B3
:1022D00027FD284670BD032070BD2DE9F05F4FF04B
:1022E000000B0024A2460027C048B221183801750F
:1022F0004FF00008C0F80080C0F80480C0F80880E3
:10230000C0F80C80C0F81080FEF757FC0320FEF7E1
:1023100073FC0120FEF76DFCB44EC6F80080C6F8D1
:102320000480C6F80880C6F80C804FF48069C6F8AF
:1023300010903046FEF77CFCFFF7BAFF00285CD116
:102340004FF4D5703060082070604025B560C6F845
:102350000C80C6F810903046FEF76AFCFFF789FF44
:1023600010B3C6F8008037207060B560C6F80C80E6
:10237000C6F810903046FEF75BFC3720FFF7ABFB4A
:10238000C6F80080372070604020B060C6F80C802E
:10239000C6F810909548FEF74BFC3720FFF79BFBE3
:1023A0000546280032D044E09248012141608F0761
:1023B000E6E7C6F80080372070604025B560C6F8B3
:1023C0000C80C6F810908948FEF732FC3720FFF7E2
:1023D00082FB002811D18848384330602920706082
:1023E000B560C6F80C80C6F810908048FEF720FC57
:1023F000FFF728FF0546280001D0BDE8F09F002028
:10240000FEF732FC83464FEADB7A641CBAF1000F18
:1024100003D14FF6FF708442CBD34FF6FF70844256
:1024200001D31B20E9E71BF0804F02D07148022145
:1024300041602846E1E710B5FFF7C2FAFFF728FB35
:10244000FEF7AEFBFFF749FF002822D1FFF76AFE37
:1024500000281ED16548012118380175002101604E
:1024600041608160C1600161FEF7A7FB5F48703881
:10247000FFF7CAFC30B95D487038B0F8540000046A
:10248000FFF7AEFC002804D1BDE810404FF4006017
:1024900052E410BD70B505465648554C00890004FD
:1024A000A06040F24D40E0600D20FFF714FB0028D3
:1024B00001D16169296070BD08B5002000906846AF
:1024C000FFF7E8FF08B1FF2008BD0098C0F34320E4
:1024D00008BD10B5FFF7F0FF042803D0FF2803D094
:1024E000012010BD002010BD022010BD10B5002439
:1024F0000020FEF781FB204610BD2DE9F047054680
:102500000020FEF7B1FB800102D50E20BDE8F08768
:10251000364C4026266010206060A6600027E760E9
:102520004FF48068C4F810802046FEF781FB10202D
:10253000FFF7D1FA0028E9D12E4800890004206075
:1025400037206060A660E760C4F810802046FEF780
:102550006FFB3720FFF7BFFA0028D7D1411E04F1E7
:10256000140001604660602181600221C160076142
:1025700001214161FEF780FB27600D206060A660AD
:10258000E760C4F810802046FEF752FB0D20FFF7ED
:10259000A2FA0646300000D0B8E74FF40049144FC5
:1025A00040F22A680CE04846FEF7B2FB40B1002436
:1025B000FEF782FB45F82400641C082CF8D3203574
:1025C000786B10EA080FEED00820FEF7A1FB20B1CF
:1025D0000820FEF7A5FB042098E70220FEF798FBF1
:1025E00060B10220FEF79CFB02208FE7F825002057
:1025F000008001407C000020000010802020FEF7B9
:1026000087FB20B12020FEF78BFB06207EE74FF4EE
:1026100000742046FEF77CFB20B12046FEF780FBCD
:10262000072073E74FF4001402E0FEF745FB01C5F5
:102630002046FEF76DFB0028F7D140F2FF50FEF771
:102640006FFB304662E710B50446F948FFF755FFC7
:102650000146080000D010BDF548027892092270AA
:102660000278C2F340126270827812026280C278ED
:10267000638813436380027912066260427963685B
:1026800043EA024262608279636843EA022262603E
:10269000C279636813436360027A2272427A62727B
:1026A000827A1209A272C27A1202A281027BA389E3
:1026B0001343A381427B9208A273407B00F0030086
:1026C000E073084610BD2DE9F0478046089E144689
:1026D0001D46D848002707700761C760D649CF62FA
:1026E0004068022803D10602640A44EAC554D04D6A
:1026F00080352E60102068604FF04009C5F80890C2
:10270000EF604FF4806AC5F810A02846FEF790FAF3
:102710001020FFF7E0F900281ED1411E05F114003A
:1027200001604660902181600221C1600761012142
:102730004161FEF7A1FA2C6011206860C5F808908D
:10274000EF60C5F810A02846FEF772FA1120FFF7D7
:10275000C2F904460CB12046D8E601210802FEF772
:1027600059FA0120FEF761FA31464046FFF740F979
:102770002046CBE62DE9FF5F1446DDE90E6A1D46D3
:10278000AC480027077007614FF00108C0F80C80C3
:10279000A949CF624068022803D10602640A44EACC
:1027A000C554A34D80352E60102068604FF040095D
:1027B000C5F80890EF604FF4806BC5F810B028465C
:1027C000FEF736FA1020FFF786F9002821D1411EC6
:1027D00005F1140001600AFB06FAC0F804A090217C
:1027E00081600221C1600761C0F81480FEF744FADD
:1027F0002C6012206860C5F80890EF60C5F810B032
:102800002846FEF715FA1220FFF765F9044614B1C1
:10281000204604B0F1E501210802FEF7FBF9012092
:10282000FEF703FA51460098FFF7E2F82046F0E77A
:1028300070B500257F4CFFF7D8F820B9206910B992
:1028400020780028F7D0207808B1207870BD28467D
:1028500070BD2DE9F0478046089E14461D46754818
:10286000002707700761C7607349CF62406802287C
:1028700003D10602640A44EAC5546D4D80352E60CA
:10288000102068604FF04009C5F80890EF604FF4E1
:10289000806AC5F810A02846FEF7CAF91020FFF795
:1028A0001AF9002829D12C6018206860C5F8089012
:1028B000EF60C5F810A02846FEF7BAF91820FFF718
:1028C0000AF9002819D105F11402401E1060566063
:1028D00090209060D7601761012050611046FEF78C
:1028E000CBF901210802FEF795F931464046FFF782
:1028F000A7F80120FEF799F9384607E62DE9FF5FB2
:1029000082B01446DDE910671D464FF00008CDF88F
:102910000480DFF8209189F80080C9F81080012038
:10292000C9F80C004448C0F82C80D9F804000228EB
:1029300003D10602640A44EAC5543D4D80352E6039
:10294000102068604FF0400AC5F808A0C5F80C8058
:102950004FF4806BC5F810B02846FEF769F91020D7
:10296000FFF7B9F8002852D1B9F808000004286030
:1029700037206860C5F808A0C5F80C80C5F810B00D
:102980002846FEF755F93720FFF7A5F800283ED175
:102990002F6017206860C5F808A0C5F80C80C5F83E
:1029A00010B02846FEF744F91720FFF794F80028E6
:1029B0002DD12C6019206860C5F808A0C5F80C80DE
:1029C000C5F810B02846FEF733F91920FFF783F851
:1029D00000281CD105F11402401E10607743576097
:1029E00090209060C2F80C80C2F8108001205061E5
:1029F0001046FEF741F901210802FEF70BF901200C
:102A0000FEF713F939460298FFF71AF8404606B068
:102A1000F3E470B50025074CFEF7E7FF20B9206905
:102A200010B920780028F7D0207838B1207870BD10
:102A3000782500207C0000200080014040F2FF50FB
:102A4000FEF76EF92846F2E7AD48406B10F4405FA0
:102A500001D00120704700207047A9480021816003
:102A600040F24C41C1600C20FFF735B87CB50446FC
:102A70000025002201920092A248A3490089000487
:102A800008600D20486040208860CA60000108612D
:102A90000846FEF7CDF89A49486B009001E04A6B72
:102AA0000092009A12F0450FF9D00098400705D522
:102AB00003240420FEF734F920467CBD0098C007AB
:102AC00005D001240120FEF72BF920467CBDFEF73E
:102AD000C7F8009000980D2801D010207CBD40F26E
:102AE000FF50FEF71DF90020FEF7BEF80190019897
:102AF000C0F34320207085490198084201D128463F
:102B00007CBD0198002801DA1C207CBD01984000A2
:102B100001D509207CBD0198800001D50A207CBD2B
:102B20000198C00001D50B207CBD0198000101D5A2
:102B30000C207CBD0198400101D50D207CBD019881
:102B4000C00101D50E207CBD0198000201D50F20E7
:102B50007CBD0198400201D510207CBD0198800207
:102B600001D511207CBD0198C00201D512207CBD89
:102B70000198000301D513207CBD0198400301D5C5
:102B800014207CBD0198800301D515207CBD0198DF
:102B9000C00301D516207CBD0198000401D5172083
:102BA0007CBD0198400401D518207CBD01988004AB
:102BB00001D519207CBD0198000701D51A207CBDE4
:102BC00028467CBD2DE9FC4782460D4600240026A0
:102BD000019600964C48A0384068000D800602D44B
:102BE0002520BDE8FC87464840684949C0B2801CA2
:102BF000B1FBF0F001900020FEF736F8800101D51E
:102C00000E20EEE73F484068022802D14FEA5A2AD8
:102C10006D0A3D4F4FF040084FF4806918B101280C
:102C200001D0022820D1C7F800A020207860C7F882
:102C30000880FE60C7F810903348FDF7F9FF2020A8
:102C4000FEF749FF0028CCD13D6021207860C7F80D
:102C50000880FE60C7F810902B48FDF7E9FF21209F
:102C6000FEF739FF0028BCD13E6026207860C7F807
:102C70000880FE60C7F810902348FDF7D9FF262092
:102C8000FEF729FF0028ACD100E0641C01988442C3
:102C9000FBD36846FFF7EAFE02E06846FFF7E6FE70
:102CA00000289ED19DF800100729F6D00629F4D0FF
:102CB00097E770B5134CE168002001290DD0207012
:102CC0004FF480752846FEF736F800212846FDF7B8
:102CD000A1FF012020612078A9E60949886040F21F
:102CE0004C40C8600C20FEF7F6FE2070E8E700219B
:102CF00002E04008491CC9B20128FAD108467047D1
:102D0000008001407C000020F825002008E0FFFD45
:102D1000C0D4010000F1080141604FF0FF32826031
:102D2000C1600161002101607047002101617047AD
:102D300042684A6093688B6093685960916008614B
:102D40000168491C0160704730B50C68621C02D0F4
:102D500000F1080202E0026904E01A4653681D68A7
:102D6000A542FAD953684B6099608A605160086146
:102D70000168491C016030BD0169D0E901329A60E7
:102D8000D0E901235A604A68824201D182684A60D0
:102D9000002202610868401E0860704770B5044652
:102DA0000D46002C05D140F21B12F2A1F8A004F050
:102DB0007BFE01F075FED4E90F20216802FB0011B3
:102DC00061600021A1632168A160E06B2268216C31
:102DD000401E00FB0121E1604FF0FF3084F8440009
:102DE00084F8450004F110004DB1FFF793FF04F1A2
:102DF0002400FFF78FFF01F06DFE012070BD2169F7
:102E00000029F8D001F094F90028F4D0E4494FF0FB
:102E100080500860BFF34F8FBFF36F8FEBE703461F
:102E20000098002904D00260C36301640121B5E762
:102E30000060F9E7F8B505460E461746002D05D1A6
:102E40004FF4C472CBA1D2A004F02EFE86B105FBD4
:102E500006F0483001F0F9FC04463CB104F14802A8
:102E60003B46314628460094FFF7D9FF2046F8BD7F
:102E70000020EEE72DE9F041044601F011FE94F93F
:102E8000455004F1240609E0606A48B1304601F07B
:102E90004FF908B101F008FA6D1E6DB2002DF3DC98
:102EA0004FF0FF3684F8456001F014FE01F0F8FDA4
:102EB00094F9445004F1100709E0206948B13846FC
:102EC00001F036F908B101F0EFF96D1E6DB2002D79
:102ED000F3DC84F84460BDE8F04101F0FBBD10B5BF
:102EE000044601F0DDFDA06BE16B884201D10124B5
:102EF00000E0002401F0EEFD204610BD2DE9F04178
:102F0000044617460026A56B226C002A10D0C7B1D4
:102F1000E06804F06FFDE168206C091AE160226846
:102F2000914202D26168081AE060022F16D017E0C1
:102F30002068A8B9606801F018FA064600206060B1
:102F40000EE0A06804F056FD216CA0680844A06063
:102F50006168884204D32068A06001E005B16D1E5D
:102F60006D1CA5633046BDE8F0812DE9FF4782B0B6
:102F700004468A461E460025002C05D140F2D9227F
:102F80007CA183A004F090FDBAF1000F07D1206C62
:102F900028B140F2DA2277A17DA004F085FD022E4F
:102FA00008D1E06B012805D040F2DB2271A178A0A6
:102FB00004F07AFD01F07FF938B9049828B140F2A5
:102FC000DE226CA172A004F06FFD4FF000094FF0FB
:102FD0008057DFF8CC8101F063FDA06BE16B884284
:102FE00005D3022E03D0049808B325B327E0324658
:102FF00051462046FFF782FF616A59B104F124006F
:1030000001F096F868B1C8F80070BFF34F8FBFF3B6
:103010006F8F06E028B1C8F80070BFF34F8FBFF381
:103020006F8F01F057FD012006B0BDE8F08701F079
:1030300051FD0020F8E7684601F0ECF8012501F0A9
:1030400049FD00F06CFD01F02BFD94F94400401C9B
:1030500001D184F8449094F94500401C01D184F8D2
:10306000459001F037FD04A9684601F0E5F830B15C
:103070002046FFF7FFFE00F0A3FC0020D4E7204627
:10308000FFF72DFF90B104F11000049901F010F842
:103090002046FFF7EFFE00F093FC00289BD1C8F814
:1030A0000070BFF34F8FBFF36F8F94E72046FFF799
:1030B000E1FE00F085FC8EE7002807D0002141608A
:1030C0000160C16000231A4619464EE7704710B5EB
:1030D000024600210120FFF7ADFE04462046FFF71F
:1030E000EBFF204610BD2DE9F04704468946904687
:1030F0001F46002C05D140F29F321EA124A004F0EF
:10310000D3FCB9F1000F07D1206C28B14FF46872DD
:1031100018A11FA004F0C8FC022F08D1E06B012801
:1031200005D040F2A13213A119A004F0BDFC01F0BA
:10313000F8FC5020EFF3118680F31188BFF34F8F16
:10314000BFF36F8FA06BE16B884205D3022F03D0D2
:10315000002086F3118868E794F945503A464946BD
:103160002046FFF7CBFE681C1CD06D1C84F8455030
:103170000120EEE72E2E5C2E2E5C467265655254C1
:103180004F535C7372635C71756575652E630000E7
:103190004572726F723A25732C25640D0A00000087
:1031A00004ED00E0606A0028E2D004F1240000F0A1
:1031B000BFFF0028DCD0B8F1000FD9D00120C8F83B
:1031C0000000D5E770B504460E46002C07D140F24A
:1031D0003C42AFF26001AFF2480004F065FC206CA5
:1031E00038B14FF48862AFF27401AFF25C0004F0C2
:1031F0005BFC206848B9606838B140F24542AFF2E4
:103200008C01AFF2740004F04FFC01F08AFC5020F6
:10321000EFF3118580F31188BFF34F8FBFF36F8FEA
:10322000A26BE06B904218D994F94500521CA2633E
:10323000411C04D0401C84F8450001200EE0606A67
:103240000028FAD004F1240000F072FF0028F4D026
:10325000002EF2D001203060EFE7002085F31188C6
:1032600070BD10B5044601F01BFCA06B20B100241A
:1032700001F030FC204610BD0124F9E730B40B46C4
:10328000026C002A0CD0C1681144C1604468A1429C
:1032900001D30168C160C16830BC184604F0AABB04
:1032A00030BC70472DE9FF4F83B004468A469B46E9
:1032B0000026002C07D140F2DC42AFF24811AFF2F9
:1032C000301004F0F1FBBAF1000F09D1206C38B1D5
:1032D00040F2DD42AFF26411AFF24C1004F0E4FBB7
:1032E00000F0E9FF48B9059838B14FF49C62AFF29D
:1032F0007C11AFF2641004F0D7FB4FF000094FF0DF
:103300008057DFF8788301F0CBFBA56B95B3E668B7
:1033100051462046FFF7B2FFBBF1000F13D0E66025
:10332000606A50B104F1240000F002FF28B1C8F82F
:103330000070BFF34F8FBFF36F8F01F0CBFB012005
:1033400007B0BDE8F08F6D1EA563206810B901F0CD
:103350005EF8606020690028EFD004F1100000F0F2
:10336000E7FE0028E9D0C8F80070BFF34F8FBFF325
:103370006F8FE2E7FFE7059808B126B107E001F09B
:10338000A9FB0020DCE701A800F044FF012601F0C2
:10339000A1FB00F0C4FB01F083FB94F94400401C46
:1033A00001D184F8449094F94500401C01D184F87F
:1033B000459001F08FFB05A901A800F03DFF58B131
:1033C0002046FFF757FD00F0FBFA2046FFF749FFC4
:1033D000002898D00020B3E72046FFF742FFE0B175
:1033E000206830B901F05CFB606800F07FFF01F0FD
:1033F00071FB04F12400059900F05AFE2046FFF706
:1034000039FD00F0DDFA00287FF47DAFC8F80070C8
:10341000BFF34F8FBFF36F8F75E72046FFF72AFD8D
:1034200000F0CEFA6FE72DE9F04704468946904652
:10343000002C07D14FF4B462AFF2C821AFF2B02034
:1034400004F032FBB9F1000F09D1206C38B140F221
:10345000A152AFF2E021AFF2C82004F025FB01F049
:1034600060FB5020EFF3118780F31188BFF34F8F7B
:10347000BFF36F8FA66BF6B194F9445049462046CE
:10348000FFF7FCFE761EA663681C04D06D1C84F852
:103490004450012010E020690028FAD004F1100007
:1034A00000F046FE0028F4D0B8F1000FF1D0012062
:1034B000C8F80000EDE7002087F31188B5E52DE995
:1034C000F04104460F46002C07D140F2FC52AFF207
:1034D0005C31AFF2443004F0E7FA4FB9206C38B1F8
:1034E00040F2FD52AFF27431AFF25C3004F0DCFA1E
:1034F000206C38B940F2FE52AFF28831AFF2703032
:1035000004F0D2FA01F00DFB5020EFF3118580F3A7
:103510001188BFF34F8FBFF36F8FA06B38B1E66890
:1035200039462046FFF7AAFEE660012000E00020B1
:1035300085F3118817E510B50446002C07D140F239
:103540002F62AFF2D031AFF2B83004F0ADFA01F033
:10355000A7FAA46B01F0BEFA204610BD10B50446D0
:10356000002C07D140F24162AFF2F831AFF2E03007
:1035700004F09AFA01F094FAD4E90E10441A01F01A
:10358000A9FA204610BD10B50446002C07D140F220
:103590005162AFF22041AFF2084004F085FAA06B0F
:1035A00010BD0021364A02EBC1035B68834206D19D
:1035B000002042F8310002EBC10148607047491C0D
:1035C0000A29F0D3704710B50446002C07D140F209
:1035D0005D62AFF26041AFF2484004F065FA204608
:1035E000FFF7DFFF2046BDE8104001F095B910B5A8
:1035F0000446002C07D140F29372AFF28841AFF23B
:10360000704004F051FAA06B08B1002010BD0120F9
:1036100010BD10B50446002C07D140F2BA72AFF2CB
:10362000AC41AFF2944004F03FFAA06BE16B8842EA
:1036300001D1012010BD002010BD10B50022104B9B
:1036400053F832401CB1521C0A2AF9D310BD43F87A
:10365000321003EBC201486010BD10B500240021F8
:10366000074A02EBC1035B68834202D152F8314042
:1036700002E0491C0A29F4D3204610BD04ED00E005
:103680002426002070B50024FC4D04EB840005EBDB
:103690008000FFF73FFB641C202CF6D3F848FFF7AF
:1036A00039FBF7481430FFF735FBF5482830FFF7B2
:1036B00031FBF3483C30FFF72DFBF1485030FFF76A
:1036C00029FBF048EE4941631431816370BD70B548
:1036D000044601F0E5F9EB4DA868401CA860286895
:1036E00010B1686938B10CE02C60A868012808D1D5
:1036F000FFF7C8FF05E02868E16AC06A884200D881
:103700002C60686A401C6862E06A01212A69814075
:1037100011432961D94900EB800001EB8000211D94
:10372000FFF706FB01F0D6F9686900280CD028687D
:10373000E16AC06A884207D2D3494FF080500860DE
:10374000BFF34F8FBFF36F8F70BD2DE9F0478146F8
:10375000DDE908580A9C0E469A46206B521E00EB83
:10376000820020F00707780705D040F22B32C7A16E
:10377000CDA004F099F900202218315C82F83410B1
:10378000315C11B1401C1028F6D3002684F8436048
:10379000202D00D31F25E5626564A664201DFFF778
:1037A000C4FA04F11800FFF7C0FA2461C5F1200043
:1037B000A0616462E66484F8506052464946384627
:1037C00001F015F92060B8F1000F01D0C8F80040F1
:1037D000BDE8F0872DE9FF5F8146DDE90E788A4676
:1037E00016469B46B00001F030F8054628000AD086
:1037F000542001F02AF804460CB1256304E0284661
:1038000001F08AF800E000248CB10020CDE90240EC
:10381000CDE900785B46324651464846FFF795FFB2
:103820002046FFF754FF012004B0BDE8F09F4FF0A1
:10383000FF30F9E79348416B0968002905D0416BD7
:10384000C968C9684968816270474FF0FF31816279
:10385000704710B50446206B01F05EF82046BDE8C5
:10386000104001F059B870B5044601F019F9854DC2
:1038700004B92C68201DFFF77FFA58B9E06A7F4A27
:1038800000EB800152F8211021B901218140286903
:1038900088432861A06A18B104F11800FFF76CFA98
:1038A000686A401C68622868844208D17448211DF7
:1038B0003C30FFF73DFA6868401C686007E0A86884
:1038C000401EA8602046FFF7C4FFFFF7B3FF01F0DA
:1038D00001F96869002812D0286884420FD1286B4A
:1038E00028B140F2654269A16FA004F0DDF8664995
:1038F0004FF080500860BFF34F8FBFF36F8F70BDE4
:103900002DE9F04100265F4F386B002808D0B869D8
:10391000401CB861F86900B101263046BDE8F0816D
:10392000FD686D1CFD608DB9786B006828B140F6AC
:10393000D91256A15CA004F0B7F8786BB96B796323
:10394000B863386A401C3862FFF774FFB86ADFF862
:103950002C8185420DD3786B006838B1786BC068D4
:10396000C468606885420ED2B86202E04FF0FF3052
:10397000B8623868C06A00EB800058F8200001285F
:10398000C8D90126C6E7201DFFF7F6F9A06A18B1CD
:1039900004F11800FFF7F0F9E06A01213A6981406B
:1039A0001143396100EB800008EB8000211DFFF717
:1039B000BFF9E06A3968C96A8842CCD30126CAE7F0
:1039C0002DE9F041002400272E4D286B002805D159
:1039D0004FF4FD622DA134A004F066F801F060F808
:1039E000286B401E2863286BF0BBA868E0B3DFF8A3
:1039F0009080012608F128081DE0D8F80C00C46862
:103A000004F11800FFF7B8F9201DFFF7B5F9E06AD7
:103A10002A6906FA00F111432961184900EB800078
:103A200001EB8000211DFFF783F9E06A2968C96A6C
:103A3000884200D3EE61D8F800000028DDD10CB137
:103A4000FFF7F8FEAC6944B1FFF75AFF00B1EE6131
:103A5000641E002CF8D10020A861E86920B101277C
:103A600009493807086000E003E0BFF34F8FBFF358
:103A70006F8F01F02FF8384650E7000074260020C1
:103A8000F42800209000002004ED00E02E2E5C2E93
:103A90002E5C4672656552544F535C7372635C745E
:103AA00061736B732E6300004572726F723A2573F7
:103AB0002C25640D0A0000002DE9F04104460F4654
:103AC000FE4EF5683068001DFFF756F938B93068CA
:103AD00090F82C1001208840316981433161601CCD
:103AE00007D137B13168BDE8F041091DF448FFF74F
:103AF0001FB92C4430684460AC4206D23168B06BC8
:103B0000091DBDE8F041FFF71FB93168706B091D51
:103B1000FFF71AF9B06A844200D2B462FEE6E748C1
:103B2000016B491C016370472DE9F04105460E46C3
:103B30000024002D07D140F27942AFF2B001AFF27C
:103B4000980003F0B1FF3EB940F27A42AFF2C401EF
:103B5000AFF2AC0003F0A8FFD84F386B38B140F299
:103B60007B42AFF2D801AFF2C00003F09DFFFFF738
:103B7000D6FFFA682B689919934205D98B4208D968
:103B8000914206D9012404E08B4201D8914200D928
:103B9000012429601CB1881A0021FFF78DFFFFF76F
:103BA0000FFF002807D1C7494FF080500860BFF3CE
:103BB0004F8FBFF36F8FB1E610B504460020002C85
:103BC00012D0BE48006B38B140F2CF42AFF2441180
:103BD000AFF22C1003F068FFFFF7A1FF0021204691
:103BE000FFF76AFFFFF7ECFE002807D1B5494FF059
:103BF00080500860BFF34F8FBFF36F8F10BD70B55B
:103C00000546002D07D140F2FB42AFF28011AFF222
:103C1000681003F049FFA94E3068854201D10020A9
:103C200070BD00F03DFF6C6900F054FF706B844282
:103C300002D0B06B844201D1022070BDA048844202
:103C400005D1A86A08B1022070BD032070BD9C4850
:103C50001438844202D00CB1012070BD042070BD24
:103C600010B5044600F01CFF0CB994480468E46ADF
:103C700000F030FF204610BD10B5044600F051FFA3
:103C80005020EFF3118180F31188BFF34F8FBFF302
:103C90006F8F0CB989480468E06A81F3118810BD00
:103CA0002DE9F04104460D460026202D07D34FF4A0
:103CB000B062AFF22821AFF2102003F0F5FE202D04
:103CC00000D31F2500F0ECFE7C4F04B93C68606C0B
:103CD000A84241D0854208D939688C4209D0396858
:103CE000C96AA94205D8012603E039688C4200D18F
:103CF0000126D4F82C80404500D1E5626564A069B6
:103D0000002802DBC5F12000A0616F4D08EB88019F
:103D1000606905EB8101884215D1201DFFF72CF861
:103D2000012120B93A6901FA08F082433A61E06A58
:103D30003A6981401143396100EB800005EB800056
:103D4000211DFEF7F5FF3EB15E494FF0805008603F
:103D5000BFF34F8FBFF36F8FBDE8F04100F0BABEE5
:103D600070B5564D286B002802D00120E86170BD67
:103D70000020E8612869B0FA80F0C0F11F00524EBF
:103D800000EB800456F8240038B940F6F622AFF272
:103D90000431AFF2EC2003F087FE06EB84004168AB
:103DA0004968416000F10802914201D149684160CF
:103DB0004068C068286070BD70B5044600F070FEB1
:103DC0003E4D04B92C68201DFEF7D6FF58B9E06AB5
:103DD0003D4A00EB800152F8211021B901218140B8
:103DE000286988432861A06A18B104F11800FEF719
:103DF000C3FF211D3248FEF79BFF00F06BFE686990
:103E000028B100F04DFEFFF715FD00F063FE2868B5
:103E1000844213D1686990B1286B38B140F257627F
:103E2000AFF29831AFF2803003F03EFE25494FF0FB
:103E300080500860BFF34F8FBFF36F8F70BD204875
:103E4000A9680068884202D10020286070BDBDE8E2
:103E5000704085E770B500250446002807D140F280
:103E60008162AFF2D831AFF2C03003F01DFE1449C9
:103E70006069884205D1A06A2839884201D000B91A
:103E80000125284670BD70B50446002807D140F2D0
:103E9000AB62AFF20841AFF2F03003F005FE002C48
:103EA00035D0064D2868844231D000F0F9FD204617
:103EB000FFF7D0FF38B3201D08E00000900000207D
:103EC0004429002004ED00E074260020FEF754FF92
:103ED000E06A01212A69814011432961FA4900EB16
:103EE000800001EB8000211DFEF722FFE06A2968B7
:103EF000C96A884207D3F5494FF080500860BFF384
:103F00004F8FBFF36F8FBDE8704000F0E3BD70BD11
:103F10002DE9F04100260446002807D140F2E26274
:103F2000AFF29841AFF2804003F0BEFD00F0F9FD22
:103F30005020EFF3118580F31188BFF34F8FBFF34B
:103F40006F8F2046FFF786FF38B1E14F386B40B1E5
:103F500004F11801DF48FEF7EBFE85F311883046C7
:103F6000DCE4E06A3968C96A884200D30126201D72
:103F7000FEF702FFE06A01213A698140114339618D
:103F8000D14900EB800001EB8000211DFEF7D0FE3F
:103F9000E3E770B5CF4ECE4D14361CE0FFF7BFFD02
:103FA000306820B10024FFF70BFDA4B901E0012423
:103FB000F9E700F075FDF068C468201DFEF7DCFE2F
:103FC000A868401EA8606868401E686000F082FD16
:103FD0002046FFF73EFC68680028DFD170BDBA4E6E
:103FE0004FF08054B94DFFF7D4FF30680128FAD95B
:103FF0002C60BFF34F8FBFF36F8FF4E71CB5B4484D
:1040000000242C30CDE9004023468022B2A1B448E0
:10401000FFF7E0FB01280CD0401C1CD140F2847259
:10402000AFF29851AFF2805002B0BDE8104003F0FB
:104030003BBD502080F31188BFF34F8FBFF36F8FCC
:10404000A3484FF0FF31816201214161C460BDE8A6
:104050001C4000F0E5BC1CBD502080F31188BFF36C
:104060004F8FBFF36F8F9A490020486100F00CBD5D
:104070009748C068704710B500F053FD9448C06879
:1040800010BD93488068704710B5002802D00446E0
:104090001CB10AE08E480468FAE740F68C02AFF2E1
:1040A0001461AFF2FC5003F0FFFC04F1340010BDCA
:1040B00070B504460D46002C07D140F60632AFF22B
:1040C0003461AFF21C6003F0EFFC814801682046C8
:1040D0001831FEF739FE2846BDE870400121EBE4B7
:1040E0002DE9F04105460E461746002D07D140F652
:1040F0001732AFF26861AFF2506003F0D5FC744C38
:10410000206B38B940F61B32AFF28061AFF26860C5
:1041100003F0CAFC216846F0004088612168284607
:104120001831FEF705FE3846BDE8F0410121C3E431
:104130002DE9F041C068C468002C07D140F6613217
:10414000AFF2B861AFF2A06003F0AEFC04F118006A
:104150000746FEF711FE5E4D2A6B01265AB139461D
:104160005C48FEF7E5FDE06A2968C96A884214D90F
:104170000120EE6180E4201DFEF7FEFDE06A2A6961
:1041800006FA00F1114329614F4900EB800001EB71
:104190008000211DFEF7CCFDE5E700206CE470B542
:1041A00006460C464A4D286B002807D140F6993246
:1041B000AFF22871AFF2107003F076FC44F00040CB
:1041C0003060F4683CB940F6A132AFF24071AFF212
:1041D000287003F069FC3046FEF7CEFD201DFEF787
:1041E000CBFDE06A01262A6906FA00F11143296134
:1041F000354900EB800001EB8000211DFEF798FDA2
:10420000E06A2968C96A884202D90120EE6170BD5E
:10421000002070BD10B50446002C07D140F6C13215
:10422000AFF29871AFF2807003F03EFC2848016A4B
:104230002160C068606010BD70B504460D46002C5A
:1042400007D140F6CB32AFF2BC71AFF2A47003F0ED
:104250002BFC3DB940F6CC32AFF2D071AFF2B87062
:1042600003F022FC00F01CFC194AD06829684B1CA2
:1042700008D02368126A934206D06268824203D84B
:1042800001240DE000240BE06268801A884206D207
:10429000081A28602046FFF7BDFF002400E0012433
:1042A00000F018FC204670BD09490120C861704724
:1042B00007480068704706484169002912D0006B22
:1042C00090B10020704700007426002004ED00E04B
:1042D000900000201C29002049444C4500000000AB
:1042E000DF3F00080120EDE70220EBE770B5044650
:1042F000002839D0FE4DE06A2968C96A884233D265
:10430000A069002804DB2868C06AC0F12000A06111
:10431000E06AF84E00EB8000616906EB80008142A4
:104320001FD1201DFEF728FD012150B9E06A00EBE6
:10433000800256F8222022B92A6901FA00F082434D
:104340002A612868C06AE0622A69814011432961B4
:1043500000EB800006EB8000211DBDE87040FEF7F9
:10436000E7BC2868C06AE06270BD70B504460026EC
:10437000002840D0DE4D2868844207D040F6C7624E
:10438000AFF6F801AFF6E00003F08EFBA06C38B991
:1043900040F6C962AFF60C11AFF6F40003F084FBEF
:1043A000A06C401EA064626CE16A914223D010BBF5
:1043B000201DFEF7E1FCCF4A012150B9E06A00EB75
:1043C000800352F8233023B92B6901FA00F08343AC
:1043D0002B61606CE062C0F12000A061E06A2B6993
:1043E00081401943296100EB800002EB8000211D10
:1043F000FEF79EFC0126304670BDBD490868806905
:104400000A680968D26AC2F120028A615AE7B8498B
:104410000868002803D00868826C521C826408680F
:1044200050E770B506460C4600F03AFBB04D2868E0
:10443000C06C80B92A68012082F850005CB101216B
:104440002046FFF739FBAC494FF080500860BFF3BE
:104450004F8FBFF36F8F00F03DFB00F021FB28680A
:10446000C46C002034B116B12968C86402E02A681F
:10447000611ED164296881F8500000F02BFB2046B2
:1044800070BD2DE9F04781460F461646984600F06C
:1044900007FB974D286890F85000022817D02C6829
:1044A000E06C20EA0900E0642968012081F85000EE
:1044B000B8F1000F0BD001214046FFF7FDFA8E49FD
:1044C0004FF080500860BFF34F8FBFF36F8F00F045
:1044D00001FB00F0E5FA16B12868C06C306028686E
:1044E00090F8500001280DD02868C16CB943C16410
:1044F00001242968002081F8500000F0EBFA2046E2
:10450000BDE8F0870024F4E72DE9F04104460D46AC
:1045100090461F460126002C07D141F2FD02AFF65E
:104520009421AFF67C2003F0BFFA00F0B9FA0FB186
:10453000E06C386094F85000022184F85010B8F113
:10454000050F13D2DFE808F01203070B0D00E16C32
:104550002943E1640AE0E16C491CE16406E0E5649A
:1045600004E0022801D0E56400E00026012828D1FB
:10457000201DFEF701FC5E4DE06A01212A698140A1
:10458000114329615B4900EB800001EB8000211D94
:10459000FEF7CEFBA06A38B141F23512AFF6143106
:1045A000AFF6FC2003F080FAE06A2968C96A884205
:1045B00007D951494FF080500860BFF34F8FBFF3C8
:1045C0006F8F00F087FA3046CAE42DE9F0470446C1
:1045D000DDF820800D4691469A460127002C07D130
:1045E00041F26812AFF65C31AFF6443003F05CFA8A
:1045F00000F097FA5020EFF3118680F31188BFF393
:104600004F8FBFF36F8FBAF1000F02D0E06CCAF882
:10461000000094F85000022184F85010B9F1050F01
:1046200013D2DFE809F01203070B0D00E16C2943F8
:10463000E1640AE0E16C491CE16406E0E56404E041
:10464000022801D0E56400E00027012832D1A06AE9
:1046500038B141F2AF12AFF6CC31AFF6B43003F05F
:1046600023FA234D286B4FF0010978B104F11801AA
:104670002248FEF75DFBE06A2968C96A884219D9B9
:10468000B8F1000F14D0C8F8009013E0201DFEF719
:1046900073FBE06A2A6909FA00F11143296100EB12
:1046A0008001144800EB8100211DFEF741FBE2E789
:1046B000C5F81C9086F31188384621E72DE9F041B2
:1046C00004468846002C07D141F2E312AFF644417C
:1046D000AFF62C4003F0E8F900F023FA5020EFF396
:1046E000118780F31188BFF34F8FBFF36F8F07E0FF
:1046F000900000207426002004ED00E01C2900201A
:1047000094F85000022184F85010E16C491CE164D7
:10471000012830D1A06A38B141F20922AFF69441A4
:10472000AFF67C4003F0C0F9204D286B012678B12C
:1047300004F118011E48FEF7FBFAE06A2968C96A0D
:10474000884218D9B8F1000F14D0C8F8006012E000
:10475000201DFEF711FBE06A2A6906FA00F11143F9
:104760002961144900EB800001EB8000211DFEF758
:10477000DFFAE2E7EE6187F31188FBE410B5002869
:104780000BD0044600F08CF994F85000022807D0B2
:10479000002400F09FF9204610BD04480468F1E7AA
:1047A000002084F850000124F3E70000900000206E
:1047B0001C2900207426002030B5744900E0114601
:1047C0000A688242FBD34B685C18844203D140687C
:1047D0001844486008460D6844682318AB420DD160
:1047E0006A4B103B1B689A4206D0526822444260D2
:1047F0000A681268026002E0036000E00260814221
:1048000000D0086030BD4FF410416148420706D027
:10481000C01D20F007005E49411AC1F510415B4AF6
:104820001060002353600144083921F00701103A59
:1048300011604B600B600B1A436001604068906030
:1048400050604FF00040D06070472DE9F0410546C0
:104850000026FFF764F94D4F103F386808B9FFF79D
:10486000D2FFF86805424AD175B1083568070BD008
:1048700005F00700C0F108000544680704D0BF2216
:1048800044A14EA003F010F9002D38D0786885427D
:1048900035D83E490846046801E021460446606870
:1048A000A84202D220680028F7D13868844226D076
:1048B0000E680836206808606068401B102811D90F
:1048C00004EB05085FEA487004D0EC2231A13BA05C
:1048D00003F0EAF86068401BC8F8040065604046D1
:1048E000FFF76AFF61687868401A7860BA6890429A
:1048F00000D2B860F8680143616000202060FFF7D3
:104900005FF8700705D04FF4967222A12BA003F038
:10491000CBF83046BDE8F08170B500282BD00838C0
:1049200004461A4D6068103DE968084205D14FF40D
:10493000A07218A121A003F0B7F8206828B140F2B6
:10494000411214A11DA003F0AFF86068E9680842A5
:1049500011D02268002A0ED188436060FFF7DFF88B
:1049600060686968084468602046FFF725FFBDE875
:104970007040FFF725B870BD044810384068704794
:10498000024810388068704770470000DC00002043
:10499000582900202E2E5C2E2E5C467265655254DE
:1049A0004F535C706F72745C4D656D4D616E675CEA
:1049B000686561705F342E63000000004572726F9D
:1049C000723A25732C25640D0A0000006748406880
:1049D000401C04D0F42266A16FA003F065F85020BB
:1049E00080F31188BFF34F8FBFF36F8FFEE720383E
:1049F0004FF08073C36121F0010181616A49416117
:104A000040F82029704769484FF47A710068B0FB7C
:104A1000F1F14FF0E020491E41610721016170472B
:104A20001CB5634908780190FF2008700878009051
:104A30009DF800004D4A00F0500010700720906073
:104A400006E09068401E90609DF8000040000090D5
:104A50009DF800000006F4D4107A000200F4E06033
:104A60009060019808705348016841F4700101603A
:104A7000016841F070410160FFF7C5FF0020506000
:104A8000FBF772FB00201CBD38484068B0F57A7F08
:104A900005D04FF4B57236A13FA003F005B87047BA
:104AA000502080F31188BFF34F8FBFF36F8F2F49D2
:104AB0004868401C486001280BD13E481C380068FB
:104AC00010F0FF0F05D04FF4BD7229A132A002F003
:104AD000EBBF704710B5254C6068002805D140F247
:104AE000811223A12CA002F0DFFF6068401E6060ED
:104AF000002801D180F3118810BD10B5502080F33B
:104B00001188BFF34F8FBFF36F8FFEF7F9FE20B10F
:104B100028494FF080501C390860002080F311882C
:104B200010BD10B5FBF756FB104C10280CD300F14C
:104B3000E02090F8F0032178884205D24FF42A72E1
:104B40000BA115A002F0B0FF1A4814380068A16844
:104B500000F4E060884207D9BDE810404FF42E729F
:104B600003A10DA002F0A0BF10BD0000E4000020D2
:104B70002E2E5C2E2E5C4672656552544F535C702F
:104B80006F72745C525644535C41524D5F434D33D7
:104B90005C706F72742E63004572726F723A257387
:104BA0002C25640D0A000000CD49000800000020FB
:104BB00000E400E020ED00E001460120002900D1E2
:104BC0000020704710B50124002803D1FDF733FC05
:104BD00000B90024204610BD2DE9F041ADF5007D5F
:104BE00007460E4614461D460420002F18D1B00774
:104BF0004FF4007818D00FE02246641C0123694668
:104C00000020FFF7E9FF07464FB9424669463046A4
:104C100002F0F0FE06F500766D1E681CECD13846F9
:104C20000DF5007DBDE8F081CDE90085E30D620260
:104C30003046FDF79FFD044634B9FDF7F9FD044603
:104C4000FDF747FC0028FBD10CB10420E8E7002069
:104C5000E6E7F0B5ADF5017D07460E4614461D4664
:104C60000420002D07D0002F06D1B0074FF40077A5
:104C700019D0002013E004200DF5017DF0BD3A4667
:104C8000314601A802F0B6FE2246641C012301A9A8
:104C90000020FFF7DEFF0028EED106F500766D1E3E
:104CA000691CECD1E8E7CDE90075E30D62023046FE
:104CB000FDF724FE044634B9FDF7ABFE0446FDF7CC
:104CC00008FC0028FBD10CB10420D5E70020D3E775
:104CD00010B5034614460420002B16D1A1B10129BA
:104CE0000BD0022902D003290ED103E04FF400704B
:104CF000208009E00120206006E0054900234831BA
:104D000007C902F046FE2060002010BD0148704730
:104D1000882500200000214603E011F8013B00F83F
:104D2000013B521E531CF8D17047C9B201E000F894
:104D3000011B521E531CFAD1704710B50023521E9E
:104D4000541C05D010F8013B11F8014B1B1BF6D089
:104D5000184610BD00E0401C02780AB18A42FAD120
:104D600000787047C06802F004BE00280AD00C2901
:104D700008D00B2906D0092904D00F2902D0C06819
:104D800002F002BE70472DE9F04104460027207969
:104D900000281FD0266B04F13401607801233246CD
:104DA0008846FFF756FF08B1012713E00020207165
:104DB000606AE169301A88420CD2E57808E0E0695F
:104DC00006446078012332464146FFF742FF6D1EDC
:104DD000022DF4D23846BDE8F08170B504460E4687
:104DE0000025206BB04210D02046FFF7CCFF0546CF
:104DF0005DB960780123324604F13401FFF7ECFE1F
:104E000010B14FF0FF3601252663284670BD70B5FE
:104E100004462046FFF7B7FF054628004FD120780B
:104E2000032845D16079012842D104F13400628918
:104E300000210646FFF779FF552084F83202AA20A8
:104E400084F83302522084F8340084F8350061205D
:104E500084F83600412184F83710722284F8182231
:104E600084F8192284F81A1284F81B02606984F805
:104E70001C02010A84F81D12010C84F81E12000E97
:104E800084F81F02206984F82002010A84F82112A4
:104E9000010C84F82212000E84F82302226A521CAC
:104EA0002263607801233146FFF7D3FE0020607152
:104EB000002260781146FFF70BFF00B1012528465C
:104EC00070BD891E8269921E8A4201D800207047F7
:104ED000C26A807801FB002070472DE9F04104464A
:104EE0000D46022D02D3A069A84201D8012609E08F
:104EF0004FF0FF362078012806D0022834D003284E
:104F00004AD00126304666E705EB55076089616A9D
:104F1000B7FBF0F001442046FFF75FFF0028F1D116
:104F200060893946B1FBF0F200FB121121447F1C6D
:104F300091F83480B7FBF0F0616A01442046FFF736
:104F40004CFF0028DED16089B7FBF0F100FB117047
:104F5000204490F8340048EA0020E90701D006090F
:104F6000D0E7C0F30B06CDE76089616A4008B5FB66
:104F7000F0F001442046FFF730FF0028C2D16189DC
:104F80006800B0FBF1F201FB1200204434300178DC
:104F9000407841EA0026B5E76089616A8008B5FB80
:104FA000F0F001442046FFF718FF0028AAD16189DC
:104FB000A800B0FBF1F201FB12002044343001786C
:104FC000C27841EA026182784078120442EA002005
:104FD000014321F0704695E72DE9F04704460D4660
:104FE0001646022D02D3A069A84202D80220BDE8CD
:104FF000F087207806F0FF094FF00108012805D05E
:10500000022842D003285AD00220F0E705EB5507CA
:105010006089616AB7FBF0F001442046FFF7DDFECE
:105020000028E4D1384661897F1CB0FBF1F201FB16
:10503000120020443430E90703D0017869F31F11CE
:1050400000E03146017084F804806089616AB7FB32
:10505000F0F001442046FFF7C0FE0028C7D1618967
:10506000B7FBF1F201FB127121443431EA0702D09F
:10507000C6F3071205E00A78C6F3032302F0F00234
:105080001A430A7084F80480B1E76089616A4008B5
:10509000B5FBF0F001442046FFF79FFE0028A6D1A3
:1050A00062896900B1FBF2F302FB1311214481F81C
:1050B0003490320A81F8352084F8048097E76089BB
:1050C000616A8008B5FBF0F001442046FFF785FED9
:1050D00000288CD16289A900B1FBF2F302FB131105
:1050E000214434314FF07043CA7803EA02623243FC
:1050F0000A70130A4B70130C8B70120ECA7084F86E
:10510000048074E72DE9F04104460F46022F02D3D4
:10511000A069B84201D8022624E000261FE03946E3
:105120002046FFF7DAFE0546E5B1012D09D0681CDF
:1051300009D0002239462046FFF74EFF06468EB9B9
:1051400003E002260EE001260CE06069411C05D058
:10515000401C6061607940F0010060712F46A069D9
:10516000B842DCD8304636E62DE9F04106460F4617
:10517000002F07D039463046FFF7AFFE022808D28D
:10518000012028E6356915B1B069A84207D8012584
:1051900005E0411CF5D0B1698142F2D83D462C466C
:1051A000641CB069A04204D80224022D01D2002060
:1051B00011E621463046FFF790FE38B1411CE0D0A1
:1051C0000128DED0AC42EBD1002004E66FF0704243
:1051D00021463046FFF700FF28B927B1224639465D
:1051E0003046FFF7F9FE20B101280DD001242046FA
:1051F000F1E534617069411CF9D0401E706170792D
:1052000040F001007071F2E74FF0FF34EFE770B546
:1052100004460D46E580A368012B03D02068816910
:10522000994201D8022070BD1BB90178032900D131
:10523000836A23B1418980784E09464318E0018989
:10524000A94201D8022070BD806A17E01946206883
:10525000FFF743FE0346581C07D0022B03D32068F8
:105260008069984203D8022070BD012070BDAD1B3B
:10527000B542EBD219462068FFF723FEE36098B1F0
:1052800021684A895209B5FBF2F21044206148892D
:105290004009B5FBF0F200FB1250342202EB401043
:1052A00008446061002070BD022070BD2DE9F0410E
:1052B00004460E46E7887F1C3804000C0AD021699A
:1052C00041B1206842895209B7FBF2F302FB137225
:1052D00012B165E004207EE5491C2161E16871B1ED
:1052E000428983785209B7FBF2F25B1E1A4257D10A
:1052F000FFF7F3FD0546012D06D802206BE5008976
:10530000B8424DD8042066E5681C14D02068816935
:10531000A9423FD88EB1E168FFF726FF0546280075
:105320000DD0012D0DD0681C0DD02068FFF72BFD8E
:1053300058B101204FE501204DE504204BE5072041
:1053400049E5022047E5012045E520680021428922
:105350003430FFF7EAFC29462068FFF7B2FD2168E8
:10536000086300264FF001080CE080F804802068F4
:10537000FFF709FD08B101202DE52068016B491CEC
:105380000163761C20688178B142EED82168096BF0
:10539000891B0163E56029462068FFF792FD2061C3
:1053A000E780206841894909B7FBF1F201FB1271DE
:1053B000342202EB41110844606100200BE570B516
:1053C00005460E4600212846FFF721FF88B9002434
:1053D00029692868FFF701FD58B969690978E52945
:1053E0000BD051B1002401212846FFF75FFF0028B0
:1053F000EED0042800D1072070BD641CB442F8D060
:10540000F1E70246887ECB7E40EA03201278032A29
:1054100005D10A7D497D42EA012140EA01407047F9
:1054200081760A0AC2760A0C0275090E4175704728
:105430002DE9F05F81460E46B07EF17E50EA0120F4
:1054400002D00020BDE8F09F307800F03F00401E01
:1054500000EB800101EBC00401200025DFF864A40B
:1054600006F101081AF80510725C11F8081042EAFA
:10547000012788B1FF2C0BD2384602F040FA834650
:105480002046641C39F8100002F039FA834501D037
:105490000020D7E7384605E0A7F57F41FF3901D066
:1054A0000020CFE76D1C0D2DDCD33178490605D5E2
:1054B00020B139F8140008B10020C3E70120C1E78A
:1054C0002DE9F0418A7ECB7E52EA032201D00020F2
:1054D00081E40A7802F03F02521E02EB820303EBE2
:1054E000C20201250023F74F4E1C4FF6FF7CFC5CE7
:1054F00011F80480A45D48EA04244DB1FF2A01D3C9
:10550000002068E490462546521C20F8184003E02D
:10551000644501D000205EE45B1C0D2BE7D30978C5
:10552000490606D5FF2A01D3002054E4002120F8C3
:10553000121001204FE42DE9F0434B730F23CB727F
:1055400000230B738B76CB76531E03EB830404EBA3
:10555000C30500231C46DB4E01F1010C4FF6FF771B
:10556000BB4203D02B466D1C30F8133016F8048074
:1055700001F8083016F804904FEA132809F80C8057
:1055800003B93B46641C0D2CEAD3BB4202D030F871
:10559000150008B942F040020A70BDE8F0837CB5FE
:1055A000054616461C460B222846FFF7B5FB052C80
:1055B00011D9C5480CE0B61C002322460C4662F304
:1055C0005F044908E20300D544405B1C102BF4D370
:1055D00031880029EFD107226B4604F00F013031EA
:1055E000392901D9C91DC9B21046521E19542409BE
:1055F000002CF2D17E2098540021541E06E0813800
:105600007D2802D8A14206D0491C491C914202D2F1
:10561000685C2028F3D1082A03D21046521C185C7B
:1056200000E020200C46491C28550829F3D37CBDF6
:10563000014600200B22430803EBC01011F8013B88
:105640001844C0B2521EF6D170472DE9F047044607
:1056500000212046FFF7DBFD002857D1FF26B14689
:105660004FF6FF7AA4F820A021692068FFF7B5FB68
:1056700080465FEA080048D167693D7865B1F87AED
:1056800000F03F00E52D03D0010708D50F2806D014
:10569000FF26A4F820A030E04FF0040835E00F28E2
:1056A00001D0CEB11DE0E06938B3690606D597F8A0
:1056B0000D9025F040052E46E1882184B54208D1A1
:1056C000797B494505D13946FFF7B2FE08B1761E10
:1056D00000E0FF26F6B210E03846FFF7A9FF484584
:1056E00013D0A169C87AC00704D10B223846FFF74E
:1056F00024FB50B1FF26A4F820A000212046FFF78C
:10570000D5FD80465FEA0800AED040466FE42DE943
:10571000F04705468946FF26B046042748E028683A
:10572000FFF75BFB0746380045D1686904787CB118
:10573000C17A01F03F01E52C08D02E2C06D021F0D3
:105740002002082A06D000224A4505D0FF261FE085
:10575000042730E00122F7E70F2901D026BB1FE024
:10576000610606D590F80D8024F040042646E988AD
:105770002984B4420AD1417B414507D1EA690146F7
:105780001046FFF79DFE08B1761E00E0FF26F6B238
:1057900000212846FFF78AFD0746380008D00AE0B6
:1057A000FFF746FF404506D04FF6FF70288402E021
:1057B00029690029B3D10FB100202861384616E4C9
:1057C0002DE9FE430446A769E6690C22394668467E
:1057D000FFF7A2FA9DF80B00C00718D00020F8725E
:1057E000E06101252B46324669463846FFF7D7FE71
:1057F0002046FFF72AFF10B96D1C642DF2D3642DEB
:105800000BD004280AD19DF80B00F872E6619DF8D0
:105810000B0080070ED5002003E00720BDE8FE83C3
:10582000401C36F810100029FAD119300D21B0FBB8
:10583000F1F600E0012631462046FFF7C0FD05469F
:1058400001271DBB761E21D0E088811B2046FFF773
:10585000DEFC0546280019D1A069FFF7E9FE804665
:1058600021692068FFF7B9FA05467DB9F2B24346CF
:105870006169E069FFF75FFE20680771002120463B
:10588000FFF714FD05460DB9761EE9D1C5B92169AA
:105890002068FFF7A2FA0546280011D12022002136
:1058A0006069FFF742FAD4E905010B22FFF734FAE9
:1058B000A0696169C07A00F0180008732068077158
:1058C0002846ABE7A07C00082110010070B5044613
:1058D000E688218CA1F57F40FF3800D13146204673
:1058E000FFF795FC054628001DD121692068FFF7C8
:1058F00074FA0546A5B9202200216069FFF715FA60
:105900006169E5200870216801200871E088B042D3
:1059100006D200212046FFF7C9FC0546002DE4D041
:10592000042D00D10225284670BD2DE9F0410E4618
:1059300006F109050169002937D043690024214691
:10594000641C5A5C202A17D0052A00D1E522092CB4
:1059500002D12E2105F8011BA2F14101192909D814
:105960001F7B092C01D3102100E008210F4201D038
:105970002032D2B205F8012B0B2CE0D3D97A317248
:10598000197FDA7F5C7F41EA02619A7F120442EA62
:10599000042211433160197E5A7E41EA0221B1800E
:1059A000997DDA7D41EA0221F1804FF0000885F807
:1059B0000080B769002F26D00024016909B3F1697E
:1059C000F9B1018CA1F57F42FF3A1AD0C56914E004
:1059D000002101F06DFF58B1FF2803D9020A2146CA
:1059E000641C7A54F169491EA14203D8002408E0DE
:1059F000002406E02146641C785435F8020B002888
:105A0000E6D107F8048066E42DE9F35F8846D8F80C
:105A1000006000E0761C30782F28FBD05C28F9D09D
:105A20000098D0F81CA00024254628466D1C305C48
:105A3000202808D32F2806D05C2804D0FF2C09D3B7
:105A40000620BDE8FC9F7119C8F8001020282AD252
:105A5000042532E0C0B2A0F181017D290ED829468B
:105A60006D1C715C01EB002080B2A1F140023F2A65
:105A700004D380397F2901D30620E2E7012101F018
:105A800017FF074647B1802F08D23946FEA0FFF71F
:105A900061F918B10620D4E70620D2E72046641C3D
:105AA0002AF81070C1E7002507E0601E3AF81000E0
:105AB000202801D02E2802D1641E002CF5D154B12B
:105AC00000202AF8140000980B2220218069FFF79B
:105AD0002CF9002702E00620B3E77F1C3AF81700F4
