:020000040800F2
:1000000028980220C902000899200008DD1D000878
:10001000952000081F040008392C0008000000008B
:100020000000000000000000000000000D020008B9
:10003000DD0200080000000061020008D520000871
:10004000E3020008E3020008E3020008E3020008FC
:10005000E3020008E3020008E3020008E3020008EC
:10006000E3020008E3020008E3020008E3020008DC
:10007000E3020008E3020008E3020008E3020008CC
:10008000E3020008E3020008E3020008E3020008BC
:10009000E3020008E3020008E3020008E3020008AC
:1000A000E3020008E3020008E3020008E30200089C
:1000B000E3020008E3020008E3020008E30200088C
:1000C000E3020008E3020008E3020008E30200087C
:1000D000E3020008E3020008E3020008E30200086C
:1000E000E3020008E3020008E3020008E30200085C
:1000F000E3020008E3020008E3020008E30200084C
:10010000E3020008E3020008E3020008E30200083B
:10011000E3020008E3020008E3020008E30200082B
:10012000E3020008E3020008E3020008E30200081B
:10013000E3020008E3020008E3020008E30200080B
:10014000E3020008E3020008E3020008E3020008FB
:10015000E3020008E3020008E3020008E3020008EB
:10016000E3020008E3020008E3020008E3020008DB
:10017000E3020008E3020008E302000800000000B8
:10018000E3020008E3020008E3020008E3020008BB
:10019000E3020008E3020008E3020008E3020008AB
:1001A000E3020008E3020008E3020008E30200089B
:1001B000E3020008E3020008E3020008E30200088B
:1001C000E3020008E302000800000000E302000868
:1001D000E3020008E3020008E3020008E30200086B
:1001E000E3020008E3020008E3020008E30200085B
:1001F000E3020008E3020008DFF80CD000F08CF8FE
:1002000000480047512E0008289802202B4B1968FF
:100210000868B0E8F04F80F30988BFF36F8F4FF0A4
:10022000000080F311887047000000000648006855
:10023000006880F3088862B661B6BFF34F8FBFF3E2
:100240006F8F00DF00BF00BF08ED00E0DFF80C009B
:10025000016841F470010160704700BF88ED00E063
:10026000EFF30980BFF36F8F144B1A681EF0100F65
:1002700008BF20ED108A20E9F04F106008B44FF05D
:10028000500072B680F31188BFF34F8FBFF36F8FAA
:1002900062B603F099FB4FF0000080F3118808BCB0
:1002A00019680868B0E8F04F1EF0100F08BFB0ECF6
:1002B000108A80F30988BFF36F8F70471400022003
:1002C000EFF3058070470000064880470648004766
:1002D000FEE7FEE7FEE7FEE7FEE7FEE7FEE7FEE7F6
:1002E000FEE7FEE755210008F901000830B50B468E
:1002F000014600202022012409E021FA02F59D4256
:1003000005D303FA02F5491B04FA02F52844151E29
:10031000A2F10102F1DC30BD064C074D06E0E068B9
:1003200040F0010394E8070098471034AC42F6D33C
:10033000FFF766FFF03E0008103F00081CB50124DF
:1003400003F02CF91348022100230A02CDE9001022
:1003500011A1144803F038FC0446012C02D112A06C
:1003600002F06CFC1748032100234FF40072CDE922
:10037000001015A1174803F027FC0446012C02D1F8
:1003800015A002F05BFC1A48006803F033FA03F092
:100390004DF91CBD08000220546573745F546173ED
:1003A0006B000000B9260008B4B4BDA8546573748E
:1003B0005F5461736BC8CECEF1B3C9B9A6210D0AE3
:1003C000000000000C0002204B45595F5461736B24
:1003D00000000000E11D0008B4B4BDA84B45595F02
:1003E0005461736BC8CECEF1B3C9B9A6210D0A0012
:1003F0000400022010B501F075FE01F02DF84FF455
:100400007A71B0FBF1F4204601F0E8FA01F0D4FD76
:1004100000F008F801F086FD02F0F8F810BD00BF0A
:10042000FEE7000000B5ABB0402002900120139021
:1004300002A800F045FA00BF3448006840F0100000
:10044000324908600846006800F01000019000BFC3
:1004500000BF00BF2D481438006840F001002B4950
:10046000143908600846006800F00100019000BFE0
:1004700000BF00BF0846006840F001000860084661
:10048000006800F00100019000BF00BF48152690F1
:1004900002202790012028900320299007202A90ED
:1004A00026A91B4800F03AF84FF4806026900720F8
:1004B0002A9026A9164800F031F816481649086017
:1004C0004FF4E1304860002113488160C160016150
:1004D0000C21416100218161C161016200200E494E
:1004E0004862084601F0DAFB00221146252000F0A0
:1004F00060F9252000F050F907480068006840F0D6
:1005000020000549096808602BB000BD443802404E
:10051000000002400010014078000220F8B50246B9
:100520000B46002100250024002000BFE4E0012646
:1005300006FA01F51E6806EA0504AC4271D15E6850
:10054000022E02D05E68122E13D1CF0802F12006CF
:1005500056F827004E07F70E0F26BE40B0434F0750
:10056000FF0E1E69BE403043CF0802F1200646F858
:10057000270010684F000326BE40B0431E7906F0E6
:1005800003064F00BE40304310605E68012E08D065
:100590005E68022E05D05E68112E02D05E68122EB3
:1005A00013D190684F000326BE40B0434F00DE6871
:1005B000BE4030439060506801268E40B0431E79A3
:1005C000C6F300168E4030435060D0684F000326BB
:1005D000BE40B0434F009E68BE403043D0605E686E
:1005E00006F08056B6F1805FA8D100BF444E366851
:1005F00046F48046424F3E603E46366806F48046EA
:10060000009600BF00BF3F4E8F0856F827008E07A8
:10061000370F0F26BE40B0433B4EB24202D10026F8
:100620002EE068E0394EB24201D1012628E0384E72
:10063000B24201D1022623E0364EB24201D1032656
:100640001EE0354EB24201D1042619E0334EB242CB
:1006500001D1052614E0324EB24201D106260FE048
:10066000304EB24201D107260AE02F4EB24201D1EC
:10067000082605E02D4EB24201D1092600E00A26E7
:100680008F073F0FBE4030431E4E8F0846F82700AD
:10069000274E3068A0435E6806F48036B6F5803F8A
:1006A00000D12043224E3060361D3068A0435E6882
:1006B00006F40036B6F5003F00D120431C4E361D2F
:1006C0003060361D3068A0435E6806F48016B6F5CB
:1006D000801F00D12043164E08363060361D30682A
:1006E000A0435E6806F40016B6F5001F00D1204353
:1006F0000F4E0C363060491C1029FFF418AFF8BDBE
:100700004438024008380140000002400004024022
:1007100000080240000C0240001002400014024099
:1007200000180240001C0240002002400024024049
:10073000003C0140024613690B400BB1012000E070
:10074000002070470AB1816101E00B0483617047AA
:10075000044840680449B0FBF1F04FF47A71484313
:1007600070470000001000E000E6DF0C014608487A
:10077000006840F08070064A10600020054A506012
:100780001046006840F00100106000207047000033
:10079000FCED00E0001000E000BF00F01F020121AE
:1007A00091404209920002F1E022C2F8001100BF1C
:1007B00070472DE9F05F80460D461646002701F090
:1007C0006DFC074639462A46334601F00700C0F162
:1007D000070ABAF1040F02D94FF0040A01E0C0F190
:1007E000070AD14600F1040ABAF1070F02D24FF00E
:1007F000000A01E0A0F1030AD4464FF0010A0AFA08
:1008000009FAAAF1010A0AEA020A0AFA0CFA4FF0F6
:10081000010B0BFA0CFBABF1010B0BEA030B4AEAE1
:100820000B042146404601F041FCBDE8F09F00006A
:1008300038B5002400BF2048006840F080501E49B1
:1008400008600846006800F08050009000BF00BFBC
:100850001A48006840F4803018490860FFF778FFB4
:10086000044607E0FFF774FF001BB0F57A7F01D95B
:10087000032038BD1148406800F48030B0F5803F57
:10088000F0D10E48006840F400300C490860FFF7D2
:100890005FFF044607E0FFF75BFF001BB0F57A7FC0
:1008A00001D90320E5E70548406800F40030B0F5C1
:1008B000003FF0D10020DCE74038024000700040EB
:1008C0002DE9F8430446002600250027A846A9463E
:1008D000207800F0010088B100BFFE48006820F4D5
:1008E0000000FC49086008460068616B0843F9494C
:1008F000086000BF606B08B94FF00108206800F481
:100900000020B0F5002F13D1F2488430006820F4A5
:100910004010E16B0843EF4984310860E06BB0F5AB
:10092000801F01D14FF00108E06B08B94FF00109B9
:10093000206800F48010B0F5801F13D1E5488430A2
:10094000006820F44000216C0843E24984310860CB
:10095000206CB0F5800F01D14FF00108206C08B970
:100960004FF00109206800F08070B0F1807F01D164
:100970004FF00108207800F02000202870D100BF3F
:10098000D4483830006840F08050D249383108608F
:100990000846006800F08050009000BF00BFCE48BD
:1009A000006840F48070CC490860FFF7D1FE06462D
:1009B00007E0FFF7CDFE801B642802D90320BDE8C5
:1009C000F883C548006800F480700028F1D0C14861
:1009D0006830006800F4407585B3208E00F44070E4
:1009E000A8422BD0BB486830006820F44075B94855
:1009F0006830006840F48030B649683108600846C5
:100A0000006820F48030086008460560006800F047
:100A1000010098B1FFF79CFE064608E0FFF798FE3C
:100A2000801B41F28831884201D90320C7E7A948D9
:100A300068300068C0F340000028EFD000BF208E6F
:100A400000F44070B0F5407F0BD1A248006820F45C
:100A5000F810A24A216B114008439E49086006E045
:100A600010E09C48006820F4F8109A490860994802
:100A700068300068218EC1F30B0108439549683145
:100A8000086000BF207800F01000102810D100BFCF
:100A900090488430006820F080708E49843108606E
:100AA00008460068A16B08438A498431086000BF8A
:100AB000208800F48040B0F5804F09D18548883007
:100AC000006820F44030616E084382498831086034
:100AD000208800F40040B0F5004F09D17D488830EF
:100AE000006820F44020A16E08437A4988310860EC
:100AF000206800F48030B0F5803F09D17548883017
:100B0000006820F44010E16E0843724988310860A3
:100B1000206800F40030B0F5003F09D16D488830FE
:100B2000006820F44000216F08436A49883108605A
:100B3000207800F04000402809D1664888300068DD
:100B400020F00300616C0843624988310860207816
:100B500000F08000802809D15E488830006820F0CD
:100B60000C00A16C08435B4988310860208800F4C0
:100B70008070B0F5807F09D156488830006820F039
:100B80003000E16C0843534988310860208800F444
:100B90000070B0F5007F09D14E488830006820F021
:100BA000C000216D08434B4988310860208800F45B
:100BB0008060B0F5806F09D146488830006820F425
:100BC0004070616D0843434988310860208800F413
:100BD0000060B0F5006F09D13E488830006820F40D
:100BE0004060A16D08433B4988310860208800F4CB
:100BF0008050B0F5805F09D136488830006820F415
:100C00004050E16D0843334988310860208800F482
:100C10000050B0F5005F09D12E488830006820F4FC
:100C20004040216E08432B4988310860206800F459
:100C30008000B0F5800F09D126488830006820F088
:100C40008060A16F0843234988310860206800F460
:100C50000010B0F5001F0FD11E488830006820F04A
:100C60000060E16F08431B4988310860E06FB0F114
:100C7000006F01D14FF00109207800F0080008282A
:100C800001D14FF00109206800F48020B0F5802FD9
:100C900009D110488830006820F04070616F084327
:100CA0000C4988310860206800F40000B0F5000F9E
:100CB0000AD108488830006820F08050D4F88010AD
:100CC0000843044988310860206800F08060B0F172
:100CD000806F05E00838024000700040FFFCFF0F05
:100CE00008D1FE48006820F00050D4F88410084372
:100CF000FA490860206800F00060B0F1006F0AD186
:100D0000F648001F006820F00070D4F888100843EF
:100D1000F249091F0860206800F08050B0F1805F40
:100D20000AD1EE48001F006820F08060D4F88C10D3
:100D30000843EA49091F0860B8F1010F03D0206891
:100D4000B0F1007F7DD1E5489038006820F08060E8
:100D5000E24990390860FFF7FBFC064606E0FFF722
:100D6000F7FC801B642801D9032028E6DB48903873
:100D70000068C0F3C0600028F1D1207800F00100C5
:100D8000F0B3606BE0BBD5480C38006800F440302D
:100D90004FF4403191FAA1F1B1FA81F120FA01F555
:100DA000CE480C38006800F070604FF0706191FA26
:100DB000A1F1B1FA81F120FA01F747F6C07191FA79
:100DC000A1F1B1FA81F1606888404FF4403191FAA5
:100DD000A1F1B1FA81F105FA01F108434FF0706118
:100DE00091FAA1F1B1FA81F107FA01F108434FF04C
:100DF000E04292FAA2F2B2FA82F2A168914000E0D7
:100E000003E00843B5490C390860206800F400206D
:100E1000B0F5002F03D1E06BB0F5801F09D020683A
:100E200000F48010B0F5801F50D1206CB0F5800F19
:100E30004CD1AA480C38006800F440304FF44031DF
:100E400000E0CFE091FAA1F1B1FA81F120FA01F5C9
:100E5000A2480C38006800F0E0404FF0E04191FA01
:100E6000A1F1B1FA81F120FA01F747F6C07191FAC8
:100E7000A1F1B1FA81F1606888404FF4403191FAF4
:100E8000A1F1B1FA81F105FA01F108434FF0706266
:100E900092FAA2F2B2FA82F2E168914008434FF06E
:100EA000E04191FAA1F1B1FA81F107FA01F10843A9
:100EB0008A490C3908608948001F006820F01F002B
:100EC000616A491E08438549091F0860206800F0CF
:100ED0008070B0F1807F3FD180480C38006800F00E
:100EE00070604FF0706191FAA1F1B1FA81F120FACE
:100EF00001F57A480C38006800F0E0404FF0E0411E
:100F000091FAA1F1B1FA81F120FA01F747F6C07127
:100F100091FAA1F1B1FA81F1606888404FF4403252
:100F200092FAA2F2B2FA82F22169914008434FF09C
:100F3000706191FAA1F1B1FA81F105FA01F108436A
:100F40004FF0E04191FAA1F1B1FA81F107FA01F114
:100F5000084362490C390860206800F00070B0F165
:100F6000007F25D147F6C07191FAA1F1B1FA81F164
:100F7000606888404FF4403292FAA2F2B2FA82F2EC
:100F80002169914008434FF0706292FAA2F2B2FADE
:100F900082F2E168914008434FF0E04292FAA2F2F7
:100FA000B2FA82F2A168914008434C490C390860BA
:100FB0004A489038006840F080604849903908609D
:100FC000FFF7C6FB064606E0FFF7C2FB801B64285E
:100FD00001D90320F3E4414890380068C0F3C060B1
:100FE0000028F1D0B9F1010F69D13C489038006870
:100FF00020F08050394990390860FFF7A9FB064678
:1010000006E0FFF7A5FB801B642801D90320D6E486
:10101000324890380068C0F340700028F1D1206851
:1010200000F40020B0F5002F01D1E06B38B120684A
:1010300000F48010B0F5801F4FD1206CF0BB274822
:101040000838006800F440304FF4403191FAA1F1C3
:10105000B1FA81F120FA01F520480838006800F063
:10106000E0404FF0E04191FAA1F1B1FA81F120FAAC
:1010700001F747F6C07191FAA1F1B1FA81F1606907
:1010800088404FF4403191FAA1F1B1FA81F105FAAB
:1010900001F108434FF0706292FAA2F2B2FA82F2C2
:1010A000A169914008434FF0E04191FAA1F1B1FAF2
:1010B00081F107FA01F10843084901E00DE0BBE0C6
:1010C00008390860081D006820F4F851A06A401E25
:1010D00041EA00200149091F086001E09038024000
:1010E000206800F40010B0F5001F40D1E06FB0F1AF
:1010F000006F3CD15148006800F070604FF07061A3
:1011000091FAA1F1B1FA81F120FA01F54B4800689A
:1011100000F0E0404FF0E04191FAA1F1B1FA81F125
:1011200020FA01F747F6C07191FAA1F1B1FA81F105
:10113000606988404FF4403292FAA2F2B2FA82F229
:10114000216A914008434FF0706191FAA1F1B1FA20
:1011500081F105FA01F108434FF0E04191FAA1F164
:10116000B1FA81F107FA01F10843344908602078A7
:1011700000F00800082845D13048006800F0706091
:101180004FF0706191FAA1F1B1FA81F120FA01F505
:101190002A48006800F440304FF4403191FAA1F140
:1011A000B1FA81F120FA01F747F6C07191FAA1F185
:1011B000B1FA81F1606988404FF4403191FAA1F1B0
:1011C000B1FA81F107FA01F108434FF0706191FA29
:1011D000A1F1B1FA81F105FA01F108434FF0E042C3
:1011E00092FAA2F2B2FA82F2E169914008431349FD
:1011F0000860081D006820F44030E16A08430F4988
:10120000091D08600D488838006840F080500B497F
:1012100088390860FFF79CFA064606E0FFF798FA5F
:10122000801B642801D903209FE5044888380068A2
:10123000C0F340700028F1D0002096E588380240C5
:1012400070B504460D4600266648006800F00F00A1
:10125000A8420ED26348006820F00F00284361497D
:1012600008600846006800F00F00A84201D0012085
:1012700070BD207800F00200022807D15A480068AB
:1012800020F0F000A168084357490860207800F07A
:101290000100002860D06068012807D15248083852
:1012A0000068C0F34040A0B90120E1E7606802286F
:1012B00007D14D4808380068C0F3406048B90120A4
:1012C000D6E7494808380068C0F3400008B9012053
:1012D000CEE74548006820F00300616808434249B2
:1012E0000860FFF735FA06466068012810D108E06B
:1012F000FFF72EFA801B41F28831884201D9032082
:10130000B6E73948006800F00C000428F0D123E06B
:101310006068022810D108E0FFF71AFA801B41F23A
:101320008831884201D90320A2E72F48006800F0E5
:101330000C000828F0D10FE008E0FFF709FA801B45
:1013400041F28831884201D9032091E7264800689C
:1013500000F00C000028F0D12248006800F00F00D7
:10136000A8420ED91F48006820F00F0028431D49ED
:1013700008600846006800F00F00A84201D0012074
:1013800076E7207800F00400042807D116480068AA
:1013900020F4E050E168084313490860207800F029
:1013A0000800082808D11048006820F4604021692E
:1013B00040EAC1000C49086000F04EF80A4909688B
:1013C00001F0F001F02292FAA2F2B2FA82F2D140D8
:1013D000064A515CC840064908600F20FFF7C6F96D
:1013E000002045E7003C024008380240D83E000893
:1013F0000000022001480068704700000000022041
:1014000000B5FFF7F7FF0749096801F4E0514FF411
:10141000E05292FAA2F2B2FA82F2D140024A515C50
:10142000C84000BD08380240E83E000800B5FFF79C
:10143000E1FF0749096801F460414FF4604292FA04
:10144000A2F2B2FA82F2D140024A515CC84000BD19
:1014500008380240E83E000870B500210022002351
:101460000020274C246804F00C0424B1042C04D080
:10147000082C41D103E0234840E023483EE0204CC3
:10148000241F246804F03F011D4C241F246804F429
:10149000800484B11C4CB4FBF1F5194C241F246862
:1014A00047F6C076344096FAA6F6B6FA86F6F440C9
:1014B00005FB04F20FE0134CB4FBF1F5104C241FB4
:1014C000246847F6C076344096FAA6F6B6FA86F651
:1014D000F44005FB04F20A4C241F246804F4403451
:1014E0004FF4403595FAA5F5B5FA85F5EC40641C46
:1014F0006300B2FBF3F001E0024800BF00BF70BD23
:10150000083802400024F40040787D0138B50446D4
:101510000025207800F00100002871D0FE48006806
:1015200000F00C0004280DD0FB48006800F00C000F
:10153000082813D1F848001F006800F48000B0F5B7
:10154000800F0BD1F44808380068C0F340400028F1
:1015500069D06068002866D1012038BD00BF60688E
:10156000B0F5803F08D1EC480838006840F480307E
:10157000E949083908602EE0606868B9E64808382B
:10158000006820F48030E4490839086008460068A3
:1015900020F4802008601EE06068B0F5A02F0DD117
:1015A000DD480838006840F48020DB4908390860CD
:1015B0000846006840F4803008600CE0D6480838DF
:1015C000006820F48030D449083908600846006873
:1015D00020F48020086000BF606890B1FFF7B8F881
:1015E000054606E0FFF7B4F8401B642801D9032044
:1015F000B3E7C94808380068C0F340400028F1D07C
:1016000011E0FFF7A5F8054606E0FFF7A1F8401B3B
:10161000642801D90320A0E7BF4808380068C0F358
:1016200040400028F1D1207800F00200022873D158
:10163000B948006800F00C0058B1B748006800F0E5
:101640000C00082821D1B448001F006800F4800075
:10165000D8B9B14808380068C0F3400020B1E0684C
:10166000012801D0012078E7AB480838006820F055
:10167000F800F82292FAA2F2B2FA82F221699140BD
:101680000843A5490839086046E0E06850B3A2481D
:101690000838006840F001009F4908390860FFF7EA
:1016A00057F8054606E0FFF753F8401B022801D91A
:1016B000032052E7984808380068C0F3400000282B
:1016C000F1D095480838006820F0F800F82292FA26
:1016D000A2F2B2FA82F22169914008438E49083998
:1016E000086019E08C480838006820F001008A4939
:1016F00008390860FFF72CF8054606E0FFF728F8E0
:10170000401B022801D9032027E7834808380068D6
:10171000C0F340000028F1D1207800F0080008282C
:1017200036D16069D0B17C486C30006840F001006F
:1017300079496C310860FFF70BF8054606E0FFF7C2
:1017400007F8401B022801D9032006E772486C30D5
:101750000068C0F340000028F1D019E06E486C30FA
:10176000006820F001006C496C310860FEF7F0FF62
:10177000054606E0FEF7ECFF401B022801D90320D6
:10178000EBE665486C300068C0F340000028F1D1FA
:10179000207800F00400042871D100BF5E48383082
:1017A000006840F080505C493831086008460068A5
:1017B00000F08050009000BF00BF5848006840F41F
:1017C000807056490860FEF7C3FF054606E0FEF745
:1017D000BFFF401B642801D90320BEE64F480068C4
:1017E00000F480700028F2D000BFA068012808D162
:1017F00049486830006840F0010047496831086096
:101800002DE0A06868B944486830006820F0010005
:101810004149683108600846006820F0040008600B
:101820001DE0A06805280DD13B486830006840F0F5
:1018300004003949683108600846006840F001003A
:1018400008600CE034486830006820F0010032493C
:10185000683108600846006820F00400086000BF96
:10186000A068A8B1FEF774FF054609E0FEF770FF17
:10187000401B41F28831884202D903206DE61BE00B
:10188000254868300068C0F340000028EED013E01F
:10189000FEF75EFF054608E0FEF75AFF401B41F2E7
:1018A0008831884201D9032057E61B486830006818
:1018B000C0F340000028EFD1A06988B31648006843
:1018C00000F00C00082873D0A069022864D11248E7
:1018D0000838006820F080700F4908390860FEF76A
:1018E00037FF054606E0FEF733FF401B022801D90B
:1018F000032032E6084808380068C0F3406000283A
:10190000F1D1D4E90701084347F6C07292FAA2F276
:10191000B2FA82F2616A04E00838024000700040C6
:1019200058E0914008430122A16AC2EB51014FF4F3
:10193000403292FAA2F2B2FA82F2914008434FF09A
:10194000706292FAA2F2B2FA82F2E16A914008431E
:101950004FF0E04292FAA2F2B2FA82F2216B914089
:1019600008431D490860081F006840F08070091F87
:101970000860FEF7EDFE054606E0FEF7E9FE401BB7
:10198000022801D90320E8E51348001F0068C0F3CE
:1019900040600028F1D01DE00F48001F006820F0D3
:1019A00080700D49091F0860FEF7D2FE054607E06A
:1019B0000EE0FEF7CDFE401B022801D90320CCE546
:1019C0000548001F0068C0F340600028F1D101E025
:1019D0000120C2E50020C0E50438024070B504468D
:1019E0002546681EB0F1807F01D301200FE0681EFC
:1019F0004FF0E02148610F214FF0FF3000F056FB1F
:101A000000204FF0E021886107200861002070BDB0
:101A100003460A46002100BF93F83800012801D18F
:101A200002207047012083F8380000BF022083F8AD
:101A3000390001F07C41D06801439068014350684F
:101A40000143106801431069014350690143906AE2
:101A50000143108B41EA0041908C41EA0051D0696A
:101A60000143106A01431868416400BF002083F8F5
:101A7000380000BF00BFD4E770B504460D4604220D
:101A80002946206800F018FC2068406C40F40040B3
:101A9000216848642068006840F0010021680860FF
:101AA000002070BD70B504460D46164600BF94F880
:101AB0003800012801D1022070BD012084F83800CF
:101AC00000BF022084F839000C2E51D005DC4EB145
:101AD000042E1ED0082E7AD133E0102E60D0142EA2
:101AE000F9D175E02946206800F050FC2068806933
:101AF00040F00800216888612068806920F00400B7
:101B000021688861206880692969084321688861A3
:101B100077E02946206800F073FC2068806940F473
:101B20000060216888612068806920F480602168F5
:101B3000886120688069296940EA012021688861FC
:101B40005FE02946206800F099FC2068C06940F0F9
:101B500008002168C8612068C06920F0040021687D
:101B6000C8612068C069296908432168C86148E0E4
:101B70002946206800F0C0FC2068C06940F400607D
:101B80002168C8612068C06920F480602168C8614C
:101B90002068C069296940EA01202168C86130E0F5
:101BA0002946206800F0DAFC2068406D40F008000B
:101BB000216848652068406D20F004002168486570
:101BC0002068406D296908432168486519E017E0DD
:101BD0002946206800F0EEFC2068406D40F400606B
:101BE000216848652068406D20F480602168486560
:101BF0002068406D296940EA01202168486500E0BD
:101C000000BF00BF012084F8390000BF002084F825
:101C1000380000BF00BF4FE710B504460CB90120E3
:101C200010BD94F8390028B9002084F83800204607
:101C300000F00CF8022084F83900211D206800F023
:101C4000BBFA012084F839000020E9E77047000062
:101C500030B504460D4601222946206800F01EFBDF
:101C60000C492068884203D00B492068884201D182
:101C7000012000E0002028B12068406C40F40040C2
:101C8000216848642068006840F00100216808600D
:101C9000002030BD000001400004014010B50446A2
:101CA0000CB9012010BDA06900B100E000BF94F89C
:101CB000690028B9002084F86800204600F02AF85E
:101CC000242084F869002068006820F00100216861
:101CD0000860204600F0B4FD012800D1E2E7606A08
:101CE00010B1204600F0FCFC2068406820F49040D1
:101CF000216848602068806820F02A002168886098
:101D00002068006840F0010021680860204600F06B
:101D10005CFDC7E770472DE9F84304460D461646BB
:101D20001F464FF0000994F86900202854D105B1EE
:101D300016B90120BDE8F88300BF94F868000128B7
:101D400001D10220F6E7012084F8680000BF0020DE
:101D50005034E06121206076FEF7FAFC814626804F
:101D60006680503C21E0B4F85200401EA4F85200B6
:101D70004B46002280212046009700F027FF08B143
:101D80000320D7E7A068B0F5805F0AD1206940B989
:101D9000A846B8F80000C0F3080021688862AD1CAE
:101DA00003E015F8010B21688862B4F8520000289E
:101DB000D9D14B46002240212046009700F006FF73
:101DC00008B10320B6E7202084F8690000BF002096
:101DD00084F8680000BFADE70220ABE700BFFEE774
:101DE0005AE001212D4800F0D3F8012826D12C48D3
:101DF000008840F2B63188420EDA29480088323035
:101E000027490880084600880A2190FBF1F4214602
:101E100024A000F013FF0CE04FF47A7020490880F2
:101E2000084600880A2190FBF1F4214624A000F026
:101E300005FF1B4800882A49096848634FF4005190
:101E4000284800F0A5F8012823D115480088322839
:101E50000EDD134800883238114908800846008892
:101E60000A2190FBF1F421461FA000F0E7FE0BE0F1
:101E700000200B490880084600880A2190FBF1F4F5
:101E8000214620A000F0DAFE0548008814490968C0
:101E90004863142001F070FCA3E70000000002403A
:101EA00010000220D4F6B4F3D5BCBFD5B1C83AB502
:101EB000B1C7B0D5BCBFD5B1C8256425250A00007F
:101EC000D5BCBFD5B1C8B4EFB5BDD7EEB4F33AB504
:101ED000B1C7B0D5BCBFD5B1C8256425250A00005F
:101EE000E800022000080240BCF5D0A1D5BCBFD557
:101EF000B1C83AB5B1C7B0D5BCBFD5B1C825642506
:101F0000250A0000D5BCBFD5B1C8B4EFB5BDD7EE2A
:101F1000D0A13AB5B1C7B0D5BCBFD5B1C8256425ED
:101F2000250A000000B587B000BF1648006840F0E1
:101F30000100144908600846006800F001000190A3
:101F400000BF00BF00BF0846006840F00400086002
:101F50000846006800F00400019000BF00BF0120A7
:101F6000029000200390049002A90748FEF7D6FAD9
:101F70004FF40050029002A90448FEF7CFFA07B0D0
:101F800000BD00003038024000000240000802405E
:101F900070B504460D4629462046FEF7CBFB0128C6
:101FA00008D100BF29462046FEF7C4FB0128F9D01E
:101FB000012070BD0020FCE700B587B000BF3248AB
:101FC000006840F08000304908600846006800F072
:101FD0008000019000BF00BF00BF0846006840F0CD
:101FE000800008600846006800F08000019000BF93
:101FF00000BF00BF0846006840F080000860084647
:10200000006800F08000019000BF00BF00BF0846DC
:10201000006840F0080008600846006800F008000A
:10202000019000BF00BF08150290012003900490AA
:102030000320059002A91548FEF770FA4FF40060DE
:10204000029002A91148FEF769FA4FF480500290FD
:1020500002A90E48FEF762FA4FF40060029002A94E
:102060000B48FEF75BFA4FF48060084918310860AE
:102070004000086040000860002241100448FEF75C
:1020800061FB07B000BD000030380240001C024078
:10209000000C024000BFFEE77047000002480068E5
:1020A000C0F30220704700000CED00E010B50028DE
:1020B00007DA0A07140E054A00F00F031B1FD45459
:1020C00003E00A07130E024A135410BD18ED00E096
:1020D00000E400E010B501F0A7FD012801D001F0F7
:1020E00057FD10BD10B592B00024012000900004EF
:1020F00001900220069041050791192108914FF4A3
:10210000D871099102210A9109210B916846FFF7C4
:10211000FDF904460CB100BFFEE7FEF789FB04465B
:102120000CB100BFFEE70F200D9002200E900020A2
:102130000F904FF4A05010904FF480501190072151
:102140000DA8FFF77DF804460CB100BFFEE712B002
:1021500010BD00001448006840F470001249086087
:102160001248006840F001001049086000200F4943
:10217000083108600D4800680D4908400B490860A7
:102180000C48091D0860081F006820F48020091F02
:102190000860002005490C3108604FF000600249DA
:1021A000803908607047000088ED00E00038024088
:1021B000FFFFF6FE10300024002202682C4B9842EC
:1021C0000ED0B0F1804F0BD02A4B984208D02A4B4A
:1021D000984205D0294B984202D0294B984201D110
:1021E000012300E000231BB122F070024B681A4368
:1021F0001F4B984220D0B0F1804F1DD01D4B98420C
:102200001AD01D4B984217D01C4B984214D01C4B2F
:10221000984211D01B4B98420ED01B4B98420BD0CA
:102220001A4B984208D01A4B984205D0194B984245
:1022300002D0194B984201D1012300E000231BB1C9
:1022400022F44072CB681A4302608B68C3620B6849
:102250008362074B984202D0094B984201D1012377
:1022600000E000230BB10B69036301234361704756
:10227000000001400004004000080040000C004045
:10228000000401400040014000440140004801407A
:1022900000180040001C00400020004030B5002322
:1022A000012404FA01F3046A9C430462046A02FAFA
:1022B00001F52C43046230BD30B50023042404FA38
:1022C00001F3046A9C430462046A02FA01F52C4398
:1022D000046230BD00B58DB000BF2748006840F0F3
:1022E0000200254908600846006800F002000190DD
:1022F00000BF00BF21482249086040F2E731204872
:10230000C160D7201E49486000211D4801618160DD
:102310004161FFF781FC60201A4908601A48008873
:10232000486000208860C8604FF4807048610020D9
:10233000886100221248FFF7B5FB4FF4006002905D
:1023400040100390801004900B2005904FF48050B3
:102350000690002007904FF480400C9002A9084896
:10236000FFF756FB00210648FFF772FC00210448E6
:10237000FFF782FB0DB000BD44380240000401406D
:10238000E8000220240102201000022030B50024C1
:1023900000220023056A25F001050562026A4368F0
:1023A0008469144D2C4024F003040D682C4322F062
:1023B00002028D682A43104DA84202D00F4DA84258
:1023C00001D1012500E000256DB122F00802CD68A1
:1023D0002A4322F0040223F4807323F400734D692E
:1023E0002B438D692B43436084614D6845630262D2
:1023F00030BD00008FFFFEFF0000014000040140DF
:1024000030B5002400220023056A25F0100505627E
:10241000026A43688469164D2C4024F440740D68A8
:1024200044EA052422F020028D6842EA0512114D8B
:10243000A84202D0104DA84201D1012500E000259C
:1024400085B122F08002CD6842EA051222F04002F6
:1024500023F4806323F400634D6943EA85038D69A7
:1024600043EA8503436084614D688563026230BD41
:10247000FF8FFFFE000001400004014030B5002442
:1024800000220023056A25F480750562026A43680C
:10249000C469164D2C4024F003040D682C4322F42B
:1024A00000728D6842EA0522114DA84202D0114DFA
:1024B000A84201D1012500E0002585B122F4006287
:1024C000CD6842EA052222F4806223F4805323F48B
:1024D00000534D6943EA05138D6943EA05134360D0
:1024E000C4614D68C563026230BD00008FFFFEFF0E
:1024F000000001400004014030B500220023002408
:10250000056A25F480550562036A4468C269104D66
:102510002A4022F440720D6842EA052223F4005357
:102520008D6843EA05330B4DA84202D00A4DA842FC
:1025300001D1012500E0002525B124F480444D6936
:1025400044EA85144460C2614D680564036230BD8D
:10255000FF8FFFFE000001400004014030B5002461
:1025600000220023056A25F480350562026A43686B
:10257000446D0D4D2C400D682C4322F400320D8922
:1025800042EA0542094DA84202D0094DA84204D1B1
:1025900023F480334D6943EA0523436044654D6865
:1025A0008565026230BD00008FFFFEFF0000014024
:1025B0000004014030B5002400220023056A25F400
:1025C00080150562026A4368446D0D4D2C400D680C
:1025D00044EA052422F400120D8942EA0552094D0D
:1025E000A84202D0084DA84204D123F480234D69AB
:1025F00043EA8523436044654D68C565026230BD8A
:10260000FF8FFFFE000001400004014010B500F004
:1026100003F8FFF75FFE10BD00B587B000BF234889
:10262000006840F00400214908600846006800F096
:102630000400019000BF00BF00BF0846006840F0E2
:10264000010008600846006800F00100019000BF2A
:1026500000BF00BF0846006840F00100086008465F
:10266000006800F00100019000BF00BF4020029010
:10267000022003900020049003200590069002A9F8
:102680000B48FDF74BFF202002900320069002A983
:102690000848FDF743FF402002900320069002A95E
:1026A0000448FDF73BFF07B000BD00003038024092
:1026B00000080240000002400FE04FF08060074930
:1026C00008604FF4FA7001F057F84FF48060034946
:1026D00008604FF4FA7001F04FF8EEE7181C024062
:1026E00090F8241001F0010139B10168496821F422
:1026F0000031826A11430268516090F8241001F0A1
:10270000020139B10168496821F48031C26A11437C
:102710000268516090F8241001F0040139B1016899
:10272000496821F48021026B11430268516090F8DE
:10273000241001F0080139B10168496821F4004111
:10274000426B11430268516090F8241001F01001AF
:1027500039B10168896821F48051826B11430268A4
:10276000916090F8241001F0200139B10168896866
:1027700021F40051C26B11430268916090F824105B
:1027800001F0400199B10168496821F48011026C9F
:10279000114302685160016CB1F5801F07D10168D7
:1027A000496821F4C001426C11430268516090F8FD
:1027B000241001F0800139B10168496821F4002139
:1027C000826C114302685160704738B50446002599
:1027D0000020E066FDF7BCFF05462068006800F0B9
:1027E000080008280CD16FF07E402B4600224FF4E1
:1027F00000110090204600F0E9F908B1032038BD2F
:102800002068006800F0040004280CD16FF07E40BE
:102810002B4600224FF480010090204600F0D6F9AC
:1028200008B10320EBE7202084F8690084F86A00EF
:1028300000BF002084F8680000BF00BFDFE7000091
:102840002DE9F0470446002510260027A846A94692
:102850002169A068084361690843E16940EA01050C
:1028600020680068CD490840284321680860206836
:10287000406820F44050E168084321684860216ABC
:10288000A06940EA01052068806820F43060284390
:102890002168886000BFC2492068884215D1C148BC
:1028A000006800F0030030B1012808D0022804D0ED
:1028B000032808D105E0012606E0022604E00426EC
:1028C00002E0082600E000BFC1E0B7492068884266
:1028D00015D1B448006800F00C0030B1042808D0CD
:1028E000082804D00C2808D105E0002606E00226BE
:1028F00004E0042602E0082600E000BFA7E0AB49A0
:102900002068884215D1A748006800F0300030B137
:10291000102808D0202804D0302808D105E000264F
:1029200006E0022604E0042602E0082600E000BFDC
:102930008DE09F492068884215D19A48006800F0D0
:10294000C00030B1402808D0802804D0C02808D169
:1029500005E0002606E0022604E0042602E0082640
:1029600000E000BF73E093492068884218D18D4889
:10297000006800F4407048B1B0F5807F0AD0B0F52F
:10298000007F05D0B0F5407F08D105E0002606E0C5
:10299000022604E0042602E0082600E000BF56E01C
:1029A00085492068884218D17E48006800F440605C
:1029B00048B1B0F5806F0AD0B0F5006F05D0B0F522
:1029C000406F08D105E0012606E0022604E0042657
:1029D00002E0082600E000BF39E07849206888421C
:1029E00018D17048006800F4405048B1B0F5805FDD
:1029F0000AD0B0F5005F05D0B0F5405F08D105E022
:102A0000002606E0022604E0042602E0082600E094
:102A100000BF1CE06A492068884218D161480068FC
:102A200000F4404048B1B0F5804F0AD0B0F5004FF7
:102A300005D0B0F5404F08D105E0002606E002269B
:102A400004E0042602E0082600E000BF00BF00BF4B
:102A5000E069B0F5004F52D1042E2BD005DC4EB109
:102A6000012E12D0022E3BD11AE0082E2DD0102EAE
:102A700036D136E0FEF7C4FC4000616800EB51003F
:102A8000B0FBF1F01FFA80F82EE0FEF7CFFC40001B
:102A9000616800EB5100B0FBF1F01FFA80F823E011
:102AA0004849606801EB50006168B0FBF1F01FFA23
:102AB00080F819E0FEF7D0FC4000616800EB51009F
:102AC000B0FBF1F01FFA80F80EE04FF4803160683F
:102AD00001EB50006168B0FBF1F01FFA80F803E0F1
:102AE00000BF4FF0010900BF00BF4FF6F07008EAC9
:102AF0000007C8F3420007432068C7604AE0042E7D
:102B00002CD005DC4EB1012E12D0022E3DD11AE0A0
:102B1000082E2ED0102E38D138E0FEF771FC6168F7
:102B200000EB5100B0FBF1F080B22168C86030E0EA
:102B3000FEF77CFC616800EB5100B0FBF1F080B265
:102B40002168C86025E02049606801EB5000616899
:102B5000B0FBF1F080B22168C8601AE0FEF77CFC9F
:102B6000616800EB5100B0FBF1F080B22168C860F1
:102B70000FE04FF40041606801EB50006168B0FB6A
:102B8000F1F080B22168C86003E000BF4FF0010996
:102B900000BF00BF4846BDE8F0870000F369FFEFC3
:102BA00000100140903802400044004000480040BE
:102BB000004C0040005000400014014000780040EC
:102BC000007C00400048E8010024F4002DE9F041B9
:102BD00004460D4617469846069E21E0701CF8B143
:102BE0002EB1FDF7B5FDA0EB0800B04218D3206868
:102BF000006820F4D070216808602068806820F0A8
:102C0000010021688860202084F8690084F86A0047
:102C100000BF002084F8680000BF0320BDE8F081F9
:102C20002068C0692840A84201D1012000E00020AE
:102C3000B842D3D00020F1E700BFFEE70FB4054B48
:102C400010B503A9044A029800F018F810BC5DF80A
:102C500014FB0000352E00087400022002E008C8B2
:102C6000121F08C1002AFAD170477047002001E006
:102C700001C1121F002AFBD1704700002DE9FF4F50
:102C80008BB09A460F460546002606E025280BD055
:102C900052460D9990476D1C761C28780028F5D176
:102CA0000FB03046BDE8F08F0024A04601226049F5
:102CB00000E0044315F8013F203B02FA03F008420C
:102CC000F7D128782E2817D115F8010F44F0040405
:102CD0002A280ED06FF02F022878A0F130010929A0
:102CE0000AD808EB880102EB410100EB01086D1CDA
:102CF000F2E757F8048B6D1C287869283ED006DC73
:102D00000028CDD063280BD0642804D136E0732886
:102D100010D075284BD052460D999047761C85E00F
:102D200017F8040B8DF8000000208DF80100E9462B
:102D3000012003E057F8049B4FF0FF3061074FF08C
:102D4000000401D40AE0641C44450DDA8442FADB35
:102D500019F804100029F6D106E0641C8442FCDB5B
:102D600019F804100029F8D1264404E019F8010BE1
:102D700052460D999047641EF8D257E001CF4FF0AC
:102D80000A0B002802DA40422D2102E0210504D579
:102D90002B218DF82410012103E0E10705D020212B
:102DA000F7E70DF1200908910CE00021F9E701CFC8
:102DB0004FF00A0BF9E75946FDF798FA01F1300296
:102DC00009F8012D0028F6D1ADEB090000F1200B28
:102DD000600701D44FF00108D84502DDA8EB0B00D5
:102DE00000E000208046002406E009A85246005D6D
:102DF0000D999047641C761C08988442F5DB04E02A
:102E0000302052460D999047761CB8F10001A8F188
:102E10000108F5DC05E019F8010B52460D999047C1
:102E2000761CBBF10001ABF1010BF4DC6D1C34E747
:102E30000928010013B50C464FF47A730122694644
:102E40000248FEF768FF00981CBD000078000220D1
:102E50001CB50124FDF7CEFA0BA0FFF7EFFE1848D2
:102E6000012100234A02CDE9001016A1194800F003
:102E7000ABFE0446012C02D100F046FD02E04FF00B
:102E8000FF301CBD00BFFEE7D5E2CAC7D2BBB8F613
:102E90005BD2B0BBF05D2D53544D3332C8ABCFB5D0
:102EA000C1D0BFAAB7A2B0E52D4672656552544F96
:102EB00053B9CCBCFEBFE2C0FDB3CCA3A10A0A004B
:102EC000040002204170705461736B437265617439
:102ED000650000003D0300082DE9F04105460E465F
:102EE0001C4807681C480068001D00F00DFB50B925
:102EF0001948006890F82C1001208840174909688B
:102F0000814316480160681C38B936B1124801681F
:102F1000091D134800F036FB1AE07C190E480068C2
:102F20004460BC4207D20C480168091D0D48006886
:102F300000F00EFB0CE008480168091D0A48006813
:102F400000F006FB09480068844201D2074804608B
:102F5000BDE8F08128000220140002202C0002208D
:102F6000100402201C00022018000220440002204D
:102F700010B5044600F012FB23480068401C2249AB
:102F800008602248006840B920480460084600688C
:102F900001280DD100F038F90AE01D48006838B961
:102FA0001A480068C06AE16A884201D8174804607C
:102FB00018480068401C1749086094F82C1001203C
:102FC000884015490968084313490860E16A01EB24
:102FD0008101124A02EB8100211D00F0D3FA00F0BA
:102FE00025FB0B48006868B108480068C06AE16AC0
:102FF000884207D24FF0805009490860BFF34F8FD5
:10300000BFF36F8F10BD00002400022014000220C7
:1030100030000220400002202C000220400102204B
:1030200004ED00E070B523E000F0C6FC1348006832
:1030300008B9012000E00020054600F0B9FEBDB946
:1030400000F0ACFA0D48C068C468201D00F05CFABE
:103050000B480068401E0A4908600A480068401E84
:103060000849086000F0E2FA204600F00DF800BFC1
:10307000044800680028D7D170BD0000FC0302207E
:10308000240002202000022010B50446206B00F02E
:1030900007FB204600F004FB10BD000030B54FF4E4
:1030A0001043174800F007042CB1C01D20F00700A2
:1030B000134C041B1B1B0246124C22600024114DB2
:1030C0006C60D018083820F007000F4C20600024F6
:1030D0000D4D2D686C600C4D2D682C601146441A06
:1030E0004C60094C24680C60084D4C682C60084DFD
:1030F0004C682C604FF00044064D2C6030BD000041
:103100002404022050000220580002206000022007
:103110005C0002206400022000BFFFF783FF064826
:1031200000680128F9D94FF0805004490860BFF3C6
:103130004F8FBFF36F8FF0E74001022004ED00E0F6
:103140002DE9FF5F81460E469246DDE90E7B109C1D
:10315000AAF10100216B01EB800828F0070808F0B4
:10316000070008B9012000E0002028B940F22B3206
:103170001AA121A0FFF762FD002507E0715D04F1AF
:1031800034004155705D00B902E06D1C102DF5D37F
:1031900000BF002143200155202F00D31F27E762E5
:1031A000201D00F0D2F904F1180000F0CEF92461DE
:1031B000C7F12000A06164620020606484F84800C8
:1031C00049464046039A00F089F92060BBF1000FA0
:1031D00001D0CBF80040BDE8FF9F00002E2E5C2EF2
:1031E0002E5C4672656552544F535C7372635C7417
:1031F00061736B732E6300004572726F723A2573B0
:103200002C25640D0A00000010B5002407E004EB33
:1032100084010F4A02EB810000F08AF9641C202C23
:10322000F5D30C4800F084F90B4800F081F90B4805
:1032300000F07EF90A4800F07BF90A4800F078F9BE
:1032400004480949086004480849086010BD0000A6
:1032500040010220C0030220D4030220E803022020
:10326000FC03022010040220180002201C0002208F
:1032700010B50146164800E0006803688B42FBD396
:103280000246436813448B4204D143684C6823448C
:10329000436001460A464B6813440468A34211D1B7
:1032A0000C4C03682468A34208D04B680468646827
:1032B00023444B6003681B680B6005E0054B1B68EB
:1032C0000B6001E003680B60884200D0016010BD14
:1032D00050000220580002200A490968096809B90B
:1032E000012100E0002121B14FF0FF31064A1160B9
:1032F00006E004490968C968C868034A4168116062
:103300007047000018000220440002200D480068A9
:10331000401C08B9012000E0002028B940F2091241
:1033200009A115A0FFF78AFC00BF502072B680F3F8
:103330001188BFF34F8FBFF36F8F62B600BF00BF1E
:10334000FEE70000680002202E2E5C2E2E5C4672E6
:10335000656552544F535C706F72745C525644539F
:103360005C41524D5F434D375C723070315C706F21
:1033700072742E63000000004572726F723A2573FA
:103380002C25640D0A0000002DE9F04104464FF0A1
:10339000000800F011FB3E48006808B9FFF77EFE08
:1033A0003C480068204000285FD1A4B1083404F0F4
:1033B000070080B104F00700C0F10800044404F0E5
:1033C000070008B9012000E0002020B9BF2232A187
:1033D0003BA0FFF733FC002C47D03D4800688442F7
:1033E00043D83C4E3046056801E02E462D6868689B
:1033F000A04202D228680028F7D1254800688542FB
:1034000033D0306800F10808286830606868001B15
:10341000102813D92F1907F0070008B9012000E080
:10342000002020B9EC221CA125A0FFF707FC68684A
:10343000001B78606C603846FFF71AFF2449686803
:103440000968081A22490860084600682249096884
:10345000884203D21E4800681F4908600D49686809
:103460000968084368600020286000F0A1FC08F0AB
:10347000070008B9012000E0002028B94FF4967237
:1034800005A10FA0FFF7DAFB4046BDE8F081000080
:1034900058000220640002202E2E5C2E2E5C467204
:1034A000656552544F535C706F72745C4D656D4D21
:1034B000616E675C686561705F342E6300000000B8
:1034C0004572726F723A25732C25640D0A00000054
:1034D0005C0002205000022060000220001F4FF01C
:1034E00080730360001F21F001030360001F054B80
:1034F000036014380260001F6FF00203036020387D
:10350000704700000D33000801460A69D1E9013017
:103510009860D1E9010358605068884201D18868F9
:103520005060002008611068401E106010687047ED
:1035300000F1080141604FF0FF31816000F10801A6
:10354000C160016100210160704700210161704785
:1035500010B502460B685C1C0CB9106907E002F15B
:10356000080000E04068446824689C42FAD9446836
:103570004C604C68A160886041600A611468641CFA
:10358000146010BD42684A6093688B60936859600C
:103590009160086103685B1C0360704710B500BF51
:1035A000502072B680F31188BFF34F8FBFF36F8F37
:1035B00062B600BF0B480068401C0A490860084614
:1035C000006801280DD108480068C0B208B9012080
:1035D00000E0002028B940F2A91204A10FA0FFF7D3
:1035E0002DFB10BD6800022004ED00E02E2E5C2EA5
:1035F0002E5C4672656552544F535C706F72745CFA
:10360000525644535C41524D5F434D375C723070AB
:10361000315C706F72742E63000000004572726F2F
:10362000723A25732C25640D0A00000010B50B4872
:10363000006828B94FF4D87209A115A0FFF7FEFA67
:1036400006480068401E054908600846006820B921
:10365000002080F3118800BF00BF10BD6800022069
:103660002E2E5C2E2E5C4672656552544F535C7054
:103670006F72745C525644535C41524D5F434D37F8
:103680005C723070315C706F72742E6300000000E9
:103690004572726F723A25732C25640D0A00000082
:1036A00070B506463546002E35D0083D2C461A49E1
:1036B00060680968084008B1012000E0002028B9CE
:1036C0004FF4A07215A11FA0FFF7B8FA206808B93F
:1036D000012000E0002028B940F241120FA119A0FA
:1036E000FFF7ACFA0C4960680968084098B1206897
:1036F00088B90949606809688843606000F05CF92E
:103700001449606809680844124908602046FFF7B8
:10371000AFFD00F04DFB70BD640002202E2E5C2E2C
:103720002E5C4672656552544F535C706F72745CC8
:103730004D656D4D616E675C686561705F342E63C9
:10374000000000004572726F723A25732C25640DDB
:103750000A0000005C000220064800684FF47A71FD
:10376000B0FBF1F0401E4FF0E021486107200861F6
:10377000704700000000022070B504460025ACB17F
:103780000F48006808B9012000E0002028B940F285
:10379000CF420CA112A0FFF751FA00F00DF9002161
:1037A0002046FFF799FB00F003FB05463DB94FF0BB
:1037B00080500F490860BFF34F8FBFF36F8F70BD0C
:1037C0004C0002202E2E5C2E2E5C467265655254F3
:1037D0004F535C7372635C7461736B732E63000090
:1037E0004572726F723A25732C25640D0A00000031
:1037F00004ED00E070B50546FFF7D0FE15B92D4881
:10380000006800E028460446201DFFF77DFE78B9D9
:10381000E06A00EB8000284951F8200040B994F894
:103820002C10012088402549096881432348016004
:10383000A06A18B104F11800FFF766FE204800687E
:10384000401C1F4908601B480068844209D1211DA3
:103850001C48FFF797FE1C480068401C1A49086086
:1038600009E01A480068401E184908602046FFF722
:103870000BFCFFF731FDFFF7D9FE15480068C0B11A
:103880000C480068844214D11248006808B901202D
:1038900000E0002028B940F265420FA115A0FFF713
:1038A000CDF94FF0805017490860BFF34F8FBFF339
:1038B0006F8F70BD14000220400102202C000220F6
:1038C00040000220FC0302202000022024000220ED
:1038D000300002204C0002202E2E5C2E2E5C467200
:1038E000656552544F535C7372635C7461736B73A0
:1038F0002E6300004572726F723A25732C25640D99
:103900000A00000004ED00E01CB5194800210B4638
:103910008022CDE9001017A1184800F055F904469F
:10392000012C17D100BF502072B680F31188BFF36D
:103930004F8FBFF36F8F62B600BF4FF0FF3010495B
:10394000086001200F49086000200F49086000F05E
:1039500093F80BE0601C08B1012000E0002028B9BA
:1039600040F2847209A110A0FFF768F91CBD0000A5
:103970004800022049444C4500000000193100086D
:103980004400022030000220280002202E2E5C2E4F
:103990002E5C4672656552544F535C7372635C745F
:1039A00061736B732E6300004572726F723A2573F8
:1039B0002C25640D0A00000002480068401C0149E3
:1039C000086070474C00022010B51B48006818B111
:1039D00001201A4908602DE00020184908601848A5
:1039E0000068B0FA80F0C0F11F0404EB84001549B0
:1039F00051F8200008B1012000E0002028B940F66D
:103A0000F62211A117A0FFF719F904EB84010D4A62
:103A100002EB810041684968416000F10801426899
:103A20008A4202D14168496841604168C968114AC7
:103A3000116000BF10BD00004C00022038000220C1
:103A40002C000220400102202E2E5C2E2E5C46729D
:103A5000656552544F535C7372635C7461736B732E
:103A60002E6300004572726F723A25732C25640D27
:103A70000A000000140002201CB52F4C20460078DC
:103A80000190FF20214608700846007800909DF8BC
:103A9000000000F0F0009DF80010884201D10120E4
:103AA00000E0002028B940F2631224A12FA0FFF704
:103AB000C5F89DF8000000F050003049087007205C
:103AC0002F49086009E02E480068401E2C49086014
:103AD0009DF800004006000E00909DF8000000F0E8
:103AE00080008028EFD02648006800022449086042
:103AF0000846008800F4E06008600F4901980870EB
:103B00002048006840F470001E49086008460068BC
:103B100040F070400860FFF71FFE00201A4908605F
:103B2000FCF794FB1948006840F0404017490860D2
:103B3000FCF77CFB00201CBD00E400E02E2E5C2E78
:103B40002E5C4672656552544F535C706F72745CA4
:103B5000525644535C41524D5F434D375C72307056
:103B6000315C706F72742E63000000004572726FDA
:103B7000723A25732C25640D0A0000006C000220A7
:103B80007000022020ED00E06800022034EF00E029
:103B900010B500BF502072B680F31188BFF34F8F6D
:103BA000BFF36F8F62B600BF00F04EF818B14FF050
:103BB00080500449086000BF002080F3118800BFD6
:103BC00010BD000004ED00E02DE9FF4F85B08046F8
:103BD00089461746DDE912ABB800FFF7D5FB06466C
:103BE00056B14C20FFF7D0FB04460CB1266304E02D
:103BF0003046FFF755FD00E000247CB10020CDE900
:103C000000ABCDE902403A4649464046089BFFF7E3
:103C100097FA2046FFF7ACF9012501E04FF0FF3598
:103C2000284609B0BDE8F08F0549096809B90120A7
:103C300005E00449096809B9022000E00020704746
:103C4000300002204C0002202DE9F0414FF0000826
:103C500041480068002872D140480068451C3F4830
:103C60000560EDB93E480068006808B9012000E031
:103C7000002028B940F6D9123AA141A0FEF7DEFF94
:103C8000374807684248006835490860404807607F
:103C900040480068401C3F490860FFF71DFB00BF1B
:103CA0003D48006885423CD300BF2D48006800684D
:103CB00008B9012000E0002020B14FF0FF30364964
:103CC00008602DE026480068C068C4686668B54290
:103CD00002D23148066023E0201DFFF715FCA06AE0
:103CE00018B104F11800FFF70FFC94F82C10012014
:103CF00088402A490968084328490860E16A01EBBD
:103D00008101274A02EB8100211DFFF73BFC254979
:103D1000E06A0968C96A8842C7D34FF00108C4E75E
:103D200000BF20480068C06A00EB80001C4951F8C1
:103D30002000012801D94FF0010805E0FFE71A48EB
:103D40000068401C184908601848006808B14FF026
:103D500001084046BDE8F0814C0002202800022006
:103D6000180002202E2E5C2E2E5C46726565525481
:103D70004F535C7372635C7461736B732E630000EA
:103D80004572726F723A25732C25640D0A0000008B
:103D90001C0002203C000220440002202C000220D3
:103DA00040010220140002203400022038000220CA
:103DB00070B5002400263448006828B94FF4FD622D
:103DC00032A139A0FEF73AFFFFF7E8FB2E48006862
:103DD000401E2D4908600846006800284FD136482B
:103DE000006800284BD024E03448C068C46804F15F
:103DF0001800FFF789FB201DFFF786FB94F82C10B5
:103E0000012088402E49096808432D490860E16A6D
:103E100001EB81012B4A02EB8100211DFFF7B2FB70
:103E20002949E06A0968C96A884202D30120274902
:103E300008602248006808B9012000E0002000283E
:103E4000D2D00CB1FFF748FA2148056865B100BF30
:103E5000FFF7FAFE10B101201C4908606D1E002D0D
:103E6000F6D100201A4908601848006838B10126C8
:103E7000300718490860BFF34F8FBFF36F8FFFF70C
:103E8000D5FB304670BD00004C0002202E2E5C2E6B
:103E90002E5C4672656552544F535C7372635C745A
:103EA00061736B732E6300004572726F723A2573F3
:103EB0002C25640D0A00000024000220E8030220E3
:103EC0002C000220400102201400022038000220B1
:103ED0003400022004ED00E00000000000000000BB
:103EE00001020304060708090000000001020304A0
:103EF000103F000800000220780000005C2C000841
:103F0000883F000878000220B09700006C2C000861
:103F10000024F40000000000000000000000000089
:103F2000F40100000000000000000000000000009C
:103F30000000000000000000000000000000000081
:103F40000000000000000000000000000000000071
:103F50000000000000000000000000000000000061
:103F60000000000000000000000000000000000051
:103F70000000000000000000AAAAAAAA0000000099
:083F8000000000000000000039
:04000005080001F9F5
:00000001FF
