:020000040800F2
:1000000098980220C9020008FD2A0008C5280008A7
:10001000F92A00081B0B00086934000800000000E2
:100020000000000000000000000000000D020008B9
:10003000DD0200080000000061020008112D000828
:10004000E3020008E3020008E3020008E3020008FC
:10005000E3020008E3020008E3020008E3020008EC
:10006000E3020008E3020008E3020008E3020008DC
:10007000E3020008E3020008E3020008E3020008CC
:10008000E3020008E3020008E3020008E3020008BC
:10009000E3020008E3020008E3020008E3020008AC
:1000A000E3020008E3020008E3020008E30200089C
:1000B000E3020008E3020008E3020008E30200088C
:1000C000E3020008E3020008E3020008E30200087C
:1000D000E3020008E3020008E3020008E30200086C
:1000E000E3020008E3020008E3020008E30200085C
:1000F000E3020008E3020008E3020008E30200084C
:10010000E3020008E3020008E3020008E30200083B
:10011000E3020008E3020008E3020008E30200082B
:10012000E3020008E3020008E3020008E30200081B
:10013000E3020008E3020008E3020008E30200080B
:10014000E3020008E3020008E3020008E3020008FB
:10015000E3020008E3020008E3020008E3020008EB
:10016000E3020008E3020008E3020008E3020008DB
:10017000E3020008E3020008E302000800000000B8
:10018000E3020008E3020008E3020008E3020008BB
:10019000E3020008E3020008E3020008E3020008AB
:1001A000E3020008E3020008E3020008E30200089B
:1001B000E3020008E3020008E3020008E30200088B
:1001C000E3020008E302000800000000E302000868
:1001D000E3020008E3020008E3020008E30200086B
:1001E000E3020008E3020008E3020008E30200085B
:1001F000E3020008E3020008DFF80CD000F094FAF4
:10020000004800477D3D0008989802202B4B196854
:100210000868B0E8F04F80F30988BFF36F8F4FF0A4
:10022000000080F311887047000000000648006855
:10023000006880F3088862B661B6BFF34F8FBFF3E2
:100240006F8F00DF00BF00BF08ED00E0DFF80C009B
:10025000016841F470010160704700BF88ED00E063
:10026000EFF30980BFF36F8F144B1A681EF0100F65
:1002700008BF20ED108A20E9F04F106008B44FF05D
:10028000500072B680F31188BFF34F8FBFF36F8FAA
:1002900062B604F061FC4FF0000080F3118808BCE6
:1002A00019680868B0E8F04F1EF0100F08BFB0ECF6
:1002B000108A80F30988BFF36F8F704718000220FF
:1002C000EFF3058070470000064880470648004766
:1002D000FEE7FEE7FEE7FEE7FEE7FEE7FEE7FEE7F6
:1002E000FEE7FEE7912D0008F90100082DE9F05F17
:1002F0000546002092469B46884606468146402495
:100300001BE0284641464746224600F045F8534642
:100310005A46C01A914110D311461846224600F0A1
:100320002CF82D1A67EB01084F46224601200021C8
:1003300000F023F817EB00094E41201EA4F1010440
:10034000DFDC484631462A464346BDE8F09F30B5DB
:100350000B46014600202022012409E021FA02F583
:100360009D4205D303FA02F5491B04FA02F528441D
:10037000151EA2F10102F1DC30BD202A04DB203A77
:1003800000FA02F1002070479140C2F1200320FAE8
:1003900003F3194390407047202A04DB203A21FAE6
:1003A00002F00021704721FA02F3D040C2F120028E
:1003B00091400843194670472DE9FE4F804681EA77
:1003C0000300C00F0C46009021F0004123F00045CF
:1003D000B8EB0200A94105D24046214690461C4692
:1003E0000B46024623F00040104347D0270DC7F3C9
:1003F0000A00C3F30A510290401A019040286BDAB8
:10040000C3F3130040F4801B0098924620B10023F0
:10041000D2EB030A63EB0B0B01985946C0F1400283
:100420005046FFF7AAFF06460D4650465946019A28
:1004300000F08CF910EB08006141002487EA1152AA
:1004400084EAE7731A4340D0009A62B3019A012A02
:100450004FEA075215DC001B61EB02014FF000422E
:1004600002EA0752CDE90042001C41F580113246F4
:100470002B4600F08CF903B0BDE8F08F40462146D2
:10048000F9E7001B61EB0201001C41F58013001825
:100490005B412018A2F5001747EB030140EAD57035
:1004A000B6196D4111E06D084FEA360645EAC07590
:1004B0004FEA0752001B61EB0201001C41F580115D
:1004C00049084FEA30000019514132462B4603B02B
:1004D000BDE8F04F00F04CB9009801224000002325
:1004E000D0EB020263EBE073009821464FEAE07420
:1004F000B8EB000061EB0401E9E783F000435BE740
:1005000081F0004158E72DE9FE4F81EA030404F031
:10051000004421F0004100944FF0000B23F0004311
:1005200050EA01045ED052EA03045BD0C3F30A54DC
:10053000C1F30A552C44A4F2F3340194A0FB0254F5
:10054000C1F3130141F48011C3F3130343F4801387
:1005500001FB024400FB034E840A970A44EA8154DB
:1005600047EA8357A4FB076802958D0A05FB0785B8
:100570004FEA932C04FB0C542705029D4FEA0658C2
:1005800047EA1637B5EB08056EEB070C870E920E9F
:1005900047EA811742EA8312A7FB0201B6EB0B017F
:1005A00064EB00042B0D43EA0C335E1844EB1C5043
:1005B000DA465146E7FB0201C5F313044FEA0B3359
:1005C00043EA14534FEA0432019C43EA0603A4F1C0
:1005D0000C040294009CCDE900B400F0D8F803B0FC
:1005E000BDE8F08F00200146F9E72DE9F04D81EAE2
:1005F000030404F0004B21F0004514464FF0000ABC
:1006000023F0004150EA050220D054EA01021DD037
:10061000C5F30A570246C5F31303C1F31300C1F330
:100620000A5640F4801543F48013A7EB0608101B0C
:10063000D64608F2FD3873EB050002D308F1010835
:1006400001E092185B41B8F1000F03DA0020014687
:10065000BDE8F08D00204FF48011064684460EE080
:10066000171B73EB050705D3121B63EB050306434A
:100670004CEA010C49084FEA300092185B4150EAFD
:100680000107EDD152EA030012D082EA040083EAA6
:100690000501084305D0101BAB4106D201220023FF
:1006A00006E000224FF0004302E06FF00102531019
:1006B0001AEB06004CEB085110EB0A0041EB0B0162
:1006C000BDE8F04D00F054B8C1F30A52C1F3130174
:1006D00040F2FF3341F480119A4202DA00200146D1
:1006E000704740F233439A42A2F2334202DC524254
:1006F000FFF752BEFFF741BE30B5041E71F1000492
:1007000004DB4FF00044404264EB0101141E73F11E
:10071000000405DB1C464FF00043524263EB040328
:10072000994208BF904230BD064C074D06E0E06894
:1007300040F0010394E8070098471034AC42F6D328
:10074000FFF75EFD88500008A8500008202A06DB4D
:10075000CB17203A41FA02F043EAE07306E041FA8F
:1007600002F3D040C2F1200291400843194670477D
:1007700010B5141E73F1000408DA401C41F10001A9
:1007800092185B411A4301D120F0010010BD2DE900
:10079000F04D92469B4611B1B1FA81F202E0B0FAF7
:1007A00080F220329046FFF7E8FD04460F4640EA0B
:1007B0000A0041EA0B0153465A46084313D011463A
:1007C00053EA010019D0C8F140025046FFF7E4FD9A
:1007D00005460E46504659464246FFF7CEFD0843B1
:1007E00005D0012004E020463946BDE8F08D002008
:1007F000054346EAE0762C4337430A986305E40A4A
:10080000A0EB08000022FD0A44EA47540A3002D552
:1008100000200146E9E7010510196941DDE90845B5
:1008200000196941BDE8F04DA2E770B50546AC6B13
:10083000206C00F0500050BB206C40F4007020642D
:100840002068806800F04050E8B9A069D8B92068F5
:10085000C06A00F4700020B12068806800F48060F5
:1008600088B92068406820F0200021684860206C2A
:1008700020F480702064206C00F4805018B9206C43
:1008800040F001002064204600F02EFB03E0A06B46
:10089000C16C2846884770BD70B50546AC6B4020DA
:1008A0002064606C40F004006064204600F01EFB91
:1008B00070BD70B50446A56B284600F016FB70BDF0
:1008C0005A49096821F44031594AC2F804131146C3
:1008D000D1F8041342681143544A11600168496811
:1008E00021F480710268516001684A68016942EA36
:1008F0000121026851600168496821F04071026875
:10090000516001684968826811430268516001685A
:10091000896821F400610268916001688968C26891
:10092000114302689160434A816A914218D001687C
:10093000896821F070610268916001688968826A43
:100940001143026891600168896821F04051026892
:10095000916001688968C26A1143026891600BE086
:100960000168896821F07061026891600168896896
:1009700021F04051026891600168896821F002010C
:100980000268916001688A68816942EA41010268EF
:100990009160016AD1B10168496841F4006102685F
:1009A00051600168496821F4604102685160016842
:1009B0004A68416A491E4FF4604393FAA3F3B3FABD
:1009C00083F399400A4301684A6005E00168496879
:1009D00021F40061026851600168C96A21F4700164
:1009E0000268D1620168CA6A818B491E42EA0151DC
:1009F0000268D1620168896821F40071026891601F
:100A000001688A68016B42EA4121026891600168CD
:100A1000896821F480610268916001688A6841698F
:100A200042EA81210268916070470000042301407E
:100A3000002001400100000F1CB5012403F098FDC7
:100A40001348022100230A02CDE9001011A1144825
:100A500004F082F90446012C02D112A002F006FD36
:100A60001748032100234FF40072CDE9001015A1AF
:100A7000174804F071F90446012C02D115A002F0C8
:100A8000F5FC1A48006803F09FFE03F0B9FD1CBD99
:100A900008000220546573745F5461736B0000009A
:100AA000F52D0008B4B4BDA8546573745F54617328
:100AB0006BC8CECEF1B3C9B9A6210D0A0000000063
:100AC0000C0002204B45595F5461736B000000001D
:100AD000C9280008B4B4BDA84B45595F5461736B75
:100AE000C8CECEF1B3C9B9A6210D0A000400022078
:100AF00010B502F015F901F069FB4FF47A71B0FB03
:100B0000F1F4204601F024FE01F088FF00F008F81F
:100B100001F03AFF02F0F6F810BD00BFFEE700005A
:100B200000B5ABB0402002900120139002A800F065
:100B300081FD00BF3448006840F010003249086071
:100B40000846006800F01000019000BF00BF00BF21
:100B50002D481438006840F001002B491439086012
:100B60000846006800F00100019000BF00BF00BF10
:100B70000846006840F0010008600846006800F080
:100B80000100019000BF00BF481526900220279069
:100B9000012028900320299007202A9026A91B488D
:100BA00000F076FB4FF48060269007202A9026A95B
:100BB000164800F06DFB1648164908604FF4E13006
:100BC0004860002113488160C16001610C214161CE
:100BD00000218161C161016200200E49486208461E
:100BE00001F0D0FD00221146252000F09CFC2520BC
:100BF00000F08CFC07480068006840F020000549C0
:100C0000096808602BB000BD443802400000024073
:100C1000001001408800022001460878103818238F
:100C2000B0FBF3F20848805CC865032A05D9086860
:100C30006FF30900001D886503E008686FF3090081
:100C40008865886D704700008050000801460020CC
:100C50008A6A8B6903BB32B1012A0CD0022A10D0F8
:100C6000032A17D115E0CB6A03F08073B3F1807FBC
:100C700000D101200FE0CB6AB3F1C07F00D1012089
:100C800009E0CB6A03F08073B3F1807F00D10120CB
:100C900001E000E000BF35E08B69B3F5005F1BD1D8
:100CA00032B1012A06D0022A0CD0032A12D10BE05D
:100CB000012010E0CB6A03F08073B3F1807F00D194
:100CC000012008E0012006E0CB6AB3F1C07F00D12B
:100CD000012000E000BF15E032B1012A05D0022A50
:100CE00004D0032A0CD103E000BF00BF012008E0BC
:100CF000CB6A03F08073B3F1807F00D1012000E064
:100D000000BF00BF704730B50468246824F4802415
:100D100005682C60046863608468402C04D1046812
:100D2000A2600468E16003E00468A1600468E26016
:100D300030BD000018B502460020009000BF92F8B8
:100D40003C00012801D1022018BD012082F83C009E
:100D500000BF0868092822D91068C0680B780A3BD0
:100D600003EB43040723A34098431368D860594B0F
:100D70000868984207D11068C0680B7A40EA03609F
:100D80001368D8601FE00B780A3B03EB43038868C5
:100D900098401368DB6818431368D86013E0106844
:100DA00000690B7803EB43040723A34098431368BF
:100DB00018610B7803EB43038868984013681B693C
:100DC0001843136818614868072817D21068406BE9
:100DD0000B795B1E03EB83041F23A3409843136826
:100DE0005863088880B20B795B1E03EB830398403D
:100DF00013685B6B18431368586331E048680D282B
:100E000017D21068006B0B79DB1F03EB83041F23E1
:100E1000A340984313681863088880B20B79DB1FDE
:100E200003EB8303984013681B6B18431368186324
:100E300016E01068C06A0B790D3B03EB83041F2397
:100E4000A34098431368D862088880B20B790D3BA1
:100E500003EB830398401368DB6A18431368D86276
:100E60001D4B1068984208D10868122805D11B480C
:100E7000006840F48000C3F80403174B10689842E0
:100E800020D1144B0868984202D00868112819D163
:100E90001248006840F40000104B18600D4B0868C1
:100EA00098420FD10E4800680E4BB0FBF3F000EBF8
:100EB00080004000009002E00098401E00900098E2
:100EC0000028F9D100BF002082F83C0000BF00BF1D
:100ED0003AE7000012000010002001400423014006
:100EE0000000022040420F0070477047704700002A
:100EF00070B5044600250CB9012070BD1549A06AE3
:100F0000884200D000BF206C30B90020606484F8B3
:100F10003C00204600F020F8206C00F0100088B95A
:100F2000206C20F4885040F0020020642046FFF737
:100F3000C7FC00206064206C20F0020040F001003B
:100F4000206400E0012500BF002084F83C0000BFC1
:100F50002846D2E70100000F70470000F8B50446AC
:100F60000D4616460020009000BF94F83C00012872
:100F700001D10220F8BD012084F83C0000BF2068A8
:100F8000806800F00100A0B92068806840F001008E
:100F9000216888603C4800683C49B0FBF1F000EBF8
:100FA0004000009002E00098401E00900098002849
:100FB000F9D12068806800F00100002862D0206C20
:100FC00040F20161884340F48070206420684068EA
:100FD00000F4806028B1206C20F4005040F4805070
:100FE0002064206C00F4805020B1606C20F006007A
:100FF000606401E00020606400BF002084F83C00D1
:1010000000BF2348A16BC8632248A16B0864224833
:10101000A16BC8646FF022002168086020684068F6
:1010200040F08060216848602068806840F48070EB
:1010300021688860226802F14C0133462A46A06B81
:1010400000F0D7F81548006800F01F0058B9206874
:10105000806800F0405028B92068806840F08040E7
:10106000216888600EE00E49206888420AD1206815
:10107000806800F0405028B92068806840F08040C7
:1010800021688860002075E70000022040420F00C0
:101090002B080008B3080008990800080423014041
:1010A000002001402DE9F0410446002500F00AFA35
:1010B000074614B90120BDE8F081606A00B100BFA5
:1010C00000BF002084F8340000BF022084F83500FF
:1010D0002068006820F00100216808600AE000F044
:1010E000F1F9C01B052805D920206065032084F88C
:1010F0003500E0E72068006800F001000028EED12C
:101100002068056820480540D4E901010843E168EA
:1011100008432169084361690843A1690843E169FB
:101120000843216A08430543606A042803D1D4E9CF
:101130000B0108430543206805602068456925F0D8
:101140000705606A0543606A04280BD1A06A05435D
:101150002046FFF77BFD28B140206065012084F820
:101160003500A8E7206845612046FFF755FD064693
:1011700094F85C103F208840B0600020606501203A
:1011800084F83500002096E73F8010E02DE9F0411B
:1011900004460D4616461F464FF0000800BF94F85F
:1011A0003400012802D10220BDE8F081012084F83A
:1011B000340000BF94F83500012811D1022084F8D2
:1011C0003500002060653B46324629462046FFF741
:1011D0009AFD2068006840F001002168086006E080
:1011E00000BF002084F8340000BF4FF002084046E2
:1011F000DAE72DE9F04704460D4616461F464FF044
:101200000008D4F8589000BF94F83400012802D1A7
:101210000220BDE8F087012084F8340000BF94F874
:10122000350001282BD1022084F8350000206065AC
:101230003B46324629462046FFF765FD94F85C1090
:101240003F208840C9F808002068006840F0160078
:10125000216808602068406940F08000216848618A
:10126000206C28B12068006840F008002168086000
:101270002068006840F001002168086006E000BFB7
:10128000002084F8340000BF4FF002084046C0E759
:10129000F8B502460B46002100250024002000BFBF
:1012A000E4E0012606FA01F51E6806EA0504AC42F0
:1012B00071D15E68022E02D05E68122E13D1CF0863
:1012C00002F1200656F827004E07F70E0F26BE4003
:1012D000B0434F07FF0E1E69BE403043CF0802F1F6
:1012E000200646F8270010684F000326BE40B04392
:1012F0001E7906F003064F00BE40304310605E6862
:10130000012E08D05E68022E05D05E68112E02D034
:101310005E68122E13D190684F000326BE40B04382
:101320004F00DE68BE4030439060506801268E401A
:10133000B0431E79C6F300168E4030435060D0682B
:101340004F000326BE40B0434F009E68BE4030436E
:10135000D0605E6806F08056B6F1805FA8D100BF0D
:10136000444E366846F48046424F3E603E463668FC
:1013700006F48046009600BF00BF3F4E8F0856F827
:1013800027008E07370F0F26BE40B0433B4EB242B8
:1013900002D100262EE068E0394EB24201D101268A
:1013A00028E0384EB24201D1022623E0364EB24246
:1013B00001D103261EE0354EB24201D1042619E0C8
:1013C000334EB24201D1052614E0324EB24201D171
:1013D00006260FE0304EB24201D107260AE02F4E1A
:1013E000B24201D1082605E02D4EB24201D10926B4
:1013F00000E00A268F073F0FBE4030431E4E8F0885
:1014000046F82700274E3068A0435E6806F4803611
:10141000B6F5803F00D12043224E3060361D306843
:10142000A0435E6806F40036B6F5003F00D12043C5
:101430001C4E361D3060361D3068A0435E6806F4D1
:101440008016B6F5801F00D12043164E0836306056
:10145000361D3068A0435E6806F40016B6F5001F1E
:1014600000D120430F4E0C363060491C1029FFF488
:1014700018AFF8BD4438024008380140000002406F
:101480000004024000080240000C0240001002402C
:101490000014024000180240001C024000200240DC
:1014A00000240240003C0140024613690B400BB18E
:1014B000012000E0002070470AB1816101E00B04C7
:1014C00083617047044840680449B0FBF1F04FF471
:1014D0007A71484370470000001000E000E6DF0C1E
:1014E00001460848006840F08070064A10600020FD
:1014F000054A50601046006840F00100106000206E
:1015000070470000FCED00E0001000E000BF00F0BC
:101510001F02012191404209920002F1E022C2F82B
:10152000001100BF70472DE9F05F80460D4616465A
:10153000002701F0E5FA074639462A46334601F00E
:101540000700C0F1070ABAF1040F02D94FF0040AEC
:1015500001E0C0F1070AD14600F1040ABAF1070F11
:1015600002D24FF0000A01E0A0F1030AD4464FF086
:10157000010A0AFA09FAAAF1010A0AEA020A0AFAAF
:101580000CFA4FF0010B0BFA0CFBABF1010B0BEA61
:10159000030B4AEA0B042146404601F0B9FABDE8C4
:1015A000F09F000038B5002400BF2048006840F0DC
:1015B00080501E4908600846006800F08050009086
:1015C00000BF00BF1A48006840F480301849086026
:1015D000FFF778FF044607E0FFF774FF001BB0F544
:1015E0007A7F01D9032038BD1148406800F480306B
:1015F000B0F5803FF0D10E48006840F400300C494F
:101600000860FFF75FFF044607E0FFF75BFF001B82
:10161000B0F57A7F01D90320E5E70548406800F47A
:101620000030B0F5003FF0D10020DCE74038024048
:10163000007000402DE9F8430446002600250027ED
:10164000A846A946207800F0010088B100BFFE48F6
:10165000006820F40000FC49086008460068616BDF
:101660000843F949086000BF606B08B94FF00108F2
:10167000206800F40020B0F5002F13D1F248843028
:10168000006820F44010E16B0843EF4984310860A2
:10169000E06BB0F5801F01D14FF00108E06B08B995
:1016A0004FF00109206800F48010B0F5801F13D1BD
:1016B000E5488430006820F44000216C0843E2498A
:1016C00084310860206CB0F5800F01D14FF0010823
:1016D000206C08B94FF00109206800F08070B0F16B
:1016E000807F01D14FF00108207800F020002028F1
:1016F00070D100BFD4483830006840F08050D249E3
:10170000383108600846006800F08050009000BF43
:1017100000BFCE48006840F48070CC490860FFF7F5
:10172000D1FE064607E0FFF7CDFE801B642802D9F4
:101730000320BDE8F883C548006800F480700028E5
:10174000F1D0C1486830006800F4407585B3208E40
:1017500000F44070A8422BD0BB486830006820F4E9
:101760004075B9486830006840F48030B649683147
:1017700008600846006820F480300860084605606C
:10178000006800F0010098B1FFF79CFE064608E0F3
:10179000FFF798FE801B41F28831884201D903206F
:1017A000C7E7A94868300068C0F340000028EFD0C0
:1017B00000BF208E00F44070B0F5407F0BD1A248EE
:1017C000006820F4F810A24A216B114008439E499A
:1017D000086006E010E09C48006820F4F8109A4980
:1017E0000860994868300068218EC1F30B010843F6
:1017F00095496831086000BF207800F0100010287B
:1018000010D100BF90488430006820F080708E496D
:101810008431086008460068A16B08438A49843116
:10182000086000BF208800F48040B0F5804F09D1E7
:1018300085488830006820F44030616E0843824952
:1018400088310860208800F40040B0F5004F09D1CD
:101850007D488830006820F44020A16E08437A4912
:1018600088310860206800F48030B0F5803F09D1ED
:1018700075488830006820F44010E16E08437249D2
:1018800088310860206800F40030B0F5003F09D1CD
:101890006D488830006820F44000216F08436A4991
:1018A00088310860207800F04000402809D166485F
:1018B0008830006820F00300616C08436249883179
:1018C0000860207800F08000802809D15E488830C8
:1018D000006820F00C00A16C08435B498831086067
:1018E000208800F48070B0F5807F09D15648883098
:1018F000006820F03000E16C0843534988310860EB
:10190000208800F40070B0F5007F09D14E4888307F
:10191000006820F0C000216D08434B498831086001
:10192000208800F48060B0F5806F09D14648883087
:10193000006820F44070616D0843434988310860B5
:10194000208800F40060B0F5006F09D13E4888306F
:10195000006820F44060A16D08433B49883108606D
:10196000208800F48050B0F5805F09D13648883077
:10197000006820F44050E16D084333498831086025
:10198000208800F40050B0F5005F09D12E4888305F
:10199000006820F44040216E08432B4988310860DC
:1019A000206800F48000B0F5800F09D12648883007
:1019B000006820F08060A16F0843234988310860E7
:1019C000206800F40010B0F5001F0FD11E488830C9
:1019D000006820F00060E16F08431B49883108600F
:1019E000E06FB0F1006F01D14FF00109207800F0F5
:1019F0000800082801D14FF00109206800F4802078
:101A0000B0F5802F09D110488830006820F0407070
:101A1000616F08430C4988310860206800F40000B9
:101A2000B0F5000F0AD108488830006820F08050D7
:101A3000D4F880100843044988310860206800F019
:101A40008060B0F1806F05E008380240007000400F
:101A5000FFFCFF0F08D1FE48006820F00050D4F8CA
:101A600084100843FA490860206800F00060B0F173
:101A7000006F0AD1F648001F006820F00070D4F80B
:101A800088100843F249091F0860206800F0805060
:101A9000B0F1805F0AD1EE48001F006820F080603E
:101AA000D4F88C100843EA49091F0860B8F1010F07
:101AB00003D02068B0F1007F7DD1E5489038006800
:101AC00020F08060E24990390860FFF7FBFC064691
:101AD00006E0FFF7F7FC801B642801D9032028E605
:101AE000DB4890380068C0F3C0600028F1D120784E
:101AF00000F00100F0B3606BE0BBD5480C38006823
:101B000000F440304FF4403191FAA1F1B1FA81F183
:101B100020FA01F5CE480C38006800F070604FF0F4
:101B2000706191FAA1F1B1FA81F120FA01F747F65B
:101B3000C07191FAA1F1B1FA81F1606888404FF467
:101B4000403191FAA1F1B1FA81F105FA01F10843AE
:101B50004FF0706191FAA1F1B1FA81F107FA01F148
:101B600008434FF0E04292FAA2F2B2FA82F2A16880
:101B7000914000E003E00843B5490C390860206853
:101B800000F40020B0F5002F03D1E06BB0F5801F0A
:101B900009D0206800F48010B0F5801F50D1206C6F
:101BA000B0F5800F4CD1AA480C38006800F44030E2
:101BB0004FF4403100E0CFE091FAA1F1B1FA81F1A8
:101BC00020FA01F5A2480C38006800F0E0404FF020
:101BD000E04191FAA1F1B1FA81F120FA01F747F65B
:101BE000C07191FAA1F1B1FA81F1606888404FF4B7
:101BF000403191FAA1F1B1FA81F105FA01F10843FE
:101C00004FF0706292FAA2F2B2FA82F2E168914069
:101C100008434FF0E04191FAA1F1B1FA81F107FADE
:101C200001F108438A490C3908608948001F00689F
:101C300020F01F00616A491E08438549091F08609A
:101C4000206800F08070B0F1807F3FD180480C3870
:101C5000006800F070604FF0706191FAA1F1B1FA84
:101C600081F120FA01F57A480C38006800F0E04074
:101C70004FF0E04191FAA1F1B1FA81F120FA01F7B8
:101C800047F6C07191FAA1F1B1FA81F1606888401C
:101C90004FF4403292FAA2F2B2FA82F221699140F4
:101CA00008434FF0706191FAA1F1B1FA81F105FAA0
:101CB00001F108434FF0E04191FAA1F1B1FA81F14D
:101CC00007FA01F1084362490C390860206800F006
:101CD0000070B0F1007F25D147F6C07191FAA1F1F3
:101CE000B1FA81F1606888404FF4403292FAA2F272
:101CF000B2FA82F22169914008434FF0706292FA81
:101D0000A2F2B2FA82F2E168914008434FF0E04259
:101D100092FAA2F2B2FA82F2A168914008434C49C9
:101D20000C3908604A489038006840F080604849A3
:101D300090390860FFF7C6FB064606E0FFF7C2FBD6
:101D4000801B642801D90320F3E4414890380068DF
:101D5000C0F3C0600028F1D0B9F1010F69D13C484F
:101D60009038006820F08050394990390860FFF7BA
:101D7000A9FB064606E0FFF7A5FB801B642801D9F6
:101D80000320D6E4324890380068C0F34070002841
:101D9000F1D1206800F40020B0F5002F01D1E06BF4
:101DA00038B1206800F48010B0F5801F4FD1206C4E
:101DB000F0BB27480838006800F440304FF4403149
:101DC00091FAA1F1B1FA81F120FA01F52048083821
:101DD000006800F0E0404FF0E04191FAA1F1B1FA63
:101DE00081F120FA01F747F6C07191FAA1F1B1FA39
:101DF00081F1606988404FF4403191FAA1F1B1FA64
:101E000081F105FA01F108434FF0706292FAA2F2F3
:101E1000B2FA82F2A169914008434FF0E04191FA91
:101E2000A1F1B1FA81F107FA01F10843084901E093
:101E30000DE0BBE008390860081D006820F4F85187
:101E4000A06A401E41EA00200149091F086001E024
:101E500090380240206800F40010B0F5001F40D117
:101E6000E06FB0F1006F3CD15148006800F0706045
:101E70004FF0706191FAA1F1B1FA81F120FA01F508
:101E80004B48006800F0E0404FF0E04191FAA1F1CA
:101E9000B1FA81F120FA01F747F6C07191FAA1F188
:101EA000B1FA81F1606988404FF4403292FAA2F2AF
:101EB000B2FA82F2216A914008434FF0706191FAC0
:101EC000A1F1B1FA81F105FA01F108434FF0E041C7
:101ED00091FAA1F1B1FA81F107FA01F1084334490D
:101EE0000860207800F00800082845D130480068D4
:101EF00000F070604FF0706191FAA1F1B1FA81F1D8
:101F000020FA01F52A48006800F440304FF44031CF
:101F100091FAA1F1B1FA81F120FA01F747F6C07107
:101F200091FAA1F1B1FA81F1606988404FF4403132
:101F300091FAA1F1B1FA81F107FA01F108434FF0EA
:101F4000706191FAA1F1B1FA81F105FA01F108434A
:101F50004FF0E04292FAA2F2B2FA82F2E1699140C5
:101F6000084313490860081D006820F44030E16A06
:101F700008430F49091D08600D488838006840F083
:101F800080500B4988390860FFF79CFA064606E046
:101F9000FFF798FA801B642801D903209FE50448C5
:101FA00088380068C0F340700028F1D0002096E522
:101FB0008838024070B504460D4600266648006821
:101FC00000F00F00A8420ED26348006820F00F0016
:101FD0002843614908600846006800F00F00A842E5
:101FE00001D0012070BD207800F00200022807D146
:101FF0005A48006820F0F000A1680843574908607B
:10200000207800F00100002860D06068012807D126
:10201000524808380068C0F34040A0B90120E1E709
:102020006068022807D14D4808380068C0F3406056
:1020300048B90120D6E7494808380068C0F3400095
:1020400008B90120CEE74548006820F00300616828
:10205000084342490860FFF735FA064660680128E0
:1020600010D108E0FFF72EFA801B41F28831884238
:1020700001D90320B6E73948006800F00C000428B5
:10208000F0D123E06068022810D108E0FFF71AFAC7
:10209000801B41F28831884201D90320A2E72F48F2
:1020A000006800F00C000828F0D10FE008E0FFF70E
:1020B00009FA801B41F28831884201D9032091E757
:1020C0002648006800F00C000028F0D12248006883
:1020D00000F00F00A8420ED91F48006820F00F0042
:1020E00028431D4908600846006800F00F00A84218
:1020F00001D0012076E7207800F00400042807D101
:102100001648006820F4E050E1680843134908606D
:10211000207800F00800082808D11048006820F452
:102120006040216940EAC1000C49086000F04EF8A7
:102130000A49096801F0F001F02292FAA2F2B2FA1B
:1021400082F2D140064A515CC840064908600F201F
:10215000FFF7C6F9002045E7003C0240083802407E
:102160006850000800000220014800687047000025
:102170000000022000B5FFF7F7FF0749096801F4E6
:10218000E0514FF4E05292FAA2F2B2FA82F2D14058
:10219000024A515CC84000BD08380240785000082F
:1021A00000B5FFF7E1FF0749096801F460414FF40A
:1021B000604292FAA2F2B2FA82F2D140024A515C33
:1021C000C84000BD083802407850000870B50021B2
:1021D000002200230020274C246804F00C0424B1C2
:1021E000042C04D0082C41D103E0234840E02348CC
:1021F0003EE0204C241F246804F03F011D4C241FA6
:10220000246804F4800484B11C4CB4FBF1F5194C2F
:10221000241F246847F6C076344096FAA6F6B6FA2C
:1022200086F6F44005FB04F20FE0134CB4FBF1F525
:10223000104C241F246847F6C076344096FAA6F660
:10224000B6FA86F6F44005FB04F20A4C241F246813
:1022500004F440344FF4403595FAA5F5B5FA85F508
:10226000EC40641C6300B2FBF3F001E0024800BFE5
:1022700000BF70BD083802400024F40040787D01A2
:1022800038B504460025207800F00100002871D000
:10229000FE48006800F00C0004280DD0FB480068E0
:1022A00000F00C00082813D1F848001F006800F463
:1022B0008000B0F5800F0BD1F44808380068C0F3F7
:1022C0004040002869D06068002866D1012038BDF0
:1022D00000BF6068B0F5803F08D1EC48083800685E
:1022E00040F48030E949083908602EE0606868B938
:1022F000E6480838006820F48030E449083908606E
:102300000846006820F4802008601EE06068B0F590
:10231000A02F0DD1DD480838006840F48020DB494B
:10232000083908600846006840F4803008600CE016
:10233000D6480838006820F48030D449083908604D
:102340000846006820F48020086000BF606890B1F3
:10235000FFF7B8F8054606E0FFF7B4F8401B64281D
:1023600001D90320B3E7C94808380068C0F34040EA
:102370000028F1D011E0FFF7A5F8054606E0FFF7C9
:10238000A1F8401B642801D90320A0E7BF48083802
:102390000068C0F340400028F1D1207800F002002E
:1023A000022873D1B948006800F00C0058B1B74852
:1023B000006800F00C00082821D1B448001F006814
:1023C00000F48000D8B9B14808380068C0F3400074
:1023D00020B1E068012801D0012078E7AB48083837
:1023E000006820F0F800F82292FAA2F2B2FA82F223
:1023F000216991400843A5490839086046E0E06832
:1024000050B3A2480838006840F001009F490839DD
:102410000860FFF757F8054606E0FFF753F8401B42
:10242000022801D9032052E7984808380068C0F311
:1024300040000028F1D095480838006820F0F800E6
:10244000F82292FAA2F2B2FA82F22169914008438C
:102450008E490839086019E08C480838006820F077
:1024600001008A4908390860FFF72CF8054606E0A4
:10247000FFF728F8401B022801D9032027E78348EB
:1024800008380068C0F340000028F1D1207800F03F
:102490000800082836D16069D0B17C486C300068EB
:1024A00040F0010079496C310860FFF70BF80546F0
:1024B00006E0FFF707F8401B022801D9032006E7D2
:1024C00072486C300068C0F340000028F1D019E079
:1024D0006E486C30006820F001006C496C31086077
:1024E000FEF7F0FF054606E0FEF7ECFF401B022872
:1024F00001D90320EBE665486C300068C0F340006A
:102500000028F1D1207800F00400042871D100BF28
:102510005E483830006840F080505C4938310860CF
:102520000846006800F08050009000BF00BF584887
:10253000006840F4807056490860FEF7C3FF054606
:1025400006E0FEF7BFFF401B642801D90320BEE66A
:102550004F48006800F480700028F2D000BFA068E7
:10256000012808D149486830006840F00100474917
:10257000683108602DE0A06868B944486830006898
:1025800020F001004149683108600846006820F0E9
:10259000040008601DE0A06805280DD13B486830A4
:1025A000006840F004003949683108600846006856
:1025B00040F0010008600CE034486830006820F00A
:1025C00001003249683108600846006820F00400C4
:1025D000086000BFA068A8B1FEF774FF054609E0D7
:1025E000FEF770FF401B41F28831884202D9032078
:1025F0006DE61BE0254868300068C0F34000002805
:10260000EED013E0FEF75EFF054608E0FEF75AFF46
:10261000401B41F28831884201D9032057E61B480C
:1026200068300068C0F340000028EFD1A06988B38B
:102630001648006800F00C00082873D0A069022832
:1026400064D112480838006820F080700F490839BA
:102650000860FEF737FF054606E0FEF733FF401B34
:10266000022801D9032032E6084808380068C0F380
:1026700040600028F1D1D4E90701084347F6C07251
:1026800092FAA2F2B2FA82F2616A04E008380240D9
:102690000070004058E0914008430122A16AC2EB5B
:1026A00051014FF4403292FAA2F2B2FA82F2914012
:1026B00008434FF0706292FAA2F2B2FA82F2E16A33
:1026C000914008434FF0E04292FAA2F2B2FA82F24D
:1026D000216B914008431D490860081F006840F0C5
:1026E0008070091F0860FEF7EDFE054606E0FEF764
:1026F000E9FE401B022801D90320E8E51348001F2A
:102700000068C0F340600028F1D01DE00F48001FB2
:10271000006820F080700D49091F0860FEF7D2FEA6
:10272000054607E00EE0FEF7CDFE401B022801D96A
:102730000320CCE50548001F0068C0F34060002876
:10274000F1D101E00120C2E50020C0E504380240DB
:1027500070B504462546681EB0F1807F01D3012084
:102760000FE0681E4FF0E02148610F214FF0FF306D
:1027700000F0CEF900204FF0E021886107200861C9
:10278000002070BD10B504460CB9012010BDA06931
:1027900000B100E000BF94F8690028B9002084F877
:1027A0006800204600F02AF8242084F86900206898
:1027B000006820F0010021680860204600F058FC05
:1027C000012800D1E2E7606A10B1204600F0A0FBCA
:1027D0002068406820F49040216848602068806844
:1027E00020F02A00216888602068006840F001001D
:1027F00021680860204600F000FCC7E770472DE91B
:10280000F84304460D4616461F464FF0000994F85B
:102810006900202854D105B116B90120BDE8F8831C
:1028200000BF94F86800012801D10220F6E70120DA
:1028300084F8680000BF00205034E06121206076F9
:10284000FEF740FE814626806680503C21E0B4F8C9
:102850005200401EA4F852004B4600228021204620
:10286000009700F0CBFD08B10320D7E7A068B0F5D2
:10287000805F0AD1206940B9A846B8F80000C0F3CB
:10288000080021688862AD1C03E015F8010B21687F
:102890008862B4F852000028D9D14B46002240216A
:1028A0002046009700F0AAFD08B10320B6E72020DB
:1028B00084F8690000BF002084F8680000BFADE71D
:1028C0000220ABE700BFFEE723E00121114800F042
:1028D00091F8012809D110A000F0C8FD1448006843
:1028E00002F0AEF813A000F0C1FD4FF400511848FB
:1028F00000F080F8012809D116A000F0B7FD0C48BF
:10290000006801F0EBFF19A000F0B0FD142001F009
:102910001DFFDAE700000240B9D2C6F054657374B7
:102920005F5461736BC8CECEF1A3A10A0000000012
:1029300008000220B9D2C6F0546573745F54617305
:102940006BC8CECEF1B3C9B9A6A3A10A000000009E
:1029500000080240BBD6B8B4546573745F54617309
:102960006BC8CECEF1A3A10A00000000BBD6B8B45C
:10297000546573745F5461736BC8CECEF1B3C9B93B
:10298000A6A3A10A0000000000B587B000BF16484A
:10299000006840F00100144908600846006800F033
:1029A0000100019000BF00BF00BF0846006840F072
:1029B000040008600846006800F00400019000BFB1
:1029C00000BF0120029000200390049002A9074854
:1029D000FEF75EFC4FF40050029002A90448FEF797
:1029E00057FC07B000BD0000303802400000024034
:1029F0000008024070B504460D4629462046FEF701
:102A000053FD012808D100BF29462046FEF74CFDA2
:102A10000128F9D0012070BD0020FCE700B587B087
:102A200000BF3248006840F0800030490860084626
:102A3000006800F08000019000BF00BF00BF0846A2
:102A4000006840F0800008600846006800F08000E0
:102A5000019000BF00BF00BF0846006840F0800042
:102A600008600846006800F08000019000BF00BFC9
:102A700000BF0846006840F008000860084600688B
:102A800000F00800019000BF00BF0815029001206F
:102A9000039004900320059002A91548FEF7F8FB67
:102AA0004FF40060029002A91148FEF7F1FB4FF4C9
:102AB0008050029002A90E48FEF7EAFB4FF4006036
:102AC000029002A90B48FEF7E3FB4FF4806008492F
:102AD0001831086040000860400008600022411082
:102AE0000448FEF7E9FC07B000BD000030380240A2
:102AF000001C0240000C024000BFFEE770470000CF
:102B000002480068C0F30220704700000CED00E0AE
:102B100010B5002807DA0A07140E054A00F00F0363
:102B20001B1FD45403E00A07130E024A135410BDAE
:102B300018ED00E000E400E000B587B000BF2448D5
:102B4000006840F00400224908600846006800F070
:102B50000400019000BF00BF0820029003200390F2
:102B60000020049002A91B48FEF792FB00BF184802
:102B7000006840F00100164908600846006800F04F
:102B80000100019000BF00BF1020029003200390BD
:102B90000020049002A91048FEF77AFB00BF0C4801
:102BA000006840F001000A4908600846006800F02B
:102BB0000100019000BF00BF40200290032003905D
:102BC0000020049002A90448FEF762FB07B000BD94
:102BD00030380240000802400000024008B500BF43
:102BE0004148006840F480003F490860084600689A
:102BF00000F48000009000BF00BF3C483C490860E2
:102C000000213B488160C1604FF48061016149004F
:102C10004161890081614911C1614902016200215C
:102C20004162012181620021C162016300203049BB
:102C300048600846FEF736FA03232E4A2E492C48F0
:102C4000FEF7A4FA00BF28481430006840F48070F2
:102C50002549143108600846006800F4807000902F
:102C600000BF00BF24484C38244908604FF480302E
:102C700048600021214881600121016181610021BA
:102C800001624162C162C1600321C161012101632E
:102C900000214161FEF72CF90D201949086001203F
:102CA000486000208860C8601448FEF743F804209C
:102CB000134908600220486000208860C8600F48FF
:102CC000FEF738F806200E4908600320486000200F
:102CD0008860C8600948FEF72DF8012205490748B9
:102CE000FEF73CF908BD0000303802401064024095
:102CF000F8000220100002204C2001405801022060
:102D0000A001022010B5FFF717FFFFF767FF10BD06
:102D100010B502F051F8012801D002F001F810BD01
:102D200010B592B000240120009000040190022010
:102D3000069041050791192108914FF4D871099126
:102D400002210A9109210B916846FFF799FA04467E
:102D50000CB100BFFEE7FEF725FC04460CB100BF36
:102D6000FEE70F200D9002200E9000200F904FF4F0
:102D7000A05010904FF48050119007210DA8FFF73C
:102D800019F904460CB100BFFEE712B010BD0000F7
:102D90001448006840F47000124908601248006846
:102DA00040F001001049086000200F490831086018
:102DB0000D4800680D4908400B4908600C48091D82
:102DC0000860081F006820F48020091F08600020A8
:102DD00005490C3108604FF00060024980390860F5
:102DE0007047000088ED00E000380240FFFFF6FE6B
:102DF0001030002459E02D48008800EE100AB8EE8B
:102E0000400ADFED2B0A80EE201A9FED2A0A21EE00
:102E1000000A294880ED000A2448408800EE100A84
:102E2000B8EE400A9FED221AC0EE010A9FED210A7A
:102E300020EE800A204880ED010A1C48808800EEC0
:102E4000100AB8EE400ADFED1A0A80EE201A9FED54
:102E5000190A21EE000A184880ED020A90ED001AC6
:102E6000B7EEC11AB0EE410B53EC102B13A000F0DB
:102E7000FDFA114890ED011AB7EEC11AB0EE410B00
:102E800053EC102B14A000F0F1FA0B4890ED021A4D
:102E9000B7EEC11AB0EE410B53EC102B15A000F0A9
:102EA000E5FA4FF47A7001F051FCA4E7100002201B
:102EB00000008045333353407C0002200D0A20433C
:102EC00048315F5043332076616C7565203D202585
:102ED000662056200D0A00000D0A204348325F503C
:102EE00041342076616C7565203D20256620562092
:102EF0000D0A00000D0A204348335F50413620760A
:102F0000616C7565203D2025662056200D0A000065
:102F100090F8241001F0010139B10168496821F4E9
:102F20000031826A11430268516090F8241001F068
:102F3000020139B10168496821F48031C26A114344
:102F40000268516090F8241001F0040139B1016861
:102F5000496821F48021026B11430268516090F8A6
:102F6000241001F0080139B10168496821F40041D9
:102F7000426B11430268516090F8241001F0100177
:102F800039B10168896821F48051826B114302686C
:102F9000916090F8241001F0200139B1016889682E
:102FA00021F40051C26B11430268916090F8241023
:102FB00001F0400199B10168496821F48011026C67
:102FC000114302685160016CB1F5801F07D101689F
:102FD000496821F4C001426C11430268516090F8C5
:102FE000241001F0800139B10168496821F4002101
:102FF000826C114302685160704738B50446002561
:103000000020E066FEF75EFA05462068006800F0E2
:10301000080008280CD16FF07E402B4600224FF4A8
:1030200000110090204600F0E9F908B1032038BDF6
:103030002068006800F0040004280CD16FF07E4086
:103040002B4600224FF480010090204600F0D6F974
:1030500008B10320EBE7202084F8690084F86A00B7
:1030600000BF002084F8680000BF00BFDFE7000059
:103070002DE9F0470446002510260027A846A9465A
:103080002169A068084361690843E16940EA0105D4
:1030900020680068CD4908402843216808602068FE
:1030A000406820F44050E168084321684860216A84
:1030B000A06940EA01052068806820F43060284358
:1030C0002168886000BFC2492068884215D1C14884
:1030D000006800F0030030B1012808D0022804D0B5
:1030E000032808D105E0012606E0022604E00426B4
:1030F00002E0082600E000BFC1E0B749206888422E
:1031000015D1B448006800F00C0030B1042808D094
:10311000082804D00C2808D105E0002606E0022685
:1031200004E0042602E0082600E000BFA7E0AB4967
:103130002068884215D1A748006800F0300030B1FF
:10314000102808D0202804D0302808D105E0002617
:1031500006E0022604E0042602E0082600E000BFA4
:103160008DE09F492068884215D19A48006800F098
:10317000C00030B1402808D0802804D0C02808D131
:1031800005E0002606E0022604E0042602E0082608
:1031900000E000BF73E093492068884218D18D4851
:1031A000006800F4407048B1B0F5807F0AD0B0F5F7
:1031B000007F05D0B0F5407F08D105E0002606E08D
:1031C000022604E0042602E0082600E000BF56E0E4
:1031D00085492068884218D17E48006800F4406024
:1031E00048B1B0F5806F0AD0B0F5006F05D0B0F5EA
:1031F000406F08D105E0012606E0022604E004261F
:1032000002E0082600E000BF39E0784920688842E3
:1032100018D17048006800F4405048B1B0F5805FA4
:103220000AD0B0F5005F05D0B0F5405F08D105E0E9
:10323000002606E0022604E0042602E0082600E05C
:1032400000BF1CE06A492068884218D161480068C4
:1032500000F4404048B1B0F5804F0AD0B0F5004FBF
:1032600005D0B0F5404F08D105E0002606E0022663
:1032700004E0042602E0082600E000BF00BF00BF13
:10328000E069B0F5004F52D1042E2BD005DC4EB1D1
:10329000012E12D0022E3BD11AE0082E2DD0102E76
:1032A00036D136E0FEF766FF4000616800EB510062
:1032B000B0FBF1F01FFA80F82EE0FEF771FF40003E
:1032C000616800EB5100B0FBF1F01FFA80F823E0D9
:1032D0004849606801EB50006168B0FBF1F01FFAEB
:1032E00080F819E0FEF772FF4000616800EB5100C2
:1032F000B0FBF1F01FFA80F80EE04FF48031606807
:1033000001EB50006168B0FBF1F01FFA80F803E0B8
:1033100000BF4FF0010900BF00BF4FF6F07008EA90
:103320000007C8F3420007432068C7604AE0042E44
:103330002CD005DC4EB1012E12D0022E3DD11AE068
:10334000082E2ED0102E38D138E0FEF713FF61681A
:1033500000EB5100B0FBF1F080B22168C86030E0B2
:10336000FEF71EFF616800EB5100B0FBF1F080B288
:103370002168C86025E02049606801EB5000616861
:10338000B0FBF1F080B22168C8601AE0FEF71EFFC2
:10339000616800EB5100B0FBF1F080B22168C860B9
:1033A0000FE04FF40041606801EB50006168B0FB32
:1033B000F1F080B22168C86003E000BF4FF001095E
:1033C00000BF00BF4846BDE8F0870000F369FFEF8B
:1033D0000010014090380240004400400048004086
:1033E000004C0040005000400014014000780040B4
:1033F000007C00400048E8010024F4002DE9F04181
:1034000004460D4617469846069E21E0701CF8B10A
:103410002EB1FEF757F8A0EB0800B04218D3206891
:10342000006820F4D070216808602068806820F06F
:10343000010021688860202084F8690084F86A000F
:1034400000BF002084F8680000BF0320BDE8F081C1
:103450002068C0692840A84201D1012000E0002076
:10346000B842D3D00020F1E700BFFEE70FB4054B10
:1034700010B503A9044A029800F0DAF810BC5DF810
:1034800014FB0000613D00087800022002E008C83B
:10349000121F08C1002AFAD170477047002001E0CE
:1034A00001C1121F002AFBD1704700002DE9FF5F08
:1034B00082B00021DDE90430020DDDF840B00343A5
:1034C00018D044F61050A2F2FF324243151411985E
:1034D00001281FD0A5EB0B00401C5FEA000A4FF04B
:1034E00000064E4FDFF83891B046504615D5CAF168
:1034F000000413E0119801244AA3012801D16FEAC6
:103500000B010298119AC0E90031C0E9024206B0ED
:10351000BDE8F09FCBF10000DFE704460021404A00
:10352000491842EB0450CDE9001012E0E00707D043
:1035300032463B4640464946FCF7E5FF8046894611
:1035400032463B4610461946FCF7DDFF06460F465D
:103550006410002CEAD1DDE90401DDE90023BAF1B1
:10356000000F06DAFCF7CFFF42464B46FCF7CBFFD5
:1035700005E0FDF73AF842464B46FDF736F80446BB
:103580000E460022284BFDF7B7F803D84FF0FF3066
:10359000014607E00022254B20463146FCF70CFF90
:1035A000FDF792F8102409E0002C0ADB0A22002320
:1035B000FCF79CFE039B30321A55641E50EA010250
:1035C000F2D1641C039AC4F111031444119A012A24
:1035D00003D0012208430DD10AE0084304D00020A3
:1035E0004FF0110B119072E7A3EB0B056D1E0DE070
:1035F0005B4504DD4FF0000205F1010504E003DA4C
:103600004FF00002A5F10105002AECD002981199B3
:10361000C0E90231C0E9004579E70000000014402C
:103620000000F03F300000000000F0430000E03FE9
:103630002DE9FF4F95B09B468946064600250FE2CF
:10364000252877D100242746F84A0121059400E077
:10365000044316F8013F203B01FA03F01042F7D172
:1036600030782A2811D06FF02F033078A0F1300283
:10367000092A16D8059A44F0020402EB820203EBF1
:1036800042021044761C0590EFE759F8042B05928E
:10369000002A03DA504244F40054059044F0020436
:1036A000761C30782E2816D116F8010F44F0040449
:1036B0002A280DD06FF02F023078A0F13003092BAB
:1036C00009D807EB870302EB4303C718761CF3E71F
:1036D00059F8047B761C30786C280FD006DC4C2817
:1036E00017D068280DD06A2814D104E0742810D0AF
:1036F0007A280FD10DE044F400140AE044F4801459
:1037000001E044F440147278824202D104F580143E
:10371000761C761C307866280BD013DC582877D0BE
:1037200009DC002875D04528F6D04628F4D0472873
:103730001AD19DE118E0632835D0642879D0652836
:1037400012D195E1702873D008DC6728F1D0692880
:103750006FD06E280DD06F2806D1B5E073282CD01D
:10376000752875D0782874D05A46179990476D1CE3
:1037700075E1C4F30250022809D003280DD0D9F80E
:10378000001004280DD00D6009F1040967E1D9F893
:103790000010EA17C1E90052F6E7D9F800100D80D1
:1037A000F2E70D70F0E719F8041B8DF80010002007
:1037B0008DF80100EA46012003E059F804AB4FF010
:1037C000FF3061074FF0000102D40DE008F1010164
:1037D0008846B9420FDA8045F8DB1AF8081000294C
:1037E000F4D108E008F1010188468142FADB1AF8B9
:1037F00008100029F6D105985B46A0EB0807214682
:103800003846179A00F094FA284400EB080507E0C0
:103810004DE029E10DE01AF8010B5A46179990473F
:10382000B8F10108F7D25B4621463846179A13E1F2
:1038300042E00A220092C4F302524FF0000A022A28
:1038400008D059F804CB032A4FEAEC710AD00DE0F6
:1038500029E02AE009F1070121F00702F2E802C19C
:10386000914609E00FFA8CFC4FEAEC71042A03D16F
:103870004FFA8CFC4FEAEC71002907DA0A46002166
:10388000DCF1000C61EB02012D2202E0220504D5DF
:103890002B228DF80420012203E0E20701D0202230
:1038A000F7E7904659E00A2102E010220DE01021CE
:1038B0004FF0000A00910BE010224FF0000A44F094
:1038C00004040827009203E008224FF0000A009247
:1038D000C4F30252022A05D059F804CB0021032A6E
:1038E00008D009E009F1070121F00702F2E802C15E
:1038F000914605E01FFA8CFC042A01D10CF0FF0C64
:103900004FF00008220728D5702806D0009B83F0CE
:10391000100353EA0A0305D00EE040228DF804207C
:10392000012208E05CEA010206D030228DF8042072
:103930008DF8050002229046009B83F0080353EAAD
:103940000A030AD15CEA010201D1620705D53022DF
:103950008DF804204FF001087F1E582804D034A0B1
:1039600003900EA802900DE036A0F9E7534660469A
:10397000009AFCF7BBFC84460398825C0298401EC8
:10398000029002705CEA0100F0D1029806A9081AC0
:1039900000F1200A600702D524F4803400E00127FA
:1039A000574502DDA7EB0A0000E0002000EB0A010A
:1039B000009005984144401A0590E00306D45B4608
:1039C0002146179A059800F0B3F90544002706E050
:1039D00001A85A46C05D179990476D1C7F1C47454A
:1039E000F6DBE0030CD55B462146179A059800F0FC
:1039F0009FF9054404E030205A46179990476D1C02
:103A00000099481E00900029F5DC08E00298029910
:103A10005A460078491C0291179990476D1CBAF1DB
:103A20000001AAF1010AF1DC65E1000009280100AA
:103A30003031323334353637383961626364656624
:103A400000000000303132333435363738394142E6
:103A5000434445460000000000F058F90544761C38
:103A6000307800287FF4ECAD19B02846BDE8F08F1F
:103A7000620700D4062709F1070222F0070CFCE8D0
:103A80000223E14603F000485FEA080C02D00FF27F
:103A9000702C0DE05FEA045C02D50FF2682C07E0A1
:103AA0005FEAC47C02D00FF2602C01E0AFF2700C30
:103AB0004FF0FF3823F00043CDF850C065280CD0FC
:103AC00006DC452809D046281DD047283DD13DE0D9
:103AD000662818D067287ED138E00021112F01DB3D
:103AE000112000E0781CCDE9000106A90EA8FFF71F
:103AF000DDFCDDE90F010E9A03910021009207F130
:103B0000010A04914DE04FF000400097CDE901100B
:103B100006A90EA8FFF7CAFCDDE90F0203920E9B6F
:103B200011990022DDF80CA00093049211B9791CC0
:103B300000EB010AB7EB0A0004D4C0F1FF3007F133
:103B4000010A0490AAEB0700019044E0012F00DA7B
:103B500001270021112F01DD112000E03846CDE9B9
:103B6000000106A90EA8FFF7A1FCDDE90F010E9ADE
:103B70000391002104910092BA4621070CD40399C5
:103B8000514500DA8A46BAF1010F05DD009AAAF123
:103B90000101515C302908D0B84202DA10F1040F5B
:103BA00006DA0121CDE9011015E0AAF10101E9E7EA
:103BB000002805DC049901440491AAEB000102E00D
:103BC000411C514500DD8A460499401A401C019071
:103BD0004FF000400290200704D40198504501DBCB
:103BE000CDF8048000208DF84F0002980DF14F07AA
:103BF000B0F1004F25D02B200E9002984FF0020814
:103C000000280CDA404202902D200E9007E00A2195
:103C10000298FCF79CFB3031029007F8011DB8F1C7
:103C20000001A8F10108F2DC02980028EFD1791E0A
:103C30000E980870307800F0200040F0450007F83A
:103C4000020D12A8C01B00F107081498007800B1FB
:103C5000012000EB0A01019801EBE0710598414455
:103C6000401A401E0590E00306D45B462146179A91
:103C7000059800F05DF805441498007818B15A468C
:103C8000179990476D1CE00324D55B462146179A8F
:103C9000059800F04DF805441CE00498002807DB67
:103CA000DDE90301884203DD0098405C179901E0DB
:103CB000179930205A469047049805F10105401C99
:103CC00004900198401E019004D12E205A46179965
:103CD00090476D1CBAF10001AAF1010ADDDC05E094
:103CE00017F8010B5A46179990476D1CB8F100015F
:103CF000A8F10108F4DC5B462146179A0598ABE66B
:103D00002D0000002B000000200000002DE9F041F4
:103D1000044600251E461746880404D405E03946AB
:103D20002020B0476D1C641EF9D52846BDE8F081FF
:103D30002DE9F041044600251E469046C80301D5F2
:103D4000302700E02027880404D505E041463846A6
:103D5000B0476D1C641EF9D52846BDE8F08100000F
:103D600013B50C464FF47A73012269460248FEF7F8
:103D700046FD00981CBD0000880002201CB50124EF
:103D8000FCF7B6FE0DA0FFF771FB1AA0FFF76EFB64
:103D90002148012100234A02CDE900101FA1234838
:103DA00000F0DAFF0446012C02D100F0F1FD02E040
:103DB0004FF0FF301CBD00BFFEE70000D5E2CAC7D0
:103DC000D2BBB8F65BD2B0BBF05D2D53544D33324D
:103DD000C8ABCFB5C1D0BFAAB7A2B0E52D467265BA
:103DE0006552544F53B9CCBCFEBFE2C0FDB3CCA367
:103DF000A10A0A00B0B4CFC24B455931B9D2C6F0BE
:103E0000C8CECEF1A3ACB0B4CFC24B455932BBD66D
:103E1000B8B4C8CECEF10A0004000220417070543C
:103E200061736B437265617465000000390A0008B4
:103E30002DE9F04105460E461C4807681C480068FD
:103E4000001D00F04BFB50B91948006890F82C1089
:103E50000120884017490968814316480160681CA1
:103E600038B936B112480168091D134800F074FBD7
:103E70001AE07C190E4800684460BC4207D20C4826
:103E80000168091D0D48006800F04CFB0CE0084873
:103E90000168091D0A48006800F044FB09480068F1
:103EA000844201D207480460BDE8F0812C00022062
:103EB000180002203000022080040220200002208E
:103EC0001C0002204800022010B5044600F050FB00
:103ED00023480068401C224908602248006840B915
:103EE000204804600846006801280DD100F038F928
:103EF0000AE01D48006838B91A480068C06AE16ADB
:103F0000884201D81748046018480068401C1749C7
:103F1000086094F82C10012088401549096808436E
:103F200013490860E16A01EB8101124A02EB81004A
:103F3000211D00F011FB00F063FB0B48006868B125
:103F400008480068C06AE16A884207D24FF0805092
:103F500009490860BFF34F8FBFF36F8F10BD00009A
:103F60002800022018000220340002204400022011
:103F700030000220B001022004ED00E070B523E023
:103F800000F0E2FD1348006808B9012000E00020BD
:103F9000054600F0D5FFBDB900F0EAFA0D48C0684B
:103FA000C468201D00F09AFA0B480068401E0A49B8
:103FB00008600A480068401E0849086000F020FBBD
:103FC000204600F00DF800BF044800680028D7D153
:103FD00070BD00006C040220280002202400022092
:103FE00010B50446206B00F045FB204600F042FB74
:103FF00010BD000030B54FF41043174800F007041F
:104000002CB1C01D20F00700134C041B1B1B0246E3
:10401000124C22600024114D6C60D018083820F03A
:1040200007000F4C206000240D4D2D686C600C4D76
:104030002D682C601146441A4C60094C24680C60B1
:10404000084D4C682C60084D4C682C604FF00044C3
:10405000064D2C6030BD0000940402205400022064
:104060005C00022064000220600002206800022040
:1040700000BFFFF783FF064800680128F9D94FF019
:10408000805004490860BFF34F8FBFF36F8FF0E794
:10409000B001022004ED00E02DE9FF5F81460E46ED
:1040A0009246DDE90E7B109CAAF10100216B01EB29
:1040B000800828F0070808F0070008B9012000E090
:1040C000002028B940F22B321AA121A0FFF7CEF927
:1040D000002507E0715D04F134004155705D00B9C1
:1040E00002E06D1C102DF5D300BF002143200155C7
:1040F000202F00D31F27E762201D00F010FA04F1E3
:10410000180000F00CFA2461C7F12000A06164627D
:104110000020606484F8480049464046039A00F055
:10412000C7F92060BBF1000F01D0CBF80040BDE81B
:10413000FF9F00002E2E5C2E2E5C46726565525449
:104140004F535C7372635C7461736B732E63000016
:104150004572726F723A25732C25640D0A000000B7
:1041600010B5002407E004EB84010F4A02EB810044
:1041700000F0C8F9641C202CF5D30C4800F0C2F9FB
:104180000B4800F0BFF90B4800F0BCF90A4800F0FA
:10419000B9F90A4800F0B6F904480949086004482A
:1041A0000849086010BD0000B00102203004022060
:1041B00044040220580402206C04022080040220DF
:1041C0001C0002202000022010B50146164800E025
:1041D000006803688B42FBD30246436813448B425A
:1041E00004D143684C682344436001460A464B6847
:1041F00013440468A34211D10C4C03682468A34201
:1042000008D04B680468646823444B6003681B68EB
:104210000B6005E0054B1B680B6001E003680B6059
:10422000884200D0016010BD540002205C000220D2
:104230000A490968096809B9012100E0002121B192
:104240004FF0FF31064A116006E004490968C96869
:10425000C868034A41681160704700001C000220D2
:10426000480002200D480068401C08B9012000E009
:10427000002028B940F2091209A115A0FFF7F6F8AD
:1042800000BF502072B680F31188BFF34F8FBFF389
:104290006F8F62B600BF00BFFEE700006C00022017
:1042A0002E2E5C2E2E5C4672656552544F535C7008
:1042B0006F72745C525644535C41524D5F434D37AC
:1042C0005C723070315C706F72742E63000000009D
:1042D0004572726F723A25732C25640D0A00000036
:1042E00070B5054600262C462DB940F281620EA11C
:1042F00014A0FFF7BBF817496069884201D101207B
:1043000000E0002070B11449A06A884201D1012068
:1043100000E0002030B9A06A08B9012000E00020C8
:1043200000B10126304670BD2E2E5C2E2E5C4672EA
:10433000656552544F535C7372635C7461736B7345
:104340002E6300004572726F723A25732C25640D3E
:104350000A00000080040220580402202DE9F041E8
:1043600004464FF0000800F0EFFB3E48006808B933
:10437000FFF740FE3C480068204000285FD1A4B110
:10438000083404F0070080B104F00700C0F1080011
:10439000044404F0070008B9012000E0002020B91F
:1043A000BF2232A13BA0FFF761F8002C47D03D4867
:1043B0000068844243D83C4E3046056801E02E46F2
:1043C0002D686868A04202D228680028F7D12548E5
:1043D0000068854233D0306800F1080828683060F2
:1043E0006868001B102813D92F1907F0070008B9B7
:1043F000012000E0002020B9EC221CA125A0FFF73D
:1044000035F86868001B78606C603846FFF7DCFEA2
:10441000244968680968081A224908600846006843
:1044200022490968884203D21E4800681F49086073
:104430000D4968680968084368600020286000F03A
:104440007FFD08F0070008B9012000E0002028B92E
:104450004FF4967205A10FA0FFF708F84046BDE89B
:10446000F08100005C000220680002202E2E5C2EED
:104470002E5C4672656552544F535C706F72745C6B
:104480004D656D4D616E675C686561705F342E636C
:10449000000000004572726F723A25732C25640D7E
:1044A0000A00000060000220540002206400022084
:1044B000001F4FF080730360001F21F001030360B1
:1044C000001F054B036014380260001F6FF00203E9
:1044D00003602038704700006542000801460A6901
:1044E000D1E901309860D1E90103586050688842F1
:1044F00001D188685060002008611068401E10607B
:104500001068704700F1080141604FF0FF31816091
:1045100000F10801C16001610021016070470021C4
:104520000161704710B502460B685C1C0CB910693C
:1045300007E002F1080000E04068446824689C42FB
:10454000FAD944684C604C68A160886041600A6197
:104550001468641C146010BD42684A6093688B60E4
:10456000936859609160086103685B1C0360704741
:1045700010B500BF502072B680F31188BFF34F8F83
:10458000BFF36F8F62B600BF0B480068401C0A493A
:1045900008600846006801280DD108480068C0B2CC
:1045A00008B9012000E0002028B940F2A91204A1B6
:1045B0000FA0FEF75BFF10BD6C00022004ED00E0D1
:1045C0002E2E5C2E2E5C4672656552544F535C70E5
:1045D0006F72745C525644535C41524D5F434D3789
:1045E0005C723070315C706F72742E63000000007A
:1045F0004572726F723A25732C25640D0A00000013
:1046000010B50B48006828B94FF4D87209A115A05D
:10461000FEF72CFF06480068401E05490860084662
:10462000006820B9002080F3118800BF00BF10BDD2
:104630006C0002202E2E5C2E2E5C46726565525454
:104640004F535C706F72745C525644535C41524DD0
:104650005F434D375C723070315C706F72742E63E3
:10466000000000004572726F723A25732C25640DAC
:104670000A00000070B506463546002E35D0083DCC
:104680002C461A4960680968084008B1012000E01A
:10469000002028B94FF4A07215A11FA0FEF7E6FE76
:1046A000206808B9012000E0002028B940F241123A
:1046B0000FA119A0FEF7DAFE0C49606809680840EE
:1046C00098B1206888B909496068096888436060C2
:1046D00000F03AFA14496068096808441249086011
:1046E0002046FFF771FD00F02BFC70BD6800022032
:1046F0002E2E5C2E2E5C4672656552544F535C70B4
:104700006F72745C4D656D4D616E675C686561705C
:104710005F342E63000000004572726F723A257399
:104720002C25640D0A000000600002200648006885
:104730004FF47A71B0FBF1F0401E4FF0E021486178
:1047400007200861704700000000022070B5044691
:104750000025ACB10F48006808B9012000E0002036
:1047600028B940F2CF420CA112A0FEF77FFE00F064
:10477000EBF900212046FFF75BFB00F0E1FB05466B
:104780003DB94FF080500F490860BFF34F8FBFF322
:104790006F8F70BD500002202E2E5C2E2E5C467254
:1047A000656552544F535C7372635C7461736B73D1
:1047B0002E6300004572726F723A25732C25640DCA
:1047C0000A00000004ED00E070B50546FFF7D0FEDA
:1047D00015B92D48006800E028460446201DFFF763
:1047E0007DFE78B9E06A00EB8000284951F820008E
:1047F00040B994F82C10012088402549096881436C
:1048000023480160A06A18B104F11800FFF766FEA2
:1048100020480068401C1F4908601B48006884420B
:1048200009D1211D1C48FFF797FE1C480068401C59
:104830001A49086009E01A480068401E18490860D3
:104840002046FFF7CDFBFFF7F3FCFFF7D9FE154835
:104850000068C0B10C480068844214D11248006856
:1048600008B9012000E0002028B940F265420FA1FC
:1048700015A0FEF7FBFD4FF0805017490860BFF30D
:104880004F8FBFF36F8F70BD18000220B001022060
:1048900030000220440002206C0402202400022088
:1048A0002800022034000220500002202E2E5C2E10
:1048B0002E5C4672656552544F535C7372635C7430
:1048C00061736B732E6300004572726F723A2573C9
:1048D0002C25640D0A00000004ED00E070B50546CB
:1048E0002C462DB940F2AB621AA121A0FEF7BEFD05
:1048F00074B32348006884422AD0FFF739FE20466B
:10490000FFF7EEFC10B3201DFFF7E8FD94F82C1024
:10491000012088401B49096808431A490860E16A78
:1049200001EB8101184A02EB8100211DFFF714FE03
:104930001349E06A0968C96A884207D34FF080507A
:1049400012490860BFF34F8FBFF36F8FFFF758FE18
:1049500070BD00002E2E5C2E2E5C46726565525492
:104960004F535C7372635C7461736B732E630000EE
:104970004572726F723A25732C25640D0A0000008F
:104980001800022030000220B001022004ED00E0F7
:104990001CB5194800210B468022CDE9001017A153
:1049A000184800F0D9F90446012C17D100BF502057
:1049B00072B680F31188BFF34F8FBFF36F8F62B66B
:1049C00000BF4FF0FF301049086001200F49086018
:1049D00000200F49086000F017F90BE0601C08B1D7
:1049E000012000E0002028B940F2847209A110A043
:1049F000FEF73CFD1CBD00004C00022049444C4524
:104A0000000000007140000848000220340002202D
:104A10002C0002202E2E5C2E2E5C467265655254B0
:104A20004F535C7372635C7461736B732E6300002D
:104A30004572726F723A25732C25640D0A000000CE
:104A400070B50546FFF794FD15B92C48006800E0E5
:104A500028460446201DFFF741FD78B9E06A00EBC7
:104A60008000274951F8200040B994F82C1001200B
:104A7000884024490968814322480160A06A18B12E
:104A800004F11800FFF72AFD211D1F48FFF764FD00
:104A9000FFF7B6FD1D48006828B1FFF769FDFFF775
:104AA000C7FBFFF7ADFD15480068844224D11748C5
:104AB0000068A8B11648006808B9012000E000208D
:104AC00028B940F2576213A119A0FEF7CFFC4FF0AE
:104AD00080501B490860BFF34F8FBFF36F8F0BE00F
:104AE0000948006817490968884203D10020034932
:104AF000086001E000F030F870BD000018000220EE
:104B0000B001022030000220800402203400022084
:104B1000500002202E2E5C2E2E5C4672656552548B
:104B20004F535C7372635C7461736B732E6300002C
:104B30004572726F723A25732C25640D0A000000CD
:104B400004ED00E02800022002480068401C0149F2
:104B5000086070475000022010B51B48006818B16B
:104B600001201A4908602DE0002018490860184803
:104B70000068B0FA80F0C0F11F0404EB840015490E
:104B800051F8200008B1012000E0002028B940F6CB
:104B9000F62211A117A0FEF769FC04EB84010D4A6F
:104BA00002EB810041684968416000F108014268F8
:104BB0008A4202D14168496841604168C968114A26
:104BC000116000BF10BD0000500002203C00022018
:104BD00030000220B00102202E2E5C2E2E5C467288
:104BE000656552544F535C7372635C7461736B738D
:104BF0002E6300004572726F723A25732C25640D86
:104C00000A000000180002201CB52F4C2046007836
:104C10000190FF20214608700846007800909DF81A
:104C2000000000F0F0009DF80010884201D1012042
:104C300000E0002028B940F2631224A12FA0FEF763
:104C400015FC9DF8000000F0500030490870072066
:104C50002F49086009E02E480068401E2C49086072
:104C60009DF800004006000E00909DF8000000F046
:104C700080008028EFD026480068000224490860A0
:104C80000846008800F4E06008600F490198087049
:104C90002048006840F470001E490860084600681B
:104CA00040F070400860FFF741FD00201A4908609D
:104CB000FBF7CCFA1948006840F0404017490860FB
:104CC000FBF7B4FA00201CBD00E400E02E2E5C2EA1
:104CD0002E5C4672656552544F535C706F72745C03
:104CE000525644535C41524D5F434D375C723070B5
:104CF000315C706F72742E63000000004572726F39
:104D0000723A25732C25640D0A0000007000022001
:104D10007400022020ED00E06C00022034EF00E07F
:104D200010B500BF502072B680F31188BFF34F8FCB
:104D3000BFF36F8F62B600BF00F04EF818B14FF0AE
:104D400080500449086000BF002080F3118800BF34
:104D500010BD000004ED00E02DE9FF4F85B0804656
:104D600089461746DDE912ABB800FFF7F7FA0646A9
:104D700056B14C20FFF7F2FA04460CB1266304E06A
:104D80003046FFF777FC00E000247CB10020CDE93D
:104D900000ABCDE902403A4649464046089BFFF742
:104DA0007BF92046FFF790F8012501E04FF0FF3531
:104DB000284609B0BDE8F08F0549096809B9012006
:104DC00005E00449096809B9022000E000207047A5
:104DD00034000220500002202DE9F0414FF000087D
:104DE00041480068002872D140480068451C3F488F
:104DF0000560EDB93E480068006808B9012000E090
:104E0000002028B940F6D9123AA141A0FEF72EFBA6
:104E100037480768424800683549086040480760DD
:104E200040480068401C3F490860FFF701FA00BF96
:104E30003D48006885423CD300BF2D4800680068AB
:104E400008B9012000E0002020B14FF0FF303649C2
:104E500008602DE026480068C068C4686668B542EE
:104E600002D23148066023E0201DFFF737FBA06A1D
:104E700018B104F11800FFF731FB94F82C10012051
:104E800088402A490968084328490860E16A01EB1B
:104E90008101274A02EB8100211DFFF75DFB2549B7
:104EA000E06A0968C96A8842C7D34FF00108C4E7BD
:104EB00000BF20480068C06A00EB80001C4951F820
:104EC0002000012801D94FF0010805E0FFE71A484A
:104ED0000068401C184908601848006808B14FF085
:104EE00001084046BDE8F081500002202C0002205D
:104EF0001C0002202E2E5C2E2E5C467265655254DC
:104F00004F535C7372635C7461736B732E63000048
:104F10004572726F723A25732C25640D0A000000E9
:104F20002000022040000220480002203000022021
:104F3000B001022018000220380002203C000220AC
:104F400070B5002400263448006828B94FF4FD628B
:104F500032A139A0FEF78AFAFFF70AFB2E48006853
:104F6000401E2D4908600846006800284FD1364889
:104F7000006800284BD024E03448C068C46804F1BD
:104F80001800FFF7ABFA201DFFF7A8FA94F82C10D1
:104F9000012088402E49096808432D490860E16ACC
:104FA00001EB81012B4A02EB8100211DFFF7D4FAAE
:104FB0002949E06A0968C96A884202D30120274961
:104FC00008602248006808B9012000E0002000289D
:104FD000D2D00CB1FFF72CF92148056865B100BFAC
:104FE000FFF7FAFE10B101201C4908606D1E002D6C
:104FF000F6D100201A4908601848006838B1012627
:10500000300718490860BFF34F8FBFF36F8FFFF76A
:10501000F7FA304670BD0000500002202E2E5C2EA4
:105020002E5C4672656552544F535C7372635C74B8
:1050300061736B732E6300004572726F723A257351
:105040002C25640D0A0000002800022058040220CC
:1050500030000220B0010220180002203C00022093
:105060003800022004ED00E0000000000000000015
:1050700001020304060708090000000001020304FE
:105080000006101600061016A850000800000220A6
:105090007C0000008C340008245100087C000220B1
:1050A0001C9800009C3400080024F400000000005C
:1050B00000000000000000000000000000000000F0
:1050C00000000000000000000000000000000000E0
:1050D00000000000000000000000000000000000D0
:1050E00000000000000000000000000000000000C0
:1050F00000000000000000000000000000000000B0
:10510000000000000000000000000000000000009F
:1051100000000000AAAAAAAA0000000000000000E7
:04512000000000008B
:04000005080001F9F5
:00000001FF
