:020000040800F2
:1000000058BD0020DD010008E5110008E7110008D7
:10001000E9110008EB110008ED11000800000000D4
:100020000000000000000000000000004501000882
:10003000EF1100080000000089010008F11100081C
:10004000F7010008F7010008F7010008F7010008B0
:10005000F7010008F7010008F7010008F7010008A0
:10006000F7010008F7010008F7010008F701000890
:10007000F7010008F7010008F7010008F701000880
:10008000F7010008F7010008F7010008F701000870
:10009000F7010008F7010008F7010008F701000860
:1000A000F7010008F7010008F7010008F701000850
:1000B000F7010008F7010008F7010008F701000840
:1000C000F7010008F7010008F7010008F701000830
:1000D000F7010008F7010008F7010008F701000820
:1000E000F7010008F7010008F7010008F701000810
:1000F000F7010008F7010008F7010008F701000800
:10010000F701000805120008F7010008F7010008D0
:10011000F7010008F7010008F7010008F7010008DF
:10012000F7010008F7010008F7010008F7010008CF
:10013000DFF80CD007F00EF90048004783100008E4
:1001400058BD0020224B19680868B0E8F00F80F312
:100150000988BFF36F8F4FF0000080F311884EF0D5
:100160000D0E70470000000006480068006880F32C
:10017000088862B661B6BFF34F8FBFF36F8F00DFA1
:1001800000BF00BF08ED00E0EFF30980BFF36F8F01
:100190000F4B1A6820E9F00F106008B54FF05000BF
:1001A00080F31188BFF34F8FBFF36F8F06F0E7F82E
:1001B0004FF0000080F31188BDE808401968086816
:1001C000B0E8F00F80F30988BFF36F8F704700BF6E
:1001D0009C000020EFF30580704700000648804730
:1001E00006480047FEE7FEE7FEE7FEE7FEE7FEE71C
:1001F000FEE7FEE7FEE7FEE7A10200083101000886
:100200000CB500224C4800920192016841F4803103
:1002100001604FF4A063016801F40031019100997D
:10022000491C0091019911B900999942F3D10168D3
:10023000890333D50121019140490A6842F0100237
:100240000A600A6822F003020A600A6842F00202A9
:100250000A604168416041684160416841F48061E1
:100260004160416821F47C114160416841F4E8112A
:100270004160016841F08071016001688901FCD52D
:10028000416821F003014160416841F00201416091
:100290004168C1F381010229FAD10CBD01920CBD64
:1002A000254810B5016841F0010101604168244A08
:1002B000114041600168234A11400160016821F446
:1002C00080210160416821F4FE0141604FF41F016B
:1002D0008160FFF795FF1C494FF00060086010BD7A
:1002E000154A10B55068194B10F00C01184803D08E
:1002F000042901D0082901D0036012E05168536835
:1003000001F470114FF0020413F4803F04EB9141AB
:1003100002D053689B0301D50E4B00E00B4B5943B1
:10032000016051680A4AC1F30311121D515C026851
:10033000CA40026010BD00000010024000200240D0
:100340000000FFF8FFFFF6FE08ED00E000127A0063
:100350000000002000093D002849084328490860A2
:10036000704730B50F23C27801780125F2B1244AD5
:10037000126801F1E02102F4E062C2F5E062120AC3
:10038000C2F10404D3404278A24084781C40144354
:10039000220181F80024007800F01F018D404009FF
:1003A000800000F1E020C0F8005130BD01F01F00D6
:1003B00085404809800000F1E020C0F8805130BD40
:1003C000104A114001430E48001F016070470C4A5B
:1003D000121D0029116801D0014300E08143116022
:1003E00070474FF0E0210428086903D020F0040092
:1003F0000861704740F00400FAE700000000FA05C9
:100400000CED00E080FFFF1F01684FF6FE72114007
:1004100001600021016041608160C1606A496A4AEF
:100420000839904203D1486840F00F0006E0664A60
:100430001432904204D1486840F0F00048607047A0
:10044000614A2832904203D1486840F47060F5E771
:100450005D4A3C32904203D1486840F47040EDE779
:10046000594A5032904203D1486840F47020E5E781
:10047000554A6432904203D1486840F47000DDE789
:10048000514A7832904203D1486840F07060D5E715
:100490004E4A111F904203D1086840F00F0006E059
:1004A0004A4A1432904204D1086840F0F0000860D3
:1004B0007047464A2832904203D1086840F4706081
:1004C000F5E7424A3C32904203D1086840F470405C
:1004D000EDE73E4A50329042EAD1086840F470207D
:1004E000E5E730B5026847F6F0739A430C6A8B680B
:1004F0002343D1E904452C4323438C692343CC692E
:1005000023434C6A23438C6A234313430360CA6822
:1005100042600A6882604968C16030BD00210160A4
:1005200041608160C160016141618161C1610162BD
:100530004162816270470029016802D041F00101E7
:1005400002E04FF6FE72114001607047002A026817
:1005500001D00A4300E08A4302607047416070475F
:10056000406880B2704702460020D10002D517498A
:10057000083901E0144908390968114200D0012006
:100580007047C10003D51149091F086070470E4923
:1005900008394860704702460020D10002D50B4957
:1005A000083901E0084908390968114200D00120E2
:1005B0007047C10003D50549091F0860704702490B
:1005C00008394860704700000800024008040240F3
:1005D0008F4910B5884206D10121042000F049FA64
:1005E000002104203BE08B49884206D101210820EC
:1005F00000F03FFA0021082031E08749884206D107
:100600000121102000F035FA0021102027E0834955
:10061000884206D10121202000F02BFA0021202061
:100620001DE07F49884206D10121402000F021FAD7
:100630000021402013E07B49884206D1012180201F
:1006400000F017FA0021802009E0774988420AD19A
:1006500084150121204600F00CFA00212046BDE857
:10066000104000F006BA10BD10B50121084600F098
:1006700000FA0021BDE81040012000F0FAB9F0B501
:10068000CC78002204F00F03E40601D58C782343D4
:100690000C784FF00F0C14F0FF0F4FF0010E1BD031
:1006A00005680E880EFA02F42640A64210D1960084
:1006B0000CFA06F725EA070703FA06F5CE783D435C
:1006C000282E02D0482E02D002E0446100E00461EE
:1006D000521C082AE5D305600A88FF2A1CD9446801
:1006E000002202F108060EFA06F50E882E40AE42F0
:1006F0000ED196000CFA06F7BC4303FA06F7CE7843
:100700003C43282E00D14561CE78482E00D10561AA
:10071000521C082AE5D34460F0BD4FF6FF710180FA
:10072000022181700421C170704702460020926846
:100730000A4200D001207047806880B270470246AC
:100740000020D2680A4200D001207047C06880B201
:10075000704701617047416170470AB1016170479C
:1007600041617047C160704741F4803282618161AC
:1007700082618169806970472C4B10B51A684FF609
:100780008074224042EA00100843186010BD2849D6
:10079000C8617047F0B5254C002801DAE36900E034
:1007A0006368450D2E0185B2C0F30157B540C0F313
:1007B0000342032F05D0C6020AD503269640B34351
:1007C00007E023F07062636823F07063636002E007
:1007D000AB4343F0706201B12A43002801DAE261C1
:1007E000F0BD6260F0BD10B58A0721F003040F4927
:1007F000120F21440F238C6893409C438C608B68BC
:10080000904003438B6010BD0949C1F8DC0070477C
:1008100000080140000C014000100140001401409C
:1008200000180140001C0140002001400000014070
:1008300000002042A548016841F0010101604168C3
:10084000A34A114041600168A24A11400160016859
:1008500021F480210160416821F4FE0141604FF4E0
:100860001F018160704799490A6822F480320A604A
:100870000A6822F480220A60B0F5803F07D0B0F504
:10088000802F03D1086840F4A020086070470868F2
:1008900040F48030F9E70346002059098B4A0129CA
:1008A0000AD002290AD0516A03F01F0201239340A3
:1008B0000B4200D0012070471168F5E7116AF3E799
:1008C00018B500204FF4A06400903120FFF7E3FF3B
:1008D0000099491C0091A14201D00028F5D0312097
:1008E000FFF7D9FF002800D0012018BD774A116812
:1008F00021F0F80141EAC0001060704776490860B5
:100900007047724B5A68084322F47C1210435860B7
:1009100070477149086670476C4A516821F00301BD
:100920000143516070476948406800F00C0070470F
:10093000664A516821F0F001014351607047634AF3
:10094000516821F4E0610143516070475F4A51688A
:1009500021F4605141EAC000506070475B4A0029B1
:10096000517A01D0014300E08143517270475A49E6
:10097000C1F8D8007047554A516821F440410143FD
:10098000516070475149002281F8202081F82020D1
:10099000012802D0042802D1052081F820007047E8
:1009A0004E490860704749490A6A02430A62704723
:1009B0004A4944390860704730B5444A5168484B49
:1009C00011F00C0103D0042901D0082901D00360E3
:1009D00012E05168536801F470114FF0020413F4EF
:1009E000803F04EB914102D053689B0301D53D4BFE
:1009F00000E03B4B5943016051680F2303EA11119A
:100A0000394B5C5C0168E14041605468072505EAA8
:100A100014241C5D21FA04F48460546805EAD4248B
:100A20001B5DD940C1605268032303EA92322E4B0A
:100A30001B1F9A5CB1FBF2F1016130BD234A002912
:100A4000516901D0014300E08143516170471F4A61
:100A50000029916901D0014300E081439161704711
:100A60001A4A0029D16901D0014300E08143D161D4
:100A70007047164A0029D16801D0014300E0814344
:100A8000D1607047114A0029116901D0014300E08B
:100A900081431161704711494039086070470E4920
:100AA000C86470470949C87170470848416A41F0F5
:100AB000807141627047054A0146002092680A42EF
:100AC00000D0012070470149887270470010024031
:100AD0000000FFF8FFFFF6FE0000424280044242A1
:100AE00000127A0000093D0018000020664800212D
:100AF000016041608160C16041628162C162634A9C
:100B00008263C163704730B55F4B5A6847F6FF6137
:100B10008A43017D8468C568214344682C4321438E
:100B200004680069214301431143596030BD00212D
:100B30000175016041608160C16001617047544985
:100B4000C1F8A000704750490A6822F003020A6009
:100B50000A6802430A6070474B48006800F00300CF
:100B60007047494A0029D16B01D0014300E081431D
:100B7000D163704747490860704710B54249026821
:100B80008A60CA68D0E901342343D0E903400443B2
:100B90006FF30A0223431343CB6010BD00210160B1
:100BA00041608160C1600161704737480069C0B22F
:100BB0007047354908B5143108440090006808BDF5
:100BC00010B5314902684A6242688A62CA6AD0E94D
:100BD00002342343D0E90440044322F0F7022343C4
:100BE0001343CB6210BD4FF0FF3101600021416023
:100BF0008160C1600161416170472348006B7047AB
:100C00002148D0F8800070471F49C1F88000704724
:100C10001D48806C70471F491431086070471D499A
:100C20001831086070471B491C310860704719492A
:100C30002031086070471649C1F8AC01704714496B
:100C4000C1F8B0017047012181431148C0F8B411C7
:100C500070470F49C1F8B80170470B4A01460020A0
:100C6000526B0A4200D001207047074988637047E1
:100C7000054A01460020526B0A4200D0012070470D
:100C8000014988637047000000800140FF07C000F1
:100C9000000030428C053042C44910B588420AD168
:100CA00001218C032046FFF7E4FE2046BDE81040FA
:100CB0000021FFF7DEBEBE49884202D101214C046B
:100CC00010E0BC49884202D101218C040AE0BA49F3
:100CD000884202D10121CC0404E0B84988420AD1FB
:100CE00001210C052046FFF7CDFE2046BDE810404F
:100CF0000021FFF7C7BE10BD30B50446008A85B09D
:100D00000D464CF6FF710840E98801432182A08915
:100D10004EF6F3110840A9882A8911436A890243D3
:100D20001143A181A08A4FF6FF410840A9890143E0
:100D3000A1826846FFF740FE9C48844201D1039897
:100D400000E00298A189090400EBC00101EB00104A
:100D5000296801D5490000E08900B0FBF1F0642268
:100D6000B0FBF2F109010B096FF018056B4300EBC2
:100D70008300A3891D044FF0320306D503EBC000A6
:100D8000B0FBF2F000F0070005E003EB0010B0FB51
:100D9000F2F000F00F000843208105B030BD4FF4A1
:100DA0001651016000218180C18001810C224281A5
:100DB0008181704710B5028A4FF2FF031A400B88F9
:100DC0004C8823438C88C9880C43234313430382F4
:100DD00010BD0021018041808180C18070470029C1
:100DE000818902D041F4005101E021F40051818158
:100DF000704710B5C1F3421301F01F040121A14057
:100E0000012B07D0022B07D01430002A026805D02E
:100E10000A4304E00C30F8E71030F6E78A4302603A
:100E200010BD002A828A01D00A4300E08A438282F0
:100E30007047028A22F00F020282028A0A4302826B
:100E40007047828922F40062828182890A4382810A
:100E500070470029818902D041F0020101E021F0B0
:100E6000020181817047028A22F020020282028AF6
:100E70000A43028270470029018A02D041F480416E
:100E800001E021F4804101827047C1F308018180B3
:100E900070478088C0F308007047818941F00101E4
:100EA00081817047028BD2B20283028B42EA012118
:100EB00001837047028B02F47F420283028B0A4354
:100EC000028370470029818A02D041F0200101E0AD
:100ED00021F02001818270470029818A02D041F0EF
:100EE000100101E021F01001818270470029818A00
:100EF00002D041F0080101E021F008018182704731
:100F00000029818902D041F4004101E0C1F30E01C2
:100F1000818170470029818A02D041F4006101E09B
:100F200021F4006181827047828A22F00402828269
:100F3000828A0A43828270470029818A02D041F066
:100F4000020101E021F00201818270470246002087
:100F500012880A4200D001207047C94301807047BF
:100F600070B501F01F0501260024C1F3421306FAF3
:100F700005F2012B0FD0022B0FD0838A4FEA1121EB
:100F80000088134206FA01F600EA060001D000B11B
:100F90000124204670BD8389F0E7038AEEE70A0A40
:100FA00001219140C9430180704700000038014091
:100FB0000044004000480040004C00400050004009
:100FC000414D424F424C6E140121284600F031FA47
:100FD000012808D13FA006F0CFF9606805F0F9F9C3
:100FE00040A006F0C9F93146384600F022FA01283F
:100FF00008D141A006F0C0F9606805F050FA42A09F
:1010000006F0BAF9142005F0EEF8DDE701F048FB30
:1010100001F086FB414C4FF47A75206880F0200186
:101020002160284605F0DFF8F7E71CB506F090F8D8
:1010300027490220091D0402CDE9000100232246B0
:1010400037A13A4804F009FF012802D138A006F080
:1010500093F91F4903200831CDE9000100232246FE
:101060003AA13D4804F0F9FE012802D13BA006F068
:1010700083F91748006804F01BFFBDE81C4006F028
:1010800081B81CB54FF44070FFF766F900F0CAF85C
:1010900000F0F8F800F0B4F936A006F06DF943A0BE
:1010A00006F06AF90A490120CDE900014202002355
:1010B00047A14B4804F0D1FE012802D04FF0FF3089
:1010C0001CBD05F074FAFEE7000801400010014065
:1010D00028000020B9D2C6F04C4544C8CECEF1A3BA
:1010E000A10A0000B9D2C6F04C4544C8CECEF1B337
:1010F000C9B9A6A3A10A0000BBD6B8B44C4544C8E0
:10110000CECEF1A3A10A0000BBD6B8B44C4544C86A
:10111000CECEF1B3C9B9A6A3A10A00000C0C0140C0
:10112000546573745F5461736B0000000D10000808
:10113000B4B4BDA8546573745F5461736BC8CECEEC
:10114000F1B3C9B9A6210D0A000000004B45595F53
:101150005461736B00000000C10F0008B4B4BDA857
:101160004B45595F5461736BC8CECEF1B3C9B9A674
:10117000210D0A00D5E2CAC7D2BBB8F65BD2B0BB1C
:10118000F05D2D53544D3332C8ABCFB5C1D0BFAA9B
:10119000B7A2B0E52D4672656552544F532DB9CCB8
:1011A000BCFEBFE2CAB5D1E90A0A0000B0B4CFC2A2
:1011B0004B455931B9D2C6F0C8CECEF1A3ACB0B4CC
:1011C000CFC24B455932BBD6B8B4C8CECEF10A0017
:1011D0004170705461736B43726561746500000007
:1011E0002B1000087047FEE7FEE7FEE7FEE77047BA
:1011F00010B505F03BFB012803D0BDE8104005F019
:10120000D2BF10BD10B55020EFF3118480F31188C8
:10121000BFF34F8FBFF36F8F01F0CBF984F31188C9
:1012200010BD000038B501210820FFF710FC202078
:10123000ADF8000010208DF803000320104C8DF84D
:10124000020069462046FFF71AFA0121ADF80010A6
:1012500069462046FFF713FA0221ADF800106946EF
:101260002046FFF70CFA20212046FFF772FA0121F1
:101270002046FFF76EFA02212046FFF76AFA38BDD2
:10128000000C014030B587B001210420FFF7DFFBDF
:1012900001218803FFF7DBFB4FF40070ADF810006D
:1012A00018208DF813000320534C8DF8120004A968
:1012B0002046FFF7E4F92115ADF8101004218DF850
:1012C000131004A92046FFF7DAF900244FF4E130A7
:1012D0000090ADF808400C20484DADF80440ADF842
:1012E0000A00ADF80640ADF80C4069462846FFF705
:1012F00003FD4FF44070FFF72FF825218DF81410EF
:1013000006208DF815008DF8164001208DF8170085
:1013100005A8FFF726F801212846FFF760FD07B072
:1013200030BD10B50446FFF7B0FD80212046FFF721
:101330000DFE0028F9D010BD2DE9F04115460E46EE
:101340000746002405E0315D3846FFF7EAFF641CDC
:10135000E4B2AC42F7D340213846FFF7F7FD00284E
:10136000F9D0BDE8F08170B50D4606460024304640
:10137000295DFFF7D6FF641C285D0028F7D14021C6
:101380003046FFF7E3FD0028F9D070BD70B5044684
:10139000080ACDB201462046FFF777FD802120469E
:1013A000FFF7D4FD0028F9D029462046FFF76DFD50
:1013B00080212046FFF7CAFD0028F9D070BD70B526
:1013C0000E4D0446C1B22846FFF75FFD8021284636
:1013D000FFF7BCFD0028F9D0204670BD10B5074CC2
:1013E00020212046FFF7B2FD0028F9D02046BDE8B5
:1013F0001040FFF74EBD00000008014000380140DA
:1014000038B501211420FFF722FB0120ADF80000C0
:1014100004248DF8034069460E48FFF730F9E002D6
:10142000ADF800008DF8034069460B48FFF727F937
:1014300038BD70B50C460546FFF777F9012801D095
:10144000002070BD21462846FFF76FF90128F9D02A
:10145000012070BD000801400010014038B5002097
:10146000FFF76DFB0020FFF76EFBFFF73FFB00214E
:101470004FF48060FFF7E2FA4FF4F850ADF8000047
:1014800004248DF803406946FE48FFF7F8F8ADF8EC
:1014900000406946FC48FFF7F2F838BD70B50446D5
:1014A0008CB00E46F948FFF76CF8F94D002128463C
:1014B000FFF741F8F748CDE900040020B108CDE975
:1014C00002018021CDE90401890006918900CDE95E
:1014D00007108900CDE9091069462846FFF701F891
:1014E00001212846FFF727F80CB070BD70B50446FF
:1014F0008CB00D46E548FFF744F8E54E0021304634
:10150000FFF719F8E348CDE9000410200290A8087D
:10151000039000208021CDE9040189000691890013
:10152000CDE907108900CDE9091069463046FEF77C
:10153000D8FF01213046FEF7FEFFD5E72DE9FC5F1D
:101540000024D54F00944FF4806801944025C7F8DB
:101550001080C7E902540E464FF0080B1021C7E96E
:1015600000B1A1463846FFF708FB102001F049F80A
:10157000002851D1C948AA464D4600890004386068
:101580003720C7E9010AC7E903983846FFF7F5FA9B
:10159000372001F036F800283ED1411E07F1140033
:1015A000C0E9001B302181600221C0E9031501213F
:1015B0004161FFF705FB3320C7F808A0C7E90050D9
:1015C000C7E903583846FFF7D8FA332001F019F875
:1015D000050021D1DFF8BC824FF4001A6F46A8F154
:1015E000800840F22A69D8F8340010EA090F0BD1BC
:1015F0005046FFF732FB0028F5D0FFF701FB47F814
:101600002400641C012CEED90820FFF726FB28B12A
:101610000820FFF72AFB0420BDE8FC9F0220FFF70B
:101620001CFB20B10220FFF720FB0220F4E7202062
:10163000FFF713FB20B12020FFF717FB0620EBE795
:101640004FF400742046FFF708FB20B12046FFF757
:101650000CFB0720E0E740F2FF50FFF706FB009885
:1016600000BA7060019800BA30602846D4E72DE9CE
:10167000FC4700248146009420460194FFF799FA24
:10168000800102D50E20BDE8FC87844D694628897B
:1016900080B2FFF753FF0028F5D137207E4E019925
:1016A0004FF0060A4FF040084FF48067B9F1010F80
:1016B0001ED0C90334D52989C6F808800904C6E9B3
:1016C0000010C6E903473046FFF757FA372000F00D
:1016D00098FF0028D7D1C6F80880C6E9004AC6E9B5
:1016E00003476D48FFF749FA062000F08AFFCAE772
:1016F000490315D52989C6F808800904C6E90010F0
:10170000C6E903476448FFF738FA372000F079FF4D
:101710000028B8D10220C6F80880C6E9000ADEE732
:101720002520B0E72DE9F04101465C4800244068DF
:10173000032815D018B1012801D0022828D1B1F50D
:10174000805F0DD0544D4FF4006800260127183DEE
:1017500041450ED10120FFF78AFF040003D017E0B6
:101760002720BDE8F0812F752E606E60C5E9026804
:1017700009E00020FFF77BFF040009D12F752E60E0
:101780006E60AE60EE6044482E611838FFF7BBF91A
:101790002046E6E7404910B5086007204860402031
:1017A00088600020C8604FF4806008610846FFF739
:1017B000E4F9BDE81040072000F023BF2DE9F04315
:1017C0003649DFF8D4904F6880F856700989A9F13E
:1017D000A009A0F85410D9F800100A0E940904705A
:1017E000C2F38304447002F0030282700A0CC270D8
:1017F0000A0A02714171D9F80430190E0901C18039
:10180000C288C3F3074142EA1112C28001F00F01FE
:101810000172C3F30721CA094272C1F380128272B6
:10182000C1F34012C272C1F3001202730025457366
:101830004A464FF001089268140EC2F30746C2F3FD
:10184000072C27B1012F02D0022F48D05DE0890775
:10185000090D0161D9B2036943EA8101016101699E
:1018600041EA94110161C4F3C201017504F007015A
:10187000417571098175C6F38201C175B107490FC0
:1018800001760DE0001001400014014000F000104E
:101890004404024080800140A00100203400002068
:1018A000037E614643EAD11303760469067EB61CC3
:1018B00008FA06F3DF17641CA4FB036C05FB03C3E3
:1018C00004FB0734077A08FA07F3A6FB037C0365D9
:1018D00004FB03C306FB0533C0E9127315E0990648
:1018E000890A0161016941EA042101610169314309
:1018F0000161036961465B1CEC0444EA5334DB0478
:10190000C0E912344FF400730365C1F380134376CA
:101910008906490E00F81A1FD1B2027842EAD112A4
:1019200000F8012B01F07F0100F8011BD9F80C2011
:10193000110ECB0900F8013BC1F3411300F8013B44
:10194000C1F3820300F8013B8907090F0170037896
:10195000C2F3074143EA911300F8013BC1F340137E
:101960000370457001F001018170C2F30721CB09BA
:10197000C370C1F380130371C1F340134371C1F30A
:1019800000138371C1F38103C37101F0030101727C
:10199000C2F34601417280F80A80FE4A11680B0EBC
:1019A00003730B0C1B02C381C489C1F307231C43BF
:1019B000C48109060161516804690B0E44EA0343BE
:1019C00003610469C1F3074344EA03230361046923
:1019D000C1F307231C430461017591680B0E437525
:1019E0000B0C1B0683618469C1F3072344EA03439C
:1019F00083618369C9B243EA01218161D168836946
:101A000043EA11638361037FC1F3074243EA121380
:101A100003771207120DC283C38BC1F3072213434E
:101A2000C383C1F3460180F8201080F82180284646
:101A3000BDE8F08310B5D84A0024516B11F0450F72
:101A4000FBD0480702D50324042003E0C80705D0D3
:101A500001242046FFF709F9204610BD40F2FF504F
:101A6000F8E72DE9F84F01200024ADF80000FFF75A
:101A700073F8A8B3DFF82493D9F8040004286AD0D7
:101A8000C44D4FF0C00A903500260220C5F808A0CA
:101A9000C5E900604FF48068C5E903682846FFF790
:101AA0006CF8FFF7C7FF04001CD1FFF782F8B94FAD
:101AB00038600420FFF77DF878600820FFF779F898
:101AC000B8600C20FFF775F8F860D9F804004F46AD
:101AD00050B1012808D0062806D0022804D014E00E
:101AE000FFE72520BDE8F88F0320E5E802604020ED
:101AF00085E84101A748083D9030FFF73EF8694668
:101B0000032000F08AFD0400ECD17868042822D07C
:101B1000BDF80000B860000428600920C5E9010A8A
:101B2000C5E903689B489030FFF727F8FFF782FF6D
:101B30000400D7D1FFF73DF8964D103D28600420F2
:101B4000FFF737F868600820FFF733F8A8600C202B
:101B5000FFF72FF8E8602046C4E72DE9F84F00278B
:101B60008C48B2217830BB460175076047608760BA
:101B7000C7603D463E46B8465C460761FEF7C3FF78
:101B80000320FEF7E0FF0120FEF7D9FFDFF804A2F3
:101B90004FF480610AF1900A5046CAF80040CAF832
:101BA0000440CAF80840CAE90341FEF7E6FFB94617
:101BB0004FF4803401E0641E27D08020FFF74DF8F9
:101BC0000028F8D00CB340F2FF50FFF74EF848461B
:101BD00000287CD14FF4D570CAF800000820CAF85C
:101BE0000400D9460AF1080140204FF4806B81E8D7
:101BF000010A684854469030FEF7BFFF664B00224A
:101C00004FF48030596B9A4604E00320E0E7DAF89D
:101C10003410401E11F0450F06D008B1480706D514
:101C200003220420009207E00028F0D1F8E74806DC
:101C300005D5002240200092FFF717F8009A12B352
:101C40003721C4E900914021C4F810B0C4E9021959
:101C500050489030FEF791FF372000F0D2FC4D48FD
:101C6000002290303721C0E900214FF04009C0F830
:101C700010B0C0E90292FEF780FF372000F0C1FCEF
:101C800004003DD04DE0454801214FF080484160BF
:101C9000E5E7404C002690343720C4F80890C4E9AA
:101CA0000060C4E9036B5F462046FEF766FF3720FD
:101CB00000F0A7FC00280AD1394948EA0100206059
:101CC0002920C4E90109C4E90367204600E021E0B6
:101CD000FEF753FF00245146486B10F0450FFBD030
:101CE000400702D50324042001E040F2FF50FEF734
:101CF000BCFFB4B90020FEF75CFFC60F07466D1CA1
:101D00001EB94FF6FF708542C3D34FF6FF70854270
:101D100001D31B20E6E617F0804F02D01F480221B6
:101D200041602046DEE638B54FF44070FEF714FB04
:101D300031208DF8000006208DF8010000248DF878
:101D4000024001258DF803506846FEF70AFB012189
:101D50003020FEF77CFE4FF4F850ADF80000032071
:101D60008DF8020018208DF8030069460D48FEF733
:101D700086FC0420ADF8000069460B48FEF77FFCA6
:101D800001218802FEF75AFE01210220FEF756FECD
:101D90000CE0000010010020008001403400002011
:101DA000000010800010014000140140FEF79EFE6C
:101DB000FFF7D3FE00281FD1FFF753FE00281BD1E9
:101DC000FE480575046044608460C4600461FEF7E9
:101DD0009AFEFA485838FFF7F1FC00280CD1F74872
:101DE0005838B0F854000004FFF7D4FC002803D1A1
:101DF000E802BDE8384095E438BD70B50546F048C6
:101E0000F04C00890004A06040F24D40E0600D20DD
:101E100000F0F7FB002801D16169296070BD08B5A9
:101E2000002000906846FFF7E8FF08B1FF2008BDDA
:101E30000098C0F3432008BD10B5FFF7F0FF042859
:101E400003D0FF2803D0012010BD002010BD0220C8
:101E500010BD10B500242046FEF775FE204610BDCB
:101E60002DE9F04705460020FEF7A3FE800102D5CC
:101E70000E20BDE8F087D14E402718361020C6E965
:101E800000704FF480680024C6F81080C6E9027420
:101E90003046FEF772FE102000F0B3FB0028E8D1B8
:101EA000C7480089000430603720C6E90107C6E949
:101EB00003483046FEF761FE372000F0A2FB002801
:101EC000D7D1411E06F11400C0E9001760218160DE
:101ED0000221C0E9031401214161FEF771FE0D20CA
:101EE000C6E90040C6F81080C6E902743046FEF725
:101EF00044FE0D2000F085FB0600BAD1B14F4FF42F
:101F0000004940F22A68786B10EA080F0ED1484663
:101F1000FEF7A3FE0028F6D00024FEF771FE45F878
:101F20002400641C082CF8D32035ECE70820FEF7C9
:101F300094FE20B10820FEF798FE042099E70220C5
:101F4000FEF78BFE20B10220FEF78FFE022090E705
:101F50002020FEF782FE20B12020FEF786FE06201C
:101F600087E74FF400742046FEF777FE40B1204625
:101F7000FEF77BFE07207CE7FEF742FE01C501E08D
:101F80004FF400142046FEF768FE0028F4D140F21A
:101F9000FF50FEF76AFE30466BE710B504468748EF
:101FA0006838FFF75DFF010036D184486838027851
:101FB000920922700278C2F3401262708278120293
:101FC0006280C2786388134363800279120662607C
:101FD0004279636843EA024262608279636843EA55
:101FE00002226260C279636813436360027A2272DC
:101FF000427A6272827A1209A272C27A1202A281B3
:10200000027BA3891343A381427B9208A273407B86
:1020100000F00300E073084610BD2DE9F04782464A
:1020200067480027089D144607700761C760654927
:10203000CF624068022803D10502540A44EAC3541F
:102040005E4E4FF0400918361020C6F80890C6E9D9
:1020500000504FF48068C6E903783046FEF78DFDE6
:10206000102000F0CEFA002828D1411E06F11400FD
:10207000C0E90015902181600221C0E90317012108
:102080004161FEF79DFD1120C6F80890C6E90040A9
:10209000C6E903783046FEF770FD112000F0B1FA72
:1020A00004000BD101210802FEF75BFD0120FEF7C1
:1020B00061FD29465046FFF7F1F92046D9E62DE9A2
:1020C000FF5F3F48DDE90E5800271446077007619F
:1020D0004FF0010AC0F80CA03A49CF6240680228CC
:1020E00003D10502540A44EAC354344E4FF4806BC2
:1020F00018361020C6F810B0C6E900504FF040095D
:10210000C6E902973046FEF738FD102000F079FA54
:1021100000282AD1411E06F1140008FB05F8E0E86A
:102120000218902102C0022180E8820406F1140006
:10213000FEF746FD1220C6F810B0C6E90040C6E919
:1021400002973046FEF719FD122000F05AFA0400FB
:102150000BD101210802FEF704FD0120FEF70AFD64
:1021600041460098FFF79AF9204604B0BDE8F09F79
:1021700070B50025124C00F041FA20B9206910B961
:1021800020780028F7D0207808B1207870BD284644
:1021900070BD2DE9F047824609480026089D174684
:1021A00006700661C6600749CE624068022803D106
:1021B0000502570A47EAC357004C05E08801002092
:1021C000340000200080014018344FF48069102052
:1021D000C4F81090C4E900504FF04008C4E90286EA
:1021E0002046FEF7CAFC102000F00BFA002828D188
:1021F0001820C4F81090C4E90070C4E90286204693
:10220000FEF7BBFC182000F0FCF9002819D104F1FE
:102210001402401EC2E900059020C2E90206012016
:10222000C2E904601046FEF7CBFC01210802FEF76C
:1022300098FC29465046FFF759F90120FEF79AFC11
:10224000304616E62DE9FF5F82B0DFF8FCB3DDE92A
:1022500010450026009617468BF80060CBF81060FA
:102260000121CBF80C10F949CE62DBF804000228FA
:1022700003D10402570A47EAC357DFF8D483102179
:1022800040464FF0400AC0E90041C8E902A64FF4B9
:102290008069C8F81090FEF770FC102000F0B1F9CA
:1022A00000284CD1BBF808000104C8F80010372101
:1022B000C8F80C60C8E9011A4046C8F81090FEF74B
:1022C0005CFC372000F09DF9002838D140461721EA
:1022D000C0E90051C8E902A6C8F81090FEF74DFC0D
:1022E000172000F08EF9002829D140461921C0E9B5
:1022F0000071C8E902A6C8F81090FEF73EFC19204C
:1023000000F07FF900281AD108F11402401E65433D
:10231000C2E900059020C2E902060120C2E904607A
:102320001046FEF74DFC01210802FEF71AFC0120C1
:10233000FEF720FC29460298FFF7D8F8304606B091
:1023400014E770B50025C04C00F058F920B9206999
:1023500010B920780028F7D0207808B1207870BD17
:1023600040F2FF50FEF781FC284670BDB748406B35
:1023700010F4405000D001207047B4480021816023
:1023800040F24C41C1600C2000F03BB97CB50446E2
:102390000025AD480095019500890204AC48026013
:1023A0000D2242604022C0E9022511010161FEF7C1
:1023B000E4FBA649486B019002E04A6B019210468B
:1023C00010F0450FF9D00198400702D503240420EE
:1023D00004E00198C00705D001242046FEF745FC23
:1023E00020467CBDFEF7E1FB01900D2838D140F27C
:1023F000FF50FEF73AFC0020FEF7DBFB0090C0F335
:10240000432020709349009808425DD0009800282E
:1024100001DA1C207CBD400001D509207CBD00985C
:10242000800001D50A207CBD0098C00001D50B209A
:102430007CBD0098000101D50C207CBD00984001B6
:1024400001D50D207CBD0098C00101D50E207CBDBA
:102450000098000201D50F207CBD0098400201D5F4
:1024600010207CBD0098800201D511207CBD009811
:10247000C00201D512207CBD0098000301D51320B5
:102480007CBD0098400301D514207CBD00988003DA
:1024900001D515207CBD0098C00301D516207CBD58
:1024A0000098000401D517207CBD0098400401D598
:1024B00018207CBD0098800401D519207CBD0098AF
:1024C000000701D51A207CBD28467CBD2DE9FC47BC
:1024D00006465F480024A03800948DF80440406808
:1024E0000D46000D2746800602D42520BDE8FC8756
:1024F000564840685849C0B2801CB1FBF0F00090CB
:102500000020FEF756FB800101D50E20EEE74E4875
:10251000DFF83C814FF0400A40684FF480690228A0
:1025200005D030B1012804D0022802D020E0760A7C
:102530006D0A2020E8E80260564688E8C002444858
:10254000A8F10808FEF719FB202000F05AF800282F
:10255000CCD148F8045B212088E8C1023C48A8F1AE
:102560000408FEF70AFB212000F04BF80028BDD13B
:1025700040462621C0E90071C8E902A73448C8F8DE
:102580001090FEF7FAFA262000F03BF80028ADD1B3
:1025900000E0641C00988442FBD301A8FFF7F6FE1C
:1025A0000028A3D19DF804100729F6D00629F4D0FD
:1025B0009CE770B5244CE1680020012907D123492C
:1025C000886040F24C40C8600C2000F01AF820707F
:1025D0004FF480752846FEF753FB00212846FEF78E
:1025E000C0FA01202061207870BD002102E040087F
:1025F000491CC9B20128FAD1084670471748FDF7AF
:10260000B2BF1248416B11F0450FFBD040F2FF51B1
:102610008163406900F00800704770B50C460B49B3
:1026200006460025486B10F0450FFBD0410702D548
:102630000324042003E0C00712D001242046FEF743
:1026400014FB204670BD00003400002000800140D3
:10265000A001002008E0FFFDC0D401000020001010
:10266000FEF7A3FAB04212D140F2FF50FEF7FDFA96
:102670000020FEF79EFA10F4604F03D0810404D5C9
:102680001320DFE7000C208007E0410401D5102073
:10269000D8E7000401D50F20D4E72846D2E7000090
:1026A00010B5012258A1594801F0A1FA584C0D2843
:1026B000207009D000282ED0014656A004F05CFE00
:1026C0005DA004F059FEFEE764A004F055FE002270
:1026D00011464DA002F088F9207060B16A492020AF
:1026E000086069480121001F01600221016067A0A4
:1026F00004F042FEFEE76BA004F03EFE012242A180
:10270000002001F074FA207001223FA13F4801F03F
:102710006EFA207010BDBDE810406AA004F02CBE17
:102720002DE9F04771A004F027FE0A227AA1804823
:1027300001F095FA364C544F20263D1F20704FF083
:1027400001084FF00209002824D03E60C5F800803F
:10275000C5F8009077A004F00FFE7DA004F00CFEF9
:1027600001226DA1724801F07AFA207000282DD064
:102770003E60C5F80080C5F800907FA004F0FCFD25
:102780006B4801F01FFDBDE8F04701221EA10020AB
:1027900001F02DBA7EA004F0EFFD1D4B40221B1D61
:1027A000191D634801F0CDFB207038B1014688A0A7
:1027B00004F0E2FD5E4801F005FDCEE78AA0616805
:1027C00004F0DAFD124991A00831F1E72E60C7F854
:1027D0000080C5F8009095A004F0CEFD0C4B4FF49E
:1027E00080621B1D9649524801F0E1FA207020B129
:1027F000014694A004F0C0FDC2E798A0616804F00F
:10280000BBFD8F499EA0F5E7303A0000CC050020C3
:1028100048000020A3A1A3A15344BFA8B9D2D4D893
:10282000CEC4BCFECFB5CDB3CAA7B0DCA1A32825CA
:1028300064290D0A00000000A3A1A3A1BFC9C4DC44
:10284000D4ADD2F2A3BA5344BFA8B3F5CABCBBAF50
:10285000B2BBB3C9B9A6A1A30D0A0000A1B75344E6
:10286000BFA8BBB9C3BBD3D0CEC4BCFECFB5CDB31C
:10287000A3ACBCB4BDABBDF8D0D0B8F1CABDBBAF42
:102880002E2E2E0D0A000000140C0140A1B6A1B698
:10289000B8F1CABDBBAFCAA7B0DCA1A3A1B7A1B7AD
:1028A0000D0A0000A1B75344BFA8D2D1B3C9B9A63D
:1028B000B8F1CABDBBAFCEC4BCFECFB5CDB3A1A3EA
:1028C0000D0A0000A1B7CEC4BCFECFB5CDB3B9D2BE
:1028D000D4D8B3C9B9A6A3ACBFC9D2D4BDF8D0D09F
:1028E000B6C1D0B4B2E2CAD40D0A00000D0A2A2A39
:1028F0002A2A2A2A20BCB4BDABBDF8D0D0CEC4BC95
:10290000FED0B4C8EBB2E2CAD42E2E2E202A2A2A38
:102910002A2A2A0D0A000000303A4661744673B62E
:10292000C1D0B4B2E2CAD4CEC4BCFE2E7478740056
:1029300000160020A3A1A3A1B4F2BFAA2FB4B4BD76
:10294000A8CEC4BCFECAA7B0DCA1A30D0A0000003B
:102950002A2A2A2A2A2A20BCB4BDABBDF8D0D0CE60
:10296000C4BCFEB6C1C8A1B2E2CAD42E2E2E202A03
:102970002A2A2A2A2A0D0A00A3A1A3A1B4F2BFAAD7
:10298000CEC4BCFECAA7B0DCA1A30D0A00000000A3
:10299000A1B7B4F2BFAA2FB4B4BDA8466174467300
:1029A000B6C1D0B4B2E2CAD4CEC4BCFE2E74787420
:1029B000CEC4BCFEB3C9B9A6A3ACCFF2CEC4BCFE94
:1029C000D0B4C8EBCAFDBEDDA1A30D0A0000000013
:1029D000A3A1A3A1CEC4BCFED0B4C8EBCAA7B0DCEF
:1029E000A3BA282564290A00A1B7CEC4BCFED0B47E
:1029F000C8EBB3C9B9A6A3ACD0B4C8EBD7D6BDDA7F
:102A0000CAFDBEDDA3BA25640A000000A1B7CFF25B
:102A1000CEC4BCFED0B4C8EBB5C4CAFDBEDDCEAAE0
:102A2000A3BA0D0A25730D0A00000000A1B7B4F285
:102A3000BFAACEC4BCFEB3C9B9A6A1A30D0A0000AB
:102A4000CC010020A3A1A3A1CEC4BCFEB6C1C8A1E5
:102A5000CAA7B0DCA3BA282564290A00A1B7CEC44E
:102A6000BCFEB6C1C8A1B3C9B9A62CB6C1B5BDD705
:102A7000D6BDDACAFDBEDDA3BA25640D0A0000008A
:102A8000A1B7B6C1C8A1B5C3B5C4CEC4BCFECAFD0A
:102A9000BEDDCEAAA3BA0D0A2573200D0A000000E0
:102AA00001004FF0010000D10020704710B5012453
:102AB00018B9FFF738F900B90024204610BD2DE9F8
:102AC000F0410E460100ADF5007D1D4614464FF065
:102AD000040019D1B1074FF4007019D000278046C7
:102AE0000FE02246641C012369460020FFF7E7FF40
:102AF000070008D142466946304604F0E4FB06F57B
:102B000000766D1EEDD238460DF5007DBDE8F081F2
:102B1000CDE90003E30D52023046FFF7D0FA38B991
:102B2000FFF726FB0446FFF787F90028FBD10CB11D
:102B30000420E9E70020E7E7F0B50E460146ADF5D1
:102B4000017D1D0014464FF004002CD0002917D140
:102B5000B0074FF4007716D000200FE03A46314618
:102B6000684604F0B0FB2246641C0123694600203D
:102B7000FFF7E2FF002803D106F500766D1EEDD2C7
:102B80000DF5017DF0BDCDE90073E30D5202304635
:102B9000FFF758FB38B9FFF7D4FB0446FFF74CF9B1
:102BA0000028FBD10CB10420EAE70020E8E710B5CB
:102BB000144602004FF0040014D191B101290AD04B
:102BC000022902D003290CD103E04FF400702080C9
:102BD00007E0012004E00549002307C904F042FB97
:102BE0002060002010BD02487047000078010020DE
:102BF000000021462DE9F041044600790027F8B194
:102C0000266B04F134016078012332468846FFF7D1
:102C100093FF08B1012713E000202071606AE16989
:102C2000301A88420CD2E57808E0E06901230644B6
:102C3000607832464146FFF77FFF6D1E022DF4D2C9
:102C40003846BDE8F08170B50446006B0E4600259D
:102C5000B0420FD02046FFF7CDFF05000AD16078C3
:102C60000123324604F13401FFF729FF08B16E1E3B
:102C700001252663284670BD70B50446FFF7BAFFEC
:102C800005004FD12078032845D16079012842D131
:102C900004F1340062890021064602F0D5FA55207D
:102CA00084F83202AA2084F83302522084F83400D7
:102CB00084F83500612284F83620412084F83700FA
:102CC000722184F8181284F8191284F81A0284F810
:102CD0001B22606984F81C02010A84F81D12010C91
:102CE00084F81E12000E84F81F02206984F8200266
:102CF000010A84F82112010C84F82212000E84F8D3
:102D00002302226A0123521C226360783146FFF7B6
:102D100013FF00206071002260781146FFF747FF23
:102D200000B10125284670BD8269891E921E8A4223
:102D300001D800207047C26A807801FB00207047EC
:102D40002DE9F0410D46044602290BD3A069A842A3
:102D500008D920784FF0FF36012806D0022833D05A
:102D6000032845D0012630466BE7608905EB5507FF
:102D7000B7FBF0F0616A01442046FFF764FF0028CA
:102D8000F1D16089B7FBF0F100FB11717F1CB7FB3B
:102D9000F0F0214491F83480616A01442046FFF745
:102DA00052FF0028DFD16089B7FBF0F100FB117002
:102DB000204490F8341048EA0120E90701D00609C0
:102DC000D1E7C0F30B06CEE76089616A4008B5FB26
:102DD000F0F001442046FFF736FF0028C3D1618997
:102DE0006800B0FBF1F201FB12002044868EBAE7C6
:102DF0006089616A8008B5FBF0F001442046FFF766
:102E000022FF0028AFD16189A800B0FBF1F201FBDD
:102E10001200204490F83410D0F8350041EA002028
:102E200020F070469FE72DE9F04716460D46044610
:102E3000022902D3A069A84202D80220BDE8F08787
:102E4000207806F0FF084FF00109012825D002285C
:102E50005FD00328F1D16089616A8008B5FBF0F08A
:102E600001442046FFF7EFFE0028E7D16289A90060
:102E7000B1FBF2F302FB131121444FF07043D1F880
:102E8000352003EA0222324301F8342F130A4B7033
:102E9000130C8B70120ECA7052E0608905EB550757
:102EA000B7FBF0F0616A01442046FFF7CCFE002832
:102EB000C4D16089B7FBF0F100FB117020443430BD
:102EC0007F1CE90703D0017868F31F1100E0314649
:102ED000017084F804906089616AB7FBF0F00144E6
:102EE0002046FFF7B0FE0028A8D16189B7FBF1F2B8
:102EF00001FB127121443431EA0702D0C6F30712F4
:102F000005E00A78C6F3032302F0F0021A430A70C0
:102F100016E06089616A4008B5FBF0F00144204684
:102F2000FFF791FE002889D162896900B1FBF2F3B5
:102F300002FB13112144320A81F8348081F83520D4
:102F400084F804907AE72DE9F0410F4604460229FF
:102F500016D3A069B84213D900261FE0394620468F
:102F6000FFF7EEFE05001CD0012D09D0681C09D02A
:102F7000002239462046FFF756FF060011D103E034
:102F800002260EE001260CE06069411C05D0401CC1
:102F90006061607940F0010060712F46A069B8421D
:102FA000DCD830464DE62DE9F0410F00064605D04D
:102FB000FFF7C6FE022808D2012042E6356915B1A6
:102FC000B069A84207D8012505E0411CF5D0B169D8
:102FD0008142F2D83D462C46B069641CA04202D81A
:102FE0000224022D0AD321463046FFF7A9FE38B14C
:102FF000411CE2D00128E0D0AC42EDD1002020E617
:103000006FF0704221463046FFF70DFF30B957B1DF
:10301000224639463046FFF706FF20B101280DD081
:10302000012420460DE634617069411CF9D0401E30
:103030007061707940F001007071F2E74FF0FF3479
:10304000EFE770B5C18083680D460446012B3DD083
:1030500020688169994239D923B90178032906D1B9
:10306000836A23B1418980784E09464310E0018983
:10307000A9422BD9806A11E0FFF762FE0346401C8B
:1030800022D0022B22D32068806998421ED9AD1B22
:103090002068B5421946EFD2FFF746FEE360A8B1BB
:1030A00021684A895209B5FBF2F21044206148892F
:1030B0004009B5FBF0F200FB1250342202EB401045
:1030C00008446061002070BD012070BD022070BD09
:1030D0002DE9F041C78804467F1C38040E46000CD9
:1030E00033D0216989B3206842895209B7FBF2F3D2
:1030F00002FB1372002A58D1491C2161E16809B30F
:10310000428983785209B7FBF2F25B1E1A424CD116
:10311000FFF716FE054601281BD9681C31D0206830
:103120008169A9423BD886B1E168FFF73CFF050001
:103130000DD0012D0DD0681C23D02068FFF75AFD5B
:10314000F8B908E00089B8422FD8042079E50720B3
:1031500077E5022075E5206800214289343002F0CD
:1031600073F829462068FFF7DFFD216800264FF03D
:10317000010808630CE080F804802068FFF73AFD3E
:1031800008B101205DE52068016B491C761C0163D4
:1031900020688178B142EED8016B891B0163E5603C
:1031A00029462068FFF7C0FD2061E780206841893B
:1031B0004909B7FBF1F201FB1271342202EB411114
:1031C0000844606100203CE52DE9F04704460021F9
:1031D000FFF737FF002857D1FF254FF6FF79A846A4
:1031E000A4F8209021692068FFF72DFD07004AD13F
:1031F0006669307848B1F17AE52801F03F0139D0AD
:103200000A0704D50F2935D105E004273BE00F2933
:1032100001D0D5B11EE0E2697AB3410606D596F831
:103220000D8020F04000E18805462184A84209D1A4
:10323000717B414506D13146104602F036F808B19F
:103240006D1E00E0FF25EDB217E0304602F0ACF84D
:10325000404518D0A069C17AC9070BD10B210022C3
:10326000491E06D316F8012B10F8013BD21AF7D0ED
:1032700000E042B1FF25A4F8209000212046FFF78E
:1032800027FF0700AED03846D8E52DE9F35FFF25CC
:1032900004462E4604274FF6FF7A4FF0000B6CE0F1
:1032A0002068FFF7D0FC07006BD16269107888B105
:1032B000D17AE52801F03F010AD02E2808D021F06C
:1032C0002003082B08D00023DDF804C0634505D097
:1032D000FF2543E0042754E00123F5E70F2901D03F
:1032E000C5BB42E0410605D5567B20F04000E18891
:1032F00005462184A8422FD1507BB0422CD1508B5F
:10330000E76940BB1078012300F03F00401E00EB4E
:10331000800101EBC001DFF884970020D44619F842
:1033200000809044B8F8008033B1FF2914D227F808
:1033300011804346491C01E0E0450DD1401C0D2899
:10334000EDD31078400603D5FF2905D227F811B038
:103350006D1E02E00EE0FFE7FF25EDB200212046E2
:10336000FFF7B6FE070008D00BE0104602F01CF88D
:10337000B04208D0A4F820A005E0216900298FD12F
:103380000FB1C4F810B03846BDE8FC9F2DE9FF5FCF
:1033900004460C22D4E906763946684601F04CFF13
:1033A0009DF80B00C00718D00020F8720125E061DD
:1033B0002B4632466946384601F0B3FF2046FFF7F8
:1033C00003FF10B96D1C642DF2D3642D0BD00428BB
:1033D0000AD19DF80B00F872E6619DF80B0080079A
:1033E0000FD5002004E0072004B0BDE8F09F401C8A
:1033F00036F810100029FAD10D211930B0FBF1F583
:1034000000E0012500212046FFF71BFE88B90027B8
:1034100021692068FFF717FC58B961690978E52927
:103420000AD049B1002701212046FFF751FE0028AC
:10343000EED0042804D004E07F1CAF4201D0F2E7B4
:10344000072006006BD16D1E50D0E088411B20463E
:10345000FFF7F7FD060062D1A06901F0A5FF4FF666
:10346000FF7A039021692068FFF7EDFB060056D133
:103470006169D4F81C90039848730F20C87200202B
:1034800008738876EEB2C876701E00EB800202EBFD
:10349000C0030022DFF804B601F1010801E0504545
:1034A00002D039F813005B1C1BF802C001F80C00B5
:1034B0001BF802704FEA102C07F808C000B95046FC
:1034C000521C0D2AEBD3504502D039F8130008B92D
:1034D00046F040060E702168012008710021204648
:1034E000FFF7F6FD06001AD16D1EBBD121692068D9
:1034F000FFF7A9FB060012D120220021606901F02C
:10350000A3FED4E905010B2201F096FEA0696169D2
:10351000C07A00F018000873216801200871304655
:1035200062E72DE9F041018C0446C688A1F57F4091
:10353000FF3800D131462046FFF783FD05001ED13C
:10354000E5274FF0010821692068FFF77CFB0500A3
:1035500012D120220021606901F076FE60690770B7
:10356000216881F80480E088B04208D2002120461A
:10357000FFF7AEFD0500E6D0042D00D10225284658
:1035800010E52DE9F0410E4601F10905016969B325
:10359000002143692E275A5C491C202A18D0052A8D
:1035A00000D1E522092901D105F8017BA2F14104EE
:1035B000192C0BD893F80CC0092901D3102400E072
:1035C00008241CEA040F01D02032D2B205F8012BE6
:1035D0000B29E0D3D97A3172197FD3F81D2041EA43
:1035E00002213160198BB180D98AF1804FF0000837
:1035F00085F80080B769002F22D001690024E9B165
:10360000F169D9B1018CA1F57F42FF3A16D0C569A5
:1036100010E0002101F0DAFE40B1FF2802D9010AD2
:103620003955641CF169491EA14201D8002405E006
:103630003855641C35F8020B0028EAD107F80480DD
:10364000B0E42DE9F35F88460E6800E0761C307820
:103650002F28FBD05C28F9D0009800242546D0F80C
:103660001CB0705D6D1C202825D32F2823D05C282A
:1036700021D0FF2C3FD2A0F181017D290BD8715DB3
:103680006D1C01EB0020A1F1400280B23F2A02D361
:1036900080397F292FD2012101F098FE07002AD01E
:1036A000802F04D20146FEA001F0D5FD18BB2BF8F7
:1036B0001470641CD5E77219C8F80020202801D2C4
:1036C000042516E0002514E00BEB440030F8020C52
:1036D00020280DD02E280BD06CB100212BF814100F
:1036E00000980B222021806901F0AEFD002705E043
:1036F000641E002CE8D1062046E67F1C3BF817002C
:103700002028FAD02E28F8D01FB145F0030500E09C
:10371000641E2CB10BEB440030F8020C2E28F7D1BC
:103720004FF00008C1464FF0080A3BF817607F1CB5
:1037300006B3202E03D02E2E04D1A74202D045F08E
:103740000305F2E7D04501D2A74219D1BAF10B0F18
:103750000ED0A74201D045F003050BD84FEA89608F
:1037600027464FF008084FF00B0A4FEA1069DCE7D4
:1037700045F00305009880690178E5293DD03EE0D9
:10378000802E08D3304601F043FE002101F01EFEDA
:10379000064645F00205FF2E0FD9AAF1010080452B
:1037A00003D345F00305D046BFE70098310A82698C
:1037B00002F8081008F1010818E026B13146BBA054
:1037C00001F049FD18B15F2645F003050EE0A6F1B2
:1037D0004100192802D849F0020907E0A6F161006A
:1037E000192803D8203E49F00109B6B20098816932
:1037F00001F8086008F1010897E705210170BAF1A6
:10380000080F03D14FEA89604FEA1069C9F38100BC
:10381000032803D06FEA0901890701D145F00205A9
:10382000A90709D409F00301012901D145F01005C8
:10383000012801D145F0080500988069C572002073
:10384000A2E573B50446019908782F2801D05C28B9
:1038500001D1491C01910025A5600198007820281C
:1038600005D200212046FFF7ECFB65617CBD01A974
:103870002046FFF7E6FE0028F8D12046FFF7A4FC1B
:10388000A169C97A28B10428F0D14907EED40520EE
:103890007CBD4907FCD46169C87AC006F7D52068A9
:1038A00001F0F2FCA060E2E710B503464FF0FF30F4
:1038B0001C68002C13D0214600E0491C0A78202AFD
:1038C0000ED33A2AF9D114F8012B303A0A2A06D23B
:1038D0008C4204D1022A02D2491C1046196010BD44
:1038E000002010BD10B5044600202071401E20634A
:1038F0002046FFF7A8F908B1032010BDB4F8320242
:10390000A0F52A41553901D0022010BD94F86A0073
:10391000B4F86B1040EA01216648B0EB012F08D0E3
:1039200094F88610B4F8872041EA0221B0EB012F09
:1039300001D1002010BD012010BD2DE9FF474FF03F
:10394000000A0746C0F800A016460846FFF7ACFF7D
:10395000050002D50B2004B096E4574850F82540E6
:10396000ACB1204601F07FFC98B13C60207820B1DA
:103970006078FFF795F8C1070DD084F800A0E8B291
:103980006070FFF793F8C1070AD00320E3E70C202B
:10399000E1E70F20DFE70EB1400704D40020DAE7AB
:1039A0001EB1400701D50A20D5E7607804F10A026C
:1039B0000221FFF7FCF8A0BB6089B0F5007F31D38E
:1039C000B0F5805F2ED8002529462046FFF78AFFF4
:1039D000012822D100206E4604EB001191F8F62157
:1039E00001F5F9712AB10A7AD1F8091042EA0121E8
:1039F00000E0002146F82010401C0428ECD30027EA
:103A000056F8275025B129462046FFF76BFF00E006
:103A1000022048B17F1C042FF2D3032802D0D8BB68
:103A200002E0FFE7012096E7B4F83F006289904288
:103A300074D1B4F84A0028B994F85800D4F8591051
:103A400040EA0120E06194F844708146E770012F5C
:103A500001D0022F62D194F841604743A670DEB1D5
:103A6000701E06425AD1B4F845104FEA521CB1FB01
:103A7000FCF00CFB1010218170B9B4F8470028B994
:103A800094F85400D4F8553040EA0320B4F842309A
:103A900013B1B1FBFCFC11E040E0000070750008C0
:103AA000222A3A3C3E3F7C7F000000002B2C3B3D0D
:103AB0005B5D0000004641549400002003EB0708C2
:103AC000C44460452AD3A0EB0C00B0FBF6F028B349
:103AD000012640F6F678404500D302264FF6F678E8
:103AE000404500D30326801CAC44C4F82CC02B44B2
:103AF000A061C4E90853032E12D079B1D919A1628B
:103B0000022E18D000F0010100EB400001EB500044
:103B1000401E1044B0FBF2F149450ED90D201AE7C2
:103B20000029FBD194F86010D4F86130800041EA9C
:103B30000321A162ECE74000EAE74FF0FF3060614B
:103B4000206180206071032E30D1B4F86400012818
:103B50002CD12046691CFFF776F838BB84F805A005
:103B6000B4F83202A0F52A4155391FD194F8340037
:103B7000D4F8351040EA0120FB49884216D194F868
:103B80001802D4F8191240EA0120F84988420DD1F0
:103B900094F81C02D4F81D1240EA0120606194F8E8
:103BA0002002D4F8211240EA01202061F049267059
:103BB0000888401C0880E080F0E610B504000CD0B6
:103BC000206850B1017841B1C188A288914204D1E6
:103BD0004078FEF765FFC00701D0092010BD2068BE
:103BE00001F041FB08B1002010BD0F2010BD2DE9F0
:103BF000F74181B09046029800906846FFF754FE66
:103C0000040002D50B2004B0BAE4D94E361D0027BB
:103C100056F8245025B1E86801F030FC88B12F70C7
:103C2000019929B101F80C7BE0B201F01DFC40B113
:103C3000019846F8240010B1B8F1010F03D000201C
:103C4000E1E70220DFE7002202A901A8FFF775FEE5
:103C500004460146019801F009FB2046D3E72DE90F
:103C6000F747ADF50D7D06000ED04FF0000802F0CD
:103C70001F0727F001028EA980A8C6F80080FFF771
:103C80005CFE050005D08CE009200DF5107DBDE837
:103C9000F08789A88690CDF81CD280A88E99FFF76E
:103CA000D0FD859C050001D104B9062517F01C0F35
:103CB0004ED055B1042D03D180A8FFF767FB054610
:103CC000859C47F0080745B16BE0E07A10F0110FD2
:103CD00048D1780701D5082563E0380748D5FEF7B5
:103CE00082FFA073010AE173020C2274030E637455
:103CF000A075E1752276637684F80B8084F81C80C9
:103D000084F81D8084F81E8084F81F8021468098E6
:103D100001F0BAFA81460021204601F0BEFA8099EE
:103D20000120B9F1000F087120D080984946D0F8E1
:103D300030A0FFF708F9050033D18099A9F10100FF
:103D4000086151468098FEF77EFF05000CD028E000
:103D50003DBBE07AC10601D5042522E0B90703D5B1
:103D6000C00701D007251CE0380701D547F0200720
:103D700080982146006BC6E90704B77186F8078072
:103D80004746809801F080FA3061207FD4F81D10FA
:103D900040EA0120C6E90270B76180983060C088AF
:103DA000B0802946809801F061FA28466DE72DE938
:103DB000F84F894600219A46164604461960FFF7D7
:103DC000FCFE050006D02946206801F04FFA28467F
:103DD000BDE8F88FE17921B1206801F047FAE07978
:103DE000F6E7A079C0070BD0D4E90210401A04F11D
:103DF00024014FF0010B0091864200D9064697E05E
:103E00000721206801F032FA0720E1E72268A06864
:103E10005189B0FBF1F301FB1303002B69D1B0FB17
:103E2000F1F193785B1E194011F0FF0509D108B339
:103E300010466169FEF784FF02281DD3411C4ED055
:103E4000606161692068FEF76FFFA8B100EB0508AB
:103E500020684189B6FBF1F74FB38178EA198A42AD
:103E600000D94F1B40783B4642464946FEF727FEA5
:103E7000A8BB09E02069DFE70220E0710221206889
:103E800001F0F4F90220A3E7A07940060BD5A1695F
:103E9000A1EB0800B84206D221684A89009900FBCC
:103EA000029001F0C9F9206845897D4336E0A26996
:103EB00042451CD0A179490609D5407801230099D3
:103EC000FEF73AFE58B9A07920F04000A0712068B2
:103ED0000123424640780099FEF7F1FD38B184F89D
:103EE00007B00121206801F0C1F9012070E7C4F892
:103EF00018802068A1684089B1FBF0F200FB121223
:103F0000851AB54200D93546B1FBF0F200FB12101C
:103F100001192A464846243101F08EF9A068A944C7
:103F20002844A060DAF800004119761BCAF8001096
:103F3000002E7FF46BAF0021206801F097F900207C
:103F400046E72DE9F84F894600219A461546044672
:103F50001960FFF732FE06000CD03146206801F0F0
:103F600085F9304634E70000525261417272416176
:103F700090000020E17921B1206801F077F9E07923
:103F800026E7A079800705D40721206801F06EF9A3
:103F900007201DE7A06804F1240142194FF0010B2E
:103FA000009182426AD3A6E02268A0685189B0FBE2
:103FB000F1F301FB1303002B7AD1B0FBF1F19378FD
:103FC0005B1E194011F0FF0612D108B1616902E0D1
:103FD000206928B900211046FEF7E5FF00284DD0E2
:103FE00001282DD0411C58D06061216901B92061A0
:103FF000A07940060BD520680123A269407800997A
:10400000FEF79AFDC0BBA07920F04000A071616965
:104010002068FEF789FE98B100EB06082068418908
:10402000B5FBF1F74FB38178F2198A4200D98F1BA3
:1040300040783B4642464946FEF77EFDE0B907E040
:104040000220E0710221206801F010F90220BFE691
:10405000A169A1EB0800B8420AD221684A8900FB95
:104060000291009801F0E8F8A07920F04000A071DA
:10407000206846897E4334E00FE000E03EE0A2691C
:10408000424513D0D4E9021291420FD24078012365
:1040900042460099FEF713FD40B184F807B00121B4
:1040A000206801F0E3F8012092E601E0C4F81880EE
:1040B0002068A1684089B1FBF0F200FB1212861A59
:1040C000AE4200D92E46B1FBF0F200FB12102044A4
:1040D00032464946243001F0AFF8A07940F0400064
:1040E000A071A068B1443044A060DAF800008119E2
:1040F000AD1BCAF80010002D7FF456AFD4E90201C1
:10410000884200D9E060A079002140F02000A07131
:10411000206801F0ABF800205AE670B50446FFF7BE
:104120004CFD050048D1A079810645D5400612D541
:104130002068012304F124014078A269FEF7FCFC09
:1041400028B10121206801F091F8012070BDA0790B
:1041500020F04000A071E1692068FEF774FD0500C1
:104160002AD1256AE87A40F02000E872207B28777F
:10417000A089000A6877E068000CA877E068000E64
:10418000E8772846216901F088F8FEF72CFDA8752C
:10419000010AE975010C2976000E68760020A874E2
:1041A000E874A07920F02000A07121680120087136
:1041B0002068FEF761FD05462946206801F056F8A3
:1041C000284670BD70B50546FFF7A7FF040009D16A
:1041D0002846FFF7F2FC040004D10021286829607A
:1041E00001F044F8204670BD2DE9F0470D46044625
:1041F000FFF7E3FC5FEA00087BD1E17921B1206899
:1042000001F034F8E07942E5E068A84203D2A179F0
:10421000890700D405460027A1684FF00109A7606F
:104220000DB320684FF0020A86784289564369B17F
:104230006A1E491EB2FBF6F2B1FBF6F39A4205D3B1
:10424000701E81436D1AA16061690BE0216941B95B
:104250000021FEF7A8FE014601284BD0481C5DD086
:1042600021616161D1B92DE0A0798007206805D571
:10427000FEF799FE010004D1354611E0FEF760FD1E
:104280000146481C4AD0012934D9206880698842F7
:1042900030D96161A068AD1B3044A060B542E3D85D
:1042A000A0682844A06020684289B5FBF2F302FBB5
:1042B00013523AB1FEF738FDE0B121684989B5FBE8
:1042C000F1F10F182068A1684289B1FBF2F302FBFB
:1042D000131161B3A269BA4229D0A17904F124056E
:1042E000490613D5407801232946FEF725FCA8B9D5
:1042F00008E025E084F807A00221206800F0B6FF5E
:104300000220C4E4A07920F04000A07120680123BD
:104310003A4640782946FEF7D2FB38B184F8079038
:104320000121206800F0A2FF0120B0E4A761D4E9D8
:104330000201884204D9E060A07940F02000A07119
:104340004146206800F092FF4046A0E433B5ADF549
:10435000057D050007D0002286A980A8FFF7EDFAA9
:10436000040004D023E009200DF5077D30BD8098BE
:10437000286081A8A861C5F81CD028468699FFF757
:1043800060FA040010D1696931B1C87AC00616D547
:10439000809800F079FFA86080980021C088A880EC
:1043A0002846FEF74EFE0446042C08D00CB100202F
:1043B00028602146809800F059FF2046D4E7052464
:1043C000F5E770B50546FFF7F8FB040004D10021BE
:1043D0002868296000F04AFF204670BDF0B5ADF5B1
:1043E000037D0F460546FFF7E8FB040022D16FB1BD
:1043F00080A8A861C5F81CD000212846FEF745FF1B
:1044000000260446042807D03CB113E000212846CA
:10441000FEF717FE04460DE02E6139462846FFF7E9
:10442000B0F800212846FEF753FE0446042801D1C7
:1044300000242E612146286800F018FF0DF5037D49
:104440002046F0BD33B5ADF50D7D0D4600228DA99A
:1044500080A8FFF772FA040012D189A88690CDF8DF
:104460001CD280A88D99FFF7ECF9040008D185983B
:1044700028B12DB1294680A8FFF783F800E0062473
:104480002146809800F0F2FE20460DF50F7D30BDEC
:104490002DE9F74F14468A46002269462046FFF769
:1044A0004CFA25685FEA00084ED1D5E90507B91E28
:1044B000884202D8CAF8000046E095F8009000242F
:1044C000B9F1010F01D06E6A16E002263146284686
:1044D000FEF736FC411C03D0012803D028B105E0CB
:1044E000012000E00220804627E0641CA869761CB9
:1044F0008642EBD321E051B93146761C2846FEF7BF
:10450000A2FB5FEA000818D1698905F13400B9F10E
:10451000020F07D00278D0F8013042EA03221201DC
:1045200006D006E0028802B9641C801C891E02E0E5
:10453000641C001D091F7F1EDDD16C61687940F08D
:1045400001006871CAF800404146284600F08EFE1E
:104550004046BDE8FE8F70B50446FFF72EFB050010
:104560003DD1E07918B10546280005D037E0A079A3
:10457000800701D4072532E0D4E9020181422ED917
:10458000E060A17941F02001A17150B1616920681A
:10459000FEF7D6FB0646401C0BD0012E0BD065B1B2
:1045A0001CE021692068FEF7CEFC05460020206152
:1045B00013E0012512E0022510E020688169B14274
:1045C00013D96FF070426169FEF72DFC050005D12B
:1045D00031462068FEF7B7FC054635B1E57129463E
:1045E000206800F043FE284670BDA0794006F6D54D
:1045F0002068012304F124014078A269FEF79CFAA7
:104600000028D6D1A07920F04000A071E7E731B5AD
:10461000ADF5167D012296A980A8FFF78EF904005A
:1046200040D192A88690CDF81CD280A89699FFF729
:1046300008F9040036D1859C24B1E07AC00703D084
:1046400007242FE006242DE02146809800F01CFE70
:10465000050017D0E07AC00614D5242280A989A8C5
:1046600000F0EAFD022189A88B95FEF7EAFC040020
:1046700018D1002189A8FEF708FE0400E0D0042C20
:1046800000D07CB980A8FEF74CFF04000AD12DB100
:1046900029468098FEF757FC040003D18098FEF766
:1046A000EBFA04462146809800F0E0FD0DF5177DF9
:1046B000204630BD2DE9F14FADF50E7DFEF793FAA2
:1046C000064601228EA980A8FFF737F904000BD116
:1046D0008BA88690CDF81CD280A88E99FFF7B1F8F0
:1046E000040002D0042C02D094E0082492E00021BF
:1046F0008098FEF758FC5FEA00084FF0000403D0F2
:10470000B8F1010F02D002E0072400E00224B8F162
:10471000FF3F01D014B163E0012461E08098FEF70F
:1047200069FA04005CD141468098FEF7FDFA809D4D
:10473000074600216A893435284600F085FD0B22A2
:104740002021284600F080FD2E242C701020E872D5
:10475000F0B28A90A875C6F307208990E875C6F371
:10476000074B85F818B04FEA166A85F819A041463C
:10477000284600F092FD05F1200020222946064639
:1047800000F05AFD85F8214080988299007803282E
:1047900004D18098806A884200D10021304600F020
:1047A0007CFD80984FF00109867812E080980763BD
:1047B00080997F1C81F804908098FEF71BFA040012
:1047C0000ED1809800214289284600F03DFD761EDA
:1047D000F6B2002EEAD180A8FEF7D8FD040004D07E
:1047E00041468098FEF7AFFB14E085981021C17216
:1047F0008A9981758999C17580F818B080F819A0D7
:10480000414600F04AFD809981F804908098FEF7B7
:1048100033FA04462146809800F028FD0DF50F7DFF
:104820002046BDE8F08F77B5ADF50D7D16460D46F7
:1048300001228DA980A8FFF780F8040019D189A86A
:104840008690CDF81CD280A88D99FEF7FAFF04005F
:104850000FD18598A8B106F02701C27A0D408A438E
:104860001543C5728099012008718098FEF704FAFB
:1048700004462146809800F0F9FC0DF5107D204695
:1048800070BD0624F5E733B5ADF51B7D01229BA96C
:1048900080A8FFF752F804006ED18098899098A8FC
:1048A0008690CDF81CD280A89B99FEF7CAFF040021
:1048B00062D18598C0B100F10B01152292A800F0D9
:1048C000BBFC242280A989A800F0B6FC9CA8FEF7B6
:1048D000EBFF00280ADB89A89C99FEF7B2FF0400D1
:1048E00006D0042C06D047E0042445E00B2443E026
:1048F000082441E089A8FEF749FD04003CD18E9CC4
:1049000013220DF24A2104F10D0000F095FC9DF8F0
:104910004802012540F02000E07280980571E07A9D
:10492000C00620D58B99829888421CD02146809859
:1049300000F0AAFC01468098FEF7F6F9010008D0C5
:104940008098FEF780F90400809800F1540002D0AE
:1049500012E0022410E041782E2904D18B9900F056
:104960009CFC8098057180A8FEF7DBFD040003D154
:104970008098FEF781F904462146809800F076FC85
:104980000DF51D7D204630BD33B5ADF50D7D0D46D1
:1049900001228DA980A8FEF7D0FF04001CD189A8B0
:1049A0008690CDF81CD280A88D99FEF74AFF0400AE
:1049B00012D18598B0B1A9798175E988090AC175C4
:1049C00029790176A988090A417680990120087120
:1049D0008098FEF751F904462146809800F046FC85
:1049E000204652E50624F7E72DE9F74F86B09046BA
:1049F0000798012802D9132009B012E706A8FEF78C
:104A000053FF002801DA0B20F6E7F84951F820603F
:104A10004EB100213170C0B20290FEF747F8C107D5
:104A200003D00320E8E70C20E6E7400701D50A2081
:104A3000E2E706F10A0202210298FEF7B8F8002820
:104A400076D17089B0F5805F72D8B0F5007F6FD3F2
:104A500003AA01210298FEF7AAF80028F0D10398D2
:104A60008028F4D3079909B1002100E03F218A464C
:104A7000A0EB0A01A8F1010218EA020F039102D18A
:104A8000B8F1000F13D170894FF4FA62400AB2FBFB
:104A9000F0F0B1FBF0F20020D54B00E0401C33F801
:104AA00010509542FAD8D24A163232F81080B8F532
:104AB000007F02D37289B8FBF2F8B8F1000F12D070
:104AC000B8F1800F01D980208046B1FBF8F00127B2
:104AD00040F6F672904200D302274FF6F6729042EB
:104AE00003D3032725E00120EEE7032F21D0012F78
:104AF00029D04200121D7089521E0244B2FBF0F907
:104B00000125AA03B2FBF0F004900AEB050B049A0E
:104B10000BEB0900841804EB0802A2EB0A008842A0
:104B200044D86A4603210298FEF741F8B0B910E074
:104B3000FFE07289072303EB80001044B0FBF2F919
:104B400020250020E0E700EB4000401C4208D21C7A
:104B5000D1E7009810B1B0F5004F01D901200090C5
:104B60002118401E491E8143081B0090032F10D0BE
:104B7000814403980499421BA2EB0902521AB2FB2A
:104B8000F8F10591022F07D0032F0AD0012F11D081
:104B900015E005448344ECE740F6F672914205D3F4
:104BA0000DE008464FF6F671884201D20E2023E749
:104BB0000C240AE0B0F5803F06D2012405E0B0F5F0
:104BC000803F01D2042400E00624079808B1F020B9
:104BD00038E0728906F134000021019000F034FBC6
:104BE00006F5F9700121417081700022C2700471D4
:104BF000FE214171039B0AEB030143F6C163B1FB44
:104C0000F3F13F2343EA910400918471C17103726F
:104C100042728272C272039901730A0A42730A0CC9
:104C20008273090EC173552086F83202AA2086F8D5
:104C30003302DDE9011001230022FDF77DFF00288A
:104C400077D1F820019006F13404728900212046C2
:104C500000F0FAFA0B2267A1204600F0EDFA708905
:104C6000E072000A207384F80D80A573280AE073AF
:104C700001202074032F0BD040026074000AA0743E
:104C80000398B0F5803F05D2E074000A20750CE06F
:104C90000020F2E784F82000010A84F82110010CBA
:104CA00084F82210000E84F82300019860753F20DC
:104CB000207600206076FF21A176E07684F81CA0A3
:104CC0004FEA1A2060774FEA1A40A0774FEA1A603D
:104CD000E077FDF788FF802129220090032F29D05B
:104CE00084F82700030A84F82830030C84F829305C
:104CF000000E84F82A0084F816904FEA1920E07517
:104D000084F8241084F8262013223DA104F12B00FE
:104D100000F092FA552084F8FE01AA2084F8FF01E1
:104D20000123524621460298FDF706FF002800D1D4
:104D300036E0D8E084F84300030A84F84430030CDA
:104D400084F84530000E84F8460084F824904FEA39
:104D5000192084F825004FEA194084F826004FEA0C
:104D6000196084F82700022084F82C00002084F8C1
:104D70002D0084F82E0084F82F00012384F83030B1
:104D800084F83100062384F8323084F8330084F844
:104D9000401084F8422013221EA104F14700B7E717
:104DA000032F06D101230AF1060221460298FDF7DE
:104DB000C3FE5D464FF0000B72890021204600F0D3
:104DC00043FA01980090032F30D0012F2CD06FF0C0
:104DD000FF010143009121700098000A6070009863
:104DE000000CA0700098000EE07036E094000020E7
:104DF0007E750008EBFE904D53444F53352E300026
:104E00004E4F204E414D4520202020464154202029
:104E1000202020004E4F204E414D4520202020468E
:104E20004154333220202000FE49D2E760F0FF00D9
:104E3000009020700098000A60700098000CA0702C
:104E40000098000EE070FF2020716071A071E07189
:104E500020726072A0720F20E0722A466D1C01233E
:104E600021460298FDF768FEE8BB728900212046C2
:104E700000F0EAF9012009E02A466D1C01232146D1
:104E80000298FDF759FE70BB0098401C0090484501
:104E9000F2D30BF101005FEA000B8DD0032F09D094
:104EA000049E2A466D1C012321460298FDF744FE0C
:104EB000C8B901E04646F4E7761EF2D1032F3CD193
:104EC0005220207060706122A2704120E070722137
:104ED00084F8E41184F8E51184F8E60184F8E72108
:104EE0000598401E00E030E084F8E801010A84F8EB
:104EF000E911010C84F8EA11000E84F8EB0102209C
:104F000084F8EC01002084F8ED0184F8EE0184F8C7
:104F1000EF01552084F8FE01AA2084F8FF01012347
:104F20000AF1010221460298FDF706FE01230AF16B
:104F3000070221460298FDF7FFFD00221146029864
:104F4000FDF735FE00283FF45FAD012054E52DE963
:104F5000FC4100259046074604464E1E0FE001AB7B
:104F6000012269464046FEF722FF0198012808D138
:104F70009DF800006D1C04F8010B0A2801D0B54211
:104F8000EDDB0020207015B13846BDE8FC81002023
:104F9000FBE738B545680446002D16DB60196D1C2B
:104FA00001733D2D0DDB6B462A4604F10C01206890
:104FB000FEF7C7FF0098A84201D1002501E04FF09D
:104FC000FF356560A068401CA06038BD00B595B095
:104FD0000291002103910491014602A8FFF7D9FF35
:104FE000039800280DDB024601AB05A90298FEF7E5
:104FF000A8FF30B901990398884202D1049815B0EE
:1050000000BD4FF0FF30FAE710B596B0044600201F
:10501000CDE90210049003E002A8641CFFF7B9FF79
:1050200021780029F8D1039800280DDB024601AB56
:1050300005A90298FEF785FF30B9019903988842C7
:1050400002D1049816B010BD4FF0FF30FAE70FB44C
:105050002DE9F0479AB024AE0290002003900DF1A4
:1050600054090490239810F8011B2390002973D051
:10507000252903D002A8FFF78CFFF3E7002510F8DD
:10508000011B2F462390302902D02D2902D00FE09A
:10509000012500E0022510F8011B239008E007EB32
:1050A000870001EB40072398303F10F8011B239045
:1050B000A1F130000928F2D96C2901D04C2905D181
:1050C000239845F0040510F8011B2390002943D0D4
:1050D000A1F161000A46192801D8203AD2B24F2A1C
:1050E00040D006DC422A3BD0432A36D0442AC1D1E4
:1050F0003AE0532A08D0552A36D0582ABAD110237C
:1051000001CE442A32D036E056F8048B002400E069
:10511000641C18F804000028FAD1A80704D50DE093
:10512000202102A8FFF735FF2046641CB842F7D3C0
:1051300004E008F1010802A8FFF72BFF98F800101F
:105140000029F6D103E0202102A8FFF722FF204624
:10515000641CB84286D2F6E754E016F8041B89E7CF
:105160000223CDE70823CBE70A23C9E7002802DAA8
:10517000404245F008050024CC46B0FBF3F203FBA7
:105180001202B0FBF3F0D2B2092A05D9782915D062
:105190004FF007084244D2B230320CF80420641CAD
:1051A00008B1102CE9D3280703D52D2009F80400F5
:1051B000641CA046E80704D0302003E04FF0270825
:1051C000E8E72020824603E0514602A8FFF7E1FE0F
:1051D000A80704D4414608F10108B942F4D34D466A
:1051E000641E02A8295DFFF7D4FE002CF8D103E06D
:1051F000514602A8FFF7CDFE414608F10108B94229
:10520000A8D2F5E70398002813DB024601AB05A9F5
:105210000298FEF796FE60B901990398884208D17A
:10522000049801E000FFFF001AB0BDE8F0075DF848
:1052300014FB4FF0FF30F4E703E011F8013B00F8F6
:10524000013B521EF9D27047C9B201E000F8011BC0
:10525000521EFBD2704700E0401C02780AB18A421D
:10526000FAD1D0B27047C06800F00DB900280AD05A
:105270000C2908D00B2906D0092904D00F2902D007
:10528000C06800F00BB970470246488B1278032AB9
:1052900002D1898A40EA0140704781760A0AC276C3
:1052A0000A0C0275090E417570472DE9F05F8146C1
:1052B000488B884680BB98F80000DFF808A100F012
:1052C0003F00401E00EB800101EBC00401200025DF
:1052D0004FF6FF7B1AF8052002EB08010E8870B12B
:1052E000FF2C19D2304600F093F8074639F8140025
:1052F000641C00F08DF887420ED1304601E05E4517
:105300000AD16D1C0D2DE5D398F80010490606D57D
:1053100028B139F8140010B10020BDE8F09F012039
:10532000FBE77CB516461C4605460B22FFF784FFBB
:10533000052C11D9244A0CE00021B61C2346044652
:1053400063F35F044008E30300D55440491C10296F
:10535000F4D330880028EFD107226B4604F00F0009
:105360003030392800D9C01D9854521E2409F5D177
:105370007E2000219854541E06E081387D2802D8F2
:10538000A14206D0491C491C914202D2685C2028E7
:10539000F3D1082A02D2985C521C00E02020685405
:1053A000491C0829F5D37CBD014600200B22430887
:1053B00003EBC01011F8013B521E1844C0B2F6D1E5
:1053C00070470000707500082110010070B580283A
:1053D0001BD345F2205409B11F4D00E01F4D00239F
:1053E0001022E11A01EBD17103EB610135F8216064
:1053F000864206D001D20B4600E00C46521EF0D188
:1054000004E01AB105EB8100408870BD002070BD3A
:1054100070B5802806D2A0F16101192901D8203881
:1054200080B270BD0C230E4D00224FF4F774A11A08
:1054300002EB510135F81160864206D001D20A46CE
:1054400000E00C465B1EF2D170BD002BFCD005487D
:1054500030F8110070BD00002ECA0108AA750008BE
:10546000B21E03088E22030810B50C46012000F07E
:10547000D2F92060002800D0012010BD10B500F046
:1054800023FC012010BD10B500234FF47A72194699
:1054900000F09FFA012800D0002010BD00231A461A
:1054A000194600F012B900F108014FF0FF32C0E9CF
:1054B0000112C1600161002101607047002101619A
:1054C000704742684A6093688B6093685960916046
:1054D00008610168491C0160704730B50C68621CA6
:1054E00002D000F1080202E0026904E01A465368A3
:1054F0001D68A542FAD953684B6099608A60516073
:1055000008610168491C016030BDD0E901320169C0
:105510009A60D0E901235A604A68824201D18268C8
:105520004A60002202610868401E0860704700005F
:1055300070B50D46040005D140F21B12F7A1FEA084
:1055400001F01AFF01F004FED4E90F20216802FBEC
:10555000001161600021A1632168A1600A46D4E9BD
:105560000F01401E00FB0121E16021464FF0FF309A
:1055700001F8440F487004F110004DB1FFF793FF9C
:1055800004F12400FFF78FFF01F0FCFD012070BD46
:1055900021690029F8D001F0B0F80028F4D0EA49D8
:1055A0004FF080500860BFF34F8FBFF36F8FEBE772
:1055B00070B50E46050005D14FF4C472D7A1DEA028
:1055C00001F0DAFE96B105FB06F0483001F06AFC06
:1055D000040009D004F1480120464EB10160C0E941
:1055E0000F560121FFF7A4FF204670BD0020ECE715
:1055F0000060F4E72DE9F041044601F0A9FD94F9BB
:10560000455004F1240609E0606A48B1304601F0D3
:1056100074F808B101F023F96D1E6DB2002DF3DCB2
:105620004FF0FF3684F8456001F0ACFD01F090FDCD
:1056300094F9445004F1100709E0206948B1384654
:1056400001F05BF808B101F00AF96D1E6DB2002D92
:10565000F3DC84F84460BDE8F04101F093BD2DE92E
:10566000F041856B174604460026026C82B1C7B133
:10567000E06801F028FEE168206C091AE160226808
:10568000914202D26168081AE060022F16D017E03A
:105690002068A8B9606801F032F906460020606011
:1056A0000EE0A06801F00FFE216CA0680844A06025
:1056B0006168884204D32068A06001E005B16D1ED6
:1056C0006D1CA5633046BDE8F0812DE9FF4F83B026
:1056D0001F468B4604004FF0000605D140F2D92248
:1056E0008EA195A001F048FEBBF1000F07D1206C00
:1056F00028B140F2DA2289A18FA001F03DFE022FED
:1057000008D1E06B012805D040F2DB2283A18AA0FA
:1057100001F032FE01F0AAF838B9059828B140F23C
:10572000DE227EA184A001F027FE4FF0000A4FF098
:105730008058DFF8149201F00BFDA06BE16B8842FA
:1057400005D3022F03D00598C8B1DEB11EE03A465A
:1057500059462046FFF783FF616A19B104F124001E
:1057600000F0CBFF28B1C9F80080BFF34F8FBFF323
:105770006F8F01F007FD012007B0BDE8F08F01F049
:1057800001FD21E0684601F026F8012601F0FAFC4F
:1057900000F0C6FC01F0DCFC94F94400401C01D18F
:1057A00084F844A094F94500401C01D184F845A038
:1057B00001F0E8FC05A9684601F01EF830B120466A
:1057C000FFF718FF00F01EFC0020D5E701F0C0FC39
:1057D000A06BE16B884201D1012500E0002501F0BA
:1057E000D1FC95B104F11000059900F048FF204666
:1057F000FFF700FF00F006FC00289CD1C9F80080EC
:10580000BFF34F8FBFF36F8F95E72046FFF7F2FE90
:1058100000F0F8FB8FE710B5024600210120FFF7EA
:10582000C7FE041E07D00021416001600B460A46F6
:10583000C160FFF74AFF204610BD2DE9F0471F4623
:1058400090468946040005D140F29F3233A13AA028
:1058500001F092FDB9F1000F07D1206C28B14FF48F
:1058600068722EA134A001F087FD022F08D1E06BF1
:10587000012805D040F2A13228A12FA001F07CFD23
:1058800001F0A5FC5020EFF3118680F31188BFF3DF
:105890004F8FBFF36F8FA06BE16B884206D3022F4F
:1058A00004D0002086F31188BDE8F08794F94550B4
:1058B0003A4649462046FFF7D2FE681C04D06D1CCC
:1058C00084F845500120EDE7606A0028FAD004F121
:1058D000240000F012FF0028F4D0B8F1000FF1D03E
:1058E0000121C8F80010EDE770B50E46040005D19F
:1058F00040F23C4209A110A001F03EFD206C28B10D
:105900004FF4886205A10CA001F036FD206808BBA9
:105910006068F8B140F2454200A117E02E2E5C2EDF
:105920002E5C4672656552544F535C7372635C71B2
:10593000756575652E6300004572726F723A257346
:105940002C25640D0A00000004ED00E0AFF2180001
:1059500001F012FD01F03BFC5020EFF3118580F3C4
:105960001188BFF34F8FBFF36F8FA16BE06B88423D
:1059700018D994F94500491CA163411C04D0401C6E
:1059800084F8450001200EE0606A0028FAD004F196
:10599000240000F0B2FE0028F4D0002EF2D0012046
:1059A0003060EFE7002085F3118870BD30B4026CE1
:1059B0000B46002A0BD0C1681144C1604468A14263
:1059C00001D30168C16030BC184601F07CBC30BC1A
:1059D00070472DE9FF4F83B09B468A4604004FF085
:1059E000000607D140F2DC42AFF2D001AFF2B800BE
:1059F00001F0C2FCBAF1000F09D1206C38B140F2BD
:105A0000DD42AFF2E801AFF2D00001F0B5FC00F0EA
:105A10002DFF48B9059838B14FF49C62AFF20411DC
:105A2000AFF2EC0001F0A8FC4FF000094FF08057F6
:105A3000DFF8608301F08CFBA56B35B3514620463F
:105A4000E668FFF7B3FFBBF1000F11D0E660606AB4
:105A500050B104F1240000F050FE28B1C8F80070E5
:105A6000BFF34F8FBFF36F8F01F08CFB012083E6F4
:105A70006D1EA563206810B900F093FF6060206977
:105A80000028F1D004F11000E5E7059808B11EB137
:105A900006E001F077FB27E0684600F09CFE012657
:105AA00001F070FB00F03CFB01F052FB94F9440064
:105AB000401C01D184F8449094F94500401C01D168
:105AC00084F8459001F05EFB05A9684600F094FE5D
:105AD000002820460AD0FFF78DFD00F093FA2046FB
